:020000040800F2
:10000000907D002051030008133800088136000855
:1000100011380008F52A00085D4C000800000000B7
:10002000000000000000000000000000990200082D
:10003000652F000800000000ED0200085D45000883
:100040006B0300086B0300086B0300086B030008D8
:100050006B0300086B0300086B0300086B030008C8
:100060006B0300086B0300086B0300086B030008B8
:100070006B0300086B0300086B0300086B030008A8
:100080006B0300086B0300086B0300086B03000898
:100090006B0300086B0300086B0300086B03000888
:1000A0006B0300086B0300086B0300086B03000878
:1000B0006B030008CD4500086B0300086B030008C4
:1000C0006B0300086B0300086B0300086B03000858
:1000D0006B030008494800086B030008AD4800089E
:1000E0006B0300086B0300086B0300086B03000838
:1000F0006B0300086B0300086B0300086B03000828
:100100006B0300086B0300086B0300086B03000817
:100110006B0300086B0300086B0300086B03000807
:10012000252E00086B0300086B0300086B03000812
:100130006B0300086B0300086B0300086B030008E7
:100140006B0300086B0300086B0300086B030008D7
:100150006B0300086B0300086B0300086B030008C7
:100160006B0300086B0300086B0300086B030008B7
:100170006B0300086B0300086B0300086B030008A7
:100180006B0300086B03000800F002F800F075F83C
:100190000AA090E8000C82448344AAF10107DA45E2
:1001A00001D100F06AF8AFF2090EBAE80F0013F0BF
:1001B000010F18BFFB1A43F001031847CC7C000065
:1001C000EC7C00000A444FF0000C10F8013B13F0E7
:1001D000070408BF10F8014B1D1108BF10F8015BA0
:1001E000641E05D010F8016B641E01F8016BF9D193
:1001F00013F0080F1EBF10F8014BAD1C0C1B09D1EA
:100200006D1E58BF01F801CBFAD505E014F8016B5B
:1002100001F8016B6D1EF9D59142D6D370470000ED
:100220000023002400250026103A28BF78C1FBD8FF
:10023000520728BF30C148BF0B607047662907F0DE
:100240004F85642900F0F080732900F0F4840020C9
:1002500070471FB507F0FBFC01F00AF8040000200E
:10026000002107F0BBF8401C60600020002107F06F
:100270009FF8E0601FBD10B510BD01F0EBFA11460C
:10028000FFF7E7FF05F0AEF801F048FD03B4FFF714
:10029000F2FF03BC04F092FF2A4B19680868B0E82B
:1002A000F04F80F30988BFF36F8F4FF0000080F3A9
:1002B000118870470000000006480068006880F35D
:1002C000088862B661B6BFF34F8FBFF36F8F00DF50
:1002D00000BF00BF08ED00E0DFF80C00016841F44A
:1002E00070010160704700BF88ED00E0EFF3098006
:1002F000BFF36F8F134B1A681EF0100F08BF20ED6D
:10030000108A20E9F04F106008B44FF0500080F3DD
:100310001188BFF34F8FBFF36F8F06F0A9F94FF02D
:10032000000080F3118808BC19680868B0E8F04F35
:100330001EF0100F08BFB0EC108A80F30988BFF3DD
:100340006F8F704714010020EFF3058070470000A5
:100350000948804709480047FEE7FEE7FEE7FEE759
:10036000FEE7FEE7FEE7FEE7FEE7FEE70448054995
:10037000054A064B704700007145000889010008D6
:1003800090770020907D00209079002090790020C7
:10039000704700000FB4044910B503AA029800F09A
:1003A0004FFC10BC5DF814FBFC0000200FB41CB522
:1003B000074B06AA7B4469460090059800F011FCA3
:1003C0000020694600F020FC1CBC5DF814FB000016
:1003D0005108000070B50C460546012A05D0287862
:1003E000800600D5EA69002302E0012305E05B1CDA
:1003F000934202D2E05C0028F9D1A869E618C01A3D
:10040000A861286A184428622846AFF3008004E0F7
:10041000D5E9012114F8010B9047B442F8D32846DE
:10042000AFF3008070BD00002DE9F04106460024C6
:1004300010687529314616A510D0AFF3008000284A
:1004400002DA404213A507E031688A0701D512A5F8
:1004500002E0490704D511A5012401E0AFF30080B3
:1004600000210A2206F1240709E0B0FBF2FCB0FBF0
:10047000F2F302FB1C00303078541846491C002867
:10048000F3D123462A463046BDE8F04100F03BB99F
:10049000000000002D0000002B00000020000000E4
:1004A0002DE9F05F894604464FF0000ADFF874B189
:1004B000FB44C0F820A02046E1688847002874D09B
:1004C000252806D0D4E901219047206A401C2062EB
:1004D000F1E700265F462046E16888472028054668
:1004E00007DB312D05D2781910F8200C08B106432E
:1004F000F1E7B00701D526F00406C4F81CA00027D8
:10050000C4F818A02A2D09D0284604F050FE38B3AC
:1005100004EB8708303DC8F8185019E059F8041B5F
:10052000204604EB87029161E1688847012F054668
:1005300018D1E069002820DA26F020061DE0D8F85E
:10054000180000EB800005EB40003038C8F81800B8
:100550002046E1688847054604F029FE0028EED1D0
:10056000012F0AD02E2D08D12046E16888477F1C34
:100570000546022F46F02006C4DBA069002803DAF6
:10058000404246F00106A061F00701D026F01006B7
:100590006C2D0BD0682D09D04C2D39D06A2D35D05B
:1005A000742D35D07A2D33D016E038E0E1682F462F
:1005B00020468847B842054609D16C2F26D04FF413
:1005C0008060E168064320468847054604E06C2FBA
:1005D0001AD04FF4807006430DB3A5F141001928DD
:1005E00002D8203546F400664A4629462046266051
:1005F0004E46FFF723FE80B101280BD0F61D26F0F2
:10060000070000F1080956E74020E4E78020D8E71A
:100610000020D6E706F104094DE7284652E7206A94
:10062000BDE8F09F2C7900000FB400B58DB010A983
:10063000099000910B904FF0FF300A9000200C9031
:10064000064878440690064878446A4607900F9911
:1006500009A800F089FD0DB05DF814FB430B000004
:100660005B0B0000032A40F2308010F0030C00F016
:10067000158011F8013BBCF1020F624498BF11F8DC
:1006800001CB00F8013B38BF11F8013BA2F1040295
:1006900098BF00F801CB38BF00F8013B11F003030D
:1006A00000F09285083AC0F0088051F8043B083AFF
:1006B00051F804CBA0E80810F5E7121D5CBF51F813
:1006C000043B40F8043BAFF30080D20724BF11F88D
:1006D000013B11F801CB48BF11F8012B24BF00F8F2
:1006E000013B00F801CB48BF00F8012B704702F036
:1006F000FF0343EA032242EA024200F099BD704739
:100700007047704770472DE9F0470D46994692466D
:10071000044600F124080168880604D5E06921F048
:100720001001216000E00120A84201DD471B00E02C
:100730000027A1697A1902EB0900081AA061207844
:10074000C00602D42046AFF30080002608E0D4E9BA
:1007500001211AF806009047206A401C761C20628E
:100760004E45F4DB2078C0060AD52046AFF3008062
:1007700006E0D4E9012130209047206A401C206225
:10078000381EA7F10107F4DC07E0D4E9012118F8CD
:1007900005009047206A401C2062281EA5F1010533
:1007A000F3DC2046AFF300802078000602D502205B
:1007B000BDE8F0870120FBE770472DE9FF4F0C46AD
:1007C0001E464FF0FF378BB0D2E90001DDF86080A4
:1007D0000A908A46C1F30A5505B93D4600210846EC
:1007E0004FF00000BAF1000F00F4400005DA00EB12
:1007F00080004FF4400101EA50004FEA9059B9F1EE
:10080000010F00DDB9460A9850EA4A000ED044F6BE
:100810001050A5F2FF3545432F14B8F1000F1ED03C
:100820007542291E1EDDC9F100021CE0B8F1010F5E
:100830004FF0000001D0302103E0F24305E02154E5
:10084000401CB042FBDB30460022002121540B99B2
:10085000C1F80880C1E900200FB0BDE8F08FBD1BD2
:100860006D1CDEE74A4600DA694206A800F050FF38
:1008700006AB93E8070003AB83E8070050460A99EC
:1008800001F0B7FA8DE80700A0F500501F3800907E
:100890000398002D0ADD42F21F014A460844002356
:1008A00003A90390684601F063FD09E0A0F500503C
:1008B0004A461F38002303A90390684601F082FDD1
:1008C0008DE807000004000C03D04FF0FF30410812
:1008D00000E01046B8F1000F03D000220092154648
:1008E0001EE0751E05D400F0CBFC303262556D1E43
:1008F000F9D5B3460122084302D000227F1C04E050
:100900002078302801D100227F1E002A099784D048
:100910001DE0112D07DA00F0B3FC303262556D1C7A
:1009200050EA0102F5D1084302D00098C8B10EE0A8
:100930000021681E05E0235C625C63542254401E63
:10094000491C8142F7DBAB46A81B401E09900020E2
:1009500004F80B000B98099AC0F80880C0E9002B36
:100960007AE711264FF0000857E72DE9F04F884647
:100970000446D21D22F0070191B0D1E90001CDE972
:100980000A0104F0E5FA02460B98C00F01D02D20B1
:1009900007E02068810701D52B2002E0202101EA31
:1009A000C000032A099001D0072A05DB034641460F
:1009B000204600F0B3FC0BE12078800601D5E06909
:1009C00000E00620B8F1650F814606D0B8F1660F49
:1009D00018D0B8F1670F70D131E00020B9F1110FD4
:1009E000009001DB112301E009F101030AAA01A92A
:1009F0000CA8FFF7E2FEDDE90C70002609F1010505
:100A0000834647E001204B4600904FF000470AAA7A
:100A100001A90CA8FFF7D1FEDDE90DB00C995D46E8
:100A2000002610B909F101000D18B9EB050003D437
:100A3000C0F1FF3609F10105A5EB09002BE0B9F182
:100A4000010F01DA4FF001090020B9F1110F0090F8
:100A5000484601DD112300E003460AAA01A90CA8BB
:100A6000FFF7ABFEDDE90C704D460026834620788B
:100A700000070AD4AB4500DA5D4601A8012D04DD6C
:100A8000411911F8011C302907D04F4502DA17F13E
:100A9000040F04DA012082460FE06D1EEEE7002FFE
:100AA00002DCED1B3E4403E0781CA84200DD7D1C07
:100AB000B81B00F1010A4FF000472078000703D46B
:100AC000AA4501DB4FF0FF3A0021B7F1004F0DF1CD
:100AD00043088DF8431024D002202B23002F01DA85
:100AE0007F422D230A21021EA0F1010000DC5FB12C
:100AF00097FBF1FC97FBF1F201FB1C7C17460CF114
:100B0000300C08F801CDEEE7A8F101000370218850
:100B1000090501D5452100E06521A0F1010800F893
:100B2000011C09980FA9A1EB0807FF1D00B10120C6
:100B3000411901EBEA70A1693844081A401EA0610E
:100B40002078C00602D42046AFF30080099828B16F
:100B5000D4E901219047206A401C20622078C00619
:100B600022D52046AFF300801EE0002E04DBB34503
:100B700002DD01A8805D00E03020D4E9012190472A
:100B8000206A401C2062761CAAF101005FEA000A7C
:100B90000AD100F06DFBC0680168405CD4E9012116
:100BA0009047206A401C2062281EA5F10105DCDC6C
:100BB00007E0D4E9012118F8010B9047206A401C96
:100BC0002062381EA7F10107F3DC2046AFF3008056
:100BD000032011B041E6000001694A1C0261087857
:100BE000704700B58FB0CDE901310021059105496D
:100BF0007944CDE9031011466846FFF751FC0FB068
:100C000000BD0000E5FFFFFF0A6802F8010B0A6063
:100C1000704710B5436913B1AFF3008001E0FFF7EF
:100C2000D9FB012010BD127800F124010A700022C6
:100C30004A700122EDE711684FF0FF32E9E700004A
:100C4000074B70B50D467B44FFF7CBFF04462846A3
:100C500000F0D0FD10B14FF0FF3070BD204670BDE8
:100C6000CB4600002DE9FF4F06468BB00878FF28E1
:100C700006D0491C2D2805D000244FF0000908E0BB
:100C800000200CE00124F8E709EB8903491C00EB84
:100C900043090878FF28F7D114B1C9F10000814653
:100CA000107800252C46AA4629462D2801D02B284D
:100CB00004D1521C2D2813D0002082468B46107878
:100CC000FF280FD04FF0000C0A21521CA5FB017821
:100CD00004FB018105FB0C11C5194BEB0104EEE788
:100CE0000120EAE7002108464FF00000BAF1000FAA
:100CF00002D000EB80004008C0F38157012F01DDD6
:100D00004FF0FF370E9955EA040009EB01080BD0AC
:100D10004FF0020918F5FA7F16DA4FEACA70002F71
:100D2000706008DD012007E04FEACA70C6E900B034
:100D30000FB0BDE8F08F0020306000F09DFAC0F8E1
:100D400000901821084616E0B8F5FA7F18DD002F4C
:100D500002DAF748784401E0F6487844D0E9001018
:100D6000C6E9001040EACA70706000F085FAC0F869
:100D70000090142108460FB0BDE8F04F06F071BF97
:100D8000002108464FF00000B8F10001099002DA96
:100D9000C7F1000200E03A4601DAC8F1000106A8F6
:100DA00000F0B6FC06AB93E8070003AB83E807004E
:100DB00044F23E005BEA04010090584604D144F23C
:100DC0001E012C465D460091210C0904014306D109
:100DD0000099240444EA15442D041039009104F0CC
:100DE0007F41014306D10099240244EA15642D0293
:100DF0000839009104F07041014306D100992401A3
:100E000044EA15742D01091F009104F0404101438B
:100E100006D10099A40044EA9574AD00891E0091A2
:100E200004F00041084304D100986D196441401E4C
:100E300000904FF001033A466846B8F1000FCDE943
:100E4000014503A902DD01F0D2FA01E001F0A5FAA3
:100E5000BAF1000F04460D4601D084F00044002191
:100E600008464FF00000099940F2FF77484010F023
:100E70000C0F07D124F00040284303D0C4F30A50DC
:100E8000B84212D100F0F8F9C0F80090C4F30A504B
:100E9000B8420AD1A8487844D0E90010C6E9001049
:100EA00004F000410843706042E7C6E900543FE7A0
:100EB0002DE9FF4F1F464FF0000A4FF0FF3845461F
:100EC00091B0D7E90146CDF83CA000F0D1F9C06857
:100ED0000168405C1090B96912986D1C8847396AA6
:100EE000814688470028F6D1B9F1FF3F0AD0002E8D
:100EF00024F4D06411DDB9F12B0F08D0B9F12D0F16
:100F00000BD102E0404615B013E744F48064B969A0
:100F100012986D1C8847761E8146600504A901D58C
:100F20002D2000E02B20002E01F1010B0DF13008E7
:100F30008DF810003FDDB9F1690F08D0B9F1490F04
:100F400005D0B9F16E0F02D0B9F14E0F1CD13B465E
:100F500001A8009580E85002DDE912126FF002004E
:100F600006F024FFC11CCED10EE0B96912986D1CA9
:100F7000884781461398761E44F4007405600F98E4
:100F8000401C002E0F9016DDB9F1300FEDD0B9F1F5
:100F9000780F02D0B9F1580F0DD10F9801280AD15E
:100FA0003B46CDE90054DDE91212001F029606F01F
:100FB000FBFEC11CA7D1109989453ED144F08004A5
:100FC00006E01399681CAAF1010A44F40074086051
:100FD000B9696D1C1298761E884730288146F0D07A
:100FE0002BE01099894505D1200603D4761E44F0E4
:100FF000800418E0484604F0DAF808B3761E0DF1D4
:1010000023018B4544F4007408D2A9F130000BF899
:10101000010B200607D5AAF1010003E0200602D447
:101020000AF101008246A00502D51399681C0860E8
:10103000B96912986D1C88478146002ED1DC53E0B7
:10104000002E51DDB9F1650F02D0B9F1450F4BD13A
:10105000A00549D5B9696D1C1298761E24F4407418
:101060008847002E81460CDD2B2804D0B9F12D0FC6
:1010700007D144F48074B96912986D1C8847761EB4
:101080008146E00501D52D2100E02B2108F8011B48
:10109000CDF8008021E0761E0DF13901884544F439
:1010A00000740CD2A9F1300010F0FF0088F80000A5
:1010B00002D10099884509D908F1010806E0E00548
:1010C00001D51E4801E042F20F708246B9691298BC
:1010D0006D1C8847814613980560002E04DD484644
:1010E00004F065F80028D6D1F96912988847FF20E6
:1010F00053468BF8000088F8000000200A900B90FF
:1011000004AA0CA90AA8FFF7ADFDA00502D46FF050
:101110000100F8E614F0240F12D0E0071CD1386863
:10112000DDE90A12031D3B600068C0E9001213E00C
:10113000587100004A7100000E700000F1D8FFFFE6
:101140000AA9684604F020F8E00705D13868009A3B
:10115000011D3960006802602846D4E60268114427
:101160001378016018467047D16005497944516190
:1011700004497944116200211161114600F00EB951
:10118000EDFFFFFF95010000426842B1016811F8D0
:10119000013B23B1521EC0E90012184670470121DD
:1011A000C160881E704742685AB1C368016843B97C
:1011B00083688B4205D0491E521CC0E900120020F2
:1011C00070474FF0FF30704710B5203AC0F00B80E9
:1011D000B1E81850203AA0E81850B1E81850A0E83B
:1011E0001850BFF4F5AF5FEA027C24BFB1E8185095
:1011F000A0E8185044BF18C918C0BDE810405FEA05
:10120000827C24BF51F8043B40F8043B08BF704780
:10121000D20728BF31F8023B48BF11F8012B28BF85
:1012200020F8023B48BF00F8012B70474FF0000246
:101230000429C0F0128010F0030C00F0E182CCF120
:10124000040CBCF1020F18BF00F8012BA8BF20F856
:10125000022BA1EB0C0100F0D3BA5FEAC17C24BFE2
:1012600000F8012B00F8012B48BF00F8012B704754
:10127000004870474C770020004870472C770020CA
:1012800030B5B0F10A024FEA900E71F100034EEA58
:10129000817EB0EB0E0061EB91014FEA101E4EEA29
:1012A000017E10EB0E0041EB11114FEA102E4EEAB9
:1012B000016E10EB0E0041EB11214FEA104E4EEA89
:1012C000014E10EB0E0041EB1141401841F10001BD
:1012D0004FEAD00040EA41704FEAD10110EB80059F
:1012E0004FEA810444EA907444EB01046D1944EB25
:1012F0000404521BA3414FF0000348BF0A3200D53B
:1013000030BD401C41F1000130BD10B5044600F075
:10131000C7FA0068005D00F0010010BD2DE9F04142
:101320001F46044603260168072A01F4006004DB17
:1013300008B116A505E016A503E008B115A500E063
:1013400015A521F010002060A069C01EA0610FB19A
:10135000401EA0612046AFF300804FB1D4E90121C7
:1013600038469047206A401C2062C01C206206E07C
:10137000206AFAE7D4E9012115F8010B9047761E9F
:10138000F8D22046AFF30080BDE8F0814E414E0018
:101390006E616E00494E4600696E66002DE9F34F9E
:1013A0004FF0000A0C4656468DB001200C9001F11A
:1013B0000C000B9062690B9801219047051E2DD0FF
:1013C000252D2CD0216A8847C0B162690B98012174
:1013D0009047216A88470028F7D16269411E0B981F
:1013E000904700E0761CA1690D988847216A8847DC
:1013F0000028F7D1E1690D988847DBE7A1690D98CE
:101400008847A842074601D1761CD3E7E1690D98C9
:1014100088477F1C02D1BAF1000F6FD06BE162697F
:101420000B9800273D46394690472A2804D1626927
:101430000B98012190470125DFF8D08262690B9853
:1014400001219047A0F130010A290AD24745E5DC85
:1014500007EB870100EB4107303FDFD445F0100573
:10146000ECE7E90601D46FF000476C280AD04C285D
:1014700014D0682815D06A280DD074281CD07A287A
:101480001AD01DE062690B98012190476C2802D0A8
:1014900045F0040514E045F002050DE045F0200597
:1014A0000AE062690B9801219047682802D045F054
:1014B000080505E045F4006562690B980121904735
:1014C000C4E9015765283DD019DC58287AD00CDCD6
:1014D000452837D004DC252826D041289ED131E08C
:1014E00046282FD0472899D12CE05B2877D0612857
:1014F00028D063287CD0642823D15AE0F6E06F28F6
:1015000048D008DC66281DD067281BD0692821D068
:101510006E2816D127E0702845D0732868D075282A
:1015200047D078280DD14DE0A1690D98884725282E
:1015300005463FF469AFE1690D9888476D1C3FF49B
:101540006AAFD8E00D9923466A466FF0010006F0B5
:1015500029FCC5E045F0400023464FF000026060E2
:10156000A80736D43EE0E8077FF447AF2068011DA6
:1015700021600068290501D506701BE7290701D500
:10158000068017E7A90703D5F117C0E9006111E745
:1015900006600FE745F0400023464FF00802606008
:1015A000A80716D41EE040F60E0125EA010060608F
:1015B00016E045F0400023464FF00A026060A8079D
:1015C00007D40FE045F040006060A80708D5234627
:1015D00010220D996FF00100AFF3008080E007E06A
:1015E000102223460D996FF00100AFF3008077E0E1
:1015F0004FF0000963284F46C8464B46CB4602D001
:101600005B2806D038E0E80601D40120A06001275D
:1016100032E06269D4F80CB00B98012190475E2843
:1016200007D14FF0010949466269D4F80CB00B9814
:101630009047216939B900210A4603AB43F82120BC
:10164000491C0829FADBD8B3216949B308F101081C
:1016500062690B98012190475D28F4D1B9F1000F20
:1016600009D0002003A951F82020D24341F82020BE
:10167000401C0828F7DB03AB2069002820794FEADB
:1016800040701ED05B462246CDF80080CDE9019720
:101690000D9900286FF0010020DAAFF300801FE001
:1016A000C11703AA00EBD1614B1121F01F0102EB1E
:1016B0008302411A13680120884003431360C7E77F
:1016C00019E00D99224600286FF00100009702DA18
:1016D000AFF3008004E0AFF3008001E0AFF30080DF
:1016E00000280ADA401C06D10C9820B14FF0FF30D8
:1016F0000FB0BDE8F08F5046FAE7E90701D10AF1D3
:10170000010A064400200C9054E60000CCCCCC0C1E
:101710002DE9F047814616468AB0354878440DC811
:101720008DE80D0032487844801C03AC0DC884E875
:101730000D0041F69B300844372190FBF1F290FBFD
:10174000F1F5A5F1800501FB12041B3C02D56442B2
:10175000012000E00020DFF898A080460027FA442E
:10176000AAF1BE0A0EE0E0070AD03246684607EB4F
:10177000470101230AEB810100F024FE8DE80700F8
:1017800064107F1C002CEED1194F7F44AE3F19E04E
:10179000E80715D007EB04100DF1180A90E80E00C9
:1017A0008AE80E00C068F04201D1981908903246CC
:1017B000012306A903A800F005FE03AB83E8070098
:1017C0006D10641C002DE3D14FF0010332466946D1
:1017D000B8F1000F03A802D000F0CAFD01E000F04C
:1017E000F1FDC9E90001C9F808200AB0BDE8F08799
:1017F00050670000007B00F0800070474FF000024F
:1018000000B5134694469646203922BFA0E80C50F6
:10181000A0E80C50B1F12001BFF4F7AF090728BFD1
:10182000A0E80C5048BF0CC05DF804EB890028BF4D
:1018300040F8042B08BF704748BF20F8022B11F076
:10184000804F18BF00F8012B704700000048704718
:101850002C7700207546FFF7F9FFAE460500694674
:10186000534620F00700854618B020B5FEF77EFDF0
:10187000BDE820404FF000064FF000074FF0000891
:101880004FF0000B21F00701AC46ACE8C009ACE812
:10189000C009ACE8C009ACE8C0098D46704700003B
:1018A00010B5FFF7E5FC001D10BD00BF315B000067
:1018B00010B5FFF7E1FC006810BD10B50446FFF756
:1018C000DBFC046010BD00002DE9FF4F1F464FF008
:1018D0003C0987B04FF00042DDE9141001F1010826
:1018E000DDF858A002EA405003900020059083469E
:1018F000054604460490B969461E08988847AAF12F
:10190000010A0290BAF1000F3BDD02982E2815D093
:10191000102100F060FA00282EDB4FF0010B059932
:10192000014317D0B9F1000F0BDB4A46C11700F095
:101930003FFA05430C43A9F1040905E00120049096
:101940000BE008B145F0010501200590049820B98D
:10195000361D02E0049800B1361FB969089808F1F5
:1019600001088847BBF1000FAAF1010A0290C9D013
:101970000999C1F80080C5E70298702808D050285E
:1019800006D0F96908988847BBF1000F14D04FE0E2
:10199000002002900120BBF1000F049009D0B9692A
:1019A000089808F101088847AAF10109B9F1000F68
:1019B00007DCF969089888476FF001000BB0BDE8B3
:1019C000F08F2B2804D02D280CD14FF0FF3004903D
:1019D000B969089808F101088847A9F10109B9F126
:1019E000000FE6DD411CE4D00A2100F0F4F90028E4
:1019F000DFDB029908F1010801EB810100EB4100F6
:101A00000290B969089888470A2100F0E4F9099A18
:101A1000A9F10109B9F1000FC2F8008001DD002829
:101A2000E7DAF969089888470499029800FB01668B
:101A300055EA040004D004F04041090002D006E059
:101A4000039898E0A40044EA9574AD00B61E04F033
:101A50000041080002D16D196441761E159810F0FE
:101A6000240F03D04FF00B095C4803E04FF0280926
:101A70006FF07D008246564507DAAAEB06018944DD
:101A8000B9F1410F01DD4FF0410901200021A9F119
:101A9000010200F08DF9024628400B462140084320
:101AA00001D0012100E00021501E029143F1FF31DD
:101AB00028402140084301D0012000E00020029985
:101AC000834651EA0B014FD0002108464FF0000039
:101AD000039900F4400039B100EB80004FF440015D
:101AE00000EBD07001EA60008015012802DD4FF0A4
:101AF000FF3000E013D0401C36D0029860B3BBF139
:101B0000000F0CD14A460120002100F051F9284075
:101B10002140084301D0012000E00020E0B1012075
:101B20004A46002100F044F9034640190A46614143
:101B30002D1A8C4111D3B9F1400F09DD159810F021
:101B4000240F02D0AAF1340603E0AAF1170600E040
:101B5000761C00254FF0004406E05B1E42F1FF3288
:101B600020EA030521EA0204CAF10100B04206DAC4
:101B70001B49039808430190002000900EE0039A4F
:101B8000C4F3D321E80A0A43164940EA44500A4301
:101B90003146CDE90002684603F0FFFA159810F0CF
:101BA000240F0BD01598C00715D13868DDE9001255
:101BB000031D3B600068C0E900120CE002A8694602
:101BC00003F0E2FA1598C00705D13868029A011DA2
:101BD0003960006802604046F0E6000002FCFFFF4A
:101BE0000000F07F0000F03F2DE9FF4F92461D46B8
:101BF00085B04FF00041DDE9124BDDE914727F1E24
:101C000001EA4B50414940F0FF4940EA01080021F8
:101C100022F020004928049102D04E2828D04CE020
:101C20003BA0012607C88DE80700A9690698641C37
:101C300088477F1E014606D41DF8060018B121F022
:101C4000200181420BD0E96906988847032E34D0E1
:101C5000082E32D06FF0010009B0BDE8F08F761C7D
:101C6000032E01D0082EE0D1601CCAF80000DCE78A
:101C7000A9690698641C88477F1E2AD420F020009A
:101C8000412826D1A9690698641C88477F1E20D464
:101C900020F020004E281CD1A9690698641C8847B2
:101CA0007F1E48F4002849F48009CAF8004001D496
:101CB000282806D0E969069888475FEACB7012D0D9
:101CC00022E0A9690698641C88477F1E01D4002879
:101CD00003DAE96906988847BCE72928F1D1641C32
:101CE000CAF80040E9E71BF0240F07D028680499E0
:101CF000031D2B600068C0E9001805E02868021D7C
:101D00002A600068C0F800902046A5E70000F07F38
:101D1000494E46494E4954590000000010B504464A
:101D2000AFF300802046BDE81040FEF7AFBA0000D8
:101D30004FF0013C50F8042B51F8043B9A4221D15A
:101D4000A2EB0C03934313EACC1317D150F8042BE6
:101D500051F8043B9A4215D1A2EB0C03934313EACA
:101D6000CC130BD150F8042B51F8043B9A4209D103
:101D7000A2EB0C03934313EACC13DBD04FF000002B
:101D8000704700BFD01A01BAB1FA81F101F0180111
:101D900022FA01F0CB40C1F12001DBB2C0B2C01A7F
:101DA0002CFA01F3D11A914311EAC311E6D170471D
:101DB000B2F120030AD5C2F1200301FA02F120FAA0
:101DC00003F300FA02F041EA0301704700FA03F15D
:101DD0004FF0000070473A2800D2303820F020023F
:101DE000412A01D3A2F13700884201D34FF0FF30DE
:101DF00070475FEA400C08BF91F0000F4FEA8C2358
:101E00004FEAC12243EA51514FEA1C5018BF00F576
:101E1000F0404FEA300018BF41F000415FEA6C5CCF
:101E200000F02980BCF1FF3F08BF40F080407047C0
:101E3000130C06BF12044FF0100C4FF0000C130EE1
:101E400004BF12020CF1080C130F04BF12010CF1B5
:101E5000040C930F04BF92000CF1020CD30F04BFCB
:101E600052000CF1010C11464FF00002A0F11F00CE
:101E7000A0EB0C00704711F0004F08BF704731F025
:101E800000413FF4D5AF0B0C06BF09044FF0100C16
:101E90004FF0000C0B0E04BF09020CF1080C0B0FE5
:101EA00004BF09010CF1040C8B0F04BF89000CF175
:101EB000020CCB0F04BF49000CF1010CCCF1200344
:101EC000A0EB0C0022FA03F302FA0CF241EA030140
:101ED00000F10100704720F07F4C80EA030023F0FE
:101EE0007F47ACEB070303F57C5300F0004003F1A0
:101EF000FF032DE980494FEA154B09B44FEA14431B
:101F000025EA0B4E24EA03480FF2042606EB1327BA
:101F100049083E785FEA320203FB0667C7F500070F
:101F200007FB06F64FEA54374FEAD64606F102069B
:101F300007FB066CCCF1005C4FEA1C472CEA074C0F
:101F400007FB06F40CFB06F504EB15464FEA961664
:101F500034BF00204FF000404FEAD13706FB07FCAA
:101F60004FEA1C4C0CFB0BF7D21B03FB0CF761EB8D
:101F700007010CFB0EF7B0EB074072EB17420CFBAE
:101F800008F734BFA2EB0742B2EB074261EB1741FF
:101F90004FEA0C444FEA910706FB07FC4FEA1C4C42
:101FA0000CFB0BF7B0EBC74072EB573203FB0CF79F
:101FB00034BFA2EBC742B2EBC74261EB57310CFB17
:101FC0000EF7B0EBC70072EB57720CFB08F734BF8B
:101FD000A2EBC702B2EBC70261EB5771039F4FEA56
:101FE000816141EA921104EBCC044FEAD1374FEA08
:101FF000826206FB07FC42EA90124FEA80604FEAD9
:102000001C4C0CFB0BF7D21B03FB0CF761EB07011D
:102010000CFB0EF7B0EB074072EB17420CFB08F716
:1020200034BFA2EB0742B2EB074261EB17414FEA24
:102030008C554FEA910704EB9C2406FB07FC4FEA02
:102040001C4C0CFB0BF7B0EBC74072EB573203FB99
:102050000CF734BFA2EBC742B2EBC74261EB57317A
:102060000CFB0EF7B0EBC70072EB57720CFB08F7D6
:1020700034BFA2EBC702B2EBC70261EB577115EB9D
:102080004C254FEA816141EA92114FEA82624FEAA0
:10209000D13742EA901206FB07FC44F100044FEAF4
:1020A00080604FEA1C4C0CFB0BF7D21B03FB0CF7B8
:1020B00061EB07010CFB0EF7B0EB074072EB174228
:1020C0000CFB08F734BFA2EB0742B2EB074261EB0F
:1020D000174115EB1C154FEA813141EA92414FEA55
:1020E000823242EA90424FEA80304FEA0C7644F165
:1020F000000448EA03434EEA0B484FF0000EB2EBEF
:10210000080C71EB030724BF624639464EEB0E0EF6
:102110004FF0000B0018524149414BEB0B0BB2EB57
:10212000080C71EB03077BF1000B24BF62463946B4
:102130004EEB0E0E4FF0000B0018524149414BEB95
:102140000B0BB2EB080C71EB03077BF1000B24BF08
:10215000624639464EEB0E0E51EA020718BF46F0B2
:10216000010616EB0E7655F1000254F1000103D57D
:10217000BDE88901BDE80088BDE88901BDE80048E7
:10218000B619524141EB0101A3F101037047808070
:102190007F7E7D7C7B7A79787776767574737271C1
:1021A00071706F6E6E6D6C6C6B6A6A696868676679
:1021B00066656464636362616160605F5F5E5E5D0B
:1021C0005D5C5C5B5B5A5A5959585857575656557F
:1021D00055555454535352525251515050504F4FE1
:1021E0004F4E4E4D4D4D4C4C4C4B4B4B4A4A4A4931
:1021F0004949484848474747474646464545454474
:10220000444444434343434242424241414100002B
:1022100046EA0646A3F570534FEA164646EA42568A
:102220004FEAD22242EA415210B54FEAD121A3F13E
:10223000010300F02FF820F0004000F1020C00F044
:10224000004701EB00501146BCF5006F40EA070063
:1022500000D210BDBAF1000F0AD01CB503B44FF084
:1022600004004FF004014FF000000FBCBDE8104027
:102270004FF00001BBF1010FB9BF04484FF0FF312F
:102280000348002140EA070010BD00BFFFFFEF7FB9
:102290000000F07F002B9C4630D477002BD01CB57B
:1022A0004FEA370703B44FF010004FF01001BAF1B6
:1022B000000F06D0BCF1000FDCBF40F0080040F07A
:1022C00008014FF000000FBCBDE810400BF1010BFE
:1022D000BBF1010F08BF5FEA170722BF12F101022D
:1022E00011F101014FF0004143F1000300F0004003
:1022F00043EA00007047F9D35708D0E746EA06469C
:1023000013F1400F4FEA16461FDD13F1200FDFBF18
:1023100016430A46002120335B42BED0C3F120079A
:1023200046EA064602FA07F74FEA164646EA070665
:10233000C3F1200722FA03F201FA07F721FA03F1A9
:102340004FF0000342EA0702A7E746EA020646EA20
:1023500006464FEA164646EA0106BCBF46EA06466E
:10236000360C4FF000034FF000024FF0000194E7ED
:102370002DE9804C9A46934670B491E8380007C81E
:1023800031EA400C48BF34EA430C03D5FFF7A3FD04
:10239000FFF780FFF0BCBDE8008C2DE9804C9A4629
:1023A000934670B491E8380007C831EA400C48BF42
:1023B00034EA430C03D5FFF78EFDFFF729FFF0BC8D
:1023C000BDE8008C2DE9804C9A46934670B491E8A4
:1023D000380007C810F0804F08BF13F0804F03D1BA
:1023E00000F01AF8FFF756FFF0BCBDE8008C2DE9AD
:1023F000804C9A46934670B491E8380007C810F0B4
:10240000804F08BF13F0804F03D100F005F8FFF7AD
:10241000FFFEF0BCBDE8008C20F07F4780EA03009F
:1024200023F07F4C07EB0C03A3F57C5300F0004036
:10243000A3F1FE0392F0000F00F0B38095F0000FBF
:1024400000F077802DE901494FEA11404FEA144628
:1024500021EA004800FB06FC24EA064708FB06F6D2
:1024600007FB08F800FB07F718EB06484CEB164C87
:102470004FEA124B18EB07484FEA15464CEB174052
:1024800022EA0B4E0BFB06FC25EA06470EFB06F67E
:1024900007FB0EFE0BFB07F71EEB064E4CEB164C34
:1024A0004FF000061EEB074E4CEB174B18EB0B08DA
:1024B00040F1000018EB0E0B58EB000840F1000053
:1024C0008F1A4FF000013CBFC943661B14BFB5EB28
:1024D000040C00213CBFC943F61B4FEA17444EEAE7
:1024E0008E0E27EA04454FEA1C4704FB07622CEADC
:1024F000074C05FB07F70CFB05F604FB0CFC16EB81
:10250000074642EB174216EB0C4642EB1C421BEB14
:10251000060658EB0202414146EA9E0601D5BDE897
:102520000189B619524141EB0101A3F10103BDE854
:1025300001894FEA14454FEA114724EA054621EA8A
:10254000074C05FB07F406FB07F70CFB06F105FB40
:102550000CFC11EB074144EB17444FEA124711EB17
:102560000C4144EB1C4422EA074C05FB07F206FB36
:1025700007F70CFB06F605FB0CFC16EB074642EBD7
:10258000174216EB0C4642EB1C456A1854F1000149
:1025900048BF7047B619524141EB0101A3F1010355
:1025A000704795F0000F37D04FEA11424FEA1447B9
:1025B00021EA024624EA074C02FB07F106FB07F773
:1025C0000CFB06F402FB0CFC14EB074441EB174137
:1025D0004FEA154714EB0C4441EB1C4125EA074C2C
:1025E00002FB07F506FB07F70CFB06F602FB0CFCEB
:1025F00016EB074645EB174516EB0C4645EB1C4220
:10260000121951F1000148BF7047B619524141EB10
:102610000101A3F1010370474FEA14454FEA114746
:1026200024EA054621EA074C05FB07F106FB07F7FC
:102630000CFB06F24FF0000605FB0CFC12EB074208
:1026400041EB174112EB0C4251EB1C4148BF704764
:10265000921841EB0101A3F1010370470029816841
:1026600002D041F0010101E021F0010181607047D9
:10267000084B10B5D3F8042307490A40D0E90014E9
:102680002143D0E90240044321431143C3F804131A
:1026900010BD000000200140E030FCFF70B50121BA
:1026A0009CB0880501F0F6FB0121084601F0F2FB21
:1026B00001210D02284601F011FC20201990032071
:1026C0008DF8680000248DF86B4019A92A4800F0A5
:1026D0000DFF2A480AA9CDE900402948CDE90204A6
:1026E0004FF4FA60CDE90404A8000690400007907A
:1026F0008000CDE908050001012581E83100214E67
:102700000D94694630460E9400F002FC01213046DB
:1027100000F0B4FB4FF470601594CDE917404FF40E
:102720004030169015A8FFF7A3FF0F94119413944F
:10273000124C8DF840504C3C8DF841508DF8505063
:102740000FA9204600F034F8072301220521204676
:1027500000F054F80121204600F016F8012120462F
:1027600000F01CF801212046FFF778FF204600F01A
:102770007FF81CB070BD0000000002404C200140FA
:1027800078130020106402400029816802D041F4CF
:10279000807101E021F480718160704700298168B7
:1027A00002D041F4007101E021F4007181607047B2
:1027B00030B542680F4B0C791A400B6842EA04228C
:1027C0001343436082680C4B4D791A40D1E90343AF
:1027D00023438C6844EA4504234313438360C26A5D
:1027E000097D22F47002491EC9B242EA0151C16258
:1027F00030BD0000FFFEFFFCFDF7FFC070B50726EF
:1028000009290AD9C568A1F10A0404EB4404A640C9
:10281000B543A3401D43C56007E0056901EB4104D2
:10282000A640B543A3401D4305611F23072A09D2D3
:10283000446B521E02EB820293409C4391400C4336
:10284000446370BD0D2A09D2046BD21F02EB8202D1
:1028500093409C4391400C43046370BDC46A0D3A9D
:1028600002EB820293409C4391400C43C46270BDD2
:10287000816841F080418160704710B5FF2000F011
:1028800016F855280AD05521FF2000F030F8FF2017
:1028900000F00DF8552801D0012010BD002010BD1A
:1028A00010B500F081FBBDE81040FFF7E6BF10B5A2
:1028B000044600F055FC200AA02101EB400000F086
:1028C00017FC00F09BFCE0B200F012FC00F096FC5C
:1028D00000F046FCA12000F00BFC00F08FFC002073
:1028E00000F0A4FBC4B200F069FC204610BD70B536
:1028F0000D46044600F034FC200AA02101EB400004
:1029000000F0F6FB00F07AFCE0B200F0F1FB00F022
:1029100075FC284600F0ECFB00F070FC00F04EFC6B
:10292000BDE870400A2002F067BC70B50546164647
:102930000C46EE2000F032FEB12000F02FFE2320E6
:1029400000F02CFE280A00F029FEE8B200F026FE76
:10295000200A00F023FEE0B200F020FE304600F036
:102960001DFEFF2000F01AFEFC2000F017FEFF20E5
:1029700000F014FEBDE87040FF2000F00FBE000024
:1029800010B5012003F0B0FF0149486010BD000000
:10299000000000207CB503F069FB00241D20CDE978
:1029A00000044FF4007523462A461FA1214804F075
:1029B00077FA1C20CDE900046E10002332461EA1D8
:1029C000204804F06DFA1B20CDE90004002380228A
:1029D0001DA1214804F064FA1A20CDE90004002367
:1029E0002A461EA1204804F05BFA1920CDE9000414
:1029F000002332461DA1224804F052FA1820CDE9E6
:102A00000004002332461FA1214804F049FA172090
:102A1000CDE90004002380221EA1234804F040FADF
:102A2000BDE87C4003F05EBB7655495F5461736B33
:102A300000000000ED66000876494E465F54617361
:102A40006B000000F15F0008765374617475735F6A
:102A50005461736B00000000F96200087655534220
:102A60005F5461736B000000A167000876437573C3
:102A7000746F6D5F52533233325F5461736B000079
:102A8000915E0008764750494F5F5461736B0000B8
:102A9000E15F00087644697370656E73696E675F05
:102AA0005461736B00000000995E00087047704726
:102AB00010B54FF4407000F0DFFEA82002F080FB5C
:102AC0004FF47A7002F098FB01F086FEFFF7EEFFFC
:102AD00000F0E1FDFFF7E4FE02F0E8F800F0DEFDB3
:102AE00000F0C2FC00F0D8F801F0A4F9BDE81040F5
:102AF00000F06ABDFEE7000050B50A88431CD45CB4
:102B0000831C865CC01CD35C105CFF2E05D1FF2C9F
:102B100003D1FF2B01D1FF280CD043EA002044EA67
:102B2000002046EA002028600888001D088095EDF6
:102B3000000A50BD9FED020A85ED000A50BD00005D
:102B4000000000000A88835C401C105C921C03EBB0
:102B500000200A8080B2704710B50446EE2000F0D5
:102B60001DFD052000F01AFD204600F017FDFF2096
:102B700000F014FDFC2000F011FDFF2000F00EFD20
:102B8000BDE81040FF2000F009BD0000044B012209
:102B90008240186809B1104300E090431860704704
:102BA0000074004000B5012187B0084601F072F9B9
:102BB0000121480701F07AF91020049003208DF8D4
:102BC000140002208DF8170004A90A4800F08EFCBA
:102BD00000200090019002906946039000F00CF8EC
:102BE00001210020FFF7D2FF0021084600F018F86D
:102BF00007B000BD0000024030B5084C236840F625
:102C0000FE7282409343D1E900252A43D1E9025163
:102C10000D432A4382401A43226030BD00740040B5
:102C2000034A08B5104408300090016008BD000058
:102C30000074004070B5174D0024286820F440202F
:102C40002860286828606E1504E0641CE4B2012046
:102C500002F0EEFA3146284600F094FC10B1642CE4
:102C6000F3D30FE0642C0DD2002404E0641CE4B222
:102C7000012002F0DDFA3146284600F083FC18B14D
:102C8000642C04D3012070BD642CEFD3FAE700203C
:102C900070BD0000001802401CB50121402001F069
:102CA000F9F84FF40070009001208DF80400002125
:102CB0008DF8061002218DF805108DF80700694681
:102CC000034800F013FC00F08FF8FFF7B3FF1CBDC2
:102CD0000018024070B500244FF40075134E04E054
:102CE000641CE4B2012002F0A3FA2946304600F049
:102CF00049FC08B1642CF3D3002404E0641CE4B262
:102D0000012002F095FA2946304600F03BFC08B954
:102D1000642CF3D3282002F08BFA2946304600F0C9
:102D200031FC002800D0012070BD000000180240D6
:102D300070B5002004464006050EFFF7CBFF641C6B
:102D40002843E4B2082CF6D370BD00002DE9FC4105
:102D500000F04AF8FFF76EFF204E214D30B1288871
:102D60006988884231D2401C288034E000246F46B4
:102D7000FFF7DEFF3855641CE4B2052CF8D39DF84C
:102D800000009DF801109DF8033042189DF80210D4
:102D90000B441A449DF804309A4213D100EE101AE5
:102DA000F8EE400A9FED0F0A60EE800AC6ED010AB8
:102DB00000EE900A0020F8EE600A20EE800A86ED10
:102DC000020A28800020BDE8FC81BFEE000A86EDE3
:102DD000010A86ED020A0120F5E7000080020020CA
:102DE0002C000020C520803F70B50D4C206820F4D9
:102DF00040202060206840F480202060651529462E
:102E0000204600F0C6FB142002F0F6F929462046C1
:102E100000F0C1FBBDE870401E2002F009BA0000BE
:102E20000018024070B5084C084D2146284600F0B5
:102E30002FF8012807D102F015FA21462846BDE8EF
:102E4000704000F005B870BD208000101064024092
:102E5000074A904201D2074801E005481038064A67
:102E60008B0001EA020101D5C160704781607047A3
:102E700010640240006002407D0F7D0F0029016850
:102E800002D041F0010101E021F001010160704731
:102E900030B5104A0024904201D20F4A01E00D4A99
:102EA000103A0E4B194205D01E2303EAD1250368C0
:102EB0002B4002E0406900F08003880001D5506893
:102EC00000E01068064A1040084201D003B1012416
:102ED000204630BD10640240006002403C0F3C0FB1
:102EE0007D0F7D0F0B0607D5436912B143F08003B8
:102EF00001E023F080034361802908D0002A0268A2
:102F000001F01E0101D00A4300E08A4302607047CD
:102F100030B50368124ACC6813400A682243D1E9ED
:102F200005452C432243CC6922430C6A22434C6A58
:102F300022438C6A22434C6B22438C6B22431A43FC
:102F40000260426922F00703D1E90B2422431A43AD
:102F500042610A6942604A6882608968C16030BD26
:102F60003F801CF07047000070B50E4D4FF4807428
:102F70002146284600F00DFB00F0A4F86100284629
:102F800000F007FB022002F053F92146284600F02A
:102F900002FB022002F04CF921462846BDE87040B1
:102FA00000F0F7BA000402401CB50121022000F035
:102FB00071FF4FF44070009001208DF804008DF8EF
:102FC000060003218DF80510074C8DF807006946AF
:102FD000204600F08BFA6115204600F0DCFAA115BE
:102FE000204600F0D8FA1CBD0004024070B50E4D1A
:102FF0004FF480742146284600F0CBFA00F062F8C6
:103000006100284600F0C7FA022002F011F92146BB
:10301000284600F0C0FA022002F00AF921462846AC
:10302000BDE8704000F0B5BA000402402DE9F04759
:103030008146002400F030F8164F00254FF6FF7847
:103040004FF480764FF4007A08EA4404314638465B
:1030500000F09FFA022002F0EBF83146384600F00B
:103060009AFA022002F0E4F85146384600F08AFA53
:1030700008B144F001046D1CADB2082DE4D3B9F1E0
:10308000000F04D0FFF770FF2046BDE8F087FFF780
:10309000ADFFF9E7000402401CB54FF4007000904A
:1030A00000208DF8040001208DF8060003218DF822
:1030B00005108DF807006946014800F017FA1CBD9D
:1030C000000402401CB54FF40070009001208DF800
:1030D00004008DF8060003218DF805108DF8070017
:1030E0006946024800F002FA1CBD000000040240DC
:1030F0002DE9F0410746FFF7E5FF184E00244FF495
:103100000078B51507FA04F000064146304602D5AE
:1031100000F041FA01E000F03CFA022002F088F8E9
:103120002946304600F037FA022002F081F829469D
:10313000304600F02EFA641CA4B2082CE2D34146BB
:10314000304600F028FA2946304600F024FA294695
:103150003046BDE8F04100F01CBA00000004024017
:1031600070B5FFF7AFFF144D4FF4007421462846A9
:1031700000F00FFAFFF7A6FF66103146284600F070
:103180000AFA022002F054F82146284600F003FA19
:10319000022002F04DF82146284600F0FAF90220FC
:1031A00002F046F83146284600F0F3F9BDE87040D9
:1031B000022002F03DB800000004024070B5FFF7A5
:1031C00081FF0D4D4FF400742146284600F0E1F9CF
:1031D000022002F02DF86110284600F0DCF90220F0
:1031E00002F026F82146284600F0D5F9BDE87040E7
:1031F000022002F01DB80000000402402DE9F04159
:10320000154D4FF4007600243146284600F0C3F9EE
:10321000FFF742FF022002F00BF8AF1539462846AF
:1032200000F0B9F9022002F003F808E0641CE4B2EF
:10323000FA2C04D9FFF7C2FF0120BDE8F081314626
:10324000284600F09FF90028F0D13946284600F0C2
:10325000A0F90020F1E700000004024038B54FF467
:10326000A06000F009FB38208DF8000001208DF8E7
:1032700001008DF802008DF80300684600F0CAFADC
:10328000114C002208212046FFF72CFE01221021BC
:103290002046FFF727FE01212046FFF7EFFD0B49EF
:1032A0002046FFF7D5FD0A492046FFF7D1FD04214E
:1032B0002046FFF7CDFD02212046FFF7C9FD802102
:1032C0002046FFF7C5FD38BD106402402080001085
:1032D000104000102DE9F04387B00121022000F0DA
:1032E000D9FD4FF480590121484600F0F7FD02272F
:1032F0008DF8187000248DF81A4003208DF81900FD
:10330000DFF884803826012505968DF81B5005A925
:10331000404600F0EBF805220321404600F022F978
:1033200005220421404600F01DF9052211464046C1
:1033300000F018F90121484600F0DCFD0021484664
:1033400000F0D8FDADF800404FF48270ADF80200F7
:10335000ADF808506802ADF80C60ADF80440ADF867
:103360000A00ADF80E400720084CADF81000ADF88B
:1033700006706946204600F090FE0121204600F0CC
:1033800077FE07B0BDE8F083000402400030014042
:1033900070B50B4C05460221204600F073FE002854
:1033A000F9D02946204600F076FE0121204600F0A3
:1033B00069FE0028F9D0204600F06BFEC0B270BD57
:1033C0000030014001460548028822F038020280A0
:1033D00002880A430280012100F04ABE0030014009
:1033E00030B50B8810EE102AC2540D88431C140A05
:1033F000EC540D88831C140CEC540B88C01C120E6A
:103400001A540888001D088030BD00007CB50020DB
:10341000144D014601EB4102491C55F82220C9B266
:1034200010430829F6D3012100F034FD00208DF867
:10343000040001208DF8060003208DF8050000240B
:1034400004EB440005EB8000817A8DF807100189B8
:1034500000914068694600F049F8641CE4B2082C09
:10346000EED37CBD3400002010B5FFF7CFFFBDE8E0
:10347000104000F001B800002DE9FC4100201A4E78
:10348000014601EB4102491C56F82220C9B2104303
:103490000829F6D3012100F0FDFC01208DF804007D
:1034A000002003218DF806000F4F8DF805108DF8D0
:1034B00007000446603F04EB440007EB800106EB85
:1034C0008005897A8DF80710288900906946686818
:1034D00000F00CF82989686800F05BF8641CE4B21D
:1034E000082CE8D3BDE8FC8194000020F0B5002250
:1034F00001274FF0030C0B6807FA02F52B40AB4293
:103500002CD1066853000CFA03F4A64306600E792A
:10351000D0F800E09E4046EA0E0606600E79012EC5
:1035200001D0022E12D18668A64386604E79D0F86B
:1035300008E09E4046EA0E0686604668AE43466056
:1035400045688E799640B6B235434560C568A54357
:10355000C560CC799C40C3681C43C460521C102ACF
:10356000C9D3F0BD4B07DB0E9A40C90810B500EB7C
:103570008100016A0F249C40A1430162016A11434A
:10358000016210BD0246002012690A4200D00120EB
:1035900070474183704701837047000010B5094CA4
:1035A0000146204601F0BCFA8021204601F020FAB5
:1035B0000028F9D04021204601F01AFA0028F9D05D
:1035C00010BD000000480040F0B587B00121022086
:1035D00000F060FC0121880400F068FC264E3046B3
:1035E00001F0B0F9254F07220A213846FFF7BAFF4C
:1035F00007220B213846FFF7B5FF4FF440600490D7
:1036000002208DF814008DF8150000248DF8164066
:1036100001258DF8175004A93846FFF767FF4FF4CE
:10362000E1300090ADF808400C20ADF80440ADF852
:103630000A00ADF80640ADF80C406946304601F08E
:1036400015FA0121304601F072F9012240F22551AC
:10365000304601F0F3F927208DF8180008208DF886
:10366000190003208DF81A008DF81B5006A800F0F1
:10367000D1F807B0F0BD000000480040000402404F
:10368000FEE71388C8541388491C000A5854108850
:10369000801C1080704770477047000038B5742256
:1036A00000215A4801F02CFB58480178552902D1D5
:1036B0004078552803D0BDE8384000F093BC022084
:1036C000ADF8000069465148FFF73CFA4F4C694697
:1036D000743420704D48FFF70FFA84ED010A6946F3
:1036E0004A48FFF709FA84ED020A69464748FFF79E
:1036F00003FA84ED030A69464448FFF723FA20746D
:1037000069464248FFF7F8F984ED050A69463F48E3
:10371000FFF7F2F984ED060A69463C48FFF7ECF939
:1037200084ED070A69463948FFF7E6F984ED100A87
:1037300069463648FFF7E0F984ED110A69463348D7
:10374000FFF7DAF984ED080A69463048FFF7D4F943
:1037500084ED0A0A69462D48FFF7CEF984ED090A7F
:1037600069462A48FFF7C8F984ED0B0A69462748DD
:10377000FFF7C2F984ED0C0A69462448FFF7BCF94B
:1037800084ED0E0A69462148FFF7B6F984ED0D0A6B
:1037900069461E48FFF7B0F984ED0F0A69461B48D9
:1037A000FFF7AAF984ED130A69461848FFF7A4F950
:1037B00084ED130A69461548FFF79EF984ED130A54
:1037C00069461248FFF798F984ED130A69460F48D5
:1037D000FFF792F984ED170A69460C48FFF78CF958
:1037E00084ED170A69460948FFF786F984ED170A40
:1037F00069460648FFF780F984ED170A69460348D1
:10380000FFF7A0F9A4F86C0038BD00009C0100206F
:10381000FEE7704730B50F23C27801780125FAB171
:10382000144A126801F1E02102F4E062C2F5E0629C
:10383000C2F30722C2F10404D3404278A240847844
:103840001C401443220181F80024007800F01F017D
:103850008D404009800000F1E020C0F8005130BDEB
:1038600001F01F0085404809800000F1E020C0F809
:10387000805130BD0CED00E0024908430249086068
:10388000704700000000FA050CED00E02DE9F05F44
:103890000746E54800232DED028B01260588E34805
:1038A000E34C082F12D2DFE807F011110433F111B5
:1038B000F0F0DE4C062994F860401BD00ADC0429A5
:1038C00011D0052902D102B194B1C375BDEC028BB0
:1038D000BDE8F09F072913D01429F7D1AAB180F8C9
:1038E0006060C37508E00AB18675EFE78375EDE7A0
:1038F000C675EBE702B10CB10376E7E70676E5E7BC
:103900000AB14676E2E74376E0E780F86030DDE72B
:10391000DFF820E3B7EE001A9FEDC78BC4482329D8
:10392000D0ED010A90ED050AD0F80CC0D0E910AB3B
:10393000D0E906798068C9D2DFE801F012121212CC
:1039400013242C451212121212124BE355F25D672A
:1039500012126F7A8A961212A9B5C6D212F0EF002F
:10396000B4E702B12670207801280FD0002204218C
:10397000AD4E284600F07CFC2078012808D00122BA
:10398000052119E0002AEED02370ECE70122EEE7D2
:103990000022F5E7CAB1267417E0012200E00022F8
:1039A0000621A14E284600F063FC207C012801D0AE
:1039B000012200E0002207213088BDEC028BBDE827
:1039C000F05F00F055BC02B12374207C0128E6D1E1
:1039D000E3E7002A89D010EE900AB0F17E5F84DD23
:1039E00030EEC10A03E0002A87D030EE810A0A21B6
:1039F00084ED010AC1E0002A84D010EE100AB0F173
:103A00007E5F84DD30EE410A03E0002AA8D030EE6C
:103A1000010A0D2184ED050AAFE0002AA0D070450F
:103A20009EDB04F0A3F853EC182B03F0B5FF07E07E
:103A3000002A95D004F09AF853EC182B03F016FDE9
:103A400003F0E2FC00EE100A142184ED020A94E077
:103A5000002A85D07745E3DB384604F087F853EC3D
:103A6000182B03F099FF08E0002AB3D0384604F081
:103A70007DF853EC182B03F0F9FC03F0C5FC00EEC5
:103A8000100A152184ED060A77E0C8E07CE0002AE0
:103A9000A0D0F445C4DB604604F068F853EC182B62
:103AA00003F07AFF08E0002A94D0604604F05EF844
:103AB00053EC182B03F0DAFC03F0A6FC00EE100A1E
:103AC0001A2184ED030A58E0002A8DD04846F145BA
:103AD000A6DB04F04BF853EC182B03F05DFF08E075
:103AE000002A89D0484604F041F853EC182B03F023
:103AF000BDFC03F089FC00EE100A1B2184ED070ACF
:103B00003BE0002A8AD05046F24589DB04F02EF8CB
:103B100053EC182B03F040FF0BE01EE011E0FFE731
:103B2000002A86D0504604F021F853EC182B03F0FD
:103B30009DFC03F069FC00EE100A0B2184ED100AD5
:103B40001BE0002A85D05846F34584DB04F00EF8CC
:103B500053EC182B03F020FF08E0002A85D05846CC
:103B600004F004F853EC182B03F080FC03F04CFC39
:103B700000EE100A202184ED110A2846BDEC028BCC
:103B8000BDE8F05F00F0ACBC28480E2990ED040AB7
:103B90002748B0F96C00BFF4A8AEDFE801F00707D2
:103BA0000707081107070707071A07208EE6002AEC
:103BB000FCD084ED080A9FED220A84ED090A85E60F
:103BC000002AF3D084ED0A0AB1EE040A84ED0B0A50
:103BD0007CE6002AEAD00128E8DD401E02E0002A47
:103BE000E4D0401C02B2A4F86C202846BDEC028B45
:103BF0000821BDE8F05F00F091BC0329D6D1002A6E
:103C0000D4D0BDEC028BBDE8F05FFFF747BD002AC2
:103C1000CCD0BDEC028BBDE8F05F00F05BBA0129AF
:103C2000F5D00229F3D0E8E7280000208002002028
:103C300010020020CDCCCC3D9A9999999999B93F21
:103C4000000000007FB5424C064620800020FEF7B1
:103C500083FF0120FEF780FF3E4D052E73D2DFE883
:103C600006F0037272136C00002000900190029025
:103C7000039039A23DA16846FCF798FB6A460221F1
:103C8000002000F003FC5EE02878012809D0002223
:103C90000421208800F0ECFA2878012803D00122C2
:103CA00002E00122F4E700220521208800F0E0FA7A
:103CB000287C012809D000220621208800F0D8FAAB
:103CC000287C012803D0012202E00122F4E700222F
:103CD0000721208800F0CCFA95ED010A0A212088FE
:103CE00000F0FEFB95ED050A0D21208800F0F8FBA1
:103CF00095ED020A1421208800F0F2FB95ED060AEA
:103D00001521208800F0ECFB95ED030A1A2120888C
:103D100000F0E6FB95ED070A1B21208800F0E0FB90
:103D200095ED100A0B21208800F0DAFB95ED110AC1
:103D30002021208800F0D4FB05E0B5F96C20082193
:103D4000208800F0EBFBBDE87F4000F0EDBE0000F6
:103D5000280000201002002053563A342E312E3213
:103D6000302E3035303654657374000025730000F2
:103D700038B59FED2B0A2B4D13460C468DED000AEE
:103D8000052818D2DFE800F01717170341006A462C
:103D900025A11846FCF748FC152C22D00CDC0A2C77
:103DA00015D00B2C2CD00D2C16D0142C03D19DED3E
:103DB000000A85ED020A38BD1A2C17D01B2C1AD028
:103DC000202CF8D19DED000A85ED110A38BD9DED3E
:103DD000000A85ED010A38BD9DED000A85ED050A52
:103DE00038BD9DED000A85ED060A38BD9DED000A3F
:103DF00085ED030A38BD9DED000A85ED070A38BD43
:103E00009DED000A85ED100A38BD082CFCD19FED10
:103E1000070B51EC100B03F021FCA5F86C0038BD2A
:103E200000000000100200202566000000000000D5
:103E30000000E03F10B5FEF731FCBDE81040FEF792
:103E4000B1BE30B4B0F8031043784CBAB0F80510E6
:103E50008578C27949BA0D2B1ADD0F2B18D0B12BFA
:103E600016D1012D05D0103A022A11D2DFE802F056
:103E7000050A204630BCFFF7E5BE427A204630BC3A
:103E8000FFF704BD00F10802204630BCFFF770BF09
:103E900030BC7047044A0029116801D0014300E09A
:103EA000814311607047000030380240044A002905
:103EB000116801D0014300E08143116070470000A8
:103EC00040380240044A0029116801D0014300E053
:103ED000814311607047000020380240044A0029E5
:103EE000116801D0014300E0814311607047000078
:103EF00044380240044A0029116801D0014300E01F
:103F000081431160704700002438024070B5204B97
:103F10001968204C11F00C0104D06610042903D05C
:103F2000082903D004601BE0066019E0184A121F3C
:103F30001168C1F38055116801F03F0115B1B6FB5E
:103F4000F1F101E0B4FBF1F114681268C4F38814D4
:103F50006143C2F30142521C5200B1FBF2F1016015
:103F600019680F2202EA11110B4A545C0168E14002
:103F700041601C68072505EA9424145D21FA04F4C5
:103F800084601B6805EA5333D25CD140C16070BDC8
:103F9000083802400024F400040100202DE9F0411B
:103FA0000F4E002406F1600804EB440706EB87057A
:103FB00029896868FFF7E6FAE87208EB8700C17A9A
:103FC00000290189406802D0FFF7E5FA01E0FFF718
:103FD000E0FA641CE4B2082CE6D3BDE8F0810000EE
:103FE000340000201B480021F2EE040A01709FED0E
:103FF0001A0AC0ED010A80ED020A80ED030A01747D
:10400000C0ED050A80ED060A80ED070A80ED100A72
:1040100080ED110A9FED110A9FED111A80ED080A3B
:10402000DFED100A80ED0A1AC0ED090AF2EE021A5D
:10403000C0ED0B1A00F1300181EC040A0A219FED5A
:104040000A0A80ED130A9FED090A80ED170AA0F80D
:104050006C10704710020020000000000000804437
:10406000000080456F12833A000048420000C842B9
:104070000029018802D041F0400101E021F0400117
:10408000018070470246002012890A4200D00120B8
:104090007047808970478181704730B502884C88AD
:1040A00002F441530A88CD8822438C882C43224352
:1040B0000C8922434C8922438C892243CC89224398
:1040C0001A430280828B22F400628283098A018271
:1040D00030BD000030B5604D9FB05520287068702D
:1040E000022005F17404ADF8740020781DAA294659
:1040F000FFF7C7FA94ED010A1DA92846FFF770F9EA
:1041000094ED020A1DA92846FFF76AF994ED030A07
:104110001DA92846FFF764F9207C1DAA2946FFF750
:10412000B0FA94ED050A1DA92846FFF759F994ED58
:10413000060A1DA92846FFF753F994ED070A1DA9A1
:104140002846FFF74DF994ED100A1DA92846FFF700
:1041500047F994ED110A1DA92846FFF741F994ED9E
:10416000080A1DA92846FFF73BF994ED0A0A1DA984
:104170002846FFF735F994ED090A1DA92846FFF7EF
:104180002FF994ED0B0A1DA92846FFF729F994EDA4
:104190000C0A1DA92846FFF723F994ED0E0A1DA964
:1041A0002846FFF71DF994ED0D0A1DA92846FFF7D3
:1041B00017F994ED0F0A1DA92846FFF711F994EDA0
:1041C000130A1DA92846FFF70BF994ED130A1DA940
:1041D0002846FFF705F994ED130A1DA92846FFF7B5
:1041E000FFF894ED130A1DA92846FFF7F9F894ED9E
:1041F000170A1DA92846FFF7F3F894ED170A1DA921
:104200002846FFF7EDF894ED170A1DA92846FFF799
:10421000E7F894ED170A1DA92846FFF7E1F8B4F86E
:104220006C001DAA2946FFF72CFA742200212846AB
:1042300000F0DCFD74220021684600F061FD0020E2
:1042400069462B5C0A5C9A4203D1401C80B27428F8
:10425000F7D31FB030BD00009C01002010B504460C
:1042600002E0FFF79BF9641C20780028F9D110BD0B
:1042700070B5054616460C46EE20FFF78FF9B120C3
:10428000FFF78CF91020FFF789F9280AFFF786F964
:10429000E8B2FFF783F9200AFFF780F9E0B2FFF7F1
:1042A0007DF93046FFF77AF9FF20FFF777F9FC2018
:1042B000FFF774F9FF20FFF771F9BDE87040FF20A8
:1042C000FFF76CB970B5054616460C46EE20FFF7B1
:1042D00065F9B120FFF762F90420FFF75FF9280ABA
:1042E000FFF75CF9E8B2FFF759F9200AFFF756F932
:1042F000E0B2FFF753F93046FFF750F9FF20FFF720
:104300004DF9FC20FFF74AF9FF20FFF747F9BDE818
:104310007040FF20FFF742B970B5054616460C46BF
:10432000EE20FFF73BF9B120FFF738F90320FFF744
:1043300035F9280AFFF732F9E8B2FFF72FF9200A1A
:10434000FFF72CF9E0B2FFF729F93046FFF726F91D
:10435000FF20FFF723F9FC20FFF720F9FF20FFF7EC
:104360001DF9BDE87040FF20FFF718B9084810B5E7
:10437000807D084A012807D0002010801188BDE800
:1043800010400020FEF74CBC01F014F8F6E70000E6
:10439000800200203000002010B50446EE20FFF718
:1043A000FDF8B120FFF7FAF80020FFF7F7F8200A30
:1043B000FFF7F4F8E0B2FFF7F1F8FF20FFF7EEF8AF
:1043C000FC20FFF7EBF8FF20FFF7E8F8BDE810400E
:1043D000FF20FFF7E3B800000CB500222749009248
:1043E0000192086840F4803008604FF4A0430868E8
:1043F00000F4003001900098401C0090019810B922
:1044000000989842F3D10868800334D501200190C8
:104410001A484030026842F0805202601848026830
:1044200042F44042026015480830026802600268A7
:1044300042F400420260026842F4A0520260031F8C
:10444000104A1A600A6842F080720A600A68920193
:10445000FCD50D4940F205720A60016821F00301A4
:104460000160016841F0020101600168C1F381014E
:104470000229FAD10CBD01920CBD000000380240A7
:104480000070004008544007003C024070B50546EB
:1044900016460C46EE20FFF781F8B120FFF77EF8B4
:1044A0001020FFF77BF8280AFFF778F8E8B2FFF74B
:1044B00075F8200AFFF772F8E0B2FFF76FF83046A0
:1044C000FFF7CCFEFF20FFF769F8FC20FFF766F846
:1044D000FF20FFF763F8BDE87040FF20FFF75EB8EC
:1044E0003EB5002205460C460092019210EE100ADD
:1044F000029203F03BFB41EC100B06A153EC102B96
:104500006846FBF753FF6A4621462846FFF7BEFF81
:104510003EBD0000252E316C660000003EB5002334
:104520000C4605460093019305A168460293FBF7EC
:104530003DFF6A4621462846FFF7A8FF3EBD000022
:10454000256400004FF0E0210428086903D020F022
:1045500004000861704740F00400FAE710B502F06B
:10456000CBFC012803D0BDE8104002F0A7B910BD74
:10457000124810B5016841F47001016010480168EB
:1045800041F0010101600E4A002108321160026809
:104590000C4B1A400260031D0B4A1A60026822F499
:1045A0008022026006480C300160FFF715FF0349C6
:1045B0004FF000608039086010BD000088ED00E019
:1045C00000380240FFFFF6FE1030002470B5154D94
:1045D0000121284600F037F801281DD1124C20682F
:1045E000401C206000F08EF821686420491CB1FB5B
:1045F000F0F200FB121030B10A20B1FBF0F200FB28
:10460000121038B108E000F071F800F0D9F800207D
:10461000206001E000F06AF82846BDE87040012102
:1046200000F004B80004004000010020C9430182EA
:1046300070470029018802D041F0010101E021F01A
:1046400001010180704702460020138A92890B42C3
:1046500002EA010202D0002A00D001207047002A9D
:10466000828901D00A4300E08A43828170470000BA
:1046700030B50288164C174DA0420DD0A8420BD081
:10468000B0F1804F08D0144B984205D0134B98429C
:1046900002D0134B984203D122F070034A881A4388
:1046A000104B984206D0104B984203D022F440732E
:1046B0000A891A4302804A68C2620A880285A042B7
:1046C00001D0A84201D1897A01860121818230BDC1
:1046D00000000140000401400004004000080040C8
:1046E000000C004000100040001400400448D0E9D5
:1046F0000412491C42F10002C0E904127047000094
:104700000000002070B52B482B4D2C4CD0E9021234
:10471000491C42F10002C0E90212002105EB011020
:104720000078012842D194F8600001283ED104EBC2
:10473000411090F82020012A04D0022A12D0032A26
:1047400034D121E0D0E90A2352EA030605D0521EF3
:1047500043F1FF33C0E90A2328E00022C0E90A221E
:1047600002220EE0D0E90C2352EA030605D0561EC1
:1047700043F1FF32C0E90C6218E00022C0E90C22CC
:10478000032280F8202011E0D0E90E2352EA03062C
:1047900005D0561E43F1FF32C0E90E6206E000224A
:1047A000C0E90E2280F8202060188270491C01297F
:1047B000B4DD70BD00000020100200208002002047
:1047C0000448D0E90612491C42F10002C0E9061271
:1047D00070470000000000201FB501210220FFF7F4
:1047E00065FB6320019042F2CF00ADF8000000208D
:1047F000124CADF80200ADF8080069462046FFF7FC
:1048000037FF01212046FFF711FF01221146204604
:10481000FFF725FF01212046FFF70BFF1D208DF834
:104820000C0007208DF80D0003208DF80E000120EC
:104830008DF80F0003A8FEF7EDFF1FBD0004004038
:104840000020FFF7A9BD000070B5154C40F22551BE
:10485000204600F0D4F800280ED0204600F05CF985
:10486000104AC1B21088030406D444044FF0000378
:1048700006D50A2901D0138070BD40F400400DE038
:104880000D2909D0C0F30D04074D401C80B22955F5
:104890001080C728EFD870BD40F48040108070BDF4
:1048A00000100140F80000201823002070B51A4CB9
:1048B0000121204600F09CF818B10121204600F0AB
:1048C0002DF80821204600F093F818B10821204661
:1048D00000F024F80221204600F08AF818B10221E5
:1048E000204600F01BF840F225552946204600F0EE
:1048F00086F800280FD0204600F00EF9C0B201F073
:10490000A1FA2021204600F009F829462046BDE8FA
:10491000704000F006B870BD00480040C9430180F7
:1049200070470A0A01219140C9430180704700295C
:10493000818902D041F4005101E021F400518181CC
:1049400070470000224910B5884206D1012110208D
:10495000FFF7D0FA0021102020E01E49884202D142
:1049600001214C0429E01C49884202D101218C0418
:1049700023E01A49884202D10121CC041DE01849E4
:10498000884202D101210C0517E01649884209D15D
:1049900001212020FFF7AEFA00212020BDE81040C1
:1049A000FFF7A8BA1049884202D101218C0704E020
:1049B0000E4988420AD1012144052046FFF782FAB8
:1049C0002046BDE810400021FFF77CBA10BD000072
:1049D000001001400044004000480040004C0040EE
:1049E000005000400014014000780040007C00406E
:1049F0000246002012880A4200D00120704770B59C
:104A000001F01F0501260024C1F3421306FA05F246
:104A1000012B0FD0022B0FD0838A4FEA112100887F
:104A2000134206FA01F600EA060001D000B10124A3
:104A3000204670BD8389F0E7038AEEE710B5C1F325
:104A4000421301F01F040121A140012B07D0022BCA
:104A500007D01430002A026805D00A4304E00C3065
:104A6000F8E71030F6E78A43026010BD7FB50446D0
:104A7000008A0D46C98820F4405001432182A08954
:104A800041F20C618843A9882A8911436A8902434B
:104A90001143A181A08A20F44071A8890843A08213
:104AA0006846FFF733FA1A48844202D01948844214
:104AB00001D1039800E00298A189090400EBC0012C
:104AC00001EB0010296801D5490000E08900B0FB26
:104AD000F1F06422B0FBF2F109010B096FF0180547
:104AE0006B4300EB8300A3891D044FF0320306D50E
:104AF00003EBC000B0FBF2F000F0070005E003EBB1
:104B00000010B0FBF2F000F00F00084320817FBDE1
:104B100000100140001401408088C0F30800704775
:104B2000C1F308018180704770B5494C494D208818
:104B300005287BD2DFE800F08A8A038A7D00AA7DFF
:104B40000421FFF795FB95F8602005212088FFF7E9
:104B50008FFBEA7D05212088FFF78AFB2A7E06214C
:104B60002088FFF785FB95F86000012857D00122C7
:104B700005212088FFF7A6FB012206212088FFF7E8
:104B8000A1FB6A7E07212088FFF772FB324E0821C5
:104B9000208896ED100AFFF7A3FC95ED030A092182
:104BA0002088FFF79DFC95ED010A0A212088FFF778
:104BB00097FC95ED020A0B212088FFF791FC3278D3
:104BC0000D212088FDF7B1FE327C0E212088FDF7F3
:104BD000ACFEAA780F212088FDF7A7FEEA78102105
:104BE0002088FDF7A2FE2A7811212088FDF79DFE7E
:104BF0006A7813212088FDF798FE2878012816D0BE
:104C0000002212212088FFF787FB287801281DD178
:104C1000AA8A2088BDE870401221FFF77FBC0022DD
:104C200005212088FFF74EFB0022A6E70EE00122B7
:104C3000E7E795ED040A0921FFF752FC95ED030A19
:104C40002088BDE870400A21FFF74ABC70BD000013
:104C5000280000208002002010020020FEE7000053
:104C600070B5040300F010F900F0BAF80E4E4FF4DE
:104C7000804529463046FEF78CFC2020FEF788FB55
:104C8000C4F30740FEF784FBC4F30720FEF780FB64
:104C9000E0B2FEF77DFB29463046FEF77CFCBDE81E
:104CA000704000F09DB80000000402407CB5012176
:104CB0000220FFF7EFF801208DF8040000228DF8A4
:104CC000062003218DF805100B4D4FF480448DF81C
:104CD0000700009469462846FEF708FC214628464E
:104CE000FEF759FCFEF7F6FA0820FEF76BFB00F022
:104CF00035F8024908807CBD000402402A000020EB
:104D00002DE9F041DFF850800C4606464FF480470D
:104D1000154639464046FEF73CFC0320FEF738FBBB
:104D2000C4F30740FEF734FBC4F30720FEF730FB63
:104D3000E0B2FEF72DFB002405E0FF20FEF728FB84
:104D40003055641CA4B2AC42F7D339464046BDE8A6
:104D5000F041FEF720BC0000000402402DE9F041C4
:104D6000124F4FF48046002431463846FEF711FCBE
:104D70009020FEF70DFB0020FEF70AFB0020FEF757
:104D800007FB0020FEF704FBFF20FEF701FB44EACF
:104D90000025FF20FEF7FCFA40EA050431463846BC
:104DA000FEF7F9FB2046BDE8F08100000004024058
:104DB00070B50A4D4FF4804421462846FEF7E9FBC2
:104DC0000520FEF7E5FAFF20FEF7E2FA0646214647
:104DD0002846FEF7E0FB304670BD000000040240AC
:104DE00010B5FFF7E5FFC007FBD110BD2DE9F05F5F
:104DF000C1F30B06DFF88C800F0BC6F580548A4692
:104E000081461546A24200D8144639038B464FF41A
:104E100080524046FFF774FF002006E0321818F871
:104E20000210FF2903D1401C80B2A042F6D3A04259
:104E300021D23846FFF714FF002006E019F80020C1
:104E40008319401C08F8032080B2A042F6D35946CB
:104E50004FF48052404600F02BF8A5420FD0281B9B
:104E6000A144A244002685B24FF480547F1CA54281
:104E7000CBD82C46C9E7224651464846EBE7BDE869
:104E8000F09F00005003002070B5084D4FF480449F
:104E900021462846FEF77DFB0620FEF779FA2146DB
:104EA0002846BDE87040FEF776BB000000040240D3
:104EB0002DE9F0410746C8B2C0F580740E4615468C
:104EC000A24200D814464FF4807822463146384634
:104ED00000F00EF8A54208D0281B2744264485B2CE
:104EE0004446A542F1D82C46EFE7BDE8F08100002A
:104EF0002DE9F04115460C460646FFF7C5FFDFF8E1
:104F00004C804FF4804739464046FEF742FB022072
:104F1000FEF73EFAC4F30740FEF73AFAC4F307205F
:104F2000FEF736FAE0B2FEF733FA002404E0305D13
:104F3000FEF72EFA641CA4B2AC42F8D339464046C0
:104F4000FEF729FBBDE8F041FFF74ABF000402402D
:104F500003B401984100009850EAC12018BF042012
:104F60004A0D18BF40F0010040F2FF72B2EB515FF2
:104F700008BF40F00200012808BF052002B07047BA
:104F800030B52DED048B81B0B0EE408AF0EE608A32
:104F90006A4651EC180B00F0C7F900989FED329B60
:104FA0007E300090002821DC53EC192B51EC180BBB
:104FB00002F018FB1AD0002140F608004FF0000064
:104FC000044651EC180B02F01FFA08EE100A40F6E6
:104FD000080004EA00014FF00000B5EEC08AF1EECF
:104FE00010FA04BF0220FCF768FC2DE00098FF28AF
:104FF00030DB002108464FF0000000F4400553EC80
:10500000192B51EC180B02F091FC8CBF00240124E9
:105010000220FCF752FC9FED168A4DB1002C0CBF0C
:105020004FF400004FF48000A84218BF9FED118A92
:10503000042108464FF00000002C01BFB1EE480AE1
:1050400001B0BDEC048B30BDB0EE480A01B0BDEC40
:10505000048B30BD51EC180B02F0D6F901B000EE14
:10506000100ABDEC048B30BD000000000000000001
:105070000000807FFFFF7F7F30B540F2FF742DED91
:10508000048BF0EE608A18EE901A85B0B0EE408A7C
:105090009FED2B9B05468DED008B34EA115147D0D7
:1050A00053EC192B51EC180B02F09CFA40D02A4615
:1050B00051EC180B02F048FE41EC180B18EE900A68
:1050C0008DED008B34EA10501CD053EC192B51ECB1
:1050D000180B02F087FA2BD10220FCF7EEFB00F050
:1050E00043F810EE901A18EE900A8DED020B8DED3C
:1050F000008B61F31E0003909DED020B05B0BDEC2B
:10510000048B30BD0220FCF7D8FB00F01DF810EE38
:10511000901A18EE900A8DED020B8DED008B61F365
:105120001E0003909DED020B05B0BDEC048B30BD5D
:1051300005B0B0EE480AF0EE680ABDEC048B30BD55
:1051400000000000000000009FED050B10B553ECBF
:10515000102B51EC100B02F0EBFA41EC100B10BDD0
:1051600000000000000000709FED050B10B553EC2F
:10517000102B51EC100B02F0DBFA41EC100B10BDC0
:10518000000000000000001010B5044691ED000B77
:10519000FFF7F6FE84ED000A10BD10B5044690ED51
:1051A000000B0846FFF768FF84ED000B10BD303898
:1051B0000A2801D201207047002070477047000084
:1051C00010B504460420FFF7BDF90A484FF47A7180
:1051D000047014FB01F1012242804FF0E0200269CB
:1051E00042F0020202614161016941F00101016185
:1051F00010BD0000F400002070B5044601F07CFEF4
:1052000001280CD0094D6888844203D3B4FBF0F028
:1052100001F0E2F86888B4FBF0F100FB11444FF4B0
:105220007A706043BDE8704000F002B8F4000020DE
:1052300070B54FF0E02500216C69094AAB6912781E
:105240005043AA699A42FCD002D2A3EB020302E0C7
:10525000A4EB02063344194413468142F1D370BDD6
:10526000F40000209FED260A26490020F0EE400AB7
:105270004FF4FA6331F81020401C01EE102A9842D6
:10528000B8EE411A31EE000AF4DB1E4ADFED1E1AB9
:105290001320283A80EE211A02EB400131F8021C5B
:1052A00022F8101000EE101A401E0028B8EE400A36
:1052B00070EE200AF0DC1549BCEEC10A70EE810ADE
:1052C000B3EE041A10EE100A80EE810A1080104826
:1052D00081ED040A90ED0A1AD0ED080AD0ED0B1A00
:1052E00090ED092A31EE601A30EE600A31EEC22AE2
:1052F000C1EE021AC0EE210AC1ED030A7047000098
:1053000000000000781300200000FA448002002012
:105310001002002003490A885206FCD5C2B28A80D6
:10532000704700000010014010B582B01446CDE96E
:1053300000010023009A2360194B21F0004098429D
:105340002ADA024328D0B0F5801FA8BF226810DAFD
:105350009FED150B53EC102B9DED000B51EC100B3A
:1053600002F0E6F9CDE900016FF0350221F00040CE
:1053700022600F4B6FF31E5103EB2050104420604E
:1053800041F0FF5040F0005001909DED000B00BF38
:1053900002B051EC100B10BD9DED000BF8E70000C2
:1053A0000000F07F000000000000000000005043FB
:1053B00002FCFFFF08489FED070ADFED080A90EDA9
:1053C000101A074901EE200ABCEEC00A10EE100ABE
:1053D000088070470000FA4310020020C771C243E2
:1053E0003000002062B6FDF763FBFDF7D3FAFDF74E
:1053F000C7FA01F0EBF8FEE72DE9F041184E0F4631
:105400000446F5683068001D00F030FD38B930689A
:1054100090F82C1001208840316981433161601C73
:1054200007D137B13168BDE8F0410E48091D00F0E1
:1054300010BE30682C44AC424460316805D2B06B79
:10544000BDE8F041091D00F0ECBD706B091D00F0D6
:10545000E8FDB06A844200D2B462BDE8F081000089
:1054600014010020F02600202DE9F041054600F04F
:10547000FDFD2D4EB068401CB06030682B4F10B160
:10548000706930B32BE03560B068012827D1002463
:1054900004EB840007EB800000F0B5FD641C202CB9
:1054A000F6D3234800F0AFFD2148143000F0ABFDE7
:1054B0001F48283000F0A7FD1D483C3000F0A3FD38
:1054C0001B48503000F09FFD194870631430B063E2
:1054D00005E03068E96AC06A884200D83560706AC1
:1054E0000121401C70626864E86A3269814011439E
:1054F000316100EB800007EB8000291D00F0A9FD61
:1055000000F0F0FD706900280CD03068E96AC06ACC
:10551000884207D207494FF080500860BFF34F8F91
:10552000BFF36F8FBDE8F08114010020202400201C
:10553000A026002004ED00E010B500F097FD0E4C11
:105540002068A0B90D4800F05EFD0C48143000F052
:105550005AFD0A48E0601430206100221021052025
:1055600001F0D4F9206010B105A100F091FEBDE872
:10557000104000F0B7BD00005001002004270020BB
:10558000546D72510000000070B5124E124D1CE0B7
:1055900001F066F8306820B1002401F0DBFDA4B909
:1055A00001E00124F9E700F061FDF068C468201D06
:1055B00000F05CFCA868401EA8606868401E686037
:1055C00000F090FD204600F052F868680028DFD116
:1055D00070BD0000DC2600201401002030B4026CF5
:1055E0000B46002A0BD0C1681144C1604468A14237
:1055F00001D30168C16030BC1846FBF733B830BC3A
:1056000070472DE9F041856B174604460026026C71
:1056100082B1C7B1E068FBF725F8E168206C091A90
:10562000E1602268914202D26168081AE060022FAC
:1056300016D017E02068A8B9606801F0E5FC0646BE
:10564000002060600EE0A068FBF70CF8216CA068F9
:105650000844A0606168884204D32068A06001E02B
:1056600005B16D1E6D1CA5633046BDE8F08110B517
:105670000446006B00F068FD2046BDE8104000F0D5
:1056800063BD000010484FF4A041420706D0C01D82
:105690000D4920F00700411AC1F5A0410B4A002333
:1056A0000144C2E900030839103A21F007011160F2
:1056B0004B600B600B1AC0E9001393604FF0004081
:1056C0005360D060704700002C270020800100202C
:1056D000074E4FF08054074DFFF756FF3068012802
:1056E000FAD92C60BFF34F8FBFF36F8FF4E7000040
:1056F0002024002004ED00E02DE9F047DDE90984D5
:105700000E461746824691009946089DA522206BB9
:10571000FAF7EDFF6FF00301206B01EB87010844FE
:1057200020F00707780705D040F22B3219A11EA000
:10573000FAF730FE00202218315C82F83410315C18
:1057400011B1401C1028F6D3002684F84360202DA8
:1057500000D31F25E562C4E91356201D00F05EFC4E
:1057600004F1180000F05AFC2461C5F120006462C5
:10577000A061666584F858604A465146384600F094
:1057800003FB2060B8F1000F01D0C8F80040BDE86D
:10579000F08700002E2E5C4672656552544F535CB4
:1057A0007461736B732E63004572726F723A257366
:1057B0002C25640D0A00000030B5114900E01146A7
:1057C0000A688242FBD34B685C18844203D140686C
:1057D00018444860084643681C18944209D1084C94
:1057E000103C2468A24209D052681A4442600A68F8
:1057F00012680260814200D0086030BD0460F9E7A1
:105800008001002070B5002441600B4D0061914281
:1058100006D8D11A8269914206D2011D286907E093
:105820009A4203D2994201D3012403E0011DE868A2
:1058300000F0F7FB204670BD5001002010B5044673
:1058400000F014FCA06B20B1002400F04BFC2046BB
:1058500010BD0124F9E700002DE9F34100980F463F
:105860000026846C2CB940F6CE1216A11AA0FAF7C5
:1058700091FDA06BE16B884205D340F6CF1211A1D8
:1058800015A0FAF787FDA06BE16B88420CD294F962
:1058900045503A4669462046FFF7B3FE0646681C67
:1058A00005D06D1C84F845503046BDE8FC81606A27
:1058B0000028F9D004F1240001F000FC0028F3D006
:1058C0000126F1E72E2E5C4672656552544F535CFB
:1058D00071756575652E63004572726F723A257336
:1058E0002C25640D0A000000F8B5054614480E4644
:1058F000C068C068C468201D00F0B8FAE0690128DB
:1059000017D1A0692B46411932462046FFF77AFF8E
:1059100078B100200346014600902A46204601F057
:10592000FFFC30B907494FF4027201F11800FAF791
:1059300031FD616A01B02046BDE8F0400847000033
:10594000500100208472000870B586B02F4E53E0DD
:105950000198002806DADDE90301029A90470198D0
:10596000002849DB039C606910B1201D00F07EFA1D
:1059700005A800F0A7F8054601980A283CD2DFE800
:1059800000F00505053B273805053B270298A1696E
:10599000034601442A462046FFF734FF00282BD057
:1059A000616A20468847E069012825D100200090DF
:1059B0000298A169002342181946204601F0B0FC64
:1059C000D0B940F2213212A117A0FAF7E3FC13E09C
:1059D0000298A06128B94FF44E720DA112A0FAF7F7
:1059E000D9FCA0692B4641191A462046FFF70AFF49
:1059F00002E0204600F0A8FB00231A4601A9306807
:105A000000F0C0FF0028A3D106B070BD50010020F7
:105A10002E2E5C4672656552544F535C74696D65F9
:105A200072732E63000000004572726F723A257324
:105A30002C25640D0A000000F8B50D46064600F05E
:105A40000FFE684600F03EF80446009810B101F0E1
:105A500081FBF8BD1148ADB101690968D9B10025D4
:105A6000311B2A46006800F025FC01F073FB00287A
:105A7000EFD10B494FF080500860BFF34F8FBFF359
:105A80006F8FF8BDA642EBD801F064FB214630468B
:105A9000FFF72AFFF8BD0125E2E7000050010020D2
:105AA00004ED00E00648416B096829B1416BC96803
:105AB000C9684968816270474FF0FF31FAE700001A
:105AC0001401002070B5054601F024FA064E044684
:105AD000B068844203D200F009F8012000E0002001
