:020000040804EE
:1000000078D1012069020408F13D0408D5380408BC
:10001000ED3D0408C11904088D78040800000000B3
:10002000000000000000000000000000B101040812
:10003000412104080000000005020408BF6804080C
:10004000830204088302040883020408830204086C
:100050008302040883020408593104086931040842
:1000600071310408793104088131040883020408DD
:10007000851E040883020408E51E040883020408A0
:10008000830204088302040883020408830204082C
:1000900083020408830204088302040889310408E7
:1000A000830204088302040883020408830204080C
:1000B000830204083D690408A16904088302040856
:1000C00083020408830204088302040883020408EC
:1000D00083020408796D040883020408E56D0408AE
:1000E00061310408830204088302040883020408BF
:1000F00083020408830204088302040883020408BC
:1001000083020408830204088302040883020408AB
:10011000830204088302040883020408830204089B
:100120001D1F040883020408411F040883020408F9
:100130008302040861290408830204088302040876
:10014000830204088302040883020408830204086B
:10015000830204088302040883020408830204085B
:10016000830204088302040883020408830204084B
:10017000830204088302040883020408830204083B
:100180008302040883020408DFF810D000F0A4FE04
:1001900000480047EDC10408AFF3008078D101208A
:1001A00030BF72B6704762B6704780F308887047F8
:1001B0002A4B19680868B0E8F04F80F30988BFF34C
:1001C0006F8F4FF0000080F311887047000000002F
:1001D00006480068006880F3088862B661B6BFF31D
:1001E0004F8FBFF36F8F00DF00BF00BF08ED00E04F
:1001F000DFF80C00016841F470010160704700BF36
:1002000088ED00E0EFF30980BFF36F8F134B1A689E
:100210001EF0100F08BF20ED108A20E9F04F10608B
:1002200008B44FF0500080F31188BFF34F8FBFF335
:100230006F8F16F027F84FF0000080F3118808BC8C
:1002400019680868B0E8F04F1EF0100F08BFB0EC56
:10025000108A80F30988BFF36F8F70475008002021
:10026000EFF30580704700000648804706480047C6
:10027000FEE7FEE7FEE7FEE7FEE7FEE7FEE7FEE756
:10028000FEE7FEE7D56804088901040840EA010397
:100290009B0703D009E008C9121F08C0042AFAD23C
:1002A00003E011F8013B00F8013B521EF9D2704700
:1002B000D2B201E000F8012B491EFBD270470022A8
:1002C000F6E710B513460A4604461946FFF7F0FF55
:1002D000204610BD421C10F8011B0029FBD1801ADA
:1002E000704710B5002200E0521C835C8C5CA34276
:1002F00001D1002BF8D1D8B2E1B2401A10BD30B50F
:1003000004460020034600E05B1C934203D2E05CFD
:10031000CD5C401BF8D030BD034611F8012B00F82E
:10032000012B002AF9D118467047000070B50F4D17
:1003300000B92868002412E00A4602E09E4203D079
:10034000521C1378002BF9D1DAB2224305D02BB11D
:1003500024B1002100F8011B04E00446401C06788B
:10036000002EE9D12860204670BD000084090020DD
:100370000FB400B58DB010A909900B9000914FF00B
:10038000FF300A9000200C90054806900548079021
:100390006A4609A80F9900F061FC0DB05DF814FBE6
:1003A000790C0408970C04082DE9FF5F1D464FF0F7
:1003B000FF3BD5E9014691465F464FF00008A96929
:1003C0007F1C01988847296A824688470028F6D111
:1003D000BAF1FF3F0CD024F4C064002E19DD600692
:1003E00014D5BAF12B0F09D0BAF12D0F0ED103E0BD
:1003F000584604B0BDE8F09F44F48064A9697F1CAE
:1004000001988847761E8246002E02DDBAF1300F31
:1004100003D0B9F1000F26D032E0A969761E44F46A
:1004200000747F1C019888478246002E05DDBAF1D2
:10043000780F06D0BAF1580F03D0B9F1000F10D0E1
:100440001EE0B9F1000F02D0B9F1100F18D1A9695F
:10045000761E24F400747F1C019888478246102081
:1004600002E0082000E00A20814609E008FB0908B4
:10047000A969761E44F400747F1C0198884782465F
:10048000002E05DD4946504600F0D4FB0028EDDA89
:10049000E96901988847A00502D46FF00100A8E738
:1004A000E00725D1600613D5600502D5C8F100002C
:1004B00000E0404629680A1D2A600968220501D526
:1004C000087015E0220701D5088011E008600FE0F0
:1004D0002868011D29600068210502D580F8008088
:1004E00006E0210702D5A0F8008001E0C0F80080F6
:1004F00038467EE72DE9FF4F087883B09946FF28FC
:1005000005D0491C2D2804D00024002008E000203C
:100510000BE00124F9E700EB800003EB4000491CED
:100520000B78FF2BF7D104B14042002302931478DB
:1005300019461D462D2C01D02B2C04D1521C2D2CDC
:1005400013D000240294AA461478FF2C0FD00A2559
:10055000A3FB057801FB05814FF0000C03FB0C1198
:10056000521CE3194AEB0101EEE70124EAE781445A
:1005700053EA010002D019F5C87F06DA039800217A
:10058000C0E9001107B0BDE8F08F0025AE4E2F4640
:10059000DFF8B882184600F092FCCDE90001B9F10D
:1005A000000002DAC9F1000400E004460023A74A73
:1005B0001AEB030B42EB045A12E0E00707D02A467D
:1005C00033463846414600F0ECF9074688462A464D
:1005D00033461046194600F0E4F905460E4664100D
:1005E000002CEAD1DDE90001B9F1000F5A4653466B
:1005F00006DA00F0F5FB3A46434600F0F1FB05E071
:1006000000F0CFF93A46434600F0CBF9029A0AB11E
:1006100081F00041039AC2E90001B3E72DE9FF4FE1
:100620001F468DB0D7E901464FF0FF382E204546D2
:100630004FF000090B90B9696D1C0E988847396A14
:10064000824688470028F6D1BAF1FF3F0AD024F449
:10065000D064002E11DDBAF12B0F08D0BAF12D0FA6
:100660000BD102E0404611B08DE744F48064B969D3
:100670006D1C0E9888478246761E6946600501D536
:100680002D2000E02B208DF8000001F1010B0DF171
:10069000200809E0B9696D1C0E98884782460F98BA
:1006A00044F40074761E0560002E02DDBAF1300FAE
:1006B000F0D00B998A453ED144F0800406E00F99B2
:1006C000681CA9F1010944F400740860B9696D1C43
:1006D000761E0E98884782463028F0D02BE00B9982
:1006E0008A4505D1200603D444F08004761E18E024
:1006F000504607F06BFB08B30DF11301761E44F46E
:1007000000748B4508D2AAF130000BF8010B2006CB
:1007100007D5A9F1010003E0200602D409F1010088
:100720008146A00502D50F99681C0860B9696D1C47
:100730000E9888478246002ED1DC53E0002E51DD12
:10074000BAF1650F02D0BAF1450F4BD1A00549D5DA
:10075000B9696D1C24F44074761E0E988847824651
:10076000002E0CDD2B2804D0BAF12D0F07D144F454
:100770008074B9696D1C0E9888478246761EE00524
:1007800001D52D2100E02B2108F8011BCDF82C808C
:1007900021E00DF12901761E44F4007488450CD245
:1007A000AAF1300010F0FF0088F8000002D10B9988
:1007B000884509D908F1010806E0E00501D524487B
:1007C00001E042F20F708146B9696D1C0E988847AE
:1007D00082460F980560002E04DD504607F0F6FAB9
:1007E0000028D6D1F9690E988847FF208BF80000C1
:1007F00088F800000020069007904B466A4608A93A
:1008000006A8FFF777FEA00502D46FF001002AE7E3
:1008100014F0240F0AD0E00714D1DDE9061238687D
:10082000031D3B600068C0E900120BE0DDE9060132
:1008300000F06CF90146E00704D13868021D3A6007
:100840000068016028460EE7000014400000F03FF9
:10085000F1D8FFFF2DE9FE4F804681EA0300C00F6B
:100860000C46009021F0004123F00045B8EB020057
:10087000A94105D24046214690461C460B460246F9
:1008800023F00040104347D0270DC7F30A00C3F3FD
:100890000A510290401A019040286BDAC3F313000A
:1008A00040F4801B0098924620B10023D2EB030A4B
:1008B00063EB0B0B01985946C0F14002504600F023
:1008C00088F906460D4650465946019A00F0A0F9AF
:1008D00010EB08006141002487EA115284EAE773B3
:1008E0001A4340D0009A62B3019A012A4FEA075294
:1008F00015DC001B61EB02014FF0004202EA0752D7
:10090000CDE90042001C41F5801132462B4600F033
:1009100019FA03B0BDE8F08F40462146F9E7001B05
:1009200061EB0201001C41F5801300185B412018A7
:10093000A2F5001747EB030140EAD570B6196D41E7
:1009400011E06D084FEA360645EAC0754FEA0752D6
:10095000001B61EB0201001C41F5801149084FEAC0
:1009600030000019514132462B4603B0BDE8F04F2C
:1009700000F0D9B90098012240000023D0EB020218
:1009800063EBE073009821464FEAE074B8EB000097
:1009900061EB0401E9E783F000435BE781F000418C
:1009A00058E72DE9FE4F81EA030404F0004421F0EA
:1009B000004100944FF0000B23F0004350EA010483
:1009C0005ED052EA03045BD0C3F30A54C1F30A5564
:1009D0002C44A4F2F3340194A0FB0254C1F313019C
:1009E00041F48011C3F3130343F4801301FB024469
:1009F00000FB034E840A970A44EA815447EA83576E
:100A0000A4FB076802958D0A05FB07854FEA932C26
:100A100004FB0C542705029D4FEA065847EA163797
:100A2000B5EB08056EEB070C870E920E47EA8117AF
:100A300042EA8312A7FB0201B6EB0B0164EB000450
:100A40002B0D43EA0C335E1844EB1C50DA4651463A
:100A5000E7FB0201C5F313044FEA0B3343EA1453D7
:100A60004FEA0432019C43EA0603A4F10C04029409
:100A7000009CCDE900B400F065F903B0BDE8F08F4B
:100A800000200146F9E7C1F30A52C1F3130140F215
:100A9000FF3341F480119A4202DA00200146704788
:100AA00040F233439A42A2F2334202DC524200F057
:100AB0009FB800F08EB800F0004230F000400AD03D
:100AC000C10D01F56071C0F3160042EA0151C20880
:100AD00040071143704700200146704730B5041E9F
:100AE00071F1000404DB4FF00044404264EB01016B
:100AF000141E73F1000405DB1C464FF00043524204
:100B000063EB0403994208BF904230BD01F00043FB
:100B100030B421F0004150EA010206D00A0DA2F5DE
:100B20006072C1F31301002A02DC30BC0020704760
:100B3000440F44EAC104C100E01830BC00EBC250CD
:100B400000F0BAB830B50B4601460020202201243F
:100B500009E021FA02F59D4205D303FA02F5491B8B
:100B600004FA02F52844151EA2F10102F1DC30BDA1
:100B70002DE9F05F0546002092469B4688460646D2
:100B8000814640241BE0284641464746224600F065
:100B90002FF853465A46C01A914110D311461846B1
:100BA000224600F016F82D1A67EB01084F46224640
:100BB0000120002100F00DF817EB00094E41201E26
:100BC000A4F10104DFDC484631462A464346BDE82D
:100BD000F09F202A04DB203A00FA02F1002070473F
:100BE0009140C2F1200320FA03F31943904070476B
:100BF000202A04DB203A21FA02F00021704721FA72
:100C000002F3D040C2F120029140084319467047D8
:100C1000202A06DBCB17203A41FA02F043EAE073C0
:100C200006E041FA02F3D040C2F1200291400843AD
:100C3000194670473A2800D2303820F02002412A65
:100C400001D3A2F13700884201D34FF0FF30704743
:100C5000026811441378016018467047D160044956
:100C600051610449116200211161114600F04CB933
:100C7000510C0408FD0E0408426842B1016811F8E5
:100C8000013B23B1521EC0E90012184670470121F2
:100C9000C160881E704742685AB1C368016843B991
:100CA00083688B4205D0491E521CC0E90012002007
:100CB00070474FF0FF3070470029A8BF7047401CB5
:100CC000490008BF20F00100704710B4B0FA80FC62
:100CD00000FA0CF050EA010404BF10BC704749B19F
:100CE000CCF1200421FA04F411FA0CF118BF01210F
:100CF00021430843A3EB0C01CB1D4FEA00614FEAEF
:100D0000102042BF002010BC704700EBC3501044BD
:100D10000029A4BF10BC7047401C490008BF20F048
:100D2000010010BC704710B5141E73F1000408DAFE
:100D3000401C41F1000192185B411A4301D120F09F
:100D4000010010BD2DE9F04D92469B4611B1B1FA5C
:100D500081F202E0B0FA80F220329046FFF739FFCC
:100D600004460F4640EA0A0041EA0B0153465A4640
:100D7000084313D0114653EA010019D0C8F14002CC
:100D80005046FFF735FF05460E4650465946424647
:100D9000FFF71FFF084305D0012004E02046394635
:100DA000BDE8F08D0020054346EAE0762C4337434A
:100DB0000A986305E40AA0EB08000022FD0A44EA51
:100DC00047540A3002D500200146E9E70105101911
:100DD0006941DDE9084500196941BDE8F04DA2E728
:100DE0002DE9F04D81EA030404F0004B21F00045A9
:100DF00014464FF0000A23F0004150EA050220D0CB
:100E000054EA01021DD0C5F30A570246C5F3130385
:100E1000C1F31300C1F30A5640F4801543F4801364
:100E2000A7EB0608101BD64608F2FD3873EB050049
:100E300002D308F1010801E092185B41B8F1000FFC
:100E400003DA00200146BDE8F08D00204FF4801148
:100E5000064684460EE0171B73EB050705D3121BED
:100E600063EB050306434CEA010C49084FEA3000E6
:100E700092185B4150EA0107EDD152EA030012D00B
:100E800082EA040083EA0501084305D0101BAB4148
:100E900006D20122002306E000224FF0004302E0C8
:100EA0006FF0010253101AEB06004CEB085110EBE7
:100EB0000A0041EB0B01BDE8F04DFFF734BF0EB562
:100EC00040F2334202920022CDE900221346FFF79E
:100ED00039FF03B000BD0000064C074D06E0E06896
:100EE00040F0010394E8070098471034AC42F6D371
:100EF000FFF74EF9A4730508C4730508C0B24FF498
:100F0000F05100F099B900002DE9F34F8BB04FF08C
:100F1000000801F10C000C464FF0010B46460DF1A4
:100F2000080A01906269012101989047051E2DD0A1
:100F3000252D2CD0216A8847C0B162690121019812
:100F40009047216A88470028F7D1411E62690198BD
:100F5000904700E0761CA1690B988847216A884772
:100F60000028F7D1E1690B988847DBE7A1690B9866
:100F700088470746A84201D1761CD3E7E1690B9860
:100F800088477F1C02D1B8F1000F6FD047E10027DE
:100F900062693D463946019890472A2804D1626922
:100FA0000121019890470125DFF8889262690121AB
:100FB00001989047A0F130010A290AD24F45E5DC9B
:100FC00007EB870100EB4107303FDFD445F0100508
:100FD000ECE7E90601D46FF000476C280AD04C28F2
:100FE00014D0682815D06A280DD074281CD07A280F
:100FF0001AD01DE062690121019890476C2802D047
:1010000045F0040514E045F002050DE045F020052B
:101010000AE06269012101989047682802D045F0F2
:10102000080505E045F400656269012101989047D3
:10103000C4E9015765283DD019DC58287AD00CDC6A
:10104000452837D004DC252826D0412831D131E08D
:1010500046282FD047282CD12CE05B2877D0612858
:1010600028D063287CD0642823D15AE0D1E06F28AF
:1010700048D008DC66281DD067281BD0692821D0FD
:101080006E2816D127E0702845D0732868D07528BF
:1010900047D078280DD14DE0A1690B9888470546C7
:1010A00025283FF469AFE1690B9888476D1C3FF430
:1010B0006AAFB4E023466A466FF001000B99FFF770
:1010C000ADFA9FE045F040006060A80723464FF06E
:1010D000000236D43EE0E8077FF447AF2068011DE8
:1010E00021600068290501D506701BE7290701D595
:1010F000068017E7A90703D5F117C0E9006111E7DA
:1011000006600FE745F040006060A80723464FF0F7
:10111000080216D41EE040F60E0125EA01006060C8
:1011200016E045F040006060A80723464FF00A0231
:1011300007D40FE045F040006060A80708D52346BB
:1011400010226FF001000B99AFF300805AE007E026
:10115000234610226FF001000B99FFF725F951E0AB
:101160004FF000094F464B46632802D05B2807D05A
:1011700041E02079C00601D40120A06001273AE0B7
:1011800062690121019890475E2805D14FF001095D
:101190006269494601989047216939B900210A4698
:1011A000534643F82120491C0829FADBB0B32169D2
:1011B00069B9C11700EBD16253110AEB830122F028
:1011C0001F02821A01200B68904003430B60626982
:1011D0000121019890475D28E8D1B9F1000F09D0AD
:1011E0000020514651F82020D24341F82020401CD5
:1011F0000828F7DB02AB224600976FF001000B993D
:10120000AFF3008000280CDA401C08D1BBF1000FBE
:1012100005D04FF0FF300DB0BDE8F08FFFE740463E
:10122000F9E7E90701D108F1010806444FF0000B86
:1012300078E60000CCCCCC0C7F2801D9002208E055
:10124000064A02EB5002C007127800D1120902F0E0
:101250000F02012090400840704700000C72050802
:1012600070B58C1810F8015B15F0070301D110F868
:10127000013B2A1106D110F8012B03E010F8016B95
:1012800001F8016B5B1EF9D12B0705D40023521E18
:101290000DD401F8013BFAE710F8013BCB1A921C80
:1012A00003E013F8015B01F8015B521EF9D5A1427E
:1012B000D8D3002070BD21B1826842F00102826063
:1012C00003E0826822F00102826070470021084A30
:1012D0001168084A1140D0E900231A4383681A4371
:1012E000C3681A431143044AC2F80413704700004C
:1012F00004230140E030FCFF0020014000B59BB01A
:101300000121880504F098FB0121042004F094FBDE
:101310000121080204F0D0FB0420199003208DF86D
:10132000680000208DF86B0019A9324802F0C6F958
:101330000020009030480190304802900020039037
:101340004FF4FA600490002005904FF480600690FE
:1013500040000790800008904011099040020A90D8
:1013600000200B9001200C9000200D900E906946FB
:10137000234800F0B7FE0121214800F027FE00209D
:1013800015904FF470601890002017904FF4403083
:10139000169015A8FFF79AFF00200F9001208DF8F6
:1013A00040008DF8410000201190139001208DF82D
:1013B00050000FA910484C3800F0C0F80723012254
:1013C0000C210D484C3800F0E3F801210A484C3854
:1013D00000F09EF8012108484C3800F0A4F80121E3
:1013E00005484C38FFF767FF03484C3800F02CF9EC
:1013F0001BB000BD000802404C2001404C280020DA
:101400001064024000B59BB00121880504F014FB74
:101410000121042004F010FB0121480204F04CFBE0
:101420000820199003208DF8680000208DF86B00CB
:1014300019A9334802F042F94FF00070009031488A
:10144000019031480290002003904FF4FA6004901C
:10145000002005904FF480600690400007908000C7
:1014600008904011099040020A9000200B90012042
:101470000C9000200D900E906946244800F032FE3A
:101480000121224800F0A2FD002015904FF4706069
:101490001890002017904FF44030169015A8FFF7D1
:1014A00015FF00200F9001208DF840008DF84100BD
:1014B00000201190139001208DF850000FA91148C1
:1014C0004C3800F03BF8072301220D210D484C3821
:1014D00000F05EF801210B484C3800F019F80121AA
:1014E00008484C3800F01FF8012106484C38FFF737
:1014F000E2FE04484C3800F0A7F81BB000BD000025
:10150000000802404C210140EC37002040640240BA
:1015100021B1826842F48072826003E0826822F422
:1015200080728260704721B1826842F400728260EA
:1015300003E0826822F400728260704730B5024690
:10154000002000235068104C20400D790C6844EABC
:1015500005242043506090680C4C2040D1E903548E
:101560002C438D682C434D7944EA45042043906018
:10157000D06A20F470000C7D641EE4B2234340EA7C
:101580000350D06230BD0000FFFEFFFCFDF7FFC03E
:10159000F0B504460D4600200021092D11DDE0685C
:1015A000A5F10A0606EB4607072606FA07F1884367
:1015B000A5F10A0606EB460603FA06F10843E060C9
:1015C0000CE0206905EB4507072606FA07F188437A
:1015D00005EB450603FA06F108432061072A0FDAF6
:1015E000606B561E06EB86071F2606FA07F1884336
:1015F000561E06EB860605FA06F10843606322E0F4
:101600000D2A0FDA206BD61F06EB86071F2606FA77
:1016100007F18843D61F06EB860605FA06F1084354
:10162000206310E0E06AA2F10D0606EB86071F2694
:1016300006FA07F18843A2F10D0606EB860605FAC5
:1016400006F10843E062F0BD816841F080418160AD
:10165000704710B5FF2000F019F80446552C01D151
:10166000002010BD5521FF2000F03CF8FF2000F0C5
:101670000DF80446552C01D10020F2E70120F0E7D7
:1016800010B500F01BFFFFF7E4FF10BD70B5044676
:10169000002600F0EDFF2546E11704EB1161091269
:1016A000A02202EB410188B200F0A8FF01F026F869
:1016B000E11704EB11610912A4EB012188B200F0DB
:1016C0009DFF01F01BF800F0D3FFA12000F096FF72
:1016D00001F014F8002000F033FFC6B200F0F2FF72
:1016E000304670BD70B504460E4600F0C1FF254679
:1016F000E11704EB11610912A02202EB410188B24B
:1017000000F07CFF00F0FAFFE11704EB1161091211
:10171000A4EB012188B200F071FF00F0EFFF30462A
:1017200000F06CFF00F0EAFF00F0CCFF0A2006F0AA
:101730005FFF70BD70B504460D461646EE2002F000
:1017400055F8B12002F052F8232002F04FF8200A99
:1017500002F04CF8E0B202F049F8280A02F046F82C
:10176000E8B202F043F8F0B202F040F8FF2002F0D5
:101770003DF8FC2002F03AF8FF2002F037F8FF2095
:1017800002F034F8052006F033FF70BD10B514F0F8
:10179000B3FE04490860012014F0F5FF0249086017
:1017A00010BD00006C000020780000201CB514F073
:1017B00071FB00201E2103464FF48072CDE900101A
:1017C0002DA1304815F062FA00201D2103464FF488
:1017D0000072CDE900102CA12E4815F057FA002018
:1017E0001C2103464FF48072CDE900102AA12D4838
:1017F00015F04CFA00201B2103468022CDE9001091
:1018000029A12D4815F042FA0020192103464FF472
:101810008072CDE9001029A1304815F037FA002078
:10182000172103468022CDE900102DA1314815F083
:101830002DFA314890F8260668B1012817D100200A
:10184000162103464FF48072CDE900102BA13248D7
:1018500015F01CFA0BE00020162103464FF48072AD
:10186000CDE900102DA1314815F010FA00BF00BFDE
:1018700014F02AFB1CBD0000764750494F5F5461AD
:10188000736B0000FD5C05087655495F5461736B0E
:1018900000000000E562050876494E465F5461731A
:1018A0006B000000115E0508765374617475735FF8
:1018B0005461736B000000002D60050876436F6D66
:1018C0006D756E69636174696F6E5265736F6C7666
:1018D000696E675F5461736B00000000B5500508C6
:1018E0007644697370656E73696E675F5461736B7C
:1018F00000000000115B05087C0000207657696637
:10190000695F426C7565746F6F74685F5265636977
:1019100076655F5461736B00E9630508764574680A
:1019200065726E65745F5461736B0000215B05081E
:101930001CB50121202004F07FF84FF48070009046
:1019400001208DF8040000208DF8060003208DF89A
:10195000050002208DF807006946044801F0AEFE3C
:101960004FF48071014801F01DFF1CBD00140240BE
:10197000704710B54FF4407002F078FAA82006F0D6
:1019800015FE05F0BFF905F0D7F803F08EFF01F062
:1019900045FFFFF7CDFF02F039F8FFF771FE05F0C4
:1019A0009DFF02F06DF801F033FE00200BF0E4F82B
:1019B00002200BF0E1F800F093F900F08BF810BD75
:1019C00000BFFEE708B50A88825CFF2A11D10A88A9
:1019D000521C825CFF2A0CD10A88921C825CFF2A6E
:1019E00007D10A88D21C825CFF2A02D19FED110A1E
:1019F00008BD002200920A88D21C825C00920A88EC
:101A0000921C825C009B42EA032200920A88521CCC
:101A1000825C009B42EA032200920A88825C009B5F
:101A200042EA032200929DED000A0A88121D0A80F4
:101A300000BFDDE70000000030B50446002008E0EC
:101A400015880544655D0D540D5C05B903E0451C22
:101A5000A8B29842F4DB00BF1088184410801846E2
:101A600030BD10B502460888145C401C105C04EBC5
:101A7000002003B20888801C088098B210BD0000C6
:101A800000200549C97A11B90349C97D09B101216D
:101A900000E00021084670472407002010B50446E6
:101AA000EE2001F0A3FE052001F0A0FEE0B201F05F
:101AB0009DFEFF2001F09AFEFC2001F097FEFF2022
:101AC00001F094FEFF2001F091FE052006F090FD4C
:101AD00010BD000010B506F025FD1348A0F28121CD
:101AE000C1F8840600F50071A0F28120C0F88816C4
:101AF0000E4890F82606012809D101F22B21A1F207
:101B0000AC60C0F88C16891CC0F8901609E0064934
:101B10001939A1F51A70C0F88C16091DC0F8901675
:101B200000BF00BF10BD0000891200207C00002013
:101B300039B1084A1268012383401A43054B1A60E1
:101B400006E0044A1268012383409A43014B1A605D
:101B5000704700000074004000B587B001210846BE
:101B600003F06AFF0121480703F086FF102005906B
:101B700003208DF8180002208DF81B0005A90A48E3
:101B800001F09CFD0020019002900390049001A9B7
:101B900000F00CF801210020FFF7CAFF00210846E1
:101BA00000F01EF807B000BD0000024030B5002272
:101BB00000230A4C226840F6FE748440A243D1E917
:101BC00000452C438D682C43CD6844EA050303FA95
:101BD00000F42243014C226030BD0000007400403C
:101BE00008B500220092054A009200F10802009B0D
:101BF0001A440092009A116008BD00000074004071
:101C000008B500220092054A009200F11402009BE0
:101C10001A440092009A116008BD00000074004050
:101C200000B587B00121084603F006FF01214807EF
:101C300003F022FF2020059003208DF818000220D9
:101C40008DF81B0005A90B4801F038FD002001901C
:101C500002900390049001A91020FFF7A7FF012133
:101C60001020FFF765FF00210846FFF7C9FF07B006
:101C700000BD00000000024010B5002417480068B5
:101C800020F440201549086008460068086004E018
:101C9000601CC4B2012006F0CBFC4FF400710F4869
:101CA00001F077FD08B1642CF2DB642C01DB01202C
:101CB00010BD002404E0601CC4B2012006F0B8FC92
:101CC0004FF40071054801F064FD08B9642CF2DBA3
:101CD000642C01DB0120EBE70020E9E7001802405B
:101CE0001CB50121402003F0A7FE4FF400700090C6
:101CF00001208DF8040000208DF8060002208DF8E8
:101D0000050001208DF807006946044801F0D6FC63
:101D100000F09AF8FFF7B0FF1CBD00000018024069
:101D200010B5002404E0601CC4B2012006F080FC61
:101D30004FF40071104801F02CFD08B1642CF2DB67
:101D4000002404E0601CC4B2012006F071FC4FF4D2
:101D50000071094801F01DFD08B9642CF2DB282050
:101D600006F066FC4FF40071034801F012FD08B163
:101D7000012010BD0020FCE70018024070B50024CF
:101D8000002506E06006040EFFF7CAFF0443681C46
:101D9000C5B2082DF6DB204670BD00001CB500F072
:101DA00053F8FFF769FFB0BB002405E0FFF7E6FF3B
:101DB0000DF80400601CC4B2052CF7DB9DF8000090
:101DC0009DF8011008449DF8021008449DF8031086
:101DD00008449DF8041088422BD19DF8020000EEC3
:101DE000100AB8EE400ADFED140A20EE200A13486C
:101DF00080ED010A9DF8000000EE100AB8EE400ADE
:101E0000DFED0D0A20EE200A0C4880ED020A0020CA
:101E10000B4908800DE0FFE7094800880949098857
:101E2000884204DA06480088401C054908800120E1
:101E30001CBD0020FCE70000C520803F08100020EA
:101E4000160700201807002010B50D48006820F480
:101E500040200B4908600846006840F48020086074
:101E60004915074801F09EFC142006F0C1FB4FF411
:101E70000071034801F098FC1E2006F0D9FB10BD4C
:101E80000018024010B51249124800F0B9F8F0B13C
:101E9000104800F0B0F8C0F500700F4988800120AC
:101EA000887300210B4800F091F80C49094800F0B4
:101EB00059F84FF40071074800F040F90121054836
:101EC00000F084F801210648006814F022FB10BDE0
:101ED00000080010286002400C480020400F00104D
:101EE0006C00002010B50120094908704FF0C05166
:101EF000084800F085F850B14FF0C051054800F097
:101F000031F8012240F22661034805F088F810BD3F
:101F1000F8070020586002400048004010B506490C
:101F2000064800F08FF8012805D108F02FFC02497F
:101F3000024800F031F810BD20800010106402400B
:101F400010B50649064800F07DF8012805D108F0D3
:101F50008DFC0249024800F01FF810BD00802010DF
:101F6000406402400246094B9A4201D2084801E00F
:101F70000648103801F000531BB1064B0B40C360FC
:101F800002E0044B0B408360704700001064024085
:101F9000006002407D0F7D0F0246094B9A4201D23C
:101FA000084801E00648103801F000531BB1064B09
:101FB0000B40C36002E0044B0B408360704700009D
:101FC00010640240006002407D0F7D0F21B1026865
:101FD00042F00102026003E0026822F001020260A6
:101FE0007047014600200A6802F001020AB1012090
:101FF00000E0002070470146486880B2704700004A
:1020000030B503460A46002000240B4DAB4201D2F6
:102010000A4901E00849103902F000550DB14C6839
:1020200000E00C68064D2C4004EA02050DB10120C9
:1020300000E0002030BD000010640240006002405B
:102040007D0F7D0F70B50246002000240025124E42
:10205000B24201D2114B01E00F4B103B104E0E402B
:1020600036B11E2606EAD124166806EA040502E007
:10207000566906F0800501F000560EB15C6800E07C
:102080001C68084E344004EA010616B10DB1012067
:1020900000E0002070BD00001064024000600240BB
:1020A0003C0F3C0F7D0F7D0F10B501F080034BB14D
:1020B00022B1436943F08003436103E0436923F0A5
:1020C0008003436180290BD02AB1036801F01E040C
:1020D0002343036004E0036801F01E04A34303608C
:1020E00010BD000010B500220268134B1A40CC68E6
:1020F0000B6823434C6923438C692343CC692343F6
:102100000C6A23434C6A23438C6A23434C6B23435E
:102110008C6B23431A430260426922F00702D1E923
:102120000B3423431A4342610B6943604B6883605D
:102130008B68C36010BD00003F801CF04160704799
:10214000704700000149C872704700006C0700200A
:1021500010B52DED048BC34890F8380030B900203D
:10216000C04981F8230081F825006CE1BE48007861
:1021700030B101287ED002287DD003287CD11BE11C
:10218000B94890ED020AB5EEC00AF1EE10FA68DD2A
:1021900090ED010AB5EEC00AF1EE10FA61DDB1482A
:1021A00090F8250020B1012846D002284CD147E004
:1021B000AE48007818B9FFF763FC012804D0A9489D
:1021C00090F82300012833D1A74890ED010A10EEC2
:1021D000101A0846FEF76FFC9FEDA50B53EC102B71
:1021E000FEF7DFFBFEF74FFC9E4AC2E90A011046EC
:1021F00090F82800A04908709B4890ED020A10EE64
:10220000101A0846FEF757FC9FED990B53EC102B64
:10221000FEF7C7FBFEF737FC924AC2E90C011046F5
:1022200090F83000954908700120114681F825008A
:102230000020FFF787FF07E00120FFF783FF03E09F
:102240000020FFF77FFF00BF00BF8848007801280B
:1022500007D1844890F8230018B90020814981F8FB
:102260002500814890ED020AB5EEC00AF1EE10FAA1
:102270003ED102E0B1E03CE0E4E090ED010AB5EED1
:10228000C00AF1EE10FA33DD764890F8250010B15F
:1022900001282BD126E07548007818B9FFF7F0FB2C
:1022A000012804D06F4890F82300012816D16E4809
:1022B00090ED010A10EE101A0846FEF7FCFB9FEDA8
:1022C0006C0B53EC102BFEF76CFBFEF7DCFB654A46
:1022D000C2E90A010120114681F825000020FFF71C
:1022E00031FF04E00120FFF72DFF00E000BF00BF39
:1022F000A8E05C4890F8250020B1012846D00228CB
:102300004CD147E05948007818B9FFF7B9FB0128CC
:1023100004D0544890F82300012833D1524890ED5E
:10232000010A10EE101A0846FEF7C5FB9FED500B90
:1023300053EC102BFEF735FBFEF7A5FB494AC2E92B
:102340000A01104690F828004B490870464890ED65
:10235000020A10EE101A0846FEF7ADFB9FED440B83
:1023600053EC102BFEF71DFBFEF78DFB3D4AC2E937
:102370000C01104690F830004049087001201146C9
:1023800081F825000020FFF7DDFE07E00120FFF7C0
:10239000D9FE03E00020FFF7D5FE00BF00BF3348A1
:1023A0000078012807D12F4890F8230018B90020A1
:1023B0002C4981F8250045E0FFF762FB012804D095
:1023C000284890F82300012803D10120FFF7BAFE26
:1023D00002E00020FFF7B6FE34E0224890F8250026
:1023E00010B101282BD126E02048007818B9FFF75A
:1023F00047FB012804D01B4890F82300012816D180
:10240000194890ED010A10EE101A0846FEF753FB2A
:102410009FED170B53EC102BFEF7C3FAFEF733FBBF
:10242000104AC2E90A010120114681F82500002066
:10243000FFF788FE04E00120FFF784FE00E000BF04
:1024400000BF00BF00BFFFF71BFB18B9054890F89D
:10245000230008B1012000E0002004490870BDEC11
:10246000048B10BD081000207C00002029000020F3
:102470000000000000005940310000203200002020
:1024800010B54FF480710C4801F08CF900F0A0F801
:102490004FF40071084801F085F901F01DFA4FF47E
:1024A0008071054801F080F901F016FA4FF480714F
:1024B000014801F077F910BD000402401CB501216C
:1024C000022003F0B9FA4FF44070009001208DF81B
:1024D00004008DF8060003208DF8050001208DF81A
:1024E00007006946064801F0E9F84FF40071044816
:1024F00001F05AF94FF48071014801F055F91CBD03
:102500000004024010B54FF480710C4801F04AF904
:1025100000F05EF84FF40071084801F045F901F051
:10252000DBF94FF48071054801F03EF901F0D4F970
:102530004FF48071014801F035F910BD00040240EC
:1025400070B50546002400F02BF800261BE04FF67E
:10255000FF7000EA44044FF48071104801F022F942
:1025600001F0BAF94FF480710C4801F01DF901F047
:10257000B3F94FF40071094801F00BF908B144F0C8
:102580000104701C86B2082EE1DB15B9FFF7BAFF13
:1025900001E0FFF775FF204670BD00000004024017
:1025A0001CB54FF40070009000208DF8040001204D
:1025B0008DF8060003208DF8050001208DF8070036
:1025C0006946024801F07AF81CBD00000004024090
:1025D0001CB54FF40070009001208DF804008DF8B8
:1025E000060003208DF8050001208DF807006946DC
:1025F000014801F063F81CBD0004024070B50546B7
:10260000FFF7E6FF00241FE005FA04F000F0800069
:1026100028B14FF40071154801F0C6F804E04FF4FA
:102620000071124801F0BEF801F056F94FF48071C4
:102630000E4801F0B9F801F04FF94FF480710B48E2
:1026400001F0B0F8601C84B2082CDDDB4FF400719F
:10265000064801F0A9F84FF48071044801F0A4F88D
:102660004FF48071014801F09DF870BD00040240F4
:1026700010B5FFF7ADFF4FF40071114801F092F86B
:10268000FFF7A6FF4FF480710D4801F08DF801F0BF
:1026900023F94FF400710A4801F086F801F01CF9A3
:1026A0004FF40071064801F07DF801F015F94FF480
:1026B0008071034801F076F801F00EF910BD0000BA
:1026C0000004024010B5FFF783FF4FF400710A4881
:1026D00001F068F801F000F94FF48071064801F04C
:1026E00063F801F0F9F84FF40071034801F05CF869
:1026F00001F0F2F810BD00000004024010B5002403
:102700004FF40071124801F04FF8FFF749FF01F054
:10271000E3F84FF480710E4801F046F801F0DCF860
:1027200007E0601CC4B2FA2C03DDFFF7CBFF0120E9
:1027300010BD4FF40071064801F02BF80028F0D1CD
:102740004FF48071024801F02DF80020F0E70000FE
:102750000004024008B53D208DF8000008208DF8E7
:10276000010000208DF8020001208DF8030068466A
:1027700001F040FB08BD00000149486170470000BE
:102780000090024029B1064AD2690243044BDA6143
:1027900004E0034AD2698243014BDA6170470000CA
:1027A0000090024030B10749896941F00201054AB1
:1027B000916105E00349896921F00201014A9161B3
:1027C000704700000090024070B50C46134600218F
:1027D000124D286000BF18E000EB41124FF0004599
:1027E000156044F2F4555560C1EBC11505EB450584
:1027F00004EB850595605D1E8D4204D900EB411503
:102800002035D56000E0D060491C9942E4D3044DE6
:10281000E860044D044E356070BD000020080020C3
:10282000009002401C4C00202408002030B10749D1
:10283000896941F40051054A916105E003498969BC
:1028400021F40051014A916170470000009002405C
:1028500030B50C46134600210F4D286000BF15E02F
:1028600000EB41124FF480151560C1EBC11505EB6B
:10287000450504EB850595605D1E8D4204D900EB8E
:1028800041152035D56000E0D060491C9942E7D35E
:10289000024D286130BD00001C080020009002405D
:1028A00002680A430260704710B50121480603F030
:1028B000D3F800214FF0007003F0CEF810BD01B541
:1028C00081B0002000900198009002E00098401E26
:1028D000009000980028F9D10CBD000008B5002038
:1028E00000900848806940F48010064988610846D5
:1028F000806900904FF6FF70FFF7E1FF01490098F3
:10290000886108BD009002400148006880687047F7
:102910001C08002001460868C0F30D40704700B550
:1029200002460023106800F0004058B9106800F417
:10293000004038B9106800F4807018B11046FFF7F5
:10294000E9FF0346184600BD00200449096801F06C
:10295000010109B1012000E0002070470090024011
:1029600010B501E009F00AFC06480068FFF7D7FF40
:102970000028F7D14020FFF7FFFE4FF48030FFF72B
:10298000FBFE10BD200800202DE9F04188B0044670
:102990000F464FF00008002500200790B94E029026
:1029A00001200190B848056925F01C0503A803F033
:1029B000A3F8049EB548864205D3B548864202D2A4
:1029C00045F008051AE0B248864205D3AD48864274
:1029D00002D245F00C0511E0AA48864203D3AD4867
:1029E000864200D20AE0AB48864205D3AA48864216
:1029F00002D245F0040501E045F01005A24805614A
:102A00004FF400420021384600F072FB10B900205C
:102A100001906AE0A148FFF752FF2068002850D0DB
:102A200000BF0298401C02900121384600F034FAA1
:102A300000F0040018B99A4902988842F1D39849E5
:102A40000298884202D1002001904EE000200290BE
:102A50004FF480520021384600F04AFB08B90020AC
:102A6000019000BF0298401C02900121384600F0FE
:102A700013FA00F0200018B9894902988842F1D36E
:102A800087490298884202D1002001902DE0002061
:102A900002901F21384600F0FFF9804608F0100030
:102AA00018B14FF40060206201E00020206208F0BD
:102AB000040010B10020606116E04FF480406061B6
:102AC00012E0206AC0F3CF006169C1F34F0140EA10
:102AD00001020021384600F00BFB08B900200190EC
:102AE0006FF07F40FFF7EBFE00BF019820B94FF475
:102AF00000602062C0006061634805686948054065
:102B0000D4E901010843E168084321690843616988
:102B10000843A1690843E1690843216A0843616ADF
:102B20000843A16A0843E16A0843216B0843616BCB
:102B3000084305435448056005684FF6FF70FFF7EA
:102B4000BEFE51480560D4E90E010843216C0843DC
:102B5000616C0843A16C0843E16C0843216D084394
:102B6000616D084348494860084645684FF6FF7064
:102B7000FFF7A5FE444845604349A06D8860E06DBD
:102B8000C860084685694FF641700540B4F860108A
:102B9000606E40EA0140A16E0843E16E0843216F78
:102BA0000843616F084305433748856185694FF6DF
:102BB000FF70FFF784FE34488561D4E91E010843A5
:102BC0003149C8610846C5694FF6FF70FFF777FEC7
:102BD0002D48C5613448856934480540D4E9200151
:102BE0000843D4F888100843D4F88C100843D4F86C
:102BF00090100843D4F894100843D4F89810084370
:102C0000D4F89C100843D4F8A01008430543264884
:102C1000856185694FF6FF70FFF751FE2248856197
:102C2000D4E929010843D4F8AC100843D4F8B01013
:102C30000843D4F8B41040EA8100D4F8B81008432F
:102C400040F4000018490860084605684FF6FF7018
:102C5000FFF735FE14480560006840F08000124917
:102C60000860084605684FF6FF70FFF728FE0E481B
:102C700005600198012802D108B0BDE8F08100206C
:102C8000FAE700000087930300800240002D310125
:102C9000C00E160200E1F50580D1F008FFFF0F001D
:102CA000FFFF04000F8120FF00900240233FDEF869
:102CB00010B50B794C7943EA0422094B03441A649A
:102CC000CB781B068C7843EA04434C7843EA042310
:102CD0000C7843EA0402024B03445A6410BD00001E
:102CE0000080024010B5B0B001214FF0606002F0EA
:102CF000A3FEFFF7D9FD00F053F900BFFFF724FE54
:102D00000128FBD001A800F065F901200190002006
:102D100008904FF400700B9000200C900F901290D0
:102D200014901590169021904FF000702290001191
:102D3000249000202690279004202990C0052A90F6
:102D400040122B9080012C9040122D9040002F902B
:102D5000002101A8FFF718FEC4B2012C03D1012104
:102D60000248FFF70FFD204630B010BD40000100C3
:102D700038B504460020009034B10C48006840F09B
:102D800004000A49086005E00848006820F00400D3
:102D9000064908600548006800904FF6FF70FFF78D
:102DA0008EFD02490098086038BD00000080024096
:102DB00038B504460020009034B10C48006840F05B
:102DC00008000A49086005E00848006820F008008B
:102DD000064908600548006800904FF6FF70FFF74D
:102DE0006EFD02490098086038BD00000080024076
:102DF00010B50A480168002009F054FF084801682E
:102E0000002009F04FFF07480168002009F04AFF41
:102E100005480168002009F045FF10BDE8070020C3
:102E2000EC070020F0070020F407002010B5A021D7
:102E3000002009F049FF14490860A021002009F092
:102E400043FF1249086041F6C451002009F03CFFDD
:102E50000F49086041F6C451002009F035FF0D49C3
:102E600008600948006840B10848006828B108486F
:102E7000006810B10846006818B9FFF7B9FF0120D3
:102E800010BD0020FCE70000E8070020EC07002050
:102E9000F0070020F407002018B502460B46002179
:102EA000002000901548016901F01C014FF47840A2
:102EB00000EAC22001434FF4F86000EA83100143A6
:102EC00021F0020141F001010C48016100BF0098AE
:102ED000401C00900948016901F0010018B1084C3C
:102EE0000098A042F3D3064C0098A04201D10020E4
:102EF00018BD0248406980B2FAE700000080024035
:102F0000FFFF04001EB500210022009201920292F0
:102F1000214A1268126802F0004282B10022009237
:102F20001E4A526902F0800222B180221B4B5A6174
:102F300000229A609DE81C0080E81C001EBD164A15
:102F40001268126802F40042B2B9134A1268126899
:102F500002F4807282B1104A1268126802F40072A0
:102F600052B10D4A12681268C2F30D42111F0A4A8B
:102F700012689268019200E000210091064A1268EE
:102F80000292054A1268D268034B1A609DE81C0041
:102F900080E81C0000BFD1E720080020009002401C
:102FA0000348006840F001000149086070470000D4
:102FB0000090024010B50120FFF7FAFE0120FFF754
:102FC000D7FEFFF78BFC0120FFF730FC0120FFF755
:102FD000E9FB10BD01210160002141608160C160F9
:102FE00001614FF48041416100218161C1614FF471
:102FF00000610162002141628162C162016341633B
:103000008163C16340210164202141640021816406
:10301000C164016541658165C165016680214166C4
:1030200000218166C166016741678167C1674FF012
:103030008061C0F880104910C0F884100021C0F8E9
:1030400088104FF40011C0F88C100021C0F89010C7
:10305000C0F89410C0F89810C0F89C10C0F8A010E8
:103060004FF00071C0F8A4104912C0F8A8108901EF
:10307000C0F8AC104912C0F8B0100021C0F8B4106C
:10308000C0F8B81070470000014617480068006893
:1030900000F0004008B100207047C1F30C00124A54
:1030A0001268506010480068006840F040500E4AB6
:1030B000126810600C480068006840F000400A4A3E
:1030C000126810600948406900F0040020B1042033
:1030D000064A50610020506003480068C068024AF8
:1030E00010600120D8E700001C080020009002407A
:1030F00038B503460C4600210020009014480169B1
:1031000001F01C014FF4784000EAC32001434FF462
:10311000F86000EA8410014341F0020141F001012E
:103120000B484261016100BF0098401C00900848B4
:10313000016901F0010018B1064D0098A842F3D3CF
:10314000044D0098A84201D1002038BD0120FCE7C1
:1031500000800240FFFF040010B500F065F810BDCC
:1031600010B500F061F810BD10B500F05DF810BDAD
:1031700010B500F059F810BD10B500F055F810BDAD
:1031800010B500F051F810BD10B500F04DF810BDAD
:103190003EB50121880302F08FFC00242DE0184A7F
:1031A00002EBC4029178164A02EBC402507802F096
:1031B00085FE134800EBC4004068009000208DF8A5
:1031C00004000C208DF8050001208DF806006846EB
:1031D00000F04AF80A4800EBC400C0788DF80800F7
:1031E000E0B28DF8090000208DF80A0001208DF86A
:1031F0000B0002A800F0FEFD641C022CCFDB3EBDDC
:10320000D80700200149086070470000143C0140C5
:1032100001460020034A12680A400AB1012000E07A
:1032200000207047143C014070B50D48056800242B
:1032300012E00C4800EBC4004068A8420BD12846BD
:10324000FFF7E6FF012806D102F0D6FCFEF780FF6B
:103250002846FFF7D7FF641C022CEADB70BD000094
:10326000143C0140D8070020002123498279002A1C
:103270003AD00A46126803689A430B461A600A1D40
:10328000126803689A430B1D1A60027911440A6898
:1032900003681A430A60184A0832126803689A439E
:1032A000154B08331A601A1D126803689A43124BB3
:1032B0000C331A604279102A0ED11A1F1268036863
:1032C0001A430D4B08331A601A1D126803681A431B
:1032D000094B0C331A600DE00749427911440A6822
:1032E00003681A430A6005E0027911440A6803681A
:1032F0009A430A6070470000003C014008B54FF453
:10330000407000F0B3FD38208DF800000D208DF8DE
:10331000010000208DF8020001208DF803006846AE
:1033200000F068FD002208211048FEF7BDFE0122D2
:1033300010210E48FEF7B8FE01210C48FEF746FEAC
:103340000B490A48FEF728FE0A490848FEF724FE02
:1033500004210648FEF720FE02210448FEF71CFE69
:1033600080210248FEF718FE08BD000010640240EC
:10337000208000101040001008B54FF4407000F09D
:1033800075FD3A208DF8000007208DF8010000201F
:103390008DF8020001208DF80300684600F02AFD38
:1033A000002208211048FEF77FFE012210210E485E
:1033B000FEF77AFE01210C48FEF708FE0B490A4889
:1033C000FEF7EAFD0A490848FEF7E6FD0421064833
:1033D000FEF7E2FD02210448FEF7DEFD80210248EF
:1033E000FEF7DAFD08BD00004064024020800010B6
:1033F0001040001010B50A480068C0B258B100BFB4
:103400005021EFF3118081F31188BFF34F8FBFF389
:103410006F8F00BF10BD12F03DFD0020FAE70000E5
:1034200004ED00E010B5044605480068C0B220B1C4
:1034300000BF84F3118800BF01E012F045FD10BD0C
:1034400004ED00E000B587B00121022002F0F4FA9B
:103450000121080302F030FB3820059002208DF88E
:10346000180000208DF81A0003208DF819000120A3
:103470008DF81B0005A9204800F020F90522032142
:103480001D4800F063F9052204211B4800F05EF995
:1034900005221146184800F059F90121080302F0ED
:1034A0001BFB00214FF4805002F016FB0020ADF80A
:1034B00000004FF48270ADF802000020ADF8040067
:1034C0000220ADF806000120ADF808004002ADF87A
:1034D0000A003820ADF80C000020ADF80E000720DF
:1034E000ADF810006946054802F0C4FC012103480C
:1034F00002F0A6FC07B000BD00040240003001400D
:1035000010B5044600BF02210A4802F0A5FC0028BD
:10351000F9D02146074802F0ABFC00BF0121054865
:1035200002F09AFC0028F9D0024802F09EFCC0B2DA
:1035300010BD00000030014010B504460748008867
:103540004FF6C771084005490880084600882043A7
:1035500008800121014802F073FC10BD00300140D9
:1035600008B58DED000A009AD3B20A888354009AF8
:10357000C2F307230A88521C8354009AC2F30743FC
:103580000A88921C8354009A130E0A88D21C835412
:103590000A88121D0A8008BD7CB50025002007E0BE
:1035A00000EB4001194A52F821100D43411CC8B2EA
:1035B0000628F5DB0121284602F03EFA00208DF8AE
:1035C000040001208DF8060003208DF8050000247A
:1035D00018E004EB44000D4901EB8000807A8DF87F
:1035E000070004EB440001EB80000089009004EB2D
:1035F0004401064A02EB81014868694600F05EF822
:10360000601CC4B2062CE4DB7CBD00002407002053
:1036100010B5FFF7C1FF00F003F8FFF7B9FD10BDCB
:103620007CB50025002007E000EB4001214A52F85C
:1036300021100D43411CC8B20928F5DB01212846A1
:1036400002F0FAF901208DF8040000208DF8060040
:1036500003208DF8050000208DF80700002426E0E7
:1036600004EB4400144901EB8000807A8DF80700D8
:1036700004EB44000F4901EB80000089009004EB4B
:1036800044010C4A02EB81014868694600F016F8D3
:1036900004EB4402074B03EB8202118904EB440262
:1036A00003EB8202506800F07FF8601CC4B2092C62
:1036B000D6DB7CBD6C07002024070020F0B50A464D
:1036C00000210023002400BF3DE0012505FA01F39D
:1036D000156805EA03049C4234D105684F000326AF
:1036E000BE40B543056015794E00B54006683543C8
:1036F00005601579012D02D01579022D16D1856846
:103700004F000326BE40B543856055794E00B54055
:10371000866835438560456801268E40B54345601F
:10372000456896798E40B6B235434560C5684F000E
:103730000326BE40B543C560D5794E00B540C66886
:103740003543C560491C1029BFD3F0BDF0B5002337
:1037500000244D07ED0E02FA05F3CE1000F120050E
:1037600055F826504E07F70E0F26BE40B543CF1032
:1037700000F1200646F82750CE1000F1200555F83C
:10378000265045EA0304CE1000F1200545F82640F6
:10379000F0BD0246002013690B400BB1012000E090
:1037A00000207047418370470183704710B5EE20B9
:1037B00000F01CF8822000F019F8FF2000F016F845
:1037C000FC2000F013F8FF2000F010F8FF2000F0BC
:1037D0000DF8052004F00CFF10BD00000248006841
:1037E000401C0149086070470408002010B50446D9
:1037F0002146094803F0A7FC00BF8021064803F0DA
:10380000D7FB0028F9D000BF4021034803F0D0FBCC
:103810000028F9D010BD00000010014000B587B0AD
:103820000121084602F008F90121102002F044F9B4
:10383000264803F045FB072209212548FFF786FFAC
:1038400007220A212248FFF781FF4FF4C06004904D
:1038500002208DF814008DF8150000208DF8160058
:1038600001208DF8170004A91948FFF727FF4FF42E
:10387000E13000900020ADF80400ADF80600ADF88E
:103880000800ADF80C000C20ADF80A0069460F489E
:1038900003F0EAFB01210D4803F006FB012240F290
:1038A00025510A4803F0BBFB25208DF818000C2099
:1038B0008DF8190000208DF81A0001208DF81B00EA
:1038C00006A800F097FA07B000BD00000010014004
:1038D0000000024000BFFEE710B5022004F0A8FE81
:1038E00010BD10B514880855041213885B1CCC5405
:1038F00013889B1C138010BD1CB5002401214D2092
:1039000002F09AF80121880302F0D6F8012002F0B3
:10391000CFFA8620009003208DF8050002208DF854
:10392000040000208DF806008DF807006946314834
:10393000FFF7C4FE0B2201212E48FFF707FF0B22E1
:1039400002212C48FFF702FF0B2207212948FFF72D
:10395000FDFE3220009069462748FFF7AFFE0B229C
:1039600001212548FFF7F2FE0B2204212248FFF730
:10397000EDFE0B2205212048FFF7E8FE4FF4D04072
:10398000009069461D48FFF799FE0B2211461B481F
:10399000FFF7DCFE0B220D211848FFF7D7FE0B22A4
:1039A0000E211648FFF7D2FE0820009003208DF864
:1039B000050001208DF8040000208DF806008DF828
:1039C000070069460E48FFF779FE00200D490860A0
:1039D000322004F00DFE01200B49C1F88C02FEF7E5
:1039E000B9FEFFF77FF904460CB901201CBD002089
:1039F000FCE70000000002400008024000180240FE
:103A0000000C02408C824142008041421CB50121E1
:103A1000202002F011F84FF4C060009001208DF8D2
:103A2000040000208DF8060003208DF80500022018
:103A30008DF8070069460348FFF740FE002000F0BC
:103A400003F81CBD0014024010B5044654B14FF4F5
:103A500080610A48FFF7A8FE4FF400710748FFF79E
:103A6000A1FE09E04FF480610448FFF79BFE4FF48C
:103A700000710248FFF798FE10BD000000140240DC
:103A800038B540F254620021D34803F053FFD248C6
:103A9000007855287ED1D04840785528FAD10220A8
:103AA00000906946CC48FDF7DCFFCC4908706946B8
:103AB000C948FDF787FFC94880ED010A6946C64835
:103AC000FDF780FFC54880ED020A002441E0694609
:103AD000C148FDF777FF04EB8401C0486C3000EB70
:103AE000810080ED000A6946BB48FDF76BFF04EBDF
:103AF0008401BA486C3000EB810080ED010A694610
:103B0000B548FDF75FFF04EB8401B4486C3000EB6F
:103B1000810080ED020A6946AF48FDF753FF04EBD0
:103B20008401AE486C3000EB810080ED030A6946E9
:103B3000A948FDF796FF00EE100AB8EE400A04EB24
:103B40008401A6486C3000EB810080ED040A601C03
:103B5000C4B23C2CBBDB69469F48FDF782FF9F49FE
:103B6000C86069469C48FDF77CFF9C49086169462E
:103B70009948FDF776FF9949087569469648FDF71B
:103B800021FF964880ED170A69469348FDF71AFF12
:103B9000924800E01CE180ED180A69468E48FDF766
:103BA00011FF8E4880ED190A69468B48FDF70AFF20
:103BB0008A4880ED1A0A69468748FDF703FF87485F
:103BC00080ED060A69468448FDF7FCFE834880EDD7
:103BD000080A69468048FDF7F5FE804880ED070A2F
:103BE00069467D48FDF7EEFE7C4880ED090A69468E
:103BF0007948FDF7E7FE794880ED0A0A694676487C
:103C0000FDF7E0FE754880ED0C0A69467248FDF745
:103C1000D9FE724880ED0B0A69466F48FDF7D2FE67
:103C20006E4880ED0D0A69466B48FDF7CBFE6B4888
:103C300080ED0E0A69466848FDF7C4FE674880EDCE
:103C4000100A69466448FDF7BDFE644880ED0F0A1E
:103C500069466148FDF7B6FE604880ED110A694685
:103C60005D48FDF7AFFE5D4880ED120A69465A488F
:103C7000FDF7A8FE594880ED140A69465648FDF73D
:103C8000A1FE564880ED130A69465348FDF79AFE97
:103C9000524880ED150A69464F48FDF7E2FEC1B271
:103CA0004E4880F8581069464B48FDF78BFE4C484B
:103CB00080ED470A69464848FDF784FE484880ED94
:103CC000470A69464448FDF77DFE454880ED470AAE
:103CD00069464148FDF776FE414880ED470A69464E
:103CE0003D48FDF76FFE3F4880ED080A69463A48B7
:103CF000FDF768FE3B4880ED080A69463648FDF747
:103D000061FE384880ED080A69463348FDF75AFEDF
:103D1000344880ED080A69462F48FDF7A2FEC1B27B
:103D20002E4880F8261614236A4600F25C512A4871
:103D3000FDF782FE14236A462A4954312648FDF7CE
:103D40007BFE14236A46274968312348FDF774FE39
:103D500014236A4623497C311F48FDF76DFE6946EE
:103D60001D48FDF77EFE01461C48A0F8AC15142343
:103D70006A4600F2EA511848FDF75EFE14236A46CF
:103D80001849E2311448FDF757FE14236A461549D5
:103D9000F6311148FDF750FE14236A461149A63149
:103DA0000D48FDF749FE14236A460E49BA310A4808
:103DB000FDF742FE14236A460B490748FDF73CFE17
:103DC00014236A46084914310348FDF735FE01E023
:103DD00001F05CFF38BD00008C0900207C00002051
:103DE0007C04002098050020A406002000BFFEE708
:103DF0007047000070B5002100230F22C4781CB367
:103E0000174C246804F4E064C4F5E064C4F30721AB
:103E1000C1F10404E3B20A4144789C40E1B28478E1
:103E2000144021430C07210E0E4C0578615504788F
:103E300004F01F050124AC4005786D11AD0005F1BB
:103E4000E025C5F8004109E0047804F01F050124CD
:103E5000AC40054D0678761145F8264070BD00004F
:103E60000CED00E000E400E080E100E002490143E5
:103E7000024A1160704700000000FA050CED00E0F6
:103E8000024A0A400243024B1A60704780FFFF1F3C
:103E900008ED00E0F0B52DED048B85B006460D462B
:103EA0001446102E80F0BA87DFE816F010001200DA
:103EB000130086008E0452050B061A0636064206CB
:103EC00062067D06BC06E4062C07A90700F0A6BF23
:103ED000FCE70A2D6ED2DFE805F06D050F191D2BEA
:103EE00036414C620320FC4908700220FB490870EF
:103EF0000E2002F02BFB5DE00B20F749087002203A
:103F0000F64908700E2002F021FB53E00A2002F06F
:103F10001DFB4FE03CB10120F14981F82000002059
:103F2000F049C86003E00020ED4981F8200041E03D
:103F300024B10120EA4981F8210003E00020E8498A
:103F400081F8210036E024B10120E54981F8240000
:103F500003E00020E24981F824002BE024B1012095
:103F6000DF4981F8380003E00020DD4981F838009E
:103F700020E07CB10120DA4981F82300D948C068EB
:103F8000401CD849C86008460069401C086101F01F
:103F9000B5FF03E00020D24981F823000AE024B1F4
:103FA0000120CF4981F8220003E00020CC4981F8AC
:103FB000220000BF00BF89E7A81E23281CD2DFE82B
:103FC00000F012301C261B341B1B1B1B1B1B1B1B56
:103FD0001BFDFCFBFAF9F8F7F67FBFF584898EF438
:103FE000F3F2F193A9000B20BB4908700320BB49F1
:103FF00008700E2002F0AAFAE4E30420B649087023
:104000000320B64908700E2002F0A0FADAE305207A
:10401000B14908700320B14908700E2002F096FAE9
:10402000D0E30CB1FFF72CFDCCE3ECB3AD4890ED41
:10403000010AAD48007800EB8001AA486C3000EB23
:10404000810080ED000AA74890ED020AA64800789A
:1040500000EB8001A3486C3000EB810080ED010A89
:10406000A04890ED170AA048007800EB80019D4819
:104070006C3000EB810080ED020A9A4890ED190A3D
:104080009948007800EB800196486C3000EB810085
:1040900080ED030A934890F8580000EE100AB8EE3D
:1040A000400A9148007800E009E000EB80018D486B
:1040B0006C3000EB810080ED040A01F01FFF81E30A
:1040C00014B10020874908707CE314B101208549B0
:1040D000087077E314B102208249087072E314B1CA
:1040E0000320804908706DE39CB100217D4880F871
:1040F000581090F8580000EE100AB8EE400A7A48BE
:10410000007800EB800177486C3000EB810080ED97
:10411000040A57E39CB10121724880F8581090F8C6
:10412000580000EE100AB8EE400A6F48007800EB25
:1041300080016C486C3000EB810080ED040A41E3A3
:10414000ECB36848007D012865DD6648007D401EAF
:10415000644908750846007D634908706148007D20
:1041600000EB80015F486C3000EB810090ED000AAD
:104170005C4880ED010A007D00EB800159486C30FD
:1041800000EB810090ED010A564880ED020A007DA7
:1041900000EB800153486C3000EB810090ED020A87
:1041A00050480DE0F2E0C0E0D3E0A1E034E0DAE214
:1041B000D9E184E289E153E24AE111E2FAE02AE03E
:1041C00080ED170A007D00EB800146486C3000EB63
:1041D000810090ED030A434880ED190A007D00EB51
:1041E000800140486C3000EB810090ED040ABCEE89
:1041F000C00A10EE100AC1B23A4880F85810007D8B
:1042000000EE900AF8EE600AB0EE600A0821374826
:10421000008802F0ABFAD5E2F4B33248007D3C28C6
:1042200058DA3048007D401C2E4908750846007D4C
:104230002D4908702B48007D00EB800129486C3027
:1042400000EB810090ED000A264880ED010A007D18
:1042500000EB800123486C3000EB810090ED010AF7
:10426000204880ED020A007D00EB80011D486C3083
:1042700000EB810090ED020A1A4880ED170A007DDC
:1042800000EB800117486C3000EB810090ED030AD1
:10429000144880ED190A00E01CE0007D00EB80016D
:1042A00010486C3000EB810090ED040ABCEEC00AAF
:1042B00010EE100AC1B20B4880F85810007D00EED5
:1042C000900AF8EE600AB0EE600A082107480088FC
:1042D00002F04CFA76E20000E8060020E906002031
:1042E000081000207C000020E7060020D4060020F3
:1042F000D4B1FE4890ED010AF7EE000AB4EEE00AF0
:10430000F1EE10FA10DD90ED010AF7EE000A30EE42
:10431000600A80ED010AD0ED010AB0EE600A0921C1
:10432000F348008802F022FA4CE28CB1EF4890ED9D
:10433000010AF7EE000A30EE200A80ED010AD0ED06
:10434000010AB0EE600A0921E948008802F00EFA7D
:1043500038E2D4B1E54890ED020AF7EE000AB4EE77
:10436000E00AF1EE10FA10DD90ED020AF7EE000A15
:1043700030EE600A80ED020AD0ED020AB0EE600A6B
:104380000A21DB48008802F0F1F91BE28CB1D74822
:1043900090ED020AF7EE000A30EE200A80ED020AE4
:1043A000D0ED020AB0EE600A0A21D148008802F07E
:1043B000DDF907E2A4B3CD4890ED170A10EE101A0C
:1043C0000846FCF778FB41EC180B9FEDCA0B53EC49
:1043D000102BFCF783FB3AD2C44890F8580000BB7E
:1043E000C24890ED170A10EE101A0846FCF763FB5E
:1043F00041EC190B9FEDC10B53EC102BFCF7CBFAE2
:1044000041EC180BFCF782FBB849C8650846D0EDB3
:10441000170AB0EE600A0B21B548008802F080F957
:1044200015E0B24890ED170ADFEDB60A30EE600AEB
:1044300080ED170AD0ED170A9FEDB31A60EE810ADE
:10444000B0EE600A0B21AA48008802F069F9B9E1D0
:104450001CB3A64890F8580000BBA44890ED170A7A
:1044600010EE101A0846FCF726FB41EC190B9FEDE5
:10447000A30B53EC102BFCF7EDF941EC180BFCF7F8
:1044800045FB9A49C8650846D0ED170AB0EE600AA8
:104490000B219748008802F043F915E0934890ED0E
:1044A000170ADFED980A30EE200A80ED170AD0EDEA
:1044B000170A9FED951A60EE810AB0EE600A0B2193
:1044C0008B48008802F02CF97CE1A4B3874890ED7A
:1044D000190A10EE101A0846FCF7EDFA41EC180B19
:1044E0009FED840B53EC102BFCF7F8FA3AD27F487F
:1044F00090F8580000BB7D4890ED190A10EE101A94
:104500000846FCF7D8FA41EC190B9FED7C0B53ECF5
:10451000102BFCF740FA41EC180BFCF7F7FA734943
:1045200048660846D0ED190AB0EE600A0D217048C1
:10453000008802F0F5F815E06C4890ED190ADFEDFF
:10454000710A30EE600A80ED190AD0ED190A9FED6C
:104550006E1A60EE810AB0EE600A0D216448008890
:1045600002F0DEF82EE11CB3604890F8580000BB62
:104570005E4890ED190A10EE101A0846FCF79BFAF7
:1045800041EC190B9FED5D0B53EC102BFCF762F91E
:1045900041EC180BFCF7BAFA544948660846D0EDCE
:1045A000190AB0EE600A0D215148008802F0B8F8EF
:1045B00015E04E4890ED190ADFED520A30EE200A60
:1045C00080ED190AD0ED190A9FED4F1A60EE810AAD
:1045D000B0EE600A0D214648008802F0A1F8F1E033
:1045E00034B3424890ED180A10EE101A0846FCF752
:1045F00062FA41EC180B9FED3F0B53EC102BFCF7CC
:104600006DFA2CD2394890F8580090B9374890ED9F
:10461000180ADFED3E0A30EE600A80ED180AD0ED90
:10462000180AB0EE600A0C213148008802F078F8D0
:1046300015E02E4890ED180ADFED320A30EE600AE0
:1046400080ED180AD0ED180A9FED2F1A60EE810A4E
:10465000B0EE600A0C212648008802F061F8B1E053
:1046600064B3224890F8580090B9204890ED180A99
:10467000DFED260A30EE200A80ED180AD0ED180A88
:10468000B0EE600A0C211A48008802F049F815E0E3
:10469000164890ED180ADFED1B0A30EE200A80ED77
:1046A000180AD0ED180A9FED181A60EE810AB0EED4
:1046B000600A0C210E48008802F032F882E03CB318
:1046C0000A4890ED1A0A10EE101A0846FCF7F3F9A2
:1046D00041EC180B9FED070B53EC102BFCF7FEF988
:1046E00040D2024890F8580030BB12E07C00002015
:1046F000D40600209A9999999999B93F9A999999CC
:104700009999A93F61248D3DC7296841CDCC4C3D85
:1047100028E0F84890ED1A0A5FED040A30EE600ACE
:1047200080ED1A0AD0ED1A0AB0EE600A0E21F248A6
:10473000008801F0F5FF15E0EE4890ED1A0A5FEDF4
:104740000F0A30EE600A80ED1A0AD0ED1A0A1FED4A
:10475000121A60EE810AB0EE600A0E21E648008867
:1047600001F0DEFF2EE064B3E24890F8580090B903
:10477000E04890ED1A0A5FED1B0A30EE200A80ED4A
:104780001A0AD0ED1A0AB0EE600A0E21DA48008843
:1047900001F0C6FF15E0D74890ED1A0A5FED270A31
:1047A00030EE200A80ED1A0AD0ED1A0A1FED2A1AFF
:1047B00060EE810AB0EE600A0E21CF48008801F059
:1047C000AFFF00BF00BF29E30F2D12D2DFE805F0D5
:1047D000BE121EBE08BE2A3D50806898BABEB00008
:1047E0000B20C64908700420C54908700E2001F04E
:1047F000ADFEABE04CB1C34890ED040ABD4880ED7E
:10480000060A9FEDC10A80ED070A9FE04CB1BD4842
:1048100090ED040AB74880ED080AB1EE040A80ED75
:10482000090A93E084B10120B6490877002048774F
:1048300001220621B048008801F0BFFD00220721B7
:10484000AD48008801F0B9FD80E084B10020AD4999
:1048500008770120487700220621A748008801F048
:10486000ACFD01220721A448008801F0A6FD00BF8D
:10487000ACB1A448007F012811D19E4890ED0E0AEA
:10488000F7EE000A30EE600A80ED0E0AD0ED0E0A57
:10489000B0EE600A11219848008801F01BFF55E036
:1048A000ACB19848007F012811D1924890ED0E0AD2
:1048B000F7EE000A30EE200A80ED0E0AD0ED0E0A67
:1048C000B0EE600A11218C48008801F003FF3DE042
:1048D000ACB18C48407F012811D1864890ED100A78
:1048E000F7EE000A30EE600A80ED100AD0ED100AF3
:1048F000B0EE600A12218048008801F0EBFE25E04E
:10490000ACB18048407F012811D17A4890ED100A5F
:10491000F7EE000A30EE200A80ED100AD0ED100A02
:10492000B0EE600A12217448008801F0D3FE0DE059
:104930000D20724908700420714908700E2001F0A2
:1049400005FE03E00CB1FFF79BF800BF00BF65E276
:10495000681F0B2810D2DFE800F006B2101C283BBD
:104960004E667E96AE000B206449087004206449B0
:1049700008700E2001F0EAFDA1E04CB1614890ED15
:10498000060A5C4880ED0A0A9FED5F0A80ED0B0A7B
:1049900095E04CB15B4890ED060A564880ED0C0A54
:1049A000B6EE000A80ED0D0A89E084B10120554978
:1049B00088770020C877012209214F48008801F03C
:1049C000FCFC00220A214C48008801F0F6FC76E04D
:1049D00084B100204B4988770120C8770022092143
:1049E0004548008801F0E9FC01220A21424800887C
:1049F00001F0E3FC00BFACB14248807F012811D137
:104A00003C4890ED120AF7EE000A30EE600A80EDA5
:104A1000120AD0ED120AB0EE600A11213648008861
:104A200001F058FE4BE0ACB13648807F012811D12F
:104A3000304890ED120AF7EE000A30EE200A80EDC1
:104A4000120AD0ED120AB0EE600A11212A4800883D
:104A500001F040FE33E0ACB12A48C07F012811D1FB
:104A6000244890ED140AF7EE000A30EE600A80ED5B
:104A7000140AD0ED140AB0EE600A12211E48008814
:104A800001F028FE1BE0ACB11E48C07F012811D107
:104A9000184890ED140AF7EE000A30EE200A80ED77
:104AA000140AD0ED100AB0EE600A122112480088F4
:104AB00001F010FE03E00CB1FEF7E2FF00BF00BF03
:104AC000ACE1012D02D0022D08D103E00CB101F0C0
:104AD00015FA03E00CB1FEF7D3FF00BF00BF9DE164
:104AE000012D02D0022D15D110E00CB101F006FA13
:104AF00010E000007C000020D4060020E806002022
:104B0000E906002008100020000000000CB1FEF7AC
:104B1000B7FF00BF00BF81E1012D07D12CB10020FC
:104B2000C1490870022001F011FD00BF00BF75E10E
:104B3000022D04D0032D0CD0062D17D113E0032035
:104B4000BA4908700920BA4908700E2001F0FEFC2D
:104B50000CE00B20B54908700920B54908700E20FB
:104B600001F0F4FC02E001F0C9F900BF00BF55E11B
:104B7000082D02D0092D14D109E00320AB4908709B
:104B80000A20AB4908700E2001F0E0FC09E00B2080
:104B9000A64908700A20A64908700E2001F0D6FC2C
:104BA00000BF00BF3AE1092D06D00A2D05D00C2D1B
:104BB0000DD00D2D34D11EE032E003209B4908704A
:104BC0000B209B4908700E2001F0C0FC28E099489A
:104BD00090F8260670B16CB10021964880F8261630
:104BE00001220C21304601F0E8FB00220D21304665
:104BF00001F0E3FB14E08F4890F8260601280ED060
:104C00006CB101218B4880F8261600220C21304619
:104C100001F0D3FB01220D21304601F0CEFB00BF95
:104C200000BFFBE0012D02D0022D21D11CE0D4B148
:104C300001F064F97F4890F826067F490978884298
:104C400011D071B600BFBFF34F8F7C48006800F4ED
:104C5000E0607B490843001D78490860BFF34F8F2F
:104C600000BF00BFFEE703E00CB1FEF709FF00BF85
:104C700000BFD3E0042D04D0052D32D0062D3FD146
:104C800030E06CB36F480078012808D114216E48D9
:104C9000FBF715FB6D4A6EA16B4802F0B1FF6D4842
:104CA000007801280AD1142167481430FBF707FB6C
:104CB000694A67A16448143002F0A2FF01F01EF9AE
:104CC0000020604908706349087014215F48FBF7B1
:104CD000F6FA14216048FBF7F2FA022001F036FCE4
:104CE0000EE000BF64B100205649087059490870B1
:104CF00014215648FBF7E3FA14215748FBF7DFFA73
:104D000000BF8BE0022D02D0032D76D167E074B393
:104D10000027464800780D2807D04448007804282A
:104D200003D04248007805280CD1474914314B483C
:104D3000FBF7D7FA20B14A494848FBF7D2FA10BB33
:104D4000012720E0394800780D2803D03748007843
:104D500005280DD13C4914314048FBF7C2FA20B177
:104D60003F493E48FBF7BDFA68B901270BE035E043
:104D700035493A48FBF7B5FA20B13A493748FBF7CD
:104D8000B0FA00B90127012F08D12848007801F0B6
:104D9000DDFB2648007800F0A7F807E024480078FB
:104DA00001F0D4FB2248007800F09EF8002001902A
:104DB0000290039004902CA225A101A802F020FFEC
:104DC00001AA01210E2001F059FC19480078174969
:104DD000087014212148FBF772FA00BF0DE05CB1A6
:104DE0001348007801F0B2FB114800780F490870B1
:104DF00014211A48FBF763FA00BF00BF0EE0012D33
:104E000002D0022D08D103E00CB101F077F803E0E5
:104E10000CB1FEF735FE00BF00BF00BF00BF05B0FC
:104E2000BDEC048BF0BD0000E3060020E806002086
:104E3000E90600207C000020E60600200CED00E0E2
:104E40000000FA05EA060020A40600201018002041
:104E500025730000EB0600202418002038180020DD
:104E600000070020EC06002000000000704770479B
:104E7000704770472DE9F04707460C4615461E4619
:104E8000DDE9099ADDF82080384600F0A9FE1549D1
:104E900081F83900204600F0A3FE124981F83A005B
:104EA000284600F09DFE0F4981F83B00304600F097
:104EB00097FE0C4981F83C00404600F091FE0949FC
:104EC00081F83D00484600F08BFE064981F83E001F
:104ED000504600F085FE401CC1B2024880F83F10E9
:104EE000BDE8F0870810002010B50446E4480480AF
:104EF0000020FCF7D3FD0120FCF7D0FD042C03D0EB
:104F00000020E04908774877052C03D00020DD49D0
:104F10008877C877102C09D2DFE804F008090A1B4B
:104F2000FDFCFBFAF9F8F7F6F5F4F3F2A3E1A2E1E0
:104F3000D54890F858203C21D1480088FCF7FAFB6E
:104F4000D14890F858203D21CD480088FCF7F2FB6D
:104F500091E1CD4890F858203C21C9480088FCF7E1
:104F6000E9FBC94890F858203D21C5480088FCF766
:104F7000E1FBC548007808B9012000E000200246A6
:104F80001921BF48008801F018FABF4800780128AD
:104F900000D100E0002002461C21B948008801F041
:104FA0000CFAB9480078022801D1012000E0002065
:104FB00002461D21B248008801F0FFF9B24800788E
:104FC000032801D1012000E0002002461E21AC4848
:104FD000008801F0F2F9AC48007D00EE900AF8EE8E
:104FE000600AB0EE600A0821A548008801F072FB53
:104FF000A548D0ED010AB0EE600A0921A04800885A
:1050000001F0B4FBA048D0ED020AB0EE600A0A211C
:105010009B48008801F0AAFB9B4890F8580040BBD1
:105020009948D0ED170AB0EE600A0B219448008829
:1050300001F076FB9448D0ED180AB0EE600A0C211E
:105040008F48008801F06CFB8F48D0ED190AB0EE54
:10505000600A0D218A48008801F062FB8A48D0ED81
:105060001A0AB0EE600A0E218548008801F058FB4C
:1050700037E08548D0ED170A9FED841A60EE810A6B
:10508000B0EE600A0B217E48008801F049FB7E48A3
:10509000D0ED180A9FED7D1A60EE810AB0EE600A2D
:1050A0000C217748008801F03BFB7748D0ED190AC6
:1050B0009FED761A60EE810AB0EE600A0D2170480D
:1050C000008801F02DFB7048D0ED1A0A9FED6F1A91
:1050D00060EE810AB0EE600A0E216948008801F096
:1050E0001FFB694890F85800C8B901222321644881
:1050F000008801F062F900222421614800880BE059
:10510000B8E0B6E0B4E0B2E05CE05AE051E04FE075
:105110004DE04BE02DE00FE001F04FF90BE00022F5
:1051200023215748008801F048F9012224215448DE
:10513000008801F042F99EE0534890F858203C2145
:105140004F480088FCF7F6FA4F48D0ED0E0AB0EE53
:10515000600A11214A48008801F0BCFA4A48D0EDA3
:105160000E0AB0EE600A12214548008801F0B2FA3A
:1051700081E0454890F858203D2141480088FCF7DF
:10518000D9FA4148D0ED0E0AB0EE600A11213C4830
:10519000008801F09FFA3C48D0ED100AB0EE600A9A
:1051A00012213748008801F095FA64E063E062E07C
:1051B00061E03548012102693148008801F0FCFABC
:1051C00059E058E0304890F82606314908702E48DA
:1051D00090F8260601280CD100220C2128480088CE
:1051E00001F0EBF801220D212548008801F0E5F8D7
:1051F0000BE001220C212248008801F0DEF8002299
:105200000D211F48008801F0D8F8224A01211C48CE
:10521000008801F033FA1F4A28320221184800881A
:1052200001F02CFA1B4A143203211548008801F0C2
:1052300025FA184A523A04211148008801F01EFA52
:10524000144A283A05210E48008801F017FA114A3D
:10525000143A06210A48008801F010FA0A48B0F80A
:10526000AC2507210648008801F0A6FA03E002E019
:1052700001E000E000BF00BF01F06AFF10BD0000C8
:10528000D4060020081000207C000020C7296841B7
:10529000E6060020660600207047704770B52DEDC9
:1052A000048B82B005460C461646002001909FED07
:1052B000FE0A8DED000A0F2D09D2DFE805F008097E
:1052C0000A0BEEEDECEBEAE9E8E7E6E5E400D0E214
:1052D000CFE2CEE26A46F5A13046FBF749F8A4F1E9
:1052E0000800072858D2DFE800F004586A7CD9FE8D
:1052F000FD00EF480078E8BB9DED000ABCEEC00A57
:1053000010EE100AEA4908750846007DE949087060
:10531000E748007D00EB8001E5486C3000EB810040
:1053200090ED000AE24880ED010A007D00EB80016B
:10533000DF486C3000EB810090ED010ADC4880ED25
:10534000020A007D00EB8001D9486C3000EB81003F
:1053500090ED020AD64880ED170A007D00EB80012F
:10536000D3486C3000EB810090ED030AD04880ED0B
:10537000190A00E010E0007D00EB8001CC486C30A1
:1053800000EB810090ED040ABCEEC00A10EE100A9A
:10539000C1B2C74880F8581049E19DED000AC448E1
:1053A00080ED010A90ED010AC248007800EB80010F
:1053B000BF486C3000EB810080ED000A37E19DEDC5
:1053C000000ABB4880ED020A90ED020AB948007855
:1053D00000EB8001B6486C3000EB810080ED010AE3
:1053E00025E1B34890F8580088B99DED000AB0480F
:1053F00080ED170A90ED170AAE48007800EB8001A7
:10540000AB486C3000EB810080ED020A14E09DEDAA
:10541000000ADFEDA90A80EE201AA54880ED171AD0
:1054200090ED170AA348007800EB8001A0486C308B
:1054300000EB810080ED020A9D4890ED170AF2EE24
:10544000020AB4EEE00AF1EE10FA1BDD90F8580003
:1054500050B99748D0ED170AB0EE600A0B21974873
:10546000008801F05DF90DE09148D0ED170A9FED3D
:10547000921A60EE810AB0EE600A0B218F48008814
:1054800001F04EF9D3E0E5E1C5E1C3E17EE17CE165
:105490006EE16CE16AE168E122E1CAE0844890F8DB
:1054A000580028B99DED000A814880ED180A08E0EF
:1054B0009DED000ADFED800A80EE201A7C4880ED29
:1054C000181A7B4890ED180AF2EE020AB4EEE00AD0
:1054D000F1EE10FA1EDD90F8580068B97448D0ED6E
:1054E000180A01E069E016E0B0EE600A0C2173488A
:1054F000008801F015F90DE06D48D0ED180A9FED18
:105500006E1A60EE810AB0EE600A0C216B480088CA
:1055100001F006F98BE0664890F8580088B99DEDD7
:10552000000A634880ED190A90ED190A6148007875
:1055300000EB80015E486C3000EB810080ED030AD7
:1055400014E09DED000ADFED5C0A80EE201A584859
:1055500080ED191A90ED190A5648007800EB800189
:1055600053486C3000EB810080ED030A504890ED09
:10557000190AF2EE020AB4EEE00AF1EE10FA1BDDAF
:1055800090F8580050B94A48D0ED190AB0EE600AB8
:105590000D214A48008801F0C3F80DE04448D0EDE1
:1055A000190A9FED451A60EE810AB0EE600A0D21DE
:1055B0004248008801F0B4F839E03D4890F85800BE
:1055C00028B99DED000A3A4880ED1A0A08E09DEDE1
:1055D000000ADFED390A80EE201A354880ED1A1AEC
:1055E000334890ED1A0AF7EE000AB4EEE00AF1EE45
:1055F00010FA1BDD90F8580050B92D48D0ED1A0A6A
:10560000B0EE600A0E212D48008801F089F80DE007
:105610002748D0ED1A0A9FED281A60EE810AB0EEF5
:10562000600A0E212548008801F07AF800BF00BF0B
:105630001FE16A461DA13046FAF79AFE112C02D0EE
:10564000122C4BD11AE09FED180A194880ED0F0A71
:105650001B48007F012810D10098FBF72CFA41EC81
:10566000190B9FED180B53EC102BFBF7F3F841ECE3
:10567000180BFBF74BFA0E4988632FE0B1EE040AD2
:105680000B4880ED110A0E48407F012825D1009873
:10569000FBF711FA41EC190B9FED0A0B53EC102BA1
:1056A000FBF7D8F812E000000000000025660000BB
:1056B0007C000020E7060020C7296841D4060020AE
:1056C000081000207B14AE47E17A743F41EC180BC0
:1056D000FBF71CFA01466948016400BF00BFC8E03F
:1056E0006A46AFF238013046FAF742FE112C02D07A
:1056F000122C38D11BE01FED140A604880ED130A0C
:105700005F48807F012811D10098FBF7D4F941EC64
:10571000190B1FED140B53EC102BFBF79BF841EC0E
:10572000180BFBF7F3F90146544881641BE0B6EE11
:10573000000A524880ED150A5148C07F012811D156
:105740000098FBF7B8F941EC190B1FED220B53EC55
:10575000102BFBF77FF841EC180BFBF7D7F901464C
:105760004648016500BF00BF83E082E081E080E041
:1057700001AA44A13046FAF7FBFD012C03D13F49B1
:105780000198086100BF00BF73E072E0082C3FD2AF
:10579000DFE804F03E040A11181F262D32463AA114
:1057A0003A4802F02DFA33E0324637A13748283024
:1057B00002F026FA2CE0324633A13448143002F0CD
:1057C0001FFA25E0324630A13048523802F018FA6C
:1057D0001EE032462CA12D48283802F011FA17E0BD
:1057E000324629A12948143802F00AFA10E06A4624
:1057F000AFF248113046FAF7BBFD9DED000ABCEE52
:10580000C00A10EE100A81B21C48A0F8AC1500BF07
:1058100000BF2EE02DE0012C02D0022C19D10CE0AB
:1058200001201B49087014211A48FAF748FD324636
:1058300015A1184802F0E4F900BF012016490870CC
:1058400014211648FAF73BFD32460FA1134802F027
:10585000D7F90EE0012C09D114211148FAF72FFDD8
:10586000324609A10E4802F0CBF900BF00BF00BFCD
:1058700000BF00BF02B0BDEC048B70BD7C000020F7
:105880000810002025640000257300006606002033
:10589000EA06002010180020EB0600202418002043
:1058A0003818002070477047704710B5FBF726FD89
:1058B000FBF7A8FDFCF750F9FCF7B2F910BD0000AA
:1058C0002DE9FE4F04460D466678A77894F80780C8
:1058D0002079E17840EA0129A079617940EA012A3A
:1058E000207A0106607A41EA0041A07A41EA00206C
:1058F000E17A40EA010B0D2E2AD008DC012E0DD0F2
:10590000032E0CD00B2E27D00C2E73D11CE00F2EA3
:105910002AD0B12E43D0F72EF7D12BE000BF454B54
:105920005B79DFF810C19CF804C043EA0C22414BBC
:10593000DB78DFF800C19CF802C043EA0C213D4B44
:105940005878FFF7B0FF72E00120FFF7ADFF6EE07F
:105950000020FFF7A9FF6AE0A81F82B23549891C21
:105960000120FFF786FA62E0002211461046FFF799
:1059700080FA5CE02F48017AC0792E4A9279DFF8EC
:10598000B4C0CDE9002002919CF805309CF80420B9
:105990009CF803109CF80200FFF76CFA47E0012F17
:1059A00003D14846FFF7A0FA3FE0A8F110000C2809
:1059B00039D2DFE800F0060C1319203838333838B4
:1059C000262D627A51464846FEF764FA2CE004F12F
:1059D000080251464846FFF761FC25E05A46514609
:1059E0004846FFF745FA1FE05A4651464846FFF73A
:1059F00054FC19E01AE05A4651464846FFF737FA78
:105A000012E0637A227A51464846FFF72FFA0BE0FC
:105A1000227A51464846FFF73FFC05E0514648468A
:105A2000FFF740FF00E000BF00BF00E000BF00BF85
:105A3000BDE8FE8FAC17002029B1064A1268024368
:105A4000044B1A6004E0034A12688243014B1A6057
:105A5000704700003038024029B1064A12680243FC
:105A6000044B1A6004E0034A12688243014B1A6037
:105A7000704700001038024029B1064A12680243FC
:105A8000044B1A6004E0034A12688243014B1A6017
:105A9000704700004038024029B1064A12680243AC
:105AA000044B1A6004E0034A12688243014B1A60F7
:105AB000704700002038024029B1064A12680243AC
:105AC000044B1A6004E0034A12688243014B1A60D7
:105AD000704700004438024029B1064A1268024368
