:020000040804EE
:1000000038D001206902040871420408993D0408AF
:100010006D4204087D1A04083192040800000000B3
:10002000000000000000000000000000B101040812
:100030005523040800000000050204086376040844
:10004000830204088302040883020408830204086C
:1000500083020408830204080136040811360408E8
:1000600019360408213604082936040883020408D6
:10007000411F040883020408A11F04088302040826
:10008000830204088302040883020408830204082C
:10009000830204088302040883020408313604083A
:1000A000830204088302040883020408830204080C
:1000B00083020408E17604082D770408830204080B
:1000C00083020408830204088302040883020408EC
:1000D00083020408ED7B040883020408597C0408A9
:1000E0000936040883020408830204088302040812
:1000F00083020408830204088302040883020408BC
:1001000083020408830204088302040883020408AB
:10011000830204088302040883020408830204089B
:10012000D91F040883020408FD1F04088302040881
:1001300083020408092E04088302040883020408C9
:10014000830204088302040883020408830204086B
:10015000830204088302040883020408830204085B
:10016000830204088302040883020408830204084B
:10017000830204088302040883020408830204083B
:100180008302040883020408DFF810D000F0E8FEC0
:100190000048004739DF0408AFF3008038D0012061
:1001A00030BF72B6704762B6704780F308887047F8
:1001B0002A4B19680868B0E8F04F80F30988BFF34C
:1001C0006F8F4FF0000080F311887047000000002F
:1001D00006480068006880F3088862B661B6BFF31D
:1001E0004F8FBFF36F8F00DF00BF00BF08ED00E04F
:1001F000DFF80C00016841F470010160704700BF36
:1002000088ED00E0EFF30980BFF36F8F134B1A689E
:100210001EF0100F08BF20ED108A20E9F04F10608B
:1002200008B44FF0500080F31188BFF34F8FBFF335
:100230006F8F18F0F7FD4FF0000080F3118808BCB5
:1002400019680868B0E8F04F1EF0100F08BFB0EC56
:10025000108A80F30988BFF36F8F70477C070020F6
:10026000EFF30580704700000648804706480047C6
:10027000FEE7FEE7FEE7FEE7FEE7FEE7FEE7FEE756
:10028000FEE7FEE7797604088901040840EA0103E5
:100290009B0703D009E008C9121F08C0042AFAD23C
:1002A00003E011F8013B00F8013B521EF9D2704700
:1002B000D2B201E000F8012B491EFBD270470022A8
:1002C000F6E710B513460A4604461946FFF7F0FF55
:1002D000204610BD421E12F8013F002BFBD111F841
:1002E000013B02F8013B002BF9D1704730B50546C0
:1002F0002A460B4612F8010B13F8014B08B1A04235
:10030000F8D01CB1002802D06D1CF1E7284630BDA2
:10031000421C10F8011B0029FBD1801A704710B550
:10032000002200E0521C835C8C5CA34201D1002BB4
:10033000F8D1D8B2E1B2401A10BD30B50446002061
:10034000034600E05B1C934203D2E05CCD5C401BA3
:10035000F8D030BD034611F8012B00F8012B002A1C
:10036000F9D118467047000070B50F4D00B92868E4
:10037000002412E00A4602E09E4203D0521C137889
:10038000002BF9D1DAB2224305D02BB124B10021E0
:1003900000F8011B04E00446401C0678002EE9D159
:1003A0002860204670BD0000B00800200FB400B5E2
:1003B0008DB010A909900B9000914FF0FF300A907A
:1003C00000200C9005480690054807906A4609A849
:1003D0000F9900F06FFC0DB05DF814FBD10C040810
:1003E000EF0C04082DE9FF5F1D464FF0FF3BD5E9F8
:1003F000014691465F464FF00008A9697F1C0198AD
:100400008847296A824688470028F6D1BAF1FF3F1B
:100410000CD024F4C064002E19DD600614D5BAF1A6
:100420002B0F09D0BAF12D0F0ED103E0584604B0BE
:10043000BDE8F09F44F48064A9697F1C0198884757
:10044000761E8246002E02DDBAF1300F03D0B9F1DC
:10045000000F26D032E0A969761E44F400747F1C98
:10046000019888478246002E05DDBAF1780F06D044
:10047000BAF1580F03D0B9F1000F10D01EE0B9F156
:10048000000F02D0B9F1100F18D1A969761E24F41B
:1004900000747F1C019888478246102002E00820E3
:1004A00000E00A20814609E008FB0908A969761ED8
:1004B00044F400747F1C019888478246002E05DDB5
:1004C0004946504600F0E2FB0028EDDAE969019860
:1004D0008847A00502D46FF00100A8E7E00725D106
:1004E000600613D5600502D5C8F1000000E0404663
:1004F00029680A1D2A600968220501D5087015E0DF
:10050000220701D5088011E008600FE02868011D6E
:1005100029600068210502D580F8008006E02107E7
:1005200002D5A0F8008001E0C0F8008038467EE7E0
:100530002DE9FF4F087883B09946FF2805D0491C64
:100540002D2804D00024002008E000200BE0012426
:10055000F9E700EB800003EB4000491C0B78FF2B10
:10056000F7D104B1404200230293147819461D4686
:100570002D2C01D02B2C04D1521C2D2C13D0002457
:100580000294AA461478FF2C0FD00A25A3FB057805
:1005900001FB05814FF0000C03FB0C11521CE31909
:1005A0004AEB0101EEE70124EAE7814453EA010046
:1005B00002D019F5C87F06DA03980021C0E90011BE
:1005C00007B0BDE8F08F0025AE4E2F46DFF8B882A9
:1005D000184600F0A0FCCDE90001B9F1000002DAF4
:1005E000C9F1000400E004460023A74A1AEB030BFC
:1005F00042EB045A12E0E00707D02A463346384659
:10060000414600F0ECF9074688462A463346104634
:10061000194600F0E4F905460E466410002CEAD1B4
:10062000DDE90001B9F1000F5A46534606DA00F041
:1006300003FC3A46434600F0FFFB05E000F0CFF92B
:100640003A46434600F0CBF9029A0AB181F00041E4
:10065000039AC2E90001B3E72DE9FF4F1F468DB0B1
:10066000D7E901464FF0FF382E2045464FF00009EC
:100670000B90B9696D1C0E988847396A8246884785
:100680000028F6D1BAF1FF3F0AD024F4D064002E3E
:1006900011DDBAF12B0F08D0BAF12D0F0BD102E00A
:1006A000404611B08DE744F48064B9696D1C0E9822
:1006B00088478246761E6946600501D52D2000E0F8
:1006C0002B208DF8000001F1010B0DF1200809E04D
:1006D000B9696D1C0E98884782460F9844F40074DF
:1006E000761E0560002E02DDBAF1300FF0D00B99B6
:1006F0008A453ED144F0800406E00F99681CA9F1B8
:10070000010944F400740860B9696D1C761E0E98E6
:10071000884782463028F0D02BE00B998A4505D1D6
:10072000200603D444F08004761E18E0504609F0F9
:100730005BF908B30DF11301761E44F400748B4588
:1007400008D2AAF130000BF8010B200607D5A9F159
:10075000010003E0200602D409F101008146A00552
:1007600002D50F99681C0860B9696D1C0E988847FE
:100770008246002ED1DC53E0002E51DDBAF1650F28
:1007800002D0BAF1450F4BD1A00549D5B9696D1C0E
:1007900024F44074761E0E9888478246002E0CDDA5
:1007A0002B2804D0BAF12D0F07D144F48074B96915
:1007B0006D1C0E9888478246761EE00501D52D21D6
:1007C00000E02B2108F8011BCDF82C8021E00DF171
:1007D0002901761E44F4007488450CD2AAF1300039
:1007E00010F0FF0088F8000002D10B99884509D964
:1007F00008F1010806E0E00501D5244801E042F2D5
:100800000F708146B9696D1C0E98884782460F9813
:100810000560002E04DD504609F0E6F80028D6D128
:10082000F9690E988847FF208BF8000088F80000CF
:100830000020069007904B466A4608A906A8FFF7D5
:1008400077FEA00502D46FF001002AE714F0240F10
:100850000AD0E00714D1DDE906123868031D3B60B9
:100860000068C0E900120BE0DDE9060100F07AF94A
:100870000146E00704D13868021D3A600068016053
:1008800028460EE7000014400000F03FF1D8FFFFBB
:100890002DE9FE4F804681EA0300C00F0C46009010
:1008A00021F0004123F00045B8EB0200A94105D238
:1008B0004046214690461C460B46024623F0004027
:1008C000104347D0270DC7F30A00C3F30A51029023
:1008D000401A019040286BDAC3F3130040F4801BE8
:1008E0000098924620B10023D2EB030A63EB0B0B76
:1008F00001985946C0F14002504600F096F906466C
:100900000D4650465946019A00F0AEF910EB08002A
:100910006141002487EA115284EAE7731A4340D008
:10092000009A62B3019A012A4FEA075215DC001BB4
:1009300061EB02014FF0004202EA0752CDE90042AA
:10094000001C41F5801132462B4600F027FA03B017
:10095000BDE8F08F40462146F9E7001B61EB02013C
:10096000001C41F5801300185B412018A2F5001708
:1009700047EB030140EAD570B6196D4111E06D08EF
:100980004FEA360645EAC0754FEA0752001B61EB95
:100990000201001C41F5801149084FEA300000199E
:1009A000514132462B4603B0BDE8F04F00F0E7B9A5
:1009B0000098012240000023D0EB020263EBE073B9
:1009C000009821464FEAE074B8EB000061EB0401A7
:1009D000E9E783F000435BE781F0004158E72DE948
:1009E000FE4F81EA030404F0004421F0004100942A
:1009F0004FF0000B23F0004350EA01045ED052EAAE
:100A000003045BD0C3F30A54C1F30A552C44A4F287
:100A1000F3340194A0FB0254C1F3130141F480119B
:100A2000C3F3130343F4801301FB024400FB034EA2
:100A3000840A970A44EA815447EA8357A4FB07686B
:100A400002958D0A05FB07854FEA932C04FB0C5495
:100A50002705029D4FEA065847EA1637B5EB080509
:100A60006EEB070C870E920E47EA811742EA83125B
:100A7000A7FB0201B6EB0B0164EB00042B0D43EA6C
:100A80000C335E1844EB1C50DA465146E7FB02017A
:100A9000C5F313044FEA0B3343EA14534FEA04320D
:100AA000019C43EA0603A4F10C040294009CCDE9E6
:100AB00000B400F073F903B0BDE8F08F00200146E8
:100AC000F9E730B4044696230800214604D0B62343
:100AD00030BC002200F025B920460021F8E7C1F320
:100AE0000A52C1F3130140F2FF3341F480119A42DC
:100AF00002DA00200146704740F233439A42A2F2E4
:100B0000334202DC524200F09FB800F08EB800F091
:100B1000004230F000400AD0C10D01F56071C0F311
:100B2000160042EA0151C2084007114370470020F5
:100B30000146704730B5041E71F1000404DB4FF02C
:100B40000044404264EB0101141E73F1000405DB14
:100B50001C464FF00043524263EB04038B4208BF34
:100B6000824230BD01F0004330B421F0004150EA30
:100B7000010206D00A0DA2F56072C1F31301002A2A
:100B800002DC30BC00207047440F44EAC104C100BD
:100B9000E01830BC00EBC25000F0BAB830B50B46DC
:100BA000014600202022012409E021FA02F59D429D
:100BB00005D303FA02F5491B04FA02F52844151E71
:100BC000A2F10102F1DC30BD2DE9F05F0546002005
:100BD00092469B4688460646814640241BE02846AE
:100BE00041464746224600F02FF853465A46C01A5F
:100BF000914110D311461846224600F016F82D1ADE
:100C000067EB01084F4622460120002100F00DF855
:100C100017EB00094E41201EA4F10104DFDC484619
:100C200031462A464346BDE8F09F202A04DB203A9D
:100C300000FA02F1002070479140C2F1200320FA2F
:100C400003F3194390407047202A04DB203A21FA2D
:100C500002F00021704721FA02F3D040C2F12002D5
:100C60009140084319467047202A06DBCB17203AEB
:100C700041FA02F043EAE07306E041FA02F3D040A1
:100C8000C2F1200291400843194670473A2800D229
:100C9000303820F02002412A01D3A2F137008842E7
:100CA00001D34FF0FF3070470268114413780160A0
:100CB00018467047D160044951610449116200210E
:100CC0001161114600F064B9A90C0408850F0408ED
:100CD000426842B1016811F8013B23B1521EC0E9DC
:100CE0000012184670470121C160881E7047426893
:100CF0005AB1C368016843B983688B4205D0491E65
:100D0000521CC0E90012002070474FF0FF307047BE
:100D10000029A8BF7047401C490008BF20F001000F
:100D2000704710B4B0FA80FC00FA0CF050EA0104ED
:100D300004BF10BC704749B1CCF1200421FA04F47F
:100D400011FA0CF118BF012121430843A3EB0C0158
:100D5000CB1D4FEA00614FEA102042BF002010BCBB
:100D6000704700EBC35010440029A4BF10BC70476B
:100D7000401C490008BF20F0010010BC704710B5AE
:100D8000141E73F1000408DA401C41F100019218AE
:100D90005B411A4301D120F0010010BD2DE9F04D57
:100DA00092469B4611B1B1FA81F202E0B0FA80F2AC
:100DB00020329046FFF739FF04460F4640EA0A000A
:100DC00041EA0B0153465A46084313D0114653EAF1
:100DD000010019D0C8F140025046FFF735FF054623
:100DE0000E46504659464246FFF71FFF084305D0BE
:100DF000012004E020463946BDE8F08D002005437F
:100E000046EAE0762C4337430A986305E40AA0EBF0
:100E100008000022FD0A44EA47540A3002D50020A7
:100E20000146E9E7010510196941DDE908450019A6
:100E30006941BDE8F04DA2E72DE9F04D81EA0304D8
:100E400004F0004B21F0004514464FF0000A23F057
:100E5000004150EA050220D054EA01021DD0C5F33A
:100E60000A570246C5F31303C1F31300C1F30A5630
:100E700040F4801543F48013A7EB0608101BD646F8
:100E800008F2FD3873EB050002D308F1010801E018
:100E900092185B41B8F1000F03DA00200146BDE86B
:100EA000F08D00204FF48011064684460EE0171B9B
:100EB00073EB050705D3121B63EB050306434CEAEE
:100EC000010C49084FEA300092185B4150EA0107D3
:100ED000EDD152EA030012D082EA040083EA050150
:100EE000084305D0101BAB4106D20122002306E0C7
:100EF00000224FF0004302E06FF0010253101AEBA2
:100F000006004CEB085110EB0A0041EB0B01BDE869
:100F1000F04DFFF734BF0EB540F23342029200228B
:100F2000CDE900221346FFF739FF03B000BD0000F2
:100F300030B5041E71F1000404DB4FF00044404260
:100F400064EB0101141E73F1000405DB1C464FF035
:100F50000043524263EB0403994208BF904230BD04
:100F6000064C074D06E0E06840F0010394E80700F6
:100F700098471034AC42F6D3FFF70AF95CA5050890
:100F80007CA50508C0B24FF4F05100F099B90000FB
:100F90002DE9F34F8BB04FF0000801F10C000C4627
:100FA0004FF0010B46460DF1080A019062690121DC
:100FB00001989047051E2DD0252D2CD0216A8847F9
:100FC000C0B16269012101989047216A88470028D1
:100FD000F7D1411E62690198904700E0761CA16933
:100FE0000B988847216A88470028F7D1E1690B9858
:100FF0008847DBE7A1690B9888470746A84201D1DB
:10100000761CD3E7E1690B9888477F1C02D1B8F1C1
:10101000000F6FD047E1002762693D4639460198CD
:1010200090472A2804D1626901210198904701253F
:10103000DFF888926269012101989047A0F13001A0
:101040000A290AD24F45E5DC07EB870100EB41078F
:10105000303FDFD445F01005ECE7E90601D46FF02E
:1010600000476C280AD04C2814D0682815D06A286C
:101070000DD074281CD07A281AD01DE06269012195
:10108000019890476C2802D045F0040514E045F023
:1010900002050DE045F020050AE062690121019892
:1010A0009047682802D045F0080505E045F4006542
:1010B0006269012101989047C4E9015765283DD034
:1010C00019DC58287AD00CDC452837D004DC2528D8
:1010D00026D0412831D131E046282FD047282CD1C5
:1010E0002CE05B2877D0612828D063287CD0642846
:1010F00023D15AE0D1E06F2848D008DC66281DD003
:1011000067281BD0692821D06E2816D127E07028C7
:1011100045D0732868D0752847D078280DD14DE088
:10112000A1690B988847054625283FF469AFE16916
:101130000B9888476D1C3FF46AAFB4E023466A46BB
:101140006FF001000B99FFF787FA9FE045F0400030
:101150006060A80723464FF0000236D43EE0E8075F
:101160007FF447AF2068011D21600068290501D583
:1011700006701BE7290701D5068017E7A90703D5E5
:10118000F117C0E9006111E706600FE745F0400084
:101190006060A80723464FF0080216D41EE040F610
:1011A0000E0125EA0100606016E045F04000606035
:1011B000A80723464FF00A0207D40FE045F040008D
:1011C0006060A80708D5234610226FF001000B9934
:1011D000AFF300805AE007E0234610226FF00100D1
:1011E0000B99FFF7FFF851E04FF000094F464B46CF
:1011F000632802D05B2807D041E02079C00601D4E3
:101200000120A06001273AE062690121019890471E
:101210005E2805D14FF0010962694946019890475F
:10122000216939B900210A46534643F82120491C57
:101230000829FADBB0B3216969B9C11700EBD162A3
:1012400053110AEB830122F01F02821A01200B685E
:10125000904003430B6062690121019890475D282B
:10126000E8D1B9F1000F09D00020514651F82020F3
:10127000D24341F82020401C0828F7DB02AB22466D
:1012800000976FF001000B99AFF3008000280CDA93
:10129000401C08D1BBF1000F05D04FF0FF300DB05E
:1012A000BDE8F08FFFE74046F9E7E90701D108F113
:1012B000010806444FF0000B78E60000CCCCCC0CC3
:1012C0007F2801D9002208E0064A02EB5002C0073D
:1012D000127800D1120902F00F020120904008405C
:1012E000704700007CA3050870B58C1810F8015BEE
:1012F00015F0070301D110F8013B2A1106D110F8AF
:10130000012B03E010F8016B01F8016B5B1EF9D1B2
:101310002B0705D40023521E0DD401F8013BFAE738
:1013200010F8013BCB1A921C03E013F8015B01F8A3
:10133000015B521EF9D5A142D8D3002070BD21B166
:10134000826842F00102826003E0826822F00102BA
:10135000826070470021084A1168084A1140D0E9AC
:1013600000231A4383681A43C3681A431143044A8B
:10137000C2F804137047000004230140E030FCFF72
:101380000020014000B59BB00121880505F046FA18
:101390000121042005F042FA0121080205F07EFA3D
:1013A0000420199003208DF8680000208DF86B0050
:1013B00019A9324802F0E4FB002000903048019067
:1013C00030480290002003904FF4FA60049000200F
:1013D00005904FF4806006904000079080000890D0
:1013E0004011099040020A9000200B9001200C90BF
:1013F00000200D900E906946234800F07DFF0121EA
:10140000214800F041FE002015904FF470601890C4
:10141000002017904FF44030169015A8FFF79AFF60
:1014200000200F9001208DF840008DF84100002031
:101430001190139001208DF850000FA910484C38DE
:1014400000F0C0F8072301220C210D484C3800F0B1
:10145000E3F801210A484C3800F09EF801210848C1
:101460004C3800F0A4F8012105484C38FFF767FF1D
:1014700003484C3800F02CF91BB000BD00080240B6
:101480004C2001401C2700201064024000B59BB096
:101490000121880505F0C2F90121042005F0BEF9FB
:1014A0000121480205F0FAF90820199003208DF86F
:1014B000680000208DF86B0019A9334802F060FB2A
:1014C0004FF00070009031480190314802900020A8
:1014D00003904FF4FA600490002005904FF4806070
:1014E000069040000790800008904011099040024B
:1014F0000A9000200B9001200C9000200D900E907F
:101500006946244800F0F8FE0121224800F0BCFDA5
:10151000002015904FF470601890002017904FF441
:101520004030169015A8FFF715FF00200F900120FE
:101530008DF840008DF8410000201190139001209B
:101540008DF850000FA911484C3800F03BF80723E4
:1015500001220D210D484C3800F05EF801210B48A6
:101560004C3800F019F8012108484C3800F01FF8F9
:10157000012106484C38FFF7E2FE04484C3800F0E1
:10158000A7F81BB000BD0000000802404C2101403C
:10159000BC3600204064024021B1826842F480726F
:1015A000826003E0826822F480728260704721B119
:1015B000826842F40072826003E0826822F4007262
:1015C0008260704730B50246002000235068104CFE
:1015D00020400D790C6844EA05242043506090684F
:1015E0000C4C2040D1E903542C438D682C434D7999
:1015F00044EA450420439060D06A20F470000C7DDA
:10160000641EE4B2234340EA0350D06230BD0000C0
:10161000FFFEFFFCFDF7FFC0F0B504460D460020BD
:101620000021092D11DDE068A5F10A0606EB460749
:10163000072606FA07F18843A5F10A0606EB4606D7
:1016400003FA06F10843E0600CE0206905EB45076A
:10165000072606FA07F1884305EB450603FA06F16B
:1016600008432061072A0FDA606B561E06EB8607D7
:101670001F2606FA07F18843561E06EB860605FA72
:1016800006F10843606322E00D2A0FDA206BD61FB3
:1016900006EB86071F2606FA07F18843D61F06EBDE
:1016A000860605FA06F10843206310E0E06AA2F11D
:1016B0000D0606EB86071F2606FA07F18843A2F1FE
:1016C0000D0606EB860605FA06F10843E062F0BD5A
:1016D000816841F080418160704710B5FF2000F0C3
:1016E00019F80446552C01D1002010BD5521FF20CA
:1016F00000F03CF8FF2000F00DF80446552C01D115
:101700000020F2E70120F0E710B501F02BF9FFF718
:10171000E4FF10BD70B50446002601F0FDF9254632
:10172000E11704EB11610912A02202EB410188B21A
:1017300001F0B8F901F036FAE11704EB1161091272
:10174000A4EB012188B201F0ADF901F02BFA01F010
:10175000E3F9A12001F0A6F901F024FA002001F03C
:1017600043F9C6B201F002FA304670BD70B50446C6
:101770000E4601F0D1F92546E11704EB116109127B
:10178000A02202EB410188B201F08CF901F00AFAC3
:10179000E11704EB11610912A4EB012188B201F0F9
:1017A00081F901F0FFF9304601F07CF901F0FAF916
:1017B00001F0DCF90A2008F029FD70BD70B504467F
:1017C0000D461646EE2002F073FAB12002F070FAD0
:1017D000232002F06DFA200A02F06AFAE0B202F069
:1017E00067FA280A02F064FAE8B202F061FAF0B28D
:1017F00002F05EFAFF2002F05BFAFC2002F058FAD9
:10180000FF2002F055FAFF2002F052FA052008F0FE
:10181000FDFC70BD10B517F026FF044908600120DB
:1018200018F069F80249086010BD0000800000202F
:101830008C0000201CB517F00FF800201E21034675
:101840004FF48072CDE9001033A1364818F0D6FA73
:1018500000201D2103464FF40072CDE9001032A193
:10186000344818F0CBFA00201C2103464FF4807254
:10187000CDE9001030A1334818F0C0FA00201B2138
:1018800003468022CDE900102FA1334818F0B6FAA4
:101890000020192103464FF48072CDE900102FA1DA
:1018A000364818F0ABFA0020172103468022CDE914
:1018B000001033A1374818F0A1FA374890F82A05EC
:1018C000012818D0022822D10020162103464FF407
:1018D0008072CDE9001031A1374818F08FFA00204E
:1018E000152103464FF48072CDE9001033A1394829
:1018F00018F084FA0CE00020162103464FF48072A1
:10190000CDE9001034A1384818F078FA00E000BFA3
:1019100000BF16F0BBFF1CBD764750494F5F5461B6
:10192000736B0000258605087655495F5461736B1B
:1019300000000000858E050876494E465F546173AD
:101940006B000000D5870508765374617475735F6A
:101950005461736B00000000F189050876436F6DD8
:101960006D756E69636174696F6E5265736F6C76C5
:10197000696E675F5461736B000000006D6E05084F
:101980007644697370656E73696E675F5461736BDB
:101990000000000035840508900000207657696635
:1019A000695F426C7565746F6F74685F52656369D7
:1019B00076655F5461736B00898F05087657696699
:1019C000695F426C7565746F6F74685F5461736BA7
:1019D000000000009D9005087645746865726E658C
:1019E000745F5461736B0000458405081CB50121C8
:1019F000202004F013FF4FF48070009001208DF838
:101A0000040000208DF8060003208DF80500022058
:101A10008DF807006946044802F0B2F84FF480716F
:101A2000014802F021F91CBD00140240704710B5B6
:101A30004FF4407002F05AFCA82008F0C5FB06F0F5
:101A40009BF805F0D7FF04F022FE02F049F9FFF7FA
:101A5000CDFF02F03DFAFFF757FE07F011FC02F050
:101A600071FA02F027F800200CF062FF02200CF05F
:101A70005FFF00F093F900F08BF810BD00BFFEE7A8
:101A800008B50A88825CFF2A11D10A88521C825C40
:101A9000FF2A0CD10A88921C825CFF2A07D10A888F
:101AA000D21C825CFF2A02D19FED110A08BD0022E0
:101AB00000920A88D21C825C00920A88921C825C86
:101AC000009B42EA032200920A88521C825C009B1F
:101AD00042EA032200920A88825C009B42EA0322C7
:101AE00000929DED000A0A88121D0A8000BFDDE702
:101AF0000000000030B50446002008E015880544C9
:101B0000655D0D540D5C05B903E0451CA8B2984213
:101B1000F4DB00BF108818441080184630BD10B5A3
:101B200002460888145C401C105C04EB002003B2E1
:101B30000888801C088098B210BD0000002005496C
:101B4000C97A11B90349C97D09B1012100E0002119
:101B5000084670473C06002010B50446EE2002F00F
:101B6000A7F8052002F0A4F8E0B202F0A1F8FF20E7
:101B700002F09EF8FC2002F09BF8FF2002F098F89B
:101B8000FF2002F095F8052008F040FB10BD000092
:101B900010B508F0D5FA1348A0F29921C1F89C06B7
:101BA00000F50071A0F29920C0F8A0160E4890F838
:101BB0002A05022809D101F22B21A1F2C460C0F844
:101BC000A416891CC0F8A81609E006491939A1F520
:101BD0002070C0F8A416091DC0F8A81600BF00BFE9
:101BE00010BD00006D1100209000002039B1084A9E
:101BF0001268012383401A43054B1A6006E0044A29
:101C00001268012383409A43014B1A607047000019
:101C10000074004000B587B00121084604F0FEFDC5
:101C20000121480704F01AFE1020059003208DF8CA
:101C3000180002208DF81B0005A90A4801F0A0FF3A
:101C40000020019002900390049001A900F00CF88C
:101C500001210020FFF7CAFF0021084600F01EF80E
:101C600007B000BD0000024030B5002200230A4C3E
:101C7000226840F6FE748440A243D1E900452C431B
:101C80008D682C43CD6844EA050303FA00F422432F
:101C9000014C226030BD00000074004008B50022F5
:101CA0000092054A009200F10802009B1A4400923B
:101CB000009A116008BD00000074004008B50022C1
:101CC0000092054A009200F11402009B1A4400920F
:101CD000009A116008BD00000074004000B587B094
:101CE0000121084604F09AFD0121480704F0B6FDE1
:101CF0002020059003208DF8180002208DF81B008D
:101D000005A90B4801F03CFF0020019002900390D0
:101D1000049001A91020FFF7A7FF01211020FFF771
:101D200065FF00210846FFF7C9FF07B000BD0000AE
:101D30000000024010B500241748006820F440203D
:101D40001549086008460068086004E0601CC4B2D9
:101D5000012008F07BFA4FF400710F4801F07BFF7F
:101D600008B1642CF2DB642C01DB012010BD0024DF
:101D700004E0601CC4B2012008F068FA4FF400715E
:101D8000054801F068FF08B9642CF2DB642C01DB24
:101D90000120EBE70020E9E7001802401CB5012113
:101DA000402004F03BFD4FF40070009001208DF8BE
:101DB000040000208DF8060002208DF805000120A7
:101DC0008DF807006946044801F0DAFE00F09AF841
:101DD000FFF7B0FF1CBD00000018024010B5002442
:101DE00004E0601CC4B2012008F030FA4FF4007126
:101DF000104801F030FF08B1642CF2DB002404E04D
:101E0000601CC4B2012008F021FA4FF400710948A7
:101E100001F021FF08B9642CF2DB282008F016FA43
:101E20004FF40071034801F016FF08B1012010BD06
:101E30000020FCE70018024070B50024002506E0F1
:101E40006006040EFFF7CAFF0443681CC5B2082DE4
:101E5000F6DB204670BD00001CB500F053F8FFF71C
:101E600069FFB0BB002405E0FFF7E6FF0DF80400B2
:101E7000601CC4B2052CF7DB9DF800009DF8011032
:101E800008449DF8021008449DF8031008449DF88A
:101E9000041088422BD19DF8020000EE100AB8EE23
:101EA000400ADFED140A20EE200A134880ED010AF3
:101EB0009DF8000000EE100AB8EE400ADFED0D0AB2
:101EC00020EE200A0C4880ED020A00200B49088011
:101ED0000DE0FFE70948008809490988884204DACB
:101EE00006480088401C0549088001201CBD0020D0
:101EF000FCE70000C520803FD40E00202E06002005
:101F00003006002010B50D48006820F440200B4931
:101F100008600846006840F48020086049150748BA
:101F200001F0A2FE142008F071F94FF4007103488B
:101F300001F09CFE1E2008F089F910BD0018024037
:101F400010B51249124800F065F9F0B1104800F0E0
:101F50005DF9C0F500700F49888001208873002169
:101F60000B4800F091F80C49094800F059F84FF47B
:101F70000071074800F0ECF90121054800F084F8F1
:101F800001210648006817F07BFB10BD0008001017
:101F900028600240DC460020400F00108000002036
:101FA00010B50120094908704FF0C051084800F0F1
:101FB00031F950B14FF0C051054800F031F801221D
:101FC00040F22661034805F06EFF10BD2407002093
:101FD000586002400048004010B50649064800F02D
:101FE0003BF9012805D10AF0DFF90249024800F067
:101FF00031F810BD208000101064024010B5064971
:10200000064800F029F9012805D10AF053FA0249DF
:10201000024800F01FF810BD00802010406402400C
:102020000246094B9A4201D2084801E0064810389E
:1020300001F000531BB1064B0B40C36002E0044BA0
:102040000B40836070470000106402400060024053
:102050007D0F7D0F0246094B9A4201D2084801E0EC
:102060000648103801F000531BB1064B0B40C3600B
:1020700002E0044B0B408360704700001064024094
:10208000006002407D0F7D0F21B1026842F0010225
:10209000026003E0026822F0010202607047000063
:1020A000016821F00101016000210160416081604F
:1020B000C1600161212141614A49884204D13D2129
:1020C000484A103A91608CE046491831884205D15F
:1020D0004FF47461434A103A916082E041493031D3
:1020E000884205D14FF474113E4A103A916078E06D
:1020F0003C494831884205D14FF07461394A103A61
:1021000091606EE037496031884204D13649354AE2
:10211000103AD16065E033497831884204D13349BF
:10212000304A103AD1605CE02E499031884204D1A7
:102130002F492C4A103AD16053E02A49A8318842ED
:1021400005D14FF03D51274A103AD16049E0294965
:10215000884204D13D21274A083A116041E02549CF
:102160001831884205D14FF47461224A083A11604F
:1021700037E020493031884205D14FF474111D4AAF
:10218000083A11602DE01B494831884205D14FF0D3
:102190007461184A083A116023E016496031884298
:1021A00004D11149134A121F11601AE01149783104
:1021B000884204D10D490F4A121F116011E00D49E8
:1021C0009031884204D10A490A4A121F116008E07E
:1021D0000849A831884204D14FF03D51054A121FE9
:1021E00011607047106002403D000020400F002049
:1021F00000003D2010640240014600200A6802F001
:1022000001020AB1012000E0002070470146486841
:1022100080B2704730B503460A46002000240B4DBB
:10222000AB4201D20A4901E00849103902F00055D9
:102230000DB14C6800E00C68064D2C4004EA020524
:102240000DB1012000E0002030BD0000106402400C
:10225000006002407D0F7D0F70B502460020002413
:102260000025124EB24201D2114B01E00F4B103B40
:10227000104E0E4036B11E2606EAD124166806EA34
:10228000040502E0566906F0800501F000560EB123
:102290005C6800E01C68084E344004EA010616B190
:1022A0000DB1012000E0002070BD0000106402406C
:1022B000006002403C0F3C0F7D0F7D0F10B501F018
:1022C00080034BB122B1436943F08003436103E0D3
:1022D000436923F08003436180290BD02AB103684E
:1022E00001F01E042343036004E0036801F01E04B0
:1022F000A343036010BD000010B500220268134B19
:102300001A40CC680B6823434C6923438C692343F0
:10231000CC6923430C6A23434C6A23438C6A2343CE
:102320004C6B23438C6B23431A430260426922F0B7
:102330000702D1E90B3423431A4342610B6943601E
:102340004B6883608B68C36010BD00003F801CF049
:1023500041607047704700000149C8727047000033
:102360009006002010B52DED048BFE4890F8480033
:10237000E0B9FC4890F82600012810D1F94890F8FF
:102380002200012804D0F84890F83B00012803D12E
:102390000120FFF7E1FF02E00020FFF7DDFF002052
:1023A000F04981F8240081F82700A5E2EF48007881
:1023B00030B1012873D0022872D0032871D1F0E126
:1023C000EA484078002861D1E64890F8270010B12B
:1023D000012859D13AE0E648007818B9FFF7AEFB7A
:1023E000012804D0DF4890F8240001282AD1DF48D2
:1023F000007B00EB4001DD48603000EBC10090ED58
:10240000000ADC4880ED000AD848007B00EB40025F
:10241000D648603000EBC20090ED000A10EE101AB2
:102420000846FEF774FB9FEDD40B53EC102BFEF720
:10243000D6FAFEF754FBCB4AC2E90A010120114645
:1024400081F827000020FFF787FF1EE00120FFF73B
:1024500083FFC448D0E90A211046FEF732FB00EEA4
:10246000100AF2EE040A20EE200ADFEDC50A80EE23
:10247000201ABE48007B00EB4001BC48603000EBF6
:10248000C10080ED001A00E000BFD4E0B54890F82C
:10249000270038B1012875D0022871D18BE0AFE157
:1024A000CAE028E2B148007B00EB4001AF48603051
:1024B00000EBC10090ED000AAE4880ED000AAB4889
:1024C000007B00EB4001A948603000EBC10090EDBB
:1024D000010AAC4880ED000AA24890F824000128C7
:1024E00003D0A9480078012847D1A048007B00EB21
:1024F00040029E48603000EBC20090ED000A10EEF2
:10250000101A0846FEF703FB9FED9B0B53EC102BB4
:10251000FEF765FAFEF7E3FA924AC2E90A011046AD
:10252000D0E90A211046FEF7CCFA984908608F4896
:10253000007B00EB40028D48603000EBC20090ED64
:10254000010A10EE101A0846FEF7E1FA9FED8A0B19
:1025500053EC102BFEF743FAFEF7C1FA814AC2E9A9
:102560000E011046D0E90E211046FEF7AAFA88495E
:10257000086001207B4981F827000020FFF7ECFE6E
:1025800032E0FFE70120FFF7E7FE804890ED000A08
:10259000F2EE040A20EE200ADFED790A80EE201A1E
:1025A0007248007B00EB40017048603000EBC100D6
:1025B00080ED001A18E00020FFF7CEFE744890ED81
:1025C000000AF2EE040A20EE200ADFED6D0A80EE2A
:1025D000201A6648007B00EB40016448603000EB45
:1025E000C10080ED011A00BF00BF5E4890F82400D2
:1025F00000BB65480078E8B900205A4981F82700F7
:102600005C4890ED000A5948007B00EB40015748B8
:10261000603000EBC10080ED000A5A4890ED000ADE
:102620005248007B00EB40015048603000EBC10095
:1026300080ED010A5FE15EE14A4890F8270020B191
:10264000012855D0022877D164E0484890ED010A6E
:10265000484880ED000A454890ED020A494880ED5F
:10266000000A404890F82400012803D04948007827
:10267000012839D13D4890ED010A10EE101A0846A4
:10268000FEF745FA9FED3C0B53EC102BFEF7A7F934
:10269000FEF725FA334AC2E90A011046D0E90A21B9
:1026A0001046FEF70EFA39490860304890ED020AEC
:1026B00010EE101A0846FEF72AFA9FED2F0B53EC86
:1026C000102BFEF78CF9FEF70AFA264AC2E90E0132
:1026D0001146D1E90E211046FEF7F3F92C490860A6
:1026E0000120204981F827000020FFF735FE23E074
:1026F0000120FFF731FE254890ED000AF2EE040AB2
:1027000020EE200ADFED1E0A80EE201A174880ED29
:10271000011A11E00020FFF71FFE1D4890ED000A8E
:10272000F2EE040A20EE200ADFED150A80EE201AF0
:102730000E4880ED021A00BF00BF0A4890F824003E
:1027400050BB1448007838BB0020064981F82700A8
:10275000084890ED000A054880ED010A094890ED0F
:10276000000A1AE0D40E00203C0600209000002051
:102770003300002028000020000000000000594025
:1027800000007A442C0000207C0000203C00002047
:10279000400000207B00002002E05F4880ED020A3C
:1027A000A9E0FFF7CBF9012804D05C4890F8240099
:1027B00001281AD10120FFF7CFFD0120574981F8E8
:1027C00027000846D0E90C211046FEF77AF900EE02
:1027D000100AF2EE040A20EE200A5FED170A80EEDE
:1027E000201A4D4880ED011A09E000214B4A11637F
:1027F00051630020114681F82700FFF7ADFD7AE014
:10280000464890F82300012823D1444890F824003A
:10281000012803D0FFF792F9012816D10120FFF714
:102820009BFD3E49D1E90C211046FEF74AF900EE26
:10283000100AF2EE040A20EE200A5FED2F0A80EE65
:10284000201A354880ED011A54E00020FFF784FD7E
:1028500050E00021314A11635163104690F827007F
:1028600010B1012844D12CE02D48007818B9FFF7A9
:1028700065F9012804D0294890F8240001281CD1CA
:10288000254890ED010A274880ED000A224890ED86
:10289000010A10EE101A0846FEF739F91FED4A0B2F
:1028A00053EC102BFEF79BF8FEF719F91B4AC2E90F
:1028B0000A010120114681F827000020FFF74CFD96
:1028C00017E00120FFF748FD1448D0E90A2110461F
:1028D000FEF7F7F800EE100AF2EE040A20EE200AE6
:1028E0005FED590A80EE201A0B4880ED011A00E0D6
:1028F00000BF00BF00BF00BFFFF720F918B90748AD
:1029000090F8240008B1012000E00020044908707C
:10291000BDEC048B10BD000090000020D40E002000
:10292000330000202800002010B54FF480710C48BF
:1029300001F09AF900F0A0F84FF40071084801F096
:1029400093F901F02BFA4FF48071054801F08EF9EC
:1029500001F024FA4FF48071014801F085F910BDAF
:10296000000402401CB50121022003F057FF4FF480
:102970004070009001208DF804008DF806000320BF
:102980008DF8050001208DF807006946064801F022
:10299000F7F84FF40071044801F068F94FF48071C2
:1029A000014801F063F91CBD0004024010B54FF46A
:1029B00080710C4801F058F900F05EF84FF4007196
:1029C000084801F053F901F0E9F94FF48071054826
:1029D00001F04CF901F0E2F94FF48071014801F087
:1029E00043F910BD0004024070B50546002400F014
:1029F0002BF800261BE04FF6FF7000EA44044FF46A
:102A00008071104801F030F901F0C8F94FF480717D
:102A10000C4801F02BF901F0C1F94FF4007109489D
:102A200001F019F908B144F00104701C86B2082EB7
:102A3000E1DB15B9FFF7BAFF01E0FFF775FF2046AC
:102A400070BD0000000402401CB54FF400700090FF
:102A500000208DF8040001208DF8060003208DF879
:102A6000050001208DF807006946024801F088F84A
:102A70001CBD0000000402401CB54FF40070009023
:102A800001208DF804008DF8060003208DF8050064
:102A900001208DF807006946014801F071F81CBD5E
:102AA0000004024070B50546FFF7E6FF00241FE072
:102AB00005FA04F000F0800028B14FF400711548C9
:102AC00001F0D4F804E04FF40071124801F0CCF8A2
:102AD00001F064F94FF480710E4801F0C7F801F07D
:102AE0005DF94FF480710B4801F0BEF8601C84B2B0
:102AF000082CDDDB4FF40071064801F0B7F84FF405
:102B00008071044801F0B2F84FF48071014801F07F
:102B1000ABF870BD0004024010B5FFF7ADFF4FF4F5
:102B20000071114801F0A0F8FFF7A6FF4FF4807183
:102B30000D4801F09BF801F031F94FF400710A489B
:102B400001F094F801F02AF94FF40071064801F001
:102B50008BF801F023F94FF48071034801F084F8F9
:102B600001F01CF910BD00000004024010B5FFF791
:102B700083FF4FF400710A4801F076F801F00EF976
:102B80004FF48071064801F071F801F007F94FF435
:102B90000071034801F06AF801F000F910BD00006F
:102BA0000004024010B500244FF40071124801F0F7
:102BB0005DF8FFF749FF01F0F1F84FF480710E481E
:102BC00001F054F801F0EAF807E0601CC4B2FA2CF6
:102BD00003DDFFF7CBFF012010BD4FF40071064865
:102BE00001F039F80028F0D14FF48071024801F06B
:102BF0003BF80020F0E700000004024008B53D204B
:102C00008DF8000008208DF8010000208DF80200EA
:102C100001208DF80300684601F02CFB08BD000080
:102C200001494861704700000090024029B1064AFE
:102C3000D2690243044BDA6104E0034AD269824359
:102C4000014BDA61704700000090024030B1074943
:102C5000896941F00201054A916105E003498969EA
:102C600021F00201014A916170470000009002408A
:102C700070B50C4613460021124D286000BF18E0C5
:102C800000EB41124FF00045156044F2F4555560D9
:102C9000C1EBC11505EB450504EB850595605D1E8F
:102CA0008D4204D900EB41152035D56000E0D0609D
:102CB000491C9942E4D3044DE860044D044E35604C
:102CC00070BD00004C07002000900240EC4A00203C
:102CD0005007002030B10749896941F40051054A85
:102CE000916105E00349896921F40051014A91612C
:102CF000704700000090024030B50C46134600219A
:102D00000F4D286000BF15E000EB41124FF4801515
:102D10001560C1EBC11505EB450504EB8505956014
:102D20005D1E8D4204D900EB41152035D56000E0D1
:102D3000D060491C9942E7D3024D286130BD0000A4
:102D4000480700200090024002680A430260704772
:102D500010B50121480603F071FD00214FF000700D
:102D600003F06CFD10BD01B581B00020009001980A
:102D7000009002E00098401E009000980028F9D1D1
:102D80000CBD000008B5002000900848806940F4A0
:102D90008010064988610846806900904FF6FF70F0
:102DA000FFF7E1FF01490098886108BD00900240EB
:102DB000014800688068704748070020014608689D
:102DC000C0F30D40704700B502460023106800F0C4
:102DD000004058B9106800F4004038B9106800F499
:102DE000807018B11046FFF7E9FF0346184600BD92
:102DF00000200449096801F0010109B1012000E047
:102E0000002070470090024010B501E00BF05CF824
:102E100006480068FFF7D7FF0028F7D14020FFF7EA
:102E2000FFFE4FF48030FFF7FBFE10BD4C07002083
:102E30002DE9F04188B004460F464FF00008002508
:102E400000200790B94E029001200190B848056912
:102E500025F01C0503A803F041FD049EB5488642F9
:102E600005D3B548864202D245F008051AE0B248BB
:102E7000864205D3AD48864202D245F00C0511E0EA
:102E8000AA48864203D3AD48864200D20AE0AB4846
:102E9000864205D3AA48864202D245F0040501E0E5
:102EA00045F01005A24805614FF400420021384664
:102EB00000F072FB10B9002001906AE0A148FFF712
:102EC00052FF2068002850D000BF0298401C02909A
:102ED0000121384600F034FA00F0040018B99A498C
:102EE00002988842F1D398490298884202D1002082
:102EF00001904EE0002002904FF4805200213846AD
:102F000000F04AFB08B90020019000BF0298401C65
:102F100002900121384600F013FA00F0200018B9A1
:102F2000894902988842F1D387490298884202D1A0
:102F3000002001902DE0002002901F21384600F073
:102F4000FFF9804608F0100018B14FF400602062CD
:102F500001E00020206208F0040010B10020606150
:102F600016E04FF48040606112E0206AC0F3CF00A9
:102F70006169C1F34F0140EA01020021384600F0C7
:102F80000BFB08B9002001906FF07F40FFF7EBFECC
:102F900000BF019820B94FF400602062C00060615A
:102FA0006348056869480540D4E901010843E168C0
:102FB00008432169084361690843A1690843E1693D
:102FC0000843216A0843616A0843A16A0843E16A29
:102FD0000843216B0843616B08430543544805606F
:102FE00005684FF6FF70FFF7BEFE51480560D4E953
:102FF0000E010843216C0843616C0843A16C08432F
:10300000E16C0843216D0843616D084348494860FD
:10301000084645684FF6FF70FFF7A5FE4448456037
:103020004349A06D8860E06DC860084685694FF629
:1030300041700540B4F86010606E40EA0140A16E36
:103040000843E16E0843216F0843616F084305435D
:103050003748856185694FF6FF70FFF784FE344875
:103060008561D4E91E0108433149C8610846C56934
:103070004FF6FF70FFF777FE2D48C561344885692C
:1030800034480540D4E920010843D4F888100843A7
:10309000D4F88C100843D4F890100843D4F8941056
:1030A0000843D4F898100843D4F89C100843D4F887
:1030B000A010084305432648856185694FF6FF70D7
:1030C000FFF751FE22488561D4E929010843D4F86D
:1030D000AC100843D4F8B0100843D4F8B41040EA58
:1030E0008100D4F8B810084340F400001849086083
:1030F000084605684FF6FF70FFF735FE1448056077
:10310000006840F0800012490860084605684FF6E4
:10311000FF70FFF728FE0E4805600198012802D1D4
:1031200008B0BDE8F0810020FAE7000000879303B3
:1031300000800240002D3101C00E160200E1F505AD
:1031400080D1F008FFFF0F00FFFF04000F8120FF78
:1031500000900240233FDEF810B50B794C7943EA2A
:103160000422094B03441A64CB781B068C7843EA8B
:1031700004434C7843EA04230C7843EA0402024BEC
:1031800003445A6410BD00000080024010B5B0B086
:1031900001214FF0606003F041FBFFF7D9FD00F023
:1031A00053F900BFFFF724FE0128FBD001A800F06F
:1031B00065F901200190002008904FF400700B90F9
:1031C00000200C900F901290149015901690219062
:1031D0004FF000702290001124900020269027903C
:1031E00004202990C0052A9040122B9080012C9039
:1031F00040122D9040002F90002101A8FFF718FEEB
:10320000C4B2012C03D101210248FFF70FFD204673
:1032100030B010BD4000010038B5044600200090D9
:1032200034B10C48006840F004000A49086005E029
:103230000848006820F00400064908600548006856
:1032400000904FF6FF70FFF78EFD0249009808606E
:1032500038BD00000080024038B5044600200090D0
:1032600034B10C48006840F008000A49086005E0E5
:103270000848006820F00800064908600548006812
:1032800000904FF6FF70FFF76EFD0249009808604E
:1032900038BD00000080024010B50A4801680020D7
:1032A0000BF0DCFB0848016800200BF0D7FB074857
:1032B000016800200BF0D2FB0548016800200BF0EC
:1032C000CDFB10BD14070020180700201C070020AC
:1032D0002007002010B5A02100200BF0D1FB1449DD
:1032E0000860A02100200BF0CBFB1249086041F6DA
:1032F000C45100200BF0C4FB0F49086041F6C451D3
:1033000000200BF0BDFB0D4908600948006840B182
:103310000848006828B10848006810B108460068ED
:1033200018B9FFF7B9FF012010BD0020FCE700002D
:1033300014070020180700201C0700202007002089
:1033400018B502460B46002100200090154801697F
:1033500001F01C014FF4784000EAC22001434FF411
:10336000F86000EA8310014321F0020141F00101FD
:103370000C48016100BF0098401C00900948016999
:1033800001F0010018B1084C0098A042F3D3064C9C
:103390000098A04201D1002018BD0248406980B2C7
:1033A000FAE7000000800240FFFF04001EB5002184
:1033B0000022009201920292214A1268126802F0E1
:1033C000004282B1002200921E4A526902F080023D
:1033D00022B180221B4B5A6100229A609DE81C009A
:1033E00080E81C001EBD164A1268126802F40042F2
:1033F000B2B9134A1268126802F4807282B1104A9C
:103400001268126802F4007252B10D4A1268126812
:10341000C2F30D42111F0A4A12689268019200E03D
:1034200000210091064A12680292054A1268D26889
:10343000034B1A609DE81C0080E81C0000BFD1E728
:103440004C070020009002400348006840F0010053
:1034500001490860704700000090024010B501204B
:10346000FFF7FAFE0120FFF7D7FEFFF78BFC0120E4
:10347000FFF730FC0120FFF7E9FB10BD01210160DF
:10348000002141608160C16001614FF48041416170
:1034900000218161C1614FF400610162002141623C
:1034A0008162C162016341638163C1634021016440
:1034B0002021416400218164C16401654165816509
:1034C000C16501668021416600218166C166016790
:1034D00041678167C1674FF08061C0F88010491073
:1034E000C0F884100021C0F888104FF40011C0F813
:1034F0008C100021C0F89010C0F89410C0F89810FB
:10350000C0F89C10C0F8A0104FF00071C0F8A410D3
:103510004912C0F8A8108901C0F8AC104912C0F8CF
:10352000B0100021C0F8B410C0F8B8107047000007
:10353000014617480068006800F0004008B100200C
:103540007047C1F30C00124A1268506010480068BE
:10355000006840F040500E4A126810600C48006845
:10356000006840F000400A4A12681060094840694B
:1035700000F0040020B10420064A50610020506091
:1035800003480068C068024A10600120D8E70000C4
:10359000480700200090024038B503460C46002141
:1035A000002000901448016901F01C014FF478409C
:1035B00000EAC32001434FF4F86000EA841001439D
:1035C00041F0020141F001010B484261016100BF7D
:1035D0000098401C00900848016901F0010018B1F2
:1035E000064D0098A842F3D3044D0098A84201D19B
:1035F000002038BD0120FCE700800240FFFF0400EE
:1036000010B500F065F810BD10B500F061F810BD00
:1036100010B500F05DF810BD10B500F059F810BD00
:1036200010B500F055F810BD10B500F051F810BD00
:1036300010B500F04DF810BD3EB50121880303F030
:103640002DF900242DE0184A02EBC4029178164AA5
:1036500002EBC402507803F01DFB134800EBC400DA
:103660004068009000208DF804000C208DF80500C3
:1036700001208DF80600684600F048F80A4800EB83
:10368000C400C0788DF80800E0B28DF80900002071
:103690008DF80A0001208DF80B0002A800F0EAFD69
:1036A000641C032CCFDB3EBDFC06002001490860F2
:1036B00070470000143C014001460020034A126894
:1036C0000A400AB1012000E000207047143C01408C
:1036D00070B50C480568002410E00B4800EBC400EE
:1036E0004068A84209D12846FFF7E6FF012804D127
:1036F00003F084F92846FFF7D9FF641C032CECDBA8
:1037000070BD0000143C0140FC060020002123494C
:103710008279002A3AD00A46126803689A430B4617
:103720001A600A1D126803689A430B1D1A60027919
:1037300011440A6803681A430A60184A083212687A
:1037400003689A43154B08331A601A1D1268036800
:103750009A43124B0C331A604279102A0ED11A1F69
:10376000126803681A430D4B08331A601A1D126859
:1037700003681A43094B0C331A600DE0074942797C
:1037800011440A6803681A430A6005E0027911448B
:103790000A6803689A430A6070470000003C0140D1
:1037A00008B54FF4407000F0A1FD38208DF80000FE
:1037B0000D208DF8010000208DF8020001208DF809
:1037C0000300684600F056FD002208211048FEF76D
:1037D00075FD012210210E48FEF770FD01210C48F5
:1037E000FEF752FC0B490A48FEF734FC0A49084828
:1037F000FEF730FC04210648FEF72CFC02210448A9
:10380000FEF728FC80210248FEF724FC08BD0000DA
:1038100010640240208000101040001008B54FF4E2
:10382000407000F063FD3A208DF8000007208DF80D
:10383000010000208DF8020001208DF80300684689
:1038400000F018FD002208211048FEF737FD012284
:1038500010210E48FEF732FD01210C48FEF714FC42
:103860000B490A48FEF7F6FB0A490848FEF7F2FB47
:1038700004210648FEF7EEFB02210448FEF7EAFBAE
:1038800080210248FEF7E6FB08BD000040640240CC
:10389000208000101040001010B50A480068C0B227
:1038A00058B100BF5021EFF3118081F31188BFF3AD
:1038B0004F8FBFF36F8F00BF10BD14F0CDFF0020FE
:1038C000FAE7000004ED00E010B504460548006882
:1038D000C0B220B100BF84F3118800BF01E014F032
:1038E000D5FF10BD04ED00E000B587B00121022036
:1038F00002F094FF0121080302F0D0FF3820059068
:1039000002208DF8180000208DF81A0003208DF891
:10391000190001208DF81B0005A9204800F030F99E
:10392000052203211D4800F073F9052204211B48DC
:1039300000F06EF905221146184800F069F90121DE
:10394000080302F0BBFF00214FF4805002F0B6FFE5
:103950000020ADF800004FF48270ADF802000020A6
:10396000ADF804000220ADF806000120ADF8080013
:103970004002ADF80A003820ADF80C000020ADF888
:103980000E000720ADF810006946054803F05EF907
:103990000121034803F040F907B000BD00040240D4
:1039A0000030014010B5044600BF02210A4803F070
:1039B0003FF90028F9D02146074803F045F900BF38
:1039C0000121054803F034F90028F9D0024803F03A
:1039D00038F9C0B210BD00000030014010B50446F7
:1039E000074800884FF6C771084005490880084617
:1039F0000088204308800121014803F00DF910BD23
:103A00000030014008B58DED000A009AD3B20A8853
:103A10008354009AC2F307230A88521C8354009AE5
:103A2000C2F307430A88921C8354009A130E0A8833
:103A3000D21C83540A88121D0A8008BD7CB500255B
:103A4000002007E000EB4001194A52F821100D4315
:103A5000411CC8B20728F5DB0121284602F0DEFE32
:103A600000208DF8040001208DF8060003208DF859
:103A70000500002418E004EB44000D4901EB800030
:103A8000807A8DF8070004EB440001EB8000008988
:103A9000009004EB4401064A02EB81014868694644
:103AA00000F06EF8601CC4B2072CE4DB7CBD0000A3
:103AB0003C06002010B5FFF7C1FF00F003F8FFF748
:103AC000BBFD10BD7CB50025002007E000EB4001E8
:103AD000294A52F821100D43411CC8B20928F5DBD0
:103AE0000121284602F09AFE002429E004EB44005C
:103AF000214901EB80000089009001208DF804002D
:103B000003208DF8050000208DF806008DF80700D1
:103B100004EB4401184A02EB81014868694600F051
:103B20002FF804EB4402144B03EB8202118904EBDF
:103B3000440203EB8202506800F098F8601CC4B2A3
:103B4000092CD3DB0121402002F068FE0220009006
:103B500001208DF8040003208DF8050000208DF869
:103B600006008DF807006946044800F009F80221B4
:103B7000024800F07BF87CBD90060020001802404F
:103B8000F0B50A4600210023002400BF3DE00125D6
:103B900005FA01F3156805EA03049C4234D105686F
:103BA0004F000326BE40B543056015794E00B54071
:103BB0000668354305601579012D02D01579022D6F
:103BC00016D185684F000326BE40B5438560557900
:103BD0004E00B540866835438560456801268E40B5
:103BE000B5434560456896798E40B6B23543456029
:103BF000C5684F000326BE40B543C560D5794E0069
:103C0000B540C6683543C560491C1029BFD3F0BD17
:103C1000F0B5002300244D07ED0E02FA05F3CE1097
:103C200000F1200555F826504E07F70E0F26BE402E
:103C3000B543CF1000F1200646F82750CE1000F112
:103C4000200555F8265045EA0304CE1000F1200562
:103C500045F82640F0BD0246002013690B400BB129
:103C6000012000E0002070474183704701837047C6
:103C700010B5EE2000F01CF8822000F019F8FF20AB
:103C800000F016F8FC2000F013F8FF2000F010F808
:103C9000FF2000F00DF8052006F0B8FA10BD000076
:103CA00002480068401C0149086070473007002046
:103CB00010B504462146094804F089F900BF802167
:103CC000064804F0B9F80028F9D000BF40210348A5
:103CD00004F0B2F80028F9D010BD00000010014037
:103CE00000B587B00121084602F098FD012110209F
:103CF00002F0D4FD264804F027F8072209212548C0
:103D0000FFF786FF07220A212248FFF781FF4FF4C1
:103D1000C060049002208DF814008DF8150000207A
:103D20008DF8160001208DF8170004A91948FFF737
:103D300027FF4FF4E13000900020ADF80400ADF80B
:103D40000600ADF80800ADF80C000C20ADF80A0034
:103D500069460F4804F0CCF801210D4803F0DEFF5E
:103D6000012240F225510A4804F09DF825208DF8E3
:103D700018000C208DF8190000208DF81A00012081
:103D80008DF81B0006A800F075FA07B000BD000012
:103D9000001001400000024000BFFEE710B5022005
:103DA00006F054FA10BD10B5148808550412138893
:103DB0005B1CCC5413889B1C138010BD1CB50024C5
:103DC00001214D2002F02AFD0121880302F066FD49
:103DD000012002F059FF8620009003208DF8050095
:103DE00002208DF8040000208DF806008DF80700F1
:103DF00069463148FFF7C4FE0B2201212E48FFF728
:103E000007FF0B2202212C48FFF702FF0B2207219C
:103E10002948FFF7FDFE3220009069462748FFF74A
:103E2000AFFE0B2201212548FFF7F2FE0B220421F1
:103E30002248FFF7EDFE0B2205212048FFF7E8FEA0
:103E40004FF4D040009069461D48FFF799FE0B22C1
:103E500011461B48FFF7DCFE0B220D211848FFF727
:103E6000D7FE0B220E211648FFF7D2FE0820009045
:103E700003208DF8050001208DF8040000208DF846
:103E800006008DF8070069460E48FFF779FE00200E
:103E90000D490860322006F0B9F901200B49C1F83C
:103EA0008C02FEF7ABFEFFF771F904460CB9012056
:103EB0001CBD0020FCE7000000000240000802409A
:103EC00000180240000C02408C82414200804142B6
:103ED0001CB50121202002F0A1FC4FF4C06000902D
:103EE00001208DF8040000208DF8060003208DF8D5
:103EF000050002208DF8070069460348FFF740FEE1
:103F0000002000F003F81CBD0014024010B5044668
:103F100054B14FF480610A48FFF7A8FE4FF40071D6
:103F20000748FFF7A1FE09E04FF480610448FFF75E
:103F30009BFE4FF400710248FFF798FE10BD000091
:103F40000014024038B540F25C520021C44805F02C
:103F5000C3F9C348007855287ED1C1484078552818
:103F6000FAD1022000906946BD48FDF7D8FDBD4951
:103F700008706946BA48FDF783FDBA4880ED010A2A
:103F80006946B748FDF77CFDB64880ED020A00247B
:103F900051E06946B248FDF773FD04EB4401B148B6
:103FA000603000EBC10080ED000A6946AC48FDF7C7
:103FB00067FD04EB4401AB48603000EBC10080EDCD
:103FC000010A6946A648FDF75BFD04EB4401A548DC
:103FD000603000EBC10080ED020A6946A048FDF7A1
:103FE0004FFD04EB44019F48603000EBC10080EDC1
:103FF000030A69469A48FDF792FD00EE100AB8EEF2
:10400000400A04EB44019748603000EBC10080EDAA
:10401000040A69469248FDF782FD00EE100AB8EEE8
:10402000400A04EB44018F48603000EBC10080ED92
:10403000050A601CC4B2282CABDB69468848FDF732
:104040006EFD8849087369468548FDF719FD854866
:1040500080ED150A694600E0FFE08148FDF710FD9C
:10406000804880ED160A69467D48FDF709FD7D48C8
:1040700080ED170A69467A48FDF702FD794880ED20
:10408000040A69467648FDF7FBFC764880ED060A8F
:1040900069467348FDF7F4FC724880ED050A6946ED
:1040A0006F48FDF7EDFC6F4880ED070A69466C48E4
:1040B000FDF7E6FC6B4880ED080A69466848FDF7A5
:1040C000DFFC684880ED0A0A69466548FDF7D8FCC0
:1040D000644880ED090A69466148FDF7D1FC6148F2
:1040E00080ED0B0A69465E48FDF7CAFC5D4880ED2D
:1040F0000C0A69465A48FDF7C3FC5A4880ED0E0A7F
:1041000069465748FDF7BCFC564880ED0D0A6946E4
:104110005348FDF7B5FC534880ED0F0A69465048F7
:10412000FDF7AEFC4F4880ED100A69464C48FDF79C
:10413000A7FC4C4880ED120A69464948FDF7A0FCEF
:10414000484880ED110A69464548FDF799FC454805
:1041500080ED130A69464248FDF7E1FCC1B24148CF
:1041600080F8501069463E48FDF7D9FCC1B23D4881
:1041700080F8511069463A48FDF7D1FCC1B2394880
:1041800080F8521069463648FDF7C9FCC1B235487F
:1041900080F82A1514236A4600F58C613048FDF733
:1041A000A9FC14236A4630492D48FDF7A3FC1423CB
:1041B0006A462D4914312A48FDF79CFC14236A46AF
:1041C000294928312648FDF795FC69462448FDF722
:1041D000A6FC01462348A0F8B01414236A4600F256
:1041E000EE411F48FDF786FC14236A461E498E31B6
:1041F0001B48FDF77FFC14236A461B49A23118486F
:10420000FDF778FC14236A46174952311448FDF72C
:1042100071FC14236A46144966311148FDF76AFCA3
:1042200014236A461049B8310D48FDF763FC142386
:104230006A460D49CC310A48FDF75CFC69460848DE
:10424000FDF76DFC074981F8540569460448FDF700
:1042500066FC044981F8550501E002F019FC38BDFF
:1042600050090020900000200405002000BFFEE758
:104270007047000070B5002100230F22C4781CB3E2
:10428000174C246804F4E064C4F5E064C4F3072127
:10429000C1F10404E3B20A4144789C40E1B284785D
:1042A000144021430C07210E0E4C0578615504780B
:1042B00004F01F050124AC4005786D11AD0005F137
:1042C000E025C5F8004109E0047804F01F05012449
:1042D000AC40054D0678761145F8264070BD0000CB
:1042E0000CED00E000E400E080E100E00249014361
:1042F000024A1160704700000000FA050CED00E072
:10430000024A0A400243024B1A60704780FFFF1FB7
:1043100008ED00E0F0B52DED028B85B006460D46A8
:104320001446FD480680132E81F0EE81DFE816F07A
:104330001300150016006C000F014002D602960310
:104340006604D7041A0572092F05E9058B09AA0925
:10435000C209D609810501F0D7B9FCE7A81E0C28CF
:1043600050D2DFE800F0060B4F4F4F4F4F4F2C3726
:10437000422114B10A2002F0A6FF43E0E74890F87A
:104380005405012809D10C2002F09DFF0D20E449BD
:1043900008700220E349087005E00D2002F093FF49
:1043A0000D2001F003FA2DE024B10120DE4981F84F
:1043B000220003E00020DC4981F8220022E024B141
:1043C0000120D94981F8260003E00020D64981F870
:1043D000260017E024B10120D34981F8480003E00A
:1043E0000020D14981F848000CE034B10120CE49C9
:1043F00081F8240002F06EFC03E00020CA4981F835
:10440000240000BF00BFA6E7092D0DD2DFE805F0AC
:104410009D050D152C435A71870014B10D2002F033
:1044200052FF0D20BC4908808FE02CB10A2002F019
:104430004AFF0A2001F0BAF987E0A4B1B74890F822
:104440005505012809D1122002F03DFF0420B4498E
:1044500008700320B349087005E0042002F033FF20
:10446000042001F0A3F970E0A4B1AC4890F8550520
:10447000012809D1122002F026FF0520A849087062
:104480000320A849087005E0052002F01CFF052064
:1044900001F08CF959E0A4B1A04890F85505012825
:1044A00009D1122002F00FFF06209D490870032059
:1044B0009C49087005E0062002F005FF062001F087
:1044C00075F942E0A4B1954890F85505012809D145
:1044D000122002F0F8FE072091490870032091494C
:1044E000087005E0072002F0EEFE072001F05EF9FB
:1044F0002BE08A4890F85505012809D1122002F0D6
:10450000E2FE08208649087003208649087005E00D
:10451000082002F0D8FE082001F048F915E07F4895
:1045200090F85505012809D1122002F0CCFE09208F
:104530007B49087003207B49087005E0092002F0E0
:10454000C2FE092001F032F900BF00BF03E7092DC8
:1045500038D2DFE805F03705386BEDEC9ED1FD0071
:1045600014B300216D4880F8501001221146042038
:1045700002F0D3FD00220221042002F0CEFD6748A4
:104580000078F8B9654890F8500000EE100AB8EECF
:10459000400A6248007B00EB40016048603000EB5D
:1045A000C10080ED040A0DE001215C4880F8501044
:1045B00001220221042002F0B0FD0022012104208A
:1045C00002F0ABFDF2E074B10121544880F85010C4
:1045D00001220221042002F0A0FD0022012104207A
:1045E00002F09BFD0DE000214C4880F850100122A4
:1045F0001146042002F091FD00220221042002F065
:104600008CFD4648007880B9444890F8500000EE90
:10461000100AB8EE400A4148007B00EB40013F48D9
:10462000603000EBC10080ED040ABFE074B10021EE
:104630003A4880F8511001220321042002F06DFD58
:1046400000220621042002F068FD0DE0012133481C
:1046500080F8511001220621042002F05EFD0022A4
:104660000321042002F059FD2C48007880B92B4822
:1046700090F8510000EE100AB8EE400A2748007B7F
:1046800000EB40012548603000EBC10080ED050AD9
:104690008CE074B10121214880F8511001220621DB
:1046A000042002F03AFD00220321042002F035FD2F
:1046B0000DE00021194880F8511001220321042047
:1046C00002F02BFD00220621042002F026FD1348F3
:1046D000007880B9114890F8510000EE100AB8EE49
:1046E000400A0E48007B00EB40010C48603000EBB4
:1046F000C10080ED050A59E0DCB10021074880F8CF
:10470000521000220821042002F007FD0122072197
:10471000042002F002FD1AE0F005002090000020C5
:104720000006002001060020D40E002010E036E034
:104730002DE00121FE4880F85210012208210420BA
:1047400002F0EBFC00220721042002F0E6FC2DE041
:1047500074B10121F64880F852100022072104208C
:1047600002F0DBFC01220821042002F0D6FC0DE05F
:104770000021EF4880F8521000220821042002F0A6
:10478000CCFC01220721042002F0C7FC0EE02CB172
:104790000E20E84908700320E749087006E024B1BC
:1047A000032001F003F8FFF7CDFB00BF00BFD2E507
:1047B0000A2D43D00B2D04D00C2D7ED00E2D3CD1D4
:1047C00082E04CB30121DA4880F82A1590F82A25B6
:1047D0000520FCF7F3FFD64890F82A250221052092
:1047E000FCF7ECFFD24890F82A05022801D10120FD
:1047F00000E0002002460A21052002F08EFCCC4891
:1048000090F82A05012800D100E0002002460B2183
:10481000052002F082FC10E00021C54880F82A152E
:1048200090F82A2501210520FCF7C8FFC04890F820
:104830002A2502210520FCF7C1FF4DE054B30221D7
:10484000BB4880F82A1590F82A2501210520FCF79D
:10485000B5FFB74890F82A2502210520FCF7AEFFE6
:10486000B34890F82A05022801D1012000E0002079
:1048700002460A21052002F050FCAD4890F82A05B6
:10488000012800D100E0002002460B21052002F0A3
:1048900044FC10E00021A64880F82A1590F82A254B
:1048A00001210520FCF78AFFA14890F82A25022162
:1048B0000520FCF783FF0FE0FFE724B1032000F0A1
:1048C00075FFFFF73FFB07E02CB10E2099490870F8
:1048D00003209949087000BF00BF3CE50D2D18D298
:1048E000DFE805F0BA282F4841BABA07185A728A89
:1048F000A2000E208F49087003208F490870002203
:104900000121062002F009FC00220421062002F009
:1049100004FCA1E0032000F049FF00220121062051
:1049200002F0FBFB00220421062002F0F6FBFFF759
:1049300009FB91E024B101208049087700204877E5
:104940008AE07CB17D4890ED040A794880ED040A44
:10495000B7EE000A80ED050A0022012178480088A0
:1049600002F0DBFB78E024B10020744908770120D5
:10497000487771E07CB1714890ED040A6C4880ED95
:10498000060AB1EE040A80ED070A002204216C48F1
:10499000008802F0C2FB5FE0ACB16848007F0128EC
:1049A00011D1634890ED0C0AF7EE000A30EE600A70
:1049B00080ED0C0AD0ED0C0AB0EE600A0D216048C3
:1049C000008802F043FD47E0ACB15C48007F01285D
:1049D00011D1574890ED0C0AF7EE000A30EE200A8C
:1049E00080ED0C0AD0ED0C0AB0EE600A0D2154489F
:1049F000008802F02BFD2FE0ACB15048407F012829
:104A000011D14B4890ED0E0AF7EE000A30EE600A25
:104A100080ED0E0AD0ED0E0AB0EE600A0E21484875
:104A2000008802F013FD17E0ACB14448407F012834
:104A300011D13F4890ED0E0AF7EE000A30EE200A41
:104A400080ED0E0AD0ED0E0AB0EE600A0E213C4851
:104A5000008802F0FBFC00BF00BF7CE4E81E0C28CD
:104A600017D2DFE800F04C535A81C9283A99B1C9EE
:104A700006170E202F49087003202F4908700022C6
:104A80000321072002F049FB00220421072002F045
:104A900044FBB1E074B1032000F088FE0022032142
:104AA000072002F03AFB00220421072002F035FB28
:104AB000FFF748FAA0E07CB1204890ED060A1C48B8
:104AC00080ED080A9FED1F0A80ED090A00220321EC
:104AD0001B48008802F021FB8EE07CB1174890ED66
:104AE000060A134880ED0A0A9FED170A80ED0B0AAB
:104AF000002204211248008802F00FFB7CE024B160
:104B000001200E4988770020C87775E024B1002085
:104B10000A4988770120C87700BF24B30748807FFF
:104B2000012820D1024890ED100AF7EE000A0DE0AE
:104B3000900000200006002001060020D40E002076
:104B4000F0050020C72968411C1A914230EE600A26
:104B500080ED100AD0ED100AB0EE600A0721F84887
:104B6000008802F073FC47E0ACB1F648807F012872
:104B700011D1F54890ED100AF7EE000A30EE200A48
:104B800080ED100AD0ED100AB0EE600A0721EC4863
:104B9000008802F05BFC2FE0ACB1EA48C07F01283E
:104BA00011D1E94890ED120AF7EE000A30EE600AE2
:104BB00080ED120AD0ED120AB0EE600A0C21E04836
:104BC000008802F043FC17E0ACB1DE48C07F01284A
:104BD00011D1DD4890ED120AF7EE000A30EE200AFE
:104BE00080ED120AD0ED120AB0EE600A0C21D44812
:104BF000008802F02BFC00BF00BF04E4012D06D0AA
:104C0000022D1DD0052D26D0062D66D153E094B17E
:104C10000120CD4981F85405084690F8542501211A
:104C2000082002F07AFAC84890F855250221082099
:104C300002F073FA03E00020C34981F854054CE008
:104C400024B10120C04981F8550503E00020BE4988
:104C500081F8550541E06CB3BC480078012808D1C3
:104C60001421BB48FBF72BFBBA4ABBA1B84804F0A0
:104C7000D5FDBA48007801280AD11421B44814306F
:104C8000FBF71DFBB64AB4A1B148143004F0C6FDD1
:104C900002F020F80020AD490870B04908701421D6
:104CA000AC48FBF70CFB1421AD48FBF708FB0320D5
:104CB000AC49087011E00020A4490870A7490870A9
:104CC0001421A448FBF7FBFA1421A548FBF7F7FAD7
:104CD000032000F06BFDFFF735F900BF36E4002735
:104CE0009FEDA10AB0EE408A032D04D0042D09D017
:104CF0000D2D35D10CE00E209C49087003209949F8
:104D000008702DE0FFF71EF9032000F04FFD27E0AB
:104D10000120974908708B4991F8490001F05DFE28
:104D2000884981F8500091F84A0001F056FE854903
:104D300081F8510091F84C0001F04FFE814981F853
:104D4000530091F84D0001F048FE7E4981F854006F
:104D500091F84E0001F041FE7A4981F8550000BFFC
:104D600000BF24E5062D02D0072D0ED106E003205A
:104D700002F0A9FA032000F019FD06E00D2002F070
:104D8000A2FA0D2000F012FD00BF00BF0FE5022DBA
:104D900002D0032D4BD13CE0D4B3002773480078F8
:104DA0000D280AD16A497348FBF7B9FA20B1724954
:104DB0007048FBF7B4FA00B90127012F08D16B48FE
:104DC000007802F080FA6948007800F0EFFC07E014
:104DD0006448007802F077FA6248007800F0E6FC58
:104DE0000020019002900390049064A25AA101A8AF
:104DF00004F014FD01AA01210C2002F0FBFA59482D
:104E000000785A49087014215A48FBF758FA00BF35
:104E10000DE05CB15348007802F055FA5148007833
:104E20005249087014215348FBF749FA00BF00BFEC
:104E3000F0E3022D02D0032D61D152E07CB30027B4
:104E40004A480078042813D04848007805280FD035
:104E50004648007806280BD044480078072807D039
:104E600042480078082803D04048007809280BD130
:104E7000374914314248FBF752FA20B141494048C2
:104E8000FBF74DFA00B90127012F09D13748007807
:104E900002F019FA3548007800F088FC08E01FE0BD
:104EA0003048007802F00FFA2E48007800F07EFCBF
:104EB0000020019002900390049030A226A101A846
:104EC00004F0ACFC01AA0121122002F093FA25485B
:104ED00000782649087014212948FBF7F0F900BF33
:104EE0000DE05CB11F48007802F0EDF91D48007834
:104EF0001E49087014212248FBF7E1F900BF00BFEA
:104F000088E30D2D7ED00ADC0D2D4BD2DFE805F0B5
:104F10004A3C4A4A4A4A4BFE4AFDFCFBFA00112D24
:104F200071D006DC0E2D70D00F2D6FD0102D39D121
:104F300039E3122D6BD0132D6AD01E2DF7D17CE3EF
:104F4000F0050020D40E0020900000200206002072
:104F5000BC050020CC1600202573000003060020AD
:104F6000E0160020010600200000000000060020DE
:104F7000F2050020F41600200406002000000000C6
:104F8000081700201806002001F0A4FEFE48027851
:104F900009210220FCF712FC022002F094F9022001
:104FA00000F004FC4DE37CB3F748007B012876DB7E
:104FB000F548007B401EF44908730846007B00EB6F
:104FC0004001F148603000EBC10090ED020AEE486C
:104FD00080ED150A007B00EB4001EB48603000EBF0
:104FE000C10090ED030AE84880ED170A007B00EB52
:104FF0004001E548603000EBC10090ED040ABCEED2
:10500000C00A06E0FAE10AE349E066E298E20DE34D
:10501000D0E110EE100AC1B2DB4880F85010007BDE
:1050200000EB4001D848603000EBC10090ED050A6C
:10503000BCEEC00A10EE100AC1B2D34880F851107D
:10504000007B00EE900AF8EE600AB0EE600A0521DF
:10505000CE48008802F0FAF9CB48007B00EB400113
:10506000C948603000EBC100D0ED000AB0EE600A24
:105070000421C648008802F00FFAC348007B00EB09
:105080004001C148603000EBC100D0ED010AB0EE34
:10509000600A0821BD48008802F0FEF976E0B4B34A
:1050A000B948007B98BB2720B74908730846007BA6
:1050B00000EB4001B448603000EBC10090ED020A03
:1050C000B14880ED150A007B00EB4001AE4860302E
:1050D00000EBC10090ED030AAB4880ED170A007B9E
:1050E00000EB4001A848603000EBC10090ED040ADD
:1050F000BCEEC00A10EE100AC1B2A34880F85010EE
:10510000007B05E06FE14AE12EE122E13FE03DE076
:1051100000EB40019C48603000EBC10090ED050AB7
:10512000BCEEC00A10EE100AC1B2974880F85110C8
:10513000007B00EE900AF8EE600AB0EE600A0521EE
:105140009248008802F082F98F48007B00EB400112
:105150008D48603000EBC100D0ED000AB0EE600A6F
:1051600004218A48008802F097F98748007B00EB09
:1051700040018548603000EBC100D0ED010AB0EE7F
:10518000600A08218148008802F086F959E2012C62
:1051900071D17D48007B27286EDA7B48007B401C5C
:1051A000794908730846007B00EB4001764860307F
:1051B00000EBC10090ED020A734880ED150A007BF8
:1051C00000EB40017048603000EBC10090ED030A35
:1051D0006D4880ED170A007B00EB40016A486030A3
:1051E00000EBC10090ED040ABCEEC00A10EE100AFC
:1051F000C1B2654880F85010007B00EB4001624866
:10520000603000EBC10090ED050ABCEEC00A10EE64
:10521000100AC1B25C4880F85110007B00EE900A81
:10522000F8EE600AB0EE600A05215848008802F0E6
:105230000DF95548007B00EB40015348603000EB0E
:10524000C100D0ED000AB0EE600A04214F4800888A
:1052500002F022F94C48007B00EB40014A486030E4
:1052600000EBC100D0ED010AB0EE600A082147480A
:10527000008802F011F96BE00020434908730846EA
:10528000007B00EB40014048603000EBC10090ED36
:10529000020A3D4880ED150A007B00EB40013A48C8
:1052A000603000EBC10090ED030A374880ED170A2B
:1052B000007B00EB40013448603000EBC10090ED12
:1052C000040ABCEEC00A10EE100AC1B22E4880F8E3
:1052D0005010007B00EB40012B48603000EBC10018
:1052E00090ED050ABCEEC00A10EE100AC1B22648C5
:1052F00080F85110007B00EE900AF8EE600AB0EEE4
:10530000600A05212148008802F0A0F81E48007BB1
:1053100000EB40011C48603000EBC100D0ED000AFA
:10532000B0EE600A04211948008802F0B5F816486A
:10533000007B00EB40011448603000EBC100D0ED71
:10534000010AB0EE600A08211048008802F0A4F8B3
:1053500077E124B101200E4981F8260003E0002006
:105360000B4981F826006CE1A4B10120084981F8BD
:10537000480000220C210548008801F0CEFE0020E4
:10538000034981F8220009E090000020F005002088
:10539000D40E00200020DF4981F8480051E124B1FB
:1053A0000120DC4981F8240003E00020D94981F87C
:1053B000240046E15CB10120D64981F8230008466B
:1053C00090F8232013210D2001F0A7FE0AE0002011
:1053D000D04981F82300084690F8232013210D209E
:1053E00001F09BFE2DE124B10120CA4981F8220081
:1053F00003E00020C74981F8220022E1F4B3002035
:10540000C54908700846007B00EB4001C248603087
:1054100000EBC10090ED020ABF4880ED150A007B49
:1054200000EB4001BC48603000EBC10090ED030A86
:10543000B94880ED170A007B00EB4001B6486030A8
:1054400000EBC10090ED040ABCEEC00A10EE100A99
:10545000C1B2B14880F85010007B00EB4001AE486B
:10546000603000EBC10090ED050ABCEEC00A10EE02
:10547000100AC1B2A84880F8511000E02CE0007872
:1054800008B9012000E0002002460D21084601F085
:1054900044FEA1480078012800D100E00020024627
:1054A0000E210D2001F039FE9B480078022801D121
:1054B000012000E0002002460F210D2001F02DFE0A
:1054C00095480078032801D1012000E00020024621
:1054D00010210D2001F021FEB3E084B301208E499C
:1054E00008700846007808B9012000E00020024654
:1054F0000D21084601F011FE87480078012800D1EF
:1055000000E0002002460E210D2001F006FE824838
:105510000078022801D1012000E0002002460F217E
:105520000D2001F0FAFD7C480078032801D101200C
:1055300000E00020024610210D2001F0EEFD80E089
:1055400084B30220744908700846007808B9012025
:1055500000E0002002460D21084601F0DEFD6E4805
:105560000078012800D100E0002002460E210D2025
:1055700001F0D3FD68480078022801D1012000E045
:10558000002002460F210D2001F0C7FD624800787F
:10559000032801D1012000E00020024610210D2047
:1055A00001F0BBFD4DE0A4B303205B49087000206F
:1055B0005A4908705848007808B9012000E00020D6
:1055C00002460D21084601F0A8FD53480078012845
:1055D00000D100E0002002460E210D2001F09DFDCB
:1055E0004D480078022801D1012000E00020024649
:1055F0000F210D2001F091FD47480078032801D1CB
:10560000012000E00020024610210D2001F085FD60
:1056100004E000E078E001204049087011E0032038
:1056200001F051FE032000F0C1F80AE00A2001F069
:105630004AFE0A2000F0BAF803E00CB101F04AFB80
:1056400000BF00BF60E0012D02D0022D18D10BE099
:105650004CB101F03FFB3248007801F034FE304895
:10566000007800F0A3F80BE04CB1FEF76BFC2C487F
:10567000007801F028FE2A48007800F097F800BF73
:1056800000BF41E0012D02D0022D11D109E03CB153
:10569000204890F82000012802D1092001F013FED3
:1056A00006E024B1FEF74EFC092001F00CFE00BF1D
:1056B00000BF29E0012D0FD100211A4880F83B10CE
:1056C0000020194908700D2001F0FDFD0D2017493B
:1056D0000880FEF737FC00BF00BF15E0022D02D0A6
:1056E000032D0FD106E024B101F0F4FA09200C4992
:1056F000087007E02CB1092001F0E5FD092000F059
:1057000055F800BF00BF00BF00BF05B0BDEC028B65
:10571000F0BD0000D40E002090000020F305002012
:105720000106002090060020F4050020F00500206E
:1057300070477047704770472DE9F04707460C46A1
:1057400015461E46DDE9099ADDF82080384601F04D
:1057500039F9154981F84900204601F033F9124919
:1057600081F84A00284601F02DF90F4981F84B00D5
:10577000304601F027F90C4981F84C00404601F011
:1057800021F9094981F84D00484601F01BF9064905
:1057900081F84E00504601F015F9401CC1B2024894
:1057A00080F84F10BDE8F087D40E002038B50446CD
:1057B000F94804800020FCF7CFF90120FCF7CCF970
:1057C000062C03D00020F54908774877072C03D032
:1057D0000020F2498877C877112C0AD2DFE804F05C
:1057E000090A0BFDFCFBFAF9F8F7F6F5F4F3F2F110
:1057F000F0008AE389E3E94890F8260018B9002010
:10580000E64981F84800E54890F82700E8B9E34800
:1058100090F8220001280CD100220A21DE480088DD
:1058200001F0A7FC00220B21DB48008801F0A1FC5D
:105830000BE001220A21D848008801F09AFC0122DD
:105840000B21D548008801F094FCD44890F826201C
:105850000A21D148008801F060FCD04890F8482027
:105860000B21CD48008801F058FCCC4890F8480046
:1058700001281DD101220C21C748008801F079FCC4
:10588000C7480078012806D000220821C2480088B5
:1058900001F06FFC05E001220821BF48008801F0FB
:1058A00068FC00220D21BC48008801F062FC11E078
:1058B00001220D21B848008801F05BFC00220C2178
:1058C000B548008801F055FC00220821B248008844
:1058D00001F04FFCB14890F823200821AE48008821
:1058E00001F01BFCAD4802781221AB480088FBF7A1
:1058F00065FFAB4890F852200E21A7480088FBF7BF
:105900005DFFA74802780921A3480088FBF756FFEE
:10591000A34890F82A2502219F480088FBF74EFFF4
:105920009F4890F8520001280AD19C48D0ED010A06
:10593000B0EE600A0F219848008801F0D3FD0FE017
:10594000964890ED011ADFED971ADFED970A41EEC8
:10595000210AB0EE600A0F218F48008801F0C2FDD5
:105960008E48D0ED020AB0EE600A10218A48008805
:1059700001F0B8FD894890F824200C218648008861
:1059800001F0CBFB854890F822200D218248008849
:1059900001F0C3FB82480078032822D183A000686D
:1059A00000907F48D0ED010AB0EE600A05217A48E8
:1059B000008801F071FD6A460621774800880DE0F5
:1059C000F7E0A1E2F4E06FE16DE16BE1FBE0F1E013
:1059D0005FE1C4E0A6E0FEE053E049E001F00AFD2B
:1059E00000BF6F480078012813D170A000680090B4
:1059F0006A4606216848008801F0FCFC6848D0ED42
:105A0000010AB0EE600A05216348008801F044FDF8
:105A100000BF63480078022813D16148D0ED010A25
:105A2000B0EE600A05215C48008801F035FD5C4855
:105A3000D0ED020AB0EE600A06215748008801F056
:105A40002BFD564890F82700012804D0534890F8C1
:105A5000270002280BD100220A214F48008801F0BC
:105A600088FB00220B214C48008801F082FB4CE2AD
:105A70004B4890F82A25092147480088FBF79EFEED
:105A800043E2474890F82A25092143480088FBF75C
:105A900095FE434890F8500008B9012000E000202E
:105AA00002460121042001F038FB3D4890F85000E7
:105AB000012800D100E0002002460221042001F06C
:105AC0002CFB374890F8510008B9012000E0002075
:105AD00002460321042001F020FB314890F85100D8
