:020000040804EE
:1000000078D001206902040849420408593D0408D7
:10001000454204084D1A0408399204080000000003
:10002000000000000000000000000000B101040812
:100030002523040800000000050204081B760408BC
:10004000830204088302040883020408830204086C
:100050008302040883020408C1350408D13504086A
:10006000D9350408E1350408E93504088302040899
:10007000111F040883020408711F04088302040886
:10008000830204088302040883020408830204082C
:10009000830204088302040883020408F13504087B
:1000A000830204088302040883020408830204080C
:1000B0008302040899760408E5760408830204089C
:1000C00083020408830204088302040883020408EC
:1000D00083020408697C040883020408D57C0408B0
:1000E000C935040883020408830204088302040853
:1000F00083020408830204088302040883020408BC
:1001000083020408830204088302040883020408AB
:10011000830204088302040883020408830204089B
:10012000A91F040883020408CD1F040883020408E1
:1001300083020408C92D040883020408830204080A
:10014000830204088302040883020408830204086B
:10015000830204088302040883020408830204085B
:10016000830204088302040883020408830204084B
:10017000830204088302040883020408830204083B
:100180008302040883020408DFF810D000F0D0FED8
:1001900000480047BDDE0408AFF3008078D001209E
:1001A00030BF72B6704762B6704780F308887047F8
:1001B0002A4B19680868B0E8F04F80F30988BFF34C
:1001C0006F8F4FF0000080F311887047000000002F
:1001D00006480068006880F3088862B661B6BFF31D
:1001E0004F8FBFF36F8F00DF00BF00BF08ED00E04F
:1001F000DFF80C00016841F470010160704700BF36
:1002000088ED00E0EFF30980BFF36F8F134B1A689E
:100210001EF0100F08BF20ED108A20E9F04F10608B
:1002200008B44FF0500080F31188BFF34F8FBFF335
:100230006F8F18F0ADFD4FF0000080F3118808BCFF
:1002400019680868B0E8F04F1EF0100F08BFB0EC56
:10025000108A80F30988BFF36F8F7047AC070020C6
:10026000EFF30580704700000648804706480047C6
:10027000FEE7FEE7FEE7FEE7FEE7FEE7FEE7FEE756
:10028000FEE7FEE7317604088901040840EA01032D
:100290009B0703D009E008C9121F08C0042AFAD23C
:1002A00003E011F8013B00F8013B521EF9D2704700
:1002B000D2B201E000F8012B491EFBD270470022A8
:1002C000F6E710B513460A4604461946FFF7F0FF55
:1002D000204610BD421E12F8013F002BFBD111F841
:1002E000013B02F8013B002BF9D1704730B50546C0
:1002F0002A460B4612F8010B13F8014B08B1A04235
:10030000F8D01CB1002802D06D1CF1E7284630BDA2
:10031000421C10F8011B0029FBD1801A704710B550
:10032000002200E0521C835C8C5CA34201D1002BB4
:10033000F8D1D8B2E1B2401A10BD30B50446002061
:10034000034600E05B1C934203D2E05CCD5C401BA3
:10035000F8D030BD034611F8012B00F8012B002A1C
:10036000F9D118467047000070B50F4D00B92868E4
:10037000002412E00A4602E09E4203D0521C137889
:10038000002BF9D1DAB2224305D02BB124B10021E0
:1003900000F8011B04E00446401C0678002EE9D159
:1003A0002860204670BD0000E00800200FB400B5B2
:1003B0008DB010A909900B9000914FF0FF300A907A
:1003C00000200C9005480690054807906A4609A849
:1003D0000F9900F057FC0DB05DF814FBA10C040858
:1003E000BF0C04082DE9FF5F1D464FF0FF3BD5E928
:1003F000014691465F464FF00008A9697F1C0198AD
:100400008847296A824688470028F6D1BAF1FF3F1B
:100410000CD024F4C064002E19DD600614D5BAF1A6
:100420002B0F09D0BAF12D0F0ED103E0584604B0BE
:10043000BDE8F09F44F48064A9697F1C0198884757
:10044000761E8246002E02DDBAF1300F03D0B9F1DC
:10045000000F26D032E0A969761E44F400747F1C98
:10046000019888478246002E05DDBAF1780F06D044
:10047000BAF1580F03D0B9F1000F10D01EE0B9F156
:10048000000F02D0B9F1100F18D1A969761E24F41B
:1004900000747F1C019888478246102002E00820E3
:1004A00000E00A20814609E008FB0908A969761ED8
:1004B00044F400747F1C019888478246002E05DDB5
:1004C0004946504600F0CAFB0028EDDAE969019878
:1004D0008847A00502D46FF00100A8E7E00725D106
:1004E000600613D5600502D5C8F1000000E0404663
:1004F00029680A1D2A600968220501D5087015E0DF
:10050000220701D5088011E008600FE02868011D6E
:1005100029600068210502D580F8008006E02107E7
:1005200002D5A0F8008001E0C0F8008038467EE7E0
:100530002DE9FF4F087883B09946FF2805D0491C64
:100540002D2804D00024002008E000200BE0012426
:10055000F9E700EB800003EB4000491C0B78FF2B10
:10056000F7D104B1404200230293147819461D4686
:100570002D2C01D02B2C04D1521C2D2C13D0002457
:100580000294AA461478FF2C0FD00A25A3FB057805
:1005900001FB05814FF0000C03FB0C11521CE31909
:1005A0004AEB0101EEE70124EAE7814453EA010046
:1005B00002D019F5C87F06DA03980021C0E90011BE
:1005C00007B0BDE8F08F0025AE4E2F46DFF8B882A9
:1005D000184600F088FCCDE90001B9F1000002DA0C
:1005E000C9F1000400E004460023A74A1AEB030BFC
:1005F00042EB045A12E0E00707D02A463346384659
:10060000414600F0ECF9074688462A463346104634
:10061000194600F0E4F905460E466410002CEAD1B4
:10062000DDE90001B9F1000F5A46534606DA00F041
:10063000EBFB3A46434600F0E7FB05E000F0CFF95C
:100640003A46434600F0CBF9029A0AB181F00041E4
:10065000039AC2E90001B3E72DE9FF4F1F468DB0B1
:10066000D7E901464FF0FF382E2045464FF00009EC
:100670000B90B9696D1C0E988847396A8246884785
:100680000028F6D1BAF1FF3F0AD024F4D064002E3E
:1006900011DDBAF12B0F08D0BAF12D0F0BD102E00A
:1006A000404611B08DE744F48064B9696D1C0E9822
:1006B00088478246761E6946600501D52D2000E0F8
:1006C0002B208DF8000001F1010B0DF1200809E04D
:1006D000B9696D1C0E98884782460F9844F40074DF
:1006E000761E0560002E02DDBAF1300FF0D00B99B6
:1006F0008A453ED144F0800406E00F99681CA9F1B8
:10070000010944F400740860B9696D1C761E0E98E6
:10071000884782463028F0D02BE00B998A4505D1D6
:10072000200603D444F08004761E18E0504609F0F9
:100730005FF908B30DF11301761E44F400748B4584
:1007400008D2AAF130000BF8010B200607D5A9F159
:10075000010003E0200602D409F101008146A00552
:1007600002D50F99681C0860B9696D1C0E988847FE
:100770008246002ED1DC53E0002E51DDBAF1650F28
:1007800002D0BAF1450F4BD1A00549D5B9696D1C0E
:1007900024F44074761E0E9888478246002E0CDDA5
:1007A0002B2804D0BAF12D0F07D144F48074B96915
:1007B0006D1C0E9888478246761EE00501D52D21D6
:1007C00000E02B2108F8011BCDF82C8021E00DF171
:1007D0002901761E44F4007488450CD2AAF1300039
:1007E00010F0FF0088F8000002D10B99884509D964
:1007F00008F1010806E0E00501D5244801E042F2D5
:100800000F708146B9696D1C0E98884782460F9813
:100810000560002E04DD504609F0EAF80028D6D124
:10082000F9690E988847FF208BF8000088F80000CF
:100830000020069007904B466A4608A906A8FFF7D5
:1008400077FEA00502D46FF001002AE714F0240F10
:100850000AD0E00714D1DDE906123868031D3B60B9
:100860000068C0E900120BE0DDE9060100F062F962
:100870000146E00704D13868021D3A600068016053
:1008800028460EE7000014400000F03FF1D8FFFFBB
:100890002DE9FE4F804681EA0300C00F0C46009010
:1008A00021F0004123F00045B8EB0200A94105D238
:1008B0004046214690461C460B46024623F0004027
:1008C000104347D0270DC7F30A00C3F30A51029023
:1008D000401A019040286BDAC3F3130040F4801BE8
:1008E0000098924620B10023D2EB030A63EB0B0B76
:1008F00001985946C0F14002504600F07EF9064684
:100900000D4650465946019A00F096F910EB080042
:100910006141002487EA115284EAE7731A4340D008
:10092000009A62B3019A012A4FEA075215DC001BB4
:1009300061EB02014FF0004202EA0752CDE90042AA
:10094000001C41F5801132462B4600F00FFA03B02F
:10095000BDE8F08F40462146F9E7001B61EB02013C
:10096000001C41F5801300185B412018A2F5001708
:1009700047EB030140EAD570B6196D4111E06D08EF
:100980004FEA360645EAC0754FEA0752001B61EB95
:100990000201001C41F5801149084FEA300000199E
:1009A000514132462B4603B0BDE8F04F00F0CFB9BD
:1009B0000098012240000023D0EB020263EBE073B9
:1009C000009821464FEAE074B8EB000061EB0401A7
:1009D000E9E783F000435BE781F0004158E72DE948
:1009E000FE4F81EA030404F0004421F0004100942A
:1009F0004FF0000B23F0004350EA01045ED052EAAE
:100A000003045BD0C3F30A54C1F30A552C44A4F287
:100A1000F3340194A0FB0254C1F3130141F480119B
:100A2000C3F3130343F4801301FB024400FB034EA2
:100A3000840A970A44EA815447EA8357A4FB07686B
:100A400002958D0A05FB07854FEA932C04FB0C5495
:100A50002705029D4FEA065847EA1637B5EB080509
:100A60006EEB070C870E920E47EA811742EA83125B
:100A7000A7FB0201B6EB0B0164EB00042B0D43EA6C
:100A80000C335E1844EB1C50DA465146E7FB02017A
:100A9000C5F313044FEA0B3343EA14534FEA04320D
:100AA000019C43EA0603A4F10C040294009CCDE9E6
:100AB00000B400F05BF903B0BDE8F08F0020014600
:100AC000F9E730B4044696230800214604D0B62343
:100AD00030BC002200F00DB920460021F8E7C1F338
:100AE0000A52C1F3130140F2FF3341F480119A42DC
:100AF00002DA00200146704740F233439A42A2F2E4
:100B0000334202DC524200F087B800F076B800F0C1
:100B1000004230F000400AD0C10D01F56071C0F311
:100B2000160042EA0151C2084007114370470020F5
:100B30000146704701F0004330B421F0004150EA13
:100B4000010206D00A0DA2F56072C1F31301002A5A
:100B500002DC30BC00207047440F44EAC104C100ED
:100B6000E01830BC00EBC25000F0BAB830B50B460C
:100B7000014600202022012409E021FA02F59D42CD
:100B800005D303FA02F5491B04FA02F52844151EA1
:100B9000A2F10102F1DC30BD2DE9F05F0546002035
:100BA00092469B4688460646814640241BE02846DE
:100BB00041464746224600F02FF853465A46C01A8F
:100BC000914110D311461846224600F016F82D1A0E
:100BD00067EB01084F4622460120002100F00DF886
:100BE00017EB00094E41201EA4F10104DFDC48464A
:100BF00031462A464346BDE8F09F202A04DB203ACE
:100C000000FA02F1002070479140C2F1200320FA5F
:100C100003F3194390407047202A04DB203A21FA5D
:100C200002F00021704721FA02F3D040C2F1200205
:100C30009140084319467047202A06DBCB17203A1B
:100C400041FA02F043EAE07306E041FA02F3D040D1
:100C5000C2F1200291400843194670473A2800D259
:100C6000303820F02002412A01D3A2F13700884217
:100C700001D34FF0FF3070470268114413780160D0
:100C800018467047D160044951610449116200213E
:100C90001161114600F064B9790C0408550F04087D
:100CA000426842B1016811F8013B23B1521EC0E90C
:100CB0000012184670470121C160881E70474268C3
:100CC0005AB1C368016843B983688B4205D0491E95
:100CD000521CC0E90012002070474FF0FF307047EF
:100CE0000029A8BF7047401C490008BF20F0010040
:100CF000704710B4B0FA80FC00FA0CF050EA01041E
:100D000004BF10BC704749B1CCF1200421FA04F4AF
:100D100011FA0CF118BF012121430843A3EB0C0188
:100D2000CB1D4FEA00614FEA102042BF002010BCEB
:100D3000704700EBC35010440029A4BF10BC70479B
:100D4000401C490008BF20F0010010BC704710B5DE
:100D5000141E73F1000408DA401C41F100019218DE
:100D60005B411A4301D120F0010010BD2DE9F04D87
:100D700092469B4611B1B1FA81F202E0B0FA80F2DC
:100D800020329046FFF739FF04460F4640EA0A003A
:100D900041EA0B0153465A46084313D0114653EA21
:100DA000010019D0C8F140025046FFF735FF054653
:100DB0000E46504659464246FFF71FFF084305D0EE
:100DC000012004E020463946BDE8F08D00200543AF
:100DD00046EAE0762C4337430A986305E40AA0EB21
:100DE00008000022FD0A44EA47540A3002D50020D8
:100DF0000146E9E7010510196941DDE908450019D7
:100E00006941BDE8F04DA2E72DE9F04D81EA030408
:100E100004F0004B21F0004514464FF0000A23F087
:100E2000004150EA050220D054EA01021DD0C5F36A
:100E30000A570246C5F31303C1F31300C1F30A5660
:100E400040F4801543F48013A7EB0608101BD64628
:100E500008F2FD3873EB050002D308F1010801E048
:100E600092185B41B8F1000F03DA00200146BDE89B
:100E7000F08D00204FF48011064684460EE0171BCB
:100E800073EB050705D3121B63EB050306434CEA1E
:100E9000010C49084FEA300092185B4150EA010703
:100EA000EDD152EA030012D082EA040083EA050180
:100EB000084305D0101BAB4106D20122002306E0F7
:100EC00000224FF0004302E06FF0010253101AEBD2
:100ED00006004CEB085110EB0A0041EB0B01BDE89A
:100EE000F04DFFF734BF0EB540F2334202920022BC
:100EF000CDE900221346FFF739FF03B000BD000023
:100F000030B5041E71F1000404DB4FF00044404290
:100F100064EB0101141E73F1000405DB1C464FF065
:100F20000043524263EB0403994208BF904230BD34
:100F3000064C074D06E0E06840F0010394E8070026
:100F400098471034AC42F6D3FFF722F9C8A405083D
:100F5000E8A40508C0B24FF4F05100F099B90000C0
:100F60002DE9F34F8BB04FF0000801F10C000C4657
:100F70004FF0010B46460DF1080A0190626901210C
:100F800001989047051E2DD0252D2CD0216A884729
:100F9000C0B16269012101989047216A8847002801
:100FA000F7D1411E62690198904700E0761CA16963
:100FB0000B988847216A88470028F7D1E1690B9888
:100FC0008847DBE7A1690B9888470746A84201D10B
:100FD000761CD3E7E1690B9888477F1C02D1B8F1F2
:100FE000000F6FD047E1002762693D4639460198FE
:100FF00090472A2804D16269012101989047012570
:10100000DFF888926269012101989047A0F13001D0
:101010000A290AD24F45E5DC07EB870100EB4107BF
:10102000303FDFD445F01005ECE7E90601D46FF05E
:1010300000476C280AD04C2814D0682815D06A289C
:101040000DD074281CD07A281AD01DE062690121C5
:10105000019890476C2802D045F0040514E045F053
:1010600002050DE045F020050AE0626901210198C2
:101070009047682802D045F0080505E045F4006572
:101080006269012101989047C4E9015765283DD064
:1010900019DC58287AD00CDC452837D004DC252808
:1010A00026D0412831D131E046282FD047282CD1F5
:1010B0002CE05B2877D0612828D063287CD0642876
:1010C00023D15AE0D1E06F2848D008DC66281DD033
:1010D00067281BD0692821D06E2816D127E07028F8
:1010E00045D0732868D0752847D078280DD14DE0B9
:1010F000A1690B988847054625283FF469AFE16947
:101100000B9888476D1C3FF46AAFB4E023466A46EB
:101110006FF001000B99FFF79FFA9FE045F0400048
:101120006060A80723464FF0000236D43EE0E8078F
:101130007FF447AF2068011D21600068290501D5B3
:1011400006701BE7290701D5068017E7A90703D515
:10115000F117C0E9006111E706600FE745F04000B4
:101160006060A80723464FF0080216D41EE040F640
:101170000E0125EA0100606016E045F04000606065
:10118000A80723464FF00A0207D40FE045F04000BD
:101190006060A80708D5234610226FF001000B9964
:1011A000AFF300805AE007E0234610226FF0010001
:1011B0000B99FFF717F951E04FF000094F464B46E6
:1011C000632802D05B2807D041E02079C00601D413
:1011D0000120A06001273AE062690121019890474F
:1011E0005E2805D14FF00109626949460198904790
:1011F000216939B900210A46534643F82120491C88
:101200000829FADBB0B3216969B9C11700EBD162D3
:1012100053110AEB830122F01F02821A01200B688E
:10122000904003430B6062690121019890475D285B
:10123000E8D1B9F1000F09D00020514651F8202023
:10124000D24341F82020401C0828F7DB02AB22469D
:1012500000976FF001000B99AFF3008000280CDAC3
:10126000401C08D1BBF1000F05D04FF0FF300DB08E
:10127000BDE8F08FFFE74046F9E7E90701D108F143
:10128000010806444FF0000B78E60000CCCCCC0CF3
:101290007F2801D9002208E0064A02EB5002C0076D
:1012A000127800D1120902F00F020120904008408C
:1012B00070470000E8A2050870B58C1810F8015BB3
:1012C00015F0070301D110F8013B2A1106D110F8DF
:1012D000012B03E010F8016B01F8016B5B1EF9D1E3
:1012E0002B0705D40023521E0DD401F8013BFAE769
:1012F00010F8013BCB1A921C03E013F8015B01F8D4
:10130000015B521EF9D5A142D8D3002070BD21B196
:10131000826842F00102826003E0826822F00102EA
:10132000826070470021084A1168084A1140D0E9DC
:1013300000231A4383681A43C3681A431143044ABB
:10134000C2F804137047000004230140E030FCFFA2
:101350000020014000B59BB00121880505F028FA66
:101360000121042005F024FA0121080205F060FAA9
:101370000420199003208DF8680000208DF86B0080
:1013800019A9324802F0DCFB00200090304801909F
:1013900030480290002003904FF4FA60049000203F
:1013A00005904FF480600690400007908000089000
:1013B0004011099040020A9000200B9001200C90EF
:1013C00000200D900E906946234800F07DFF01211A
:1013D000214800F041FE002015904FF470601890F5
:1013E000002017904FF44030169015A8FFF79AFF91
:1013F00000200F9001208DF840008DF84100002062
:101400001190139001208DF850000FA910484C380E
:1014100000F0C0F8072301220C210D484C3800F0E1
:10142000E3F801210A484C3800F09EF801210848F1
:101430004C3800F0A4F8012105484C38FFF767FF4D
:1014400003484C3800F02CF91BB000BD00080240E6
:101450004C200140542700201064024000B59BB08E
:101460000121880505F0A4F90121042005F0A0F967
:101470000121480205F0DCF90820199003208DF8BD
:10148000680000208DF86B0019A9334802F058FB62
:101490004FF00070009031480190314802900020D8
:1014A00003904FF4FA600490002005904FF48060A0
:1014B000069040000790800008904011099040027B
:1014C0000A9000200B9001200C9000200D900E90AF
:1014D0006946244800F0F8FE0121224800F0BCFDD6
:1014E000002015904FF470601890002017904FF472
:1014F0004030169015A8FFF715FF00200F9001202F
:101500008DF840008DF841000020119013900120CB
:101510008DF850000FA911484C3800F03BF8072314
:1015200001220D210D484C3800F05EF801210B48D6
:101530004C3800F019F8012108484C3800F01FF829
:10154000012106484C38FFF7E2FE04484C3800F011
:10155000A7F81BB000BD0000000802404C2101406C
:10156000F43600204064024021B1826842F4807267
:10157000826003E0826822F480728260704721B149
:10158000826842F40072826003E0826822F4007292
:101590008260704730B50246002000235068104C2E
:1015A00020400D790C6844EA05242043506090687F
:1015B0000C4C2040D1E903542C438D682C434D79C9
:1015C00044EA450420439060D06A20F470000C7D0A
:1015D000641EE4B2234340EA0350D06230BD0000F1
:1015E000FFFEFFFCFDF7FFC0F0B504460D460020EE
:1015F0000021092D11DDE068A5F10A0606EB46077A
:10160000072606FA07F18843A5F10A0606EB460607
:1016100003FA06F10843E0600CE0206905EB45079A
:10162000072606FA07F1884305EB450603FA06F19B
:1016300008432061072A0FDA606B561E06EB860707
:101640001F2606FA07F18843561E06EB860605FAA2
:1016500006F10843606322E00D2A0FDA206BD61FE3
:1016600006EB86071F2606FA07F18843D61F06EB0E
:10167000860605FA06F10843206310E0E06AA2F14D
:101680000D0606EB86071F2606FA07F18843A2F12E
:101690000D0606EB860605FA06F10843E062F0BD8A
:1016A000816841F080418160704710B5FF2000F0F3
:1016B00019F80446552C01D1002010BD5521FF20FA
:1016C00000F03CF8FF2000F00DF80446552C01D145
:1016D0000020F2E70120F0E710B501F023F9FFF751
:1016E000E4FF10BD70B50446002601F0F5F925466B
:1016F000E11704EB11610912A02202EB410188B24B
:1017000001F0B0F901F02EFAE11704EB11610912B2
:10171000A4EB012188B201F0A5F901F023FA01F050
:10172000DBF9A12001F09EF901F01CFA002001F084
:101730003BF9C6B201F0FAF9304670BD70B5044607
:101740000E4601F0C9F92546E11704EB11610912B3
:10175000A02202EB410188B201F084F901F002FA03
:10176000E11704EB11610912A4EB012188B201F029
:1017700079F901F0F7F9304601F074F901F0F2F966
:1017800001F0D4F90A2008F045FD70BD70B504469B
:101790000D461646EE2002F06BFAB12002F068FA10
:1017A000232002F065FA200A02F062FAE0B202F0A9
:1017B0005FFA280A02F05CFAE8B202F059FAF0B2D5
:1017C00002F056FAFF2002F053FAFC2002F050FA21
:1017D000FF2002F04DFAFF2002F04AFA052008F03F
:1017E00019FD70BD10B517F0F4FE04490860012022
:1017F00018F037F80249086010BD00009C00002076
:10180000A80000201CB517F037F800201E21034661
:101810004FF48072CDE9001033A1364818F0A4FAD5
:1018200000201D2103464FF40072CDE9001032A1C3
:10183000344818F099FA00201C2103464FF48072B6
:10184000CDE9001030A1334818F08EFA00201B219A
:1018500003468022CDE900102FA1334818F084FA06
:101860000020192103464FF48072CDE900102FA10A
:10187000364818F079FA0020172103468022CDE976
:10188000001033A1374818F06FFA374890F8320546
:10189000012818D0022822D10020162103464FF437
:1018A0008072CDE9001031A1374818F05DFA0020B0
:1018B000152103464FF48072CDE9001033A1394859
:1018C00018F052FA0CE00020162103464FF4807203
:1018D000CDE9001034A1384818F046FA00E000BF06
:1018E00000BF16F0E3FF1CBD764750494F5F5461BF
:1018F000736B0000458605087655495F5461736B2C
:1019000000000000F18D050876494E465F54617372
:101910006B000000F5870508765374617475735F7A
:101920005461736B00000000118A050876436F6DE7
:101930006D756E69636174696F6E5265736F6C76F5
:10194000696E675F5461736B00000000F16D0508FC
:101950007644697370656E73696E675F5461736B0B
:101960000000000055840508AC0000207657696629
:10197000695F426C7565746F6F74685F5265636907
:1019800076655F5461736B00F58E0508765769665E
:10199000695F426C7565746F6F74685F5461736BD7
:1019A00000000000099005087645746865726E6550
:1019B000745F5461736B0000658405081CB50121D8
:1019C000202004F0F5FE4FF48070009001208DF887
:1019D000040000208DF8060003208DF80500022089
:1019E0008DF807006946044802F0AAF84FF48071A8
:1019F000014802F019F91CBD00140240704710B5EF
:101A00004FF4407002F05EFCA82008F0E1FB06F005
:101A1000F1F806F01FF804F004FE02F041F9FFF7B8
:101A2000CDFF02F035FAFFF757FE07F02DFC02F06C
:101A300069FA02F01FF800200CF03CFF02200CF0C5
:101A400039FF00F093F900F08BF810BD00BFFEE7FE
:101A500008B50A88825CFF2A11D10A88521C825C70
:101A6000FF2A0CD10A88921C825CFF2A07D10A88BF
:101A7000D21C825CFF2A02D19FED110A08BD002210
:101A800000920A88D21C825C00920A88921C825CB6
:101A9000009B42EA032200920A88521C825C009B4F
:101AA00042EA032200920A88825C009B42EA0322F7
:101AB00000929DED000A0A88121D0A8000BFDDE732
:101AC0000000000030B50446002008E015880544F9
:101AD000655D0D540D5C05B903E0451CA8B2984244
:101AE000F4DB00BF108818441080184630BD10B5D4
:101AF00002460888145C401C105C04EB002003B212
:101B00000888801C088098B210BD0000002005499C
:101B1000C97A11B90349C97D09B1012100E0002149
:101B2000084670476C06002010B50446EE2002F00F
:101B30009FF8052002F09CF8E0B202F099F8FF202F
:101B400002F096F8FC2002F093F8FF2002F090F8E3
:101B5000FF2002F08DF8052008F05CFB10BD0000AE
:101B600010B508F0F1FA1348A0F29921C1F89C06CB
:101B700000F50071A0F29920C0F8A0160E4890F868
:101B80003205022809D101F22B21A1F2C460C0F86C
:101B9000A416891CC0F8A81609E006491939A1F550
:101BA0002070C0F8A416091DC0F8A81600BF00BF19
:101BB00010BD0000A5110020AC00002039B1084A7A
:101BC0001268012383401A43054B1A6006E0044A59
:101BD0001268012383409A43014B1A60704700004A
:101BE0000074004000B587B00121084604F0E0FD14
:101BF0000121480704F0FCFD1020059003208DF81A
:101C0000180002208DF81B0005A90A4801F098FF72
:101C10000020019002900390049001A900F00CF8BC
:101C200001210020FFF7CAFF0021084600F01EF83E
:101C300007B000BD0000024030B5002200230A4C6E
:101C4000226840F6FE748440A243D1E900452C434B
:101C50008D682C43CD6844EA050303FA00F422435F
:101C6000014C226030BD00000074004008B5002225
:101C70000092054A009200F10802009B1A4400926B
:101C8000009A116008BD00000074004008B50022F1
:101C90000092054A009200F11402009B1A4400923F
:101CA000009A116008BD00000074004000B587B0C4
:101CB0000121084604F07CFD0121480704F098FD4D
:101CC0002020059003208DF8180002208DF81B00BD
:101CD00005A90B4801F034FF002001900290039009
:101CE000049001A91020FFF7A7FF01211020FFF7A2
:101CF00065FF00210846FFF7C9FF07B000BD0000DF
:101D00000000024010B500241748006820F440206D
:101D10001549086008460068086004E0601CC4B209
:101D2000012008F097FA4FF400710F4801F073FF9B
:101D300008B1642CF2DB642C01DB012010BD00240F
:101D400004E0601CC4B2012008F084FA4FF4007172
:101D5000054801F060FF08B9642CF2DB642C01DB5C
:101D60000120EBE70020E9E7001802401CB5012143
:101D7000402004F01DFD4FF40070009001208DF80C
:101D8000040000208DF8060002208DF805000120D7
:101D90008DF807006946044801F0D2FE00F09AF879
:101DA000FFF7B0FF1CBD00000018024010B5002472
:101DB00004E0601CC4B2012008F04CFA4FF400713A
:101DC000104801F028FF08B1642CF2DB002404E085
:101DD000601CC4B2012008F03DFA4FF400710948BC
:101DE00001F019FF08B9642CF2DB282008F032FA60
:101DF0004FF40071034801F00EFF08B1012010BD3F
:101E00000020FCE70018024070B50024002506E021
:101E10006006040EFFF7CAFF0443681CC5B2082D14
:101E2000F6DB204670BD00001CB500F053F8FFF74C
:101E300069FFB0BB002405E0FFF7E6FF0DF80400E2
:101E4000601CC4B2052CF7DB9DF800009DF8011062
:101E500008449DF8021008449DF8031008449DF8BA
:101E6000041088422BD19DF8020000EE100AB8EE53
:101E7000400ADFED140A20EE200A134880ED010A23
:101E80009DF8000000EE100AB8EE400ADFED0D0AE2
:101E900020EE200A0C4880ED020A00200B49088041
:101EA0000DE0FFE70948008809490988884204DAFB
:101EB00006480088401C0549088001201CBD002000
:101EC000FCE70000C520803F0C0F00205E060020CC
:101ED0006006002010B50D48006820F440200B4932
:101EE00008600846006840F48020086049150748EB
:101EF00001F09AFE142008F08DF94FF400710348A8
:101F000001F094FE1E2008F0A5F910BD0018024053
:101F100010B51249124800F065F9F0B1104800F010
:101F20005DF9C0F500700F49888001208873002199
:101F30000B4800F091F80C49094800F059F84FF4AB
:101F40000071074800F0ECF90121054800F084F821
:101F500001210648006817F049FB10BD0008001079
:101F60002860024014470020400F00109C00002011
:101F700010B50120094908704FF0C051084800F021
:101F800031F950B14FF0C051054800F031F801224D
:101F900040F22661034805F0C4FF10BD540700203D
:101FA000586002400048004010B50649064800F05D
:101FB0003BF9012805D10AF0FBF90249024800F07B
:101FC00031F810BD208000101064024010B50649A1
:101FD000064800F029F9012805D10AF05DFA024906
:101FE000024800F01FF810BD00802010406402403D
:101FF0000246094B9A4201D2084801E006481038CF
:1020000001F000531BB1064B0B40C36002E0044BD0
:102010000B40836070470000106402400060024083
:102020007D0F7D0F0246094B9A4201D2084801E01C
:102030000648103801F000531BB1064B0B40C3603B
:1020400002E0044B0B4083607047000010640240C4
:10205000006002407D0F7D0F21B1026842F0010255
:10206000026003E0026822F0010202607047000093
:10207000016821F00101016000210160416081607F
:10208000C1600161212141614A49884204D13D2159
:10209000484A103A91608CE046491831884205D18F
:1020A0004FF47461434A103A916082E04149303103
:1020B000884205D14FF474113E4A103A916078E09D
:1020C0003C494831884205D14FF07461394A103A91
:1020D00091606EE037496031884204D13649354A13
:1020E000103AD16065E033497831884204D13349F0
:1020F000304A103AD1605CE02E499031884204D1D8
:102100002F492C4A103AD16053E02A49A83188421D
:1021100005D14FF03D51274A103AD16049E0294995
:10212000884204D13D21274A083A116041E02549FF
:102130001831884205D14FF47461224A083A11607F
:1021400037E020493031884205D14FF474111D4ADF
:10215000083A11602DE01B494831884205D14FF003
:102160007461184A083A116023E0164960318842C8
:1021700004D11149134A121F11601AE01149783134
:10218000884204D10D490F4A121F116011E00D4918
:102190009031884204D10A490A4A121F116008E0AE
:1021A0000849A831884204D14FF03D51054A121F19
:1021B00011607047106002403D000020400F002079
:1021C00000003D2010640240014600200A6802F031
:1021D00001020AB1012000E0002070470146486872
:1021E00080B2704730B503460A46002000240B4DEC
:1021F000AB4201D20A4901E00849103902F000550A
:102200000DB14C6800E00C68064D2C4004EA020554
:102210000DB1012000E0002030BD0000106402403C
:10222000006002407D0F7D0F70B502460020002443
:102230000025124EB24201D2114B01E00F4B103B70
:10224000104E0E4036B11E2606EAD124166806EA64
:10225000040502E0566906F0800501F000560EB153
:102260005C6800E01C68084E344004EA010616B1C0
:102270000DB1012000E0002070BD0000106402409C
:10228000006002403C0F3C0F7D0F7D0F10B501F048
:1022900080034BB122B1436943F08003436103E003
:1022A000436923F08003436180290BD02AB103687E
:1022B00001F01E042343036004E0036801F01E04E0
:1022C000A343036010BD000010B500220268134B49
:1022D0001A40CC680B6823434C6923438C69234321
:1022E000CC6923430C6A23434C6A23438C6A2343FF
:1022F0004C6B23438C6B23431A430260426922F0E8
:102300000702D1E90B3423431A4342610B6943604E
:102310004B6883608B68C36010BD00003F801CF079
:1023200041607047704700000149C8727047000063
:10233000C006002010B52DED048BFD4890F8480034
:10234000B8B9FB4890F82200012804D0F94890F869
:102350003B00012803D10120FFF7E6FF02E0002047
:10236000FFF7E2FF0020F24981F8240081F82700FE
:10237000A2E2F148007830B1012873D0022872D06F
:10238000032871D1EEE1EC484078002861D1E8489B
:1023900090F8270010B1012859D13AE0E7480078B9
:1023A00018B9FFF7B3FB012804D0E14890F82400E6
:1023B00001282AD1E048007D00EB4001DE4868306A
:1023C00000EBC10090ED000ADD4880ED000ADA481C
:1023D000007D00EB4002D848683000EBC20090ED71
:1023E000000A10EE101A0846FEF791FB9FEDD50B80
:1023F00053EC102BFEF7F3FAFEF771FBCC4AC2E95F
:102400000A010120114681F827000020FFF78CFF08
:102410001EE00120FFF788FFC548D0E90A211046D9
:10242000FEF74FFB00EE100AF2EE040A20EE200A3F
:10243000DFEDC60A80EE201ABF48007D00EB4001A8
:10244000BD48683000EBC10080ED001A00E000BF1D
:10245000D4E0B74890F8270038B1012875D0022899
:1024600071D18BE0ACE1CAE025E2B348007D00EB1E
:102470004001B148683000EBC10090ED000AB0485F
:1024800080ED000AAC48007D00EB4001AA486830AE
:1024900000EBC10090ED010AAD4880ED000AA448B0
:1024A00090F82400012803D0AA480078012847D1D9
:1024B000A148007D00EB40029F48683000EBC2005D
:1024C00090ED000A10EE101A0846FEF720FB9FED73
:1024D0009D0B53EC102BFEF782FAFEF700FB944A9B
:1024E000C2E90A011046D0E90A211046FEF7E9FACE
:1024F000994908609048007D00EB40028E486830A2
:1025000000EBC20090ED010A10EE101A0846FEF72B
:10251000FEFA9FED8C0B53EC102BFEF760FAFEF7E2
:10252000DEFA834AC2E90E011046D0E90E211046B8
:10253000FEF7C7FA8949086001207D4981F8270024
:102540000020FFF7F1FE32E0FFE70120FFF7ECFE8D
:10255000814890ED000AF2EE040A20EE200ADFED39
:102560007B0A80EE201A7448007D00EB400172481F
:10257000683000EBC10080ED001A18E00020FFF782
:10258000D3FE764890ED000AF2EE040A20EE200A0F
:10259000DFED6E0A80EE201A6748007D00EB4001F7
:1025A0006548683000EBC10080ED011A00BF00BF34
:1025B0005F4890F8240000BB66480078E8B9002026
:1025C0005B4981F827005E4890ED000A5A48007D7B
:1025D00000EB40015848683000EBC10080ED000A74
:1025E0005B4890ED000A5448007D00EB40015248E2
:1025F000683000EBC10080ED010A5CE15BE14C4812
:1026000090F8270020B1012855D0022877D164E046
:10261000494890ED010A4A4880ED000A464890ED8D
:10262000020A4B4880ED000A414890F82400012836
:1026300003D04B480078012839D13F4890ED010A7A
:1026400010EE101A0846FEF762FA9FED3E0B53ECAF
:10265000102BFEF7C4F9FEF742FA354AC2E90A0127
:102660001146D1E90A211046FEF72BFA3A490860D3
:10267000314890ED020A10EE101A0846FEF747FAAC
:102680009FED300B53EC102BFEF7A9F9FEF727FA5C
:10269000274AC2E90E011046D0E90E211046FEF786
:1026A00010FA2E4908600120214981F827000020F6
:1026B000FFF73AFE23E00120FFF736FE264890EDB3
:1026C000000AF2EE040A20EE200ADFED200A80EE76
:1026D000201A194880ED011A11E00020FFF724FEAE
:1026E0001E4890ED000AF2EE040A20EE200ADFED0B
:1026F000170A80EE201A104880ED021A00BF00BFB2
:102700000B4890F8240090B91548007878B900205B
:10271000074981F827000A4890ED000A064880ED35
:10272000010A0B4890ED000A034880ED020AC2E05E
:102730000C0F00206C060020AC000020430000209D
:1027400038000020000000000000594000007A44DA
:102750003C0000209A0000204C0000205000002087
:1027600099000020FFF7D2F9012804D05A4890F8C8
:10277000240001281AD10120FFF7D6FD0120564977
:1027800081F827000846D0E90C211046FEF799F998
:1027900000EE100AF2EE040A20EE200A5FED150AA0
:1027A00080EE201A4D4880ED011A08E000204A4AC8
:1027B00010635063114681F82700FFF7B5FD7AE0FA
:1027C000454890F82300012823D1434890F824007D
:1027D000012803D0FFF79AF9012816D10120FFF74D
:1027E000A3FD3D48D0E90C211046FEF76AF900EE42
:1027F000100AF2EE040A20EE200A5FED2C0A80EEA9
:10280000201A364880ED011A54E00020FFF78CFDB5
:1028100050E00021304A11635163104690F82700C0
:1028200010B1012844D12CE02D48007818B9FFF7E9
:102830006DF9012804D0284890F8240001281CD103
:10284000264890ED010A274880ED000A234890EDC4
:10285000010A10EE101A0846FEF759F91FED470B52
:1028600053EC102BFEF7BBF8FEF739F91A4AC2E910
:102870000A010120114681F827000020FFF754FDCE
:1028800017E00120FFF750FD1348D0E90A21104658
:10289000FEF717F900EE100AF2EE040A20EE200A05
:1028A0005FED560A80EE201A0C4880ED011A00E018
:1028B00000BF00BF00BF00BFFFF728F918B90648E6
:1028C00090F8240008B1012000E0002004490870BD
:1028D000BDEC048B10BD00000C0F0020AC000020EC
:1028E000430000203800002010B54FF480710C48E0
:1028F00001F09AF900F0A0F84FF40071084801F0D7
:1029000093F901F02BFA4FF48071054801F08EF92C
:1029100001F024FA4FF48071014801F085F910BDEF
:10292000000402401CB50121022003F041FF4FF4D6
:102930004070009001208DF804008DF806000320FF
:102940008DF8050001208DF807006946064801F062
:10295000F7F84FF40071044801F068F94FF4807102
:10296000014801F063F91CBD0004024010B54FF4AA
:1029700080710C4801F058F900F05EF84FF40071D6
:10298000084801F053F901F0E9F94FF48071054866
:1029900001F04CF901F0E2F94FF48071014801F0C7
:1029A00043F910BD0004024070B50546002400F054
:1029B0002BF800261BE04FF6FF7000EA44044FF4AA
:1029C0008071104801F030F901F0C8F94FF48071BE
:1029D0000C4801F02BF901F0C1F94FF400710948DE
:1029E00001F019F908B144F00104701C86B2082EF8
:1029F000E1DB15B9FFF7BAFF01E0FFF775FF2046ED
:102A000070BD0000000402401CB54FF4007000903F
:102A100000208DF8040001208DF8060003208DF8B9
:102A2000050001208DF807006946024801F088F88A
:102A30001CBD0000000402401CB54FF40070009063
:102A400001208DF804008DF8060003208DF80500A4
:102A500001208DF807006946014801F071F81CBD9E
:102A60000004024070B50546FFF7E6FF00241FE0B2
:102A700005FA04F000F0800028B14FF40071154809
:102A800001F0D4F804E04FF40071124801F0CCF8E2
:102A900001F064F94FF480710E4801F0C7F801F0BD
:102AA0005DF94FF480710B4801F0BEF8601C84B2F0
:102AB000082CDDDB4FF40071064801F0B7F84FF445
:102AC0008071044801F0B2F84FF48071014801F0C0
:102AD000ABF870BD0004024010B5FFF7ADFF4FF436
:102AE0000071114801F0A0F8FFF7A6FF4FF48071C4
:102AF0000D4801F09BF801F031F94FF400710A48DC
:102B000001F094F801F02AF94FF40071064801F041
:102B10008BF801F023F94FF48071034801F084F839
:102B200001F01CF910BD00000004024010B5FFF7D1
:102B300083FF4FF400710A4801F076F801F00EF9B6
:102B40004FF48071064801F071F801F007F94FF475
:102B50000071034801F06AF801F000F910BD0000AF
:102B60000004024010B500244FF40071124801F037
:102B70005DF8FFF749FF01F0F1F84FF480710E485E
:102B800001F054F801F0EAF807E0601CC4B2FA2C36
:102B900003DDFFF7CBFF012010BD4FF400710648A5
:102BA00001F039F80028F0D14FF48071024801F0AB
:102BB0003BF80020F0E700000004024008B53D208B
:102BC0008DF8000008208DF8010000208DF802002B
:102BD00001208DF80300684601F038FB08BD0000B5
:102BE00001494861704700000090024029B1064A3F
:102BF000D2690243044BDA6104E0034AD26982439A
:102C0000014BDA61704700000090024030B1074983
:102C1000896941F00201054A916105E0034989692A
:102C200021F00201014A91617047000000900240CA
:102C300070B50C4613460021124D286000BF18E005
:102C400000EB41124FF00045156044F2F455556019
:102C5000C1EBC11505EB450504EB850595605D1ECF
:102C60008D4204D900EB41152035D56000E0D060DD
:102C7000491C9942E4D3044DE860044D044E35608C
:102C800070BD00007C07002000900240244B002013
:102C90008007002030B10749896941F40051054A95
:102CA000916105E00349896921F40051014A91616C
:102CB000704700000090024030B50C4613460021DA
:102CC0000F4D286000BF15E000EB41124FF4801556
:102CD0001560C1EBC11505EB450504EB8505956055
:102CE0005D1E8D4204D900EB41152035D56000E012
:102CF000D060491C9942E7D3024D286130BD0000E5
:102D0000780700200090024002680A430260704782
:102D100010B50121480603F05BFD00214FF0007063
:102D200003F056FD10BD01B581B000200090019860
:102D3000009002E00098401E009000980028F9D111
:102D40000CBD000008B5002000900848806940F4E0
:102D50008010064988610846806900904FF6FF7030
:102D6000FFF7E1FF01490098886108BD009002402B
:102D700001480068806870477807002001460868AD
:102D8000C0F30D40704700B502460023106800F004
:102D9000004058B9106800F4004038B9106800F4D9
:102DA000807018B11046FFF7E9FF0346184600BDD2
:102DB00000200449096801F0010109B1012000E087
:102DC000002070470090024010B501E00BF03EF883
:102DD00006480068FFF7D7FF0028F7D14020FFF72B
:102DE000FFFE4FF48030FFF7FBFE10BD7C07002094
:102DF0002DE9F04188B004460F464FF00008002549
:102E000000200790B94E029001200190B848056952
:102E100025F01C0503A803F02BFD049EB54886424F
:102E200005D3B548864202D245F008051AE0B248FB
:102E3000864205D3AD48864202D245F00C0511E02A
:102E4000AA48864203D3AD48864200D20AE0AB4886
:102E5000864205D3AA48864202D245F0040501E025
:102E600045F01005A24805614FF4004200213846A4
:102E700000F072FB10B9002001906AE0A148FFF752
:102E800052FF2068002850D000BF0298401C0290DA
:102E90000121384600F034FA00F0040018B99A49CC
:102EA00002988842F1D398490298884202D10020C2
:102EB00001904EE0002002904FF4805200213846ED
:102EC00000F04AFB08B90020019000BF0298401CA6
:102ED00002900121384600F013FA00F0200018B9E2
:102EE000894902988842F1D387490298884202D1E1
:102EF000002001902DE0002002901F21384600F0B4
:102F0000FFF9804608F0100018B14FF4006020620D
:102F100001E00020206208F0040010B10020606190
:102F200016E04FF48040606112E0206AC0F3CF00E9
:102F30006169C1F34F0140EA01020021384600F007
:102F40000BFB08B9002001906FF07F40FFF7EBFE0C
:102F500000BF019820B94FF400602062C00060619A
:102F60006348056869480540D4E901010843E16800
:102F700008432169084361690843A1690843E1697D
:102F80000843216A0843616A0843A16A0843E16A69
:102F90000843216B0843616B0843054354480560AF
:102FA00005684FF6FF70FFF7BEFE51480560D4E993
:102FB0000E010843216C0843616C0843A16C08436F
:102FC000E16C0843216D0843616D0843484948603E
:102FD000084645684FF6FF70FFF7A5FE4448456078
:102FE0004349A06D8860E06DC860084685694FF66A
:102FF00041700540B4F86010606E40EA0140A16E77
:103000000843E16E0843216F0843616F084305439D
:103010003748856185694FF6FF70FFF784FE3448B5
:103020008561D4E91E0108433149C8610846C56974
:103030004FF6FF70FFF777FE2D48C561344885696C
:1030400034480540D4E920010843D4F888100843E7
:10305000D4F88C100843D4F890100843D4F8941096
:103060000843D4F898100843D4F89C100843D4F8C7
:10307000A010084305432648856185694FF6FF7017
:10308000FFF751FE22488561D4E929010843D4F8AD
:10309000AC100843D4F8B0100843D4F8B41040EA98
:1030A0008100D4F8B810084340F4000018490860C3
:1030B000084605684FF6FF70FFF735FE14480560B7
:1030C000006840F0800012490860084605684FF625
:1030D000FF70FFF728FE0E4805600198012802D115
:1030E00008B0BDE8F0810020FAE7000000879303F4
:1030F00000800240002D3101C00E160200E1F505EE
:1031000080D1F008FFFF0F00FFFF04000F8120FFB8
:1031100000900240233FDEF810B50B794C7943EA6A
:103120000422094B03441A64CB781B068C7843EACB
:1031300004434C7843EA04230C7843EA0402024B2C
:1031400003445A6410BD00000080024010B5B0B0C6
:1031500001214FF0606003F02BFBFFF7D9FD00F079
:1031600053F900BFFFF724FE0128FBD001A800F0AF
:1031700065F901200190002008904FF400700B9039
:1031800000200C900F9012901490159016902190A2
:103190004FF000702290001124900020269027907C
:1031A00004202990C0052A9040122B9080012C9079
:1031B00040122D9040002F90002101A8FFF718FE2B
:1031C000C4B2012C03D101210248FFF70FFD2046B4
:1031D00030B010BD4000010038B50446002000901A
:1031E00034B10C48006840F004000A49086005E06A
:1031F0000848006820F00400064908600548006897
:1032000000904FF6FF70FFF78EFD024900980860AE
:1032100038BD00000080024038B504460020009010
:1032200034B10C48006840F008000A49086005E025
:103230000848006820F00800064908600548006852
:1032400000904FF6FF70FFF76EFD0249009808608E
:1032500038BD00000080024010B50A480168002017
:103260000BF0BEFB0848016800200BF0B9FB0748D3
:10327000016800200BF0B4FB0548016800200BF04A
:10328000AFFB10BD44070020480700204C0700207A
:103290005007002010B5A02100200BF0B3FB14490B
:1032A0000860A02100200BF0ADFB1249086041F638
:1032B000C45100200BF0A6FB0F49086041F6C45131
:1032C00000200BF09FFB0D4908600948006840B1E1
:1032D0000848006828B10848006810B1084600682E
:1032E00018B9FFF7B9FF012010BD0020FCE700006E
:1032F00044070020480700204C070020500700200A
:1033000018B502460B4600210020009015480169BF
:1033100001F01C014FF4784000EAC22001434FF451
:10332000F86000EA8310014321F0020141F001013D
:103330000C48016100BF0098401C009009480169D9
:1033400001F0010018B1084C0098A042F3D3064CDC
:103350000098A04201D1002018BD0248406980B207
:10336000FAE7000000800240FFFF04001EB50021C4
:103370000022009201920292214A1268126802F021
:10338000004282B1002200921E4A526902F080027D
:1033900022B180221B4B5A6100229A609DE81C00DA
:1033A00080E81C001EBD164A1268126802F4004232
:1033B000B2B9134A1268126802F4807282B1104ADC
:1033C0001268126802F4007252B10D4A1268126853
:1033D000C2F30D42111F0A4A12689268019200E07E
:1033E00000210091064A12680292054A1268D268CA
:1033F000034B1A609DE81C0080E81C0000BFD1E769
:103400007C070020009002400348006840F0010063
:1034100001490860704700000090024010B501208B
:10342000FFF7FAFE0120FFF7D7FEFFF78BFC012024
:10343000FFF730FC0120FFF7E9FB10BD012101601F
:10344000002141608160C16001614FF480414161B0
:1034500000218161C1614FF400610162002141627C
:103460008162C162016341638163C1634021016480
:103470002021416400218164C16401654165816549
:10348000C16501668021416600218166C1660167D0
:1034900041678167C1674FF08061C0F880104910B3
:1034A000C0F884100021C0F888104FF40011C0F853
:1034B0008C100021C0F89010C0F89410C0F898103B
:1034C000C0F89C10C0F8A0104FF00071C0F8A41014
:1034D0004912C0F8A8108901C0F8AC104912C0F810
:1034E000B0100021C0F8B410C0F8B8107047000048
:1034F000014617480068006800F0004008B100204D
:103500007047C1F30C00124A1268506010480068FE
:10351000006840F040500E4A126810600C48006885
:10352000006840F000400A4A12681060094840698B
:1035300000F0040020B10420064A506100205060D1
:1035400003480068C068024A10600120D8E7000004
:10355000780700200090024038B503460C46002151
:10356000002000901448016901F01C014FF47840DC
:1035700000EAC32001434FF4F86000EA84100143DD
:1035800041F0020141F001010B484261016100BFBD
:103590000098401C00900848016901F0010018B132
:1035A000064D0098A842F3D3044D0098A84201D1DB
:1035B000002038BD0120FCE700800240FFFF04002E
:1035C00010B500F065F810BD10B500F061F810BD41
:1035D00010B500F05DF810BD10B500F059F810BD41
:1035E00010B500F055F810BD10B500F051F810BD41
:1035F00010B500F04DF810BD3EB50121880303F071
:1036000017F900242DE0184A02EBC4029178164AFB
:1036100002EBC402507803F009FB134800EBC4002E
:103620004068009000208DF804000C208DF8050003
:1036300001208DF80600684600F048F80A4800EBC3
:10364000C400C0788DF80800E0B28DF809000020B1
:103650008DF80A0001208DF80B0002A800F0F6FD9D
:10366000641C032CCFDB3EBD2C0700200149086001
:1036700070470000143C014001460020034A1268D4
:103680000A400AB1012000E000207047143C0140CC
:1036900070B50C480568002410E00B4800EBC4002E
:1036A0004068A84209D12846FFF7E6FF012804D167
:1036B00003F06EF92846FFF7D9FF641C032CECDBFE
:1036C00070BD0000143C01402C070020002123495C
:1036D0008279002A3AD00A46126803689A430B4658
:1036E0001A600A1D126803689A430B1D1A6002795A
:1036F00011440A6803681A430A60184A08321268BB
:1037000003689A43154B08331A601A1D1268036840
:103710009A43124B0C331A604279102A0ED11A1FA9
:10372000126803681A430D4B08331A601A1D126899
:1037300003681A43094B0C331A600DE007494279BC
:1037400011440A6803681A430A6005E002791144CB
:103750000A6803689A430A6070470000003C014011
:1037600008B54FF4407000F0ADFD38208DF8000032
:103770000D208DF8010000208DF8020001208DF849
:103780000300684600F062FD002208211048FEF7A1
:103790007DFD012210210E48FEF778FD01210C4825
:1037A000FEF75AFC0B490A48FEF73CFC0A49084858
:1037B000FEF738FC04210648FEF734FC02210448D9
:1037C000FEF730FC80210248FEF72CFC08BD00000B
:1037D00010640240208000101040001008B54FF423
:1037E000407000F06FFD3A208DF8000007208DF842
:1037F000010000208DF8020001208DF803006846CA
:1038000000F024FD002208211048FEF73FFD0122B0
:1038100010210E48FEF73AFD01210C48FEF71CFC72
:103820000B490A48FEF7FEFB0A490848FEF7FAFB77
:1038300004210648FEF7F6FB02210448FEF7F2FBDE
:1038400080210248FEF7EEFB08BD00004064024004
:10385000208000101040001010B50A480068C0B267
:1038600058B100BF5021EFF3118081F31188BFF3ED
:103870004F8FBFF36F8F00BF10BD14F0FDFF00200E
:10388000FAE7000004ED00E010B5044605480068C2
:10389000C0B220B100BF84F3118800BF01E015F071
:1038A00005F810BD04ED00E000B587B0012102204D
:1038B00002F07EFF0121080302F0BAFF38200590D4
:1038C00002208DF8180000208DF81A0003208DF8D2
:1038D000190001208DF81B0005A9204800F030F9DF
:1038E000052203211D4800F073F9052204211B481D
:1038F00000F06EF905221146184800F069F901211F
:10390000080302F0A5FF00214FF4805002F0A0FF51
:103910000020ADF800004FF48270ADF802000020E6
:10392000ADF804000220ADF806000120ADF8080053
:103930004002ADF80A003820ADF80C000020ADF8C8
:103940000E000720ADF810006946054803F04AF95B
:103950000121034803F02CF907B000BD0004024028
:103960000030014010B5044600BF02210A4803F0B0
:103970002BF90028F9D02146074803F031F900BFA0
:103980000121054803F020F90028F9D0024803F08E
:1039900024F9C0B210BD00000030014010B504464B
:1039A000074800884FF6C771084005490880084657
:1039B0000088204308800121014803F0F9F810BD78
:1039C0000030014008B58DED000A009AD3B20A8894
:1039D0008354009AC2F307230A88521C8354009A26
:1039E000C2F307430A88921C8354009A130E0A8874
:1039F000D21C83540A88121D0A8008BD7CB500259C
:103A0000002007E000EB4001194A52F821100D4355
:103A1000411CC8B20728F5DB0121284602F0C8FE88
:103A200000208DF8040001208DF8060003208DF899
:103A30000500002418E004EB44000D4901EB800070
:103A4000807A8DF8070004EB440001EB80000089C8
:103A5000009004EB4401064A02EB81014868694684
:103A600000F06EF8601CC4B2072CE4DB7CBD0000E3
:103A70006C06002010B5FFF7C1FF00F003F8FFF758
:103A8000BBFD10BD7CB50025002007E000EB400128
:103A9000294A52F821100D43411CC8B20928F5DB10
:103AA0000121284602F084FE002429E004EB4400B2
:103AB000214901EB80000089009001208DF804006D
:103AC00003208DF8050000208DF806008DF8070012
:103AD00004EB4401184A02EB81014868694600F092
:103AE0002FF804EB4402144B03EB8202118904EB20
:103AF000440203EB8202506800F098F8601CC4B2E4
:103B0000092CD3DB0121402002F052FE022000905C
:103B100001208DF8040003208DF8050000208DF8A9
:103B200006008DF807006946044800F009F80221F4
:103B3000024800F07BF87CBDC0060020001802405F
:103B4000F0B50A4600210023002400BF3DE0012516
:103B500005FA01F3156805EA03049C4234D10568AF
:103B60004F000326BE40B543056015794E00B540B1
:103B70000668354305601579012D02D01579022DAF
:103B800016D185684F000326BE40B5438560557940
:103B90004E00B540866835438560456801268E40F5
:103BA000B5434560456896798E40B6B23543456069
:103BB000C5684F000326BE40B543C560D5794E00A9
:103BC000B540C6683543C560491C1029BFD3F0BD58
:103BD000F0B5002300244D07ED0E02FA05F3CE10D8
:103BE00000F1200555F826504E07F70E0F26BE406F
:103BF000B543CF1000F1200646F82750CE1000F153
:103C0000200555F8265045EA0304CE1000F12005A2
:103C100045F82640F0BD0246002013690B400BB169
:103C2000012000E000207047418370470183704706
:103C300010B5EE2000F01CF8822000F019F8FF20EB
:103C400000F016F8FC2000F013F8FF2000F010F848
:103C5000FF2000F00DF8052006F0DCFA10BD000092
:103C600002480068401C0149086070476007002056
:103C700010B504462146094804F0E7F900BF802149
:103C8000064804F017F90028F9D000BF4021034886
:103C900004F010F90028F9D010BD00000010014018
:103CA00000B587B00121084602F082FD01211020F5
:103CB00002F0BEFD264804F085F8072209212548B8
:103CC000FFF786FF07220A212248FFF781FF4FF402
:103CD000C060049002208DF814008DF815000020BB
:103CE0008DF8160001208DF8170004A91948FFF778
:103CF00027FF4FF4E13000900020ADF80400ADF84C
:103D00000600ADF80800ADF80C000C20ADF80A0074
:103D100069460F4804F02AF901210D4804F03CF8E7
:103D2000012240F225510A4804F0FBF825208DF8C5
:103D300018000C208DF8190000208DF81A000120C1
:103D40008DF81B0006A800F081FA07B000BD000046
:103D5000001001400000024000BFFEE710B5022045
:103D600006F078FA10BD10B51488085504121388AF
:103D70005B1CCC5413889B1C138010BD1CB5002405
:103D800001214D2002F014FD0121880302F050FDB5
:103D9000012002F045FF8620009003208DF80500E9
:103DA00002208DF8040000208DF806008DF8070031
:103DB00069463148FFF7C4FE0B2201212E48FFF768
:103DC00007FF0B2202212C48FFF702FF0B220721DD
:103DD0002948FFF7FDFE3220009069462748FFF78B
:103DE000AFFE0B2201212548FFF7F2FE0B22042132
:103DF0002248FFF7EDFE0B2205212048FFF7E8FEE1
:103E00004FF4D040009069461D48FFF799FE0B2201
:103E100011461B48FFF7DCFE0B220D211848FFF767
:103E2000D7FE0B220E211648FFF7D2FE0820009085
:103E300003208DF8050001208DF8040000208DF886
:103E400006008DF8070069460E48FFF779FE00204E
:103E50000D490860322006F0DDF901200B49C1F858
:103E60008C02FEF7ABFEFFF771F904460CB9012096
:103E70001CBD0020FCE700000000024000080240DA
:103E800000180240000C02408C82414200804142F6
:103E90001CB50121202002F08BFC4FF4C060009083
:103EA00001208DF8040000208DF8060003208DF815
:103EB000050002208DF8070069460348FFF740FE21
:103EC000002000F003F81CBD0014024010B50446A9
:103ED00054B14FF480610A48FFF7A8FE4FF4007117
:103EE0000748FFF7A1FE09E04FF480610448FFF79F
:103EF0009BFE4FF400710248FFF798FE10BD0000D2
:103F00000014024038B540F264520021CA4805F05E
:103F1000E7F9C948007855287ED1C7484078552828
:103F2000FAD1022000906946C348FDF7E0FDC3497D
:103F300008706946C048FDF78BFDC04880ED010A56
:103F40006946BD48FDF784FDBC4880ED020A0024A7
:103F500051E06946B848FDF77BFD04EB4401B748E2
:103F6000683000EBC10080ED000A6946B248FDF7F9
:103F70006FFD04EB4401B148683000EBC10080EDF7
:103F8000010A6946AC48FDF763FD04EB4401AB4808
:103F9000683000EBC10080ED020A6946A648FDF7D3
:103FA00057FD04EB4401A548683000EBC10080EDEB
:103FB000030A6946A048FDF79AFD00EE100AB8EE24
:103FC000400A04EB44019D48683000EBC10080EDDD
:103FD000040A69469848FDF78AFD00EE100AB8EE1B
:103FE000400A04EB44019548683000EBC10080EDC5
:103FF000050A601CC4B2282CABDB69468E48FDF76D
:1040000076FD8E49C86069468B48FDF770FD8B4987
:1040100008616946884800E00BE1FDF768FD8749C3
:10402000087569468448FDF713FD844880ED170A3A
:1040300069468148FDF70CFD804880ED180A694605
:104040007D48FDF705FD7D4880ED190A69467A48EF
:10405000FDF7FEFC794880ED060A69467648FDF7D3
:10406000F7FC764880ED080A69467348FDF7F0FCD6
:10407000724880ED070A69466F48FDF7E9FC6F4812
:1040800080ED090A69466C48FDF7E2FC6B4880ED5B
:104090000A0A69466848FDF7DBFC684880ED0C0AAF
:1040A00069466548FDF7D4FC644880ED0B0A694613
:1040B0006148FDF7CDFC614880ED0D0A69465E4818
:1040C000FDF7C6FC5D4880ED0E0A69465A48FDF7CB
:1040D000BFFC5A4880ED100A69465748FDF7B8FC06
:1040E000564880ED0F0A69465348FDF7B1FC534826
:1040F00080ED110A69465048FDF7AAFC4F4880ED53
:10410000120A69464C48FDF7A3FC4C4880ED140A9E
:1041100069464948FDF79CFC484880ED130A69460A
:104120004548FDF795FC454880ED150A694642482B
:10413000FDF7DDFCC1B2414880F8581069463E48A1
:10414000FDF7D5FCC1B23D4880F8591069463A48A0
:10415000FDF7CDFCC1B2394880F85A10694636489F
:10416000FDF7C5FCC1B2354880F8321514236A4604
:1041700000F58D613048FDF7A5FC14236A463049EF
:104180002D48FDF79FFC14236A462D4914312A4817
:10419000FDF798FC14236A46294928312648FDF783
:1041A00091FC69462448FDF7A2FC01462348A0F88B
:1041B000B81414236A4600F2F6411F48FDF782FC4A
:1041C00014236A461E498E311B48FDF77BFC1423DD
:1041D0006A461B49A2311848FDF774FC14236A464D
:1041E000174952311448FDF76DFC14236A461449EF
:1041F00066311148FDF766FC14236A461049B83150
:104200000D48FDF75FFC14236A460D49CC310A487E
:10421000FDF758FC69460848FDF769FC074981F835
:104220005C0569460448FDF762FC044981F85D05B8
:1042300001E002F0F7FB38BD80090020AC0000204F
:104240002805002000BFFEE77047000070B5002180
:1042500000230F22C4781CB3174C246804F4E064D4
:10426000C4F5E064C4F30721C1F10404E3B20A41D8
:1042700044789C40E1B28478144021430C07210E1D
:104280000E4C05786155047804F01F050124AC40FC
:1042900005786D11AD0005F1E025C5F8004109E094
:1042A000047804F01F050124AC40054D0678761112
:1042B00045F8264070BD00000CED00E000E400E091
:1042C00080E100E002490143024A116070470000AA
:1042D0000000FA050CED00E0024A0A400243024BDE
:1042E0001A60704780FFFF1F08ED00E0F0B52DED6C
:1042F000028B85B006460D461446FA480680132EFA
:1043000081F0C681DFE816F0130015001600750075
:1043100018014902DF029F036E04DF0424056009CF
:1043200039051606610980099B09AE098B0501F064
:10433000AFB9FCE7A81E0C2859D2DFE800F0060B45
:1043400058585858585835404B2114B10A2002F09B
:1043500096FF4CE0E44890F85C05012809D10C2058
:1043600002F08DFF0D20E14908700220E04908703D
:1043700005E00D2002F083FF0D2001F0DBF936E0AF
:104380006CB10120DB4981F82200D748C068401C8D
:10439000D549C86008460069401C086103E0002058
:1043A000D44981F8220022E024B10120D14981F8CA
:1043B000260003E00020CF4981F8260017E024B151
:1043C0000120CC4981F8480003E00020C94981F868
:1043D00048000CE034B10120C64981F8240002F005
:1043E00045FC03E00020C34981F8240000BF00BF62
:1043F0009DE7092D0DD2DFE805F09D050D152C4335
:104400005A71870014B10D2002F039FF0D20B54913
:1044100008808FE02CB10A2002F031FF0A2001F061
:1044200089F987E0A4B1B04890F85D05012809D169
:10443000122002F024FF0420AC4908700320AC498C
:10444000087005E0042002F01AFF042001F072F960
:1044500070E0A4B1A44890F85D05012809D11220AC
:1044600002F00DFF0520A14908700320A049087043
:1044700005E0052002F003FF052001F05BF959E09B
:10448000A4B1994890F85D05012809D1122002F0E5
:10449000F6FE06209549087003209549087005E04E
:1044A000062002F0ECFE062001F044F942E0A4B13F
:1044B0008D4890F85D05012809D1122002F0DFFE39
:1044C00007208A49087003208949087005E0072001
:1044D00002F0D5FE072001F02DF92BE0824890F87C
:1044E0005D05012809D1122002F0C9FE08207F498C
:1044F000087003207E49087005E0082002F0BFFE26
:10450000082001F017F915E0774890F85D050128BB
:1045100009D1122002F0B3FE09207449087003206B
:104520007349087005E0092002F0A9FE092001F096
:1045300001F900BF00BFFAE6092D38D2DFE805F027
:104540003705386BFCFB9EDCFD0014B30021664888
:1045500080F8581001221146042002F0BAFD002212
:104560000221042002F0B5FD5F480078F8B95E48EA
:1045700090F8580000EE100AB8EE400A5A48007D44
:1045800000EB40015848683000EBC10080ED040AA0
:104590000DE00121544880F8581001220221042026
:1045A00002F097FD00220121042002F092FDF2E0CA
:1045B00074B101214C4880F85810012202210420D6
:1045C00002F087FD00220121042002F082FD0DE0AF
:1045D0000021454880F8581001221146042002F0BD
:1045E00078FD00220221042002F073FD3E4800788D
:1045F00080B93D4890F8580000EE100AB8EE400A25
:104600003948007D00EB40013748683000EBC100BD
:1046100080ED040ABFE074B10021334880F85910DE
:1046200001220321042002F054FD0022062104206F
:1046300002F04FFD0DE001212B4880F859100122B6
:104640000621042002F045FD00220321042002F08F
:1046500040FD2548007880B9234890F8590000EEC5
:10466000100AB8EE400A2048007D00EB40011E48C9
:10467000683000EBC10080ED050A8CE074B10121C7
:10468000194880F8591001220621042002F021FD6A
:1046900000220321042002F01CFD0DE0002112483D
:1046A00080F8591001220321042002F012FD00229B
:1046B0000621042002F00DFD0B48007880B90A485D
:1046C00090F8590000EE100AB8EE400A0648007D46
:1046D00000EB40010448683000EBC10080ED050AA2
:1046E00059E02AE014060020AC000020300600202B
:1046F000310600200C0F002074B10021FA4880F828
:104700005A1000220821042002F0E3FC01220721B4
:10471000042002F0DEFC0DE00121F34880F85A107D
:1047200001220821042002F0D4FC002207210420E9
:1047300002F0CFFC2FE027E01EE074B10121EA482F
:1047400080F85A1000220721042002F0C2FC012246
:104750000821042002F0BDFC0DE00021E24880F8B1
:104760005A1000220821042002F0B3FC0122072184
:10477000042002F0AEFC0EE02CB10E20DB490870E4
:104780000320DB49087006E024B1032000F0D2FFCB
:10479000FFF7B8FB00BF00BFC9E50A2D43D00B2DC2
:1047A00004D00C2D7ED00E2D3CD182E04CB30121E3
:1047B000CD4880F8321590F832250520FCF7E6FF49
:1047C000C94890F8322502210520FCF7DFFFC648D2
:1047D00090F83205022801D1012000E000200246B5
:1047E0000A21052002F075FCBF4890F83205012827
:1047F00000D100E0002002460B21052002F069FCF8
:1048000010E00021B84880F8321590F832250121D7
:104810000520FCF7BBFFB44890F8322502210520A3
:10482000FCF7B4FF4DE054B30221AF4880F83215D5
:1048300090F8322501210520FCF7A8FFAA4890F83E
:10484000322502210520FCF7A1FFA74890F8320588
:10485000022801D1012000E0002002460A210520A3
:1048600002F037FCA04890F83205012800D100E0A2
:10487000002002460B21052002F02BFC10E0002155
:10488000994880F8321590F8322501210520FCF76F
:104890007DFF954890F8322502210520FCF776FF30
:1048A0000FE0FFE724B1032000F044FFFFF72AFBED
:1048B00007E02CB10E208D49087003208C49087048
:1048C00000BF00BF33E50D2D18D2DFE805F0BA2890
:1048D0002F4841BABA07185A728AA2000E2083499B
:1048E000087003208249087000220121062002F08E
:1048F000F0FB00220421062002F0EBFBA1E00320E4
:1049000000F018FF00220121062002F0E2FB002245
:104910000421062002F0DDFBFFF7F4FA91E024B158
:10492000012074490877002048778AE07CB17148FB
:1049300090ED040A6C4880ED060A9FED6F0A80ED49
:10494000070A002201216D48008802F0C2FB78E0CE
:1049500024B10020674908770120487771E07CB1D5
:10496000644890ED040A604880ED080AB1EE040A3C
:1049700080ED090A002204216048008802F0A9FBAA
:104980005FE0ACB15B48007F012811D1564890ED43
:104990000E0AF7EE000A30EE600A80ED0E0AD0ED46
:1049A0000E0AB0EE600A0D215448008802F02AFD7C
:1049B00047E0ACB14F48007F012811D14A4890ED43
:1049C0000E0AF7EE000A30EE200A80ED0E0AD0ED56
:1049D0000E0AB0EE600A0D214848008802F012FD70
:1049E0002FE0ACB14348407F012811D13E4890ED03
:1049F000100AF7EE000A30EE600A80ED100AD0EDE2
:104A0000100AB0EE600A0E213C48008802F0FAFC61
:104A100017E0ACB13748407F012811D1324890ED02
:104A2000100AF7EE000A30EE200A80ED100AD0EDF1
:104A3000100AB0EE600A0E213048008802F0E2FC55
:104A400000BF00BF73E4E81E0C2817D2DFE800F0B7
:104A50005A616880C8283A98B0C806170E202349C2
:104A6000087003202249087000220321072002F069
:104A700030FB00220421072002F02BFBB0E074B1D0
:104A8000032000F057FE00220321072002F021FB43
:104A900000220421072002F01CFBFFF733FA9FE0FD
:104AA0007CB1144890ED060A0F4880ED0A0A9FED8C
:104AB000120A80ED0B0A002203211048008802F040
:104AC00008FB8DE07CB10B4890ED060A064880EDAE
:104AD0000C0A9FED0B0A80ED0D0A00220421074805
:104AE000008802F0F6FA7BE0AC00002030060020DF
:104AF000310600200C0F00200000000014060020EA
:104B00001D1A914224B10120F94988770020C87705
:104B100066E024B10020F64988770120C87700BFFD
:104B2000ACB1F348807F012811D1F24890ED120A10
:104B3000F7EE000A30EE600A80ED120AD0ED120A9C
:104B4000B0EE600A0721EC48008802F05BFC47E009
:104B5000ACB1E748807F012811D1E64890ED120AF8
:104B6000F7EE000A30EE200A80ED120AD0ED120AAC
:104B7000B0EE600A0721E048008802F043FC2FE015
:104B8000ACB1DB48C07F012811D1DA4890ED140A9E
:104B9000F7EE000A30EE600A80ED140AD0ED140A38
:104BA000B0EE600A0C21D448008802F02BFC17E01C
:104BB000ACB1CF48C07F012811D1CE4890ED140A86
:104BC000F7EE000A30EE200A80ED140AD0ED140A48
:104BD000B0EE600A0C21C848008802F013FC00BF48
:104BE00000BF05E4012D06D0022D1DD0052D26D0D5
:104BF000062D66D153E094B10120BE4981F85C05D1
:104C0000084690F85C250121082002F062FAB948B4
:104C100090F85D250221082002F05BFA03E00020F5
:104C2000B44981F85C054CE024B10120B14981F818
:104C30005D0503E00020AF4981F85D0541E06CB3FC
:104C4000AE480078012808D11421AD48FBF737FBA6
:104C5000AC4AADA1AA4804F0E5FDAC4800780128B3
:104C60000AD11421A6481430FBF729FBA84AA6A1B3
:104C7000A348143004F0D6FD01F0F8FF00209F494E
:104C80000870A249087014219E48FBF718FB1421F4
:104C90009F48FBF714FB03209E49087011E0002099
:104CA000964908709949087014219648FBF707FB4C
:104CB00014219748FBF703FB032000F03BFDFFF7AF
:104CC00021F900BF37E400271FED750AB0EE408AD6
:104CD000032D04D0042D0BD00D2D37D10EE00E2066
:104CE0008D49087003208B49087001F0BFFF2DE04B
:104CF000FFF708F9032000F01DFD27E00120874998
:104D000008707B4991F8490001F031FE784981F83B
:104D1000500091F84A0001F02AFE754981F85100CF
:104D200091F84C0001F023FE714981F8530091F88D
:104D30004D0001F01CFE6E4981F8540091F84E00C0
:104D400001F015FE6A4981F8550000BF00BF23E558
:104D5000062D02D0072D0ED106E0032002F08FFAB7
:104D6000032000F0E7FC06E00D2002F088FA0D2099
:104D700000F0E0FC00BF00BF0EE5022D02D0032DC5
:104D80004BD13CE0D4B30027634800780D280AD10A
:104D90005B496348FBF7C3FA20B162496048FBF7FF
:104DA000BEFA00B90127012F08D15B48007802F054
:104DB00066FA5948007800F0BDFC07E055480078D5
:104DC00002F05DFA5348007800F0B4FC0020019036
:104DD00002900390049054A24BA101A804F022FD7C
:104DE00001AA01210C2002F0E1FA4A4800784A4960
:104DF000087014214A48FBF762FA00BF0DE05CB16D
:104E00004448007802F03BFA424800784249087072
:104E100014214348FBF753FA00BF00BFD4E3022D2F
:104E200002D0032D61D152E07CB300273A480078CC
:104E3000042813D03848007805280FD03648007869
:104E400006280BD034480078072807D0324800786D
:104E5000082803D03048007809280BD1284914319C
:104E60003248FBF75CFA20B131493048FBF757FA7A
:104E700000B90127012F09D12748007802F0FFF976
:104E80002548007800F056FC08E01FE02148007833
:104E900002F0F5F91F48007800F04CFC002001906A
:104EA00002900390049020A217A101A804F0BAFC7C
:104EB00001AA0121122002F079FA16480078164959
:104EC000087014211948FBF7FAF900BF0DE05CB136
:104ED0001048007802F0D3F90E4800780E490870A7
:104EE00014211248FBF7EBF900BF00BFD0E300002C
:104EF0000C0F0020AC000020140600203206002019
:104F0000E005002004170020257300003306002070
:104F1000181700203106002030060020230600204C
:104F20002C1700203406002000000000401700204D
:104F3000480600200D2D6CD00ADC0D2D27D2DFE8AD
:104F400005F026182626262627E826E7E6E5E400CB
:104F5000112D7CD006DC0E2D7AD00F2D79D0102D9E
:104F600015D1E3E2122D75D0132D74D01E2DF7D17B
:104F700025E301F07BFEF748027809210220FCF7C7
:104F800005FC022002F07BF9022000F0D3FB1AE3BB
:104F9000F4B3F048007D012877DBEE48007D401E29
:104FA000EC4908750846007D00EB4001E94868308F
:104FB00000EBC10090ED020AE64880ED170A007D83
:104FC00000EB4001E348683000EBC10090ED030ABC
:104FD000E04880ED190A007D00EB4001DD486830B3
:104FE00000EBC10090ED040ABCEEC00A10EE100AFE
:104FF000C1B2D84880F85810007D00EB4001D54878
:10500000683000EBC10090ED050ABCEEC00A01E07B
:105010003BE0F2E110EE100AC1B2CE4880F8591020
:10502000007D00EE900AF8EE600AB0EE600A0521FD
:10503000C948008802F0E6F9C648007D00EB40014F
:10504000C448683000EBC100D0ED000A04E0A8E2DB
:1050500006E238E2ACE2A3E1B0EE600A0421BE4809
:10506000008802F0F5F9BB48007D00EB4001B9482B
:10507000683000EBC100D0ED010AB0EE600A0821F3
:10508000B548008802F0E4F976E0ECB3B148007D61
:10509000D0BB2720AF4908750846007D00EB4001D2
:1050A000AC48683000EBC10090ED020AA94880EDE1
:1050B000170A007D00EB4001A648683000EBC100F4
:1050C00090ED030AA34880ED190A007D00EB400132
:1050D000A048683000EBC10090ED040ABCEEC00AA5
:1050E00010EE100AC1B29B4880F85810007D00EB0A
:1050F00040019848683000EBC10090ED050ABCEE15
:10510000C00A10EE100A05E036E062E13DE127E159
:1051100015E132E0C1B28F4880F85910007D00EEF1
:10512000900AF8EE600AB0EE600A05218A4800880D
:1051300002F068F98748007D00EB4001854868303F
:1051400000EBC100D0ED000AB0EE600A04218248F5
:10515000008802F07DF97F48007D00EB40017D482A
:10516000683000EBC100D0ED010AB0EE600A082102
:105170007948008802F06CF925E2012C71D175485C
:10518000007D27286EDA7348007D401C7149087540
:105190000846007D00EB40016E48683000EBC1001E
:1051A00090ED020A6B4880ED170A007D00EB40018C
:1051B0006848683000EBC10090ED030A654880ED57
:1051C000190A007D00EB40016248683000EBC10025
:1051D00090ED040ABCEEC00A10EE100AC1B25D48A0
:1051E00080F85810007D00EB40015A48683000EB11
:1051F000C10090ED050ABCEEC00A10EE100AC1B263
:10520000544880F85910007D00EE900AF8EE600ACC
:10521000B0EE600A05215048008802F0F3F84D48CE
:10522000007D00EB40014B48683000EBC100D0ED41
:10523000000AB0EE600A04214748008802F008F92D
:105240004448007D00EB40014248683000EBC1005B
:10525000D0ED010AB0EE600A08213F48008802F054
:10526000F7F86BE000203B4908750846007D00EB2D
:1052700040013848683000EBC10090ED020A354823
:1052800080ED170A007D00EB40013248683000EBEA
:10529000C10090ED030A2F4880ED190A007D00EB54
:1052A00040012C48683000EBC10090ED040ABCEED0
:1052B000C00A10EE100AC1B2264880F85810007DCE
:1052C00000EB40012348683000EBC10090ED050A77
:1052D000BCEEC00A10EE100AC1B21E4880F8591088
:1052E000007D00EE900AF8EE600AB0EE600A05213B
:1052F0001948008802F086F81648007D00EB40014E
:105300001448683000EBC100D0ED000AB0EE600A2E
:1053100004211148008802F09BF80E48007D00EB44
:1053200040010C48683000EBC100D0ED010AB0EE3E
:10533000600A08210848008802F08AF843E124B195
:105340000120064981F8260003E00020034981F886
:10535000260038E1AC000020140600200C0F0020CD
:1053600074B10120CD4981F8480000220C21CC48BD
:10537000008801F0AEFE0020C84981F8220003E059
:105380000020C64981F848001DE124B10120C3492D
:1053900081F8240003E00020C04981F8240012E1D4
:1053A0005CB10120BD4981F82300084690F8232014
:1053B00013210D2001F08DFE0AE00020B74981F88D
:1053C0002300084690F8232013210D2001F081FED0
:1053D000F9E06CB10120B14981F82200B148C06800
:1053E000401CB049C86008460069401C086103E0E1
:1053F0000020AA4981F82200E5E084B30020A949F1
:1054000008700846007808B9012000E00020024634
:105410000D21084601F05DFEA2480078012800D168
:1054200000E0002002460E210D2001F052FE9D48B2
:105430000078022801D1012000E0002002460F215F
:105440000D2001F046FE97480078032801D1012085
:1054500000E00020024610210D2001F03AFEB2E0EB
:1054600084B301208F4908700846007808B90120EC
:1054700000E0002002460D21084601F02AFE89487E
:105480000078012800D100E0002002460E210D2006
:1054900001F01FFE83480078022801D1012000E0BE
:1054A000002002460F210D2001F013FE7D480078F8
:1054B000032801D1012000E00020024610210D2028
:1054C00001F007FE7FE084B30220764908700846A9
:1054D000007808B9012000E0002002460D210846AE
:1054E00001F0F7FD6F480078012800D100E00020AE
:1054F00002460E210D2001F0ECFD6A4800780228DA
:1055000001D1012000E0002002460F210D2001F012
:10551000E0FD64480078032801D1012000E000206C
:10552000024610210D2001F0D4FD4CE0A4B303206D
:105530005C49087000205C4908705A48007808B936
:10554000012000E0002002460D21084601F0C1FDC7
:1055500054480078012800D100E0002002460E21C6
:105560000D2001F0B6FD4F480078022801D101203E
:1055700000E0002002460F210D2001F0AAFD49485D
:105580000078032801D1012000E00020024610210C
:105590000D2001F09EFD03E0FFE701204249087065
:1055A00011E0032001F06BFE032000F0C3F80AE0D5
:1055B0000A2001F064FE0A2000F0BCF803E00CB100
:1055C00001F054FB00BF00BF62E0012D02D0022DAC
:1055D00018D10BE04CB101F049FB3448007801F0E0
:1055E0004EFE3248007800F0A5F80BE04CB1FEF713
:1055F00089FC2E48007801F042FE2C48007800F02B
:1056000099F800BF00BF43E0012D02D0022D14D154
:105610000CE054B1214890F82000012805D1002069
:105620002049C860092001F02AFE06E024B1FEF7F7
:1056300069FC092001F023FE00BF00BF28E0012D16
:105640000ED164B100211A4880F83B10002019499E
:1056500008700D2001F013FE0D201149088000BFD5
:1056600000BF15E0022D02D0032D0FD106E024B1BA
:1056700001F0FCFA09200D49087007E02CB109205F
:1056800001F0FDFD092000F055F800BF00BF00BF8C
:1056900000BF05B0BDEC028BF0BD00000C0F002078
:1056A00014060020AC000020240600203106002053
:1056B000C0060020250600207047704770477047DD
:1056C0002DE9F04707460C4615461E46DDE9099AC6
:1056D000DDF82080384601F03FF9154981F849008E
:1056E000204601F039F9124981F84A00284601F0B4
:1056F00033F90F4981F84B00304601F02DF90C4980
:1057000081F84C00404601F027F9094981F84D0025
:10571000484601F021F9064981F84E00504601F053
:105720001BF9401CC1B2024880F84F10BDE8F08759
:105730000C0F002038B50446F84804800020FCF720
:10574000F3F90120FCF7F0F9062C03D00020F4490E
:1057500008774877072C03D00020F1498877C8776D
:10576000112C0AD2DFE804F0090A0BFDFCFBFAF960
:10577000F8F7F6F5F4F3F2F1F00067E366E3E848D2
:1057800090F8260018B90020E54981F84800E4485F
:1057900090F826200A21E148008801F09AFCE048B0
:1057A00090F848200B21DD48008801F092FCDC488D
:1057B00090F8480001281DD101220C21D74800880B
:1057C00001F0B3FCD7480078012806D00022082158
:1057D000D248008801F0A9FC05E001220821CF4849
:1057E000008801F0A2FC00220D21CC48008801F0C5
:1057F0009CFC11E001220D21C848008801F095FCB5
:1058000000220C21C548008801F08FFC00220821ED
:10581000C248008801F089FCC14890F82320082183
:10582000BE48008801F055FCBD4802781221BB48F3
:105830000088FBF7ABFFBB4890F85A200E21B74811
:105840000088FBF7A3FFB74802780921B348008816
:10585000FBF79CFFB34890F832250221AF4800883F
:10586000FBF794FFAF4890F85A0001280AD1AC48E2
:10587000D0ED010AB0EE600A0F21A848008801F0BF
:105880000DFE0FE0A64890ED011ADFEDA71ADFED3F
:10589000A70A41EE210AB0EE600A0F219F48008856
:1058A00001F0FCFD9E48D0ED020AB0EE600A102126
:1058B0009A48008801F0F2FD9A481121C268974881
:1058C000008801F011FE964890F824200C2193489E
:1058D000008801F0FEFB924890F822200D218F48AD
:1058E000008801F0F6FB8F480078032813D190A0C0
:1058F000006800908B48D0ED010AB0EE600A0521E7
:105900008648008801F0A4FD6A4606218348008885
:1059100001F04CFD00BF83480078012813D184A01A
:10592000006800906A4606217C48008801F03EFD30
:105930007C48D0ED010AB0EE600A05217748008866
:1059400001F086FD00BF0DE0BAE07EE2B7E045E180
:1059500043E141E1C5E0B4E035E193E075E0C8E042
:1059600022E018E06F480078022813D16D48D0ED8E
:10597000010AB0EE600A05216848008801F068FD60
:105980006848D0ED020AB0EE600A0621634800883C
:1059900001F05EFD5AE2634890F8322509215F4824
:1059A0000088FBF7F3FE51E25E4890F832250921AA
:1059B0005A480088FBF7EAFE5A4890F8580008B9A0
:1059C000012000E0002002460121042001F081FBBB
:1059D000544890F85800012800D100E00020024609
:1059E0000221042001F075FB4E4890F8590008B9D7
:1059F000012000E0002002460321042001F069FBA1
:105A0000484890F85900012800D100E000200246E3
:105A10000621042001F05DFB424890F85A0008B9C5
:105A2000012000E0002002460721042001F051FB84
:105A30003C4890F85A00012800D100E000200246BE
:105A40000821042001F045FB00E23648D0ED0E0AA3
:105A5000B0EE600A0D213148008801F0D3FC3148D6
:105A6000D0ED100AB0EE600A0E212C48008801F03B
:105A7000C9FC2C4890F832250F2128480088FBF7F4
:105A800085FEE3E12748D0ED120AB0EE600A072157
:105A90002248008801F0B6FC2248D0ED140AB0EE8E
:105AA000600A0C211D48008801F0ACFC1D4890F8EC
:105AB00032250F2119480088FBF768FEC6E1C5E1D1
:105AC000C4E1184890F832250F2114480088FBF7EC
:105AD0005DFE1448052102691048008801F004FDAC
