:020000040800F2
:1000000080DC0120B1010008190F0008090F000869
:10001000110F00089D080008C15A000800000000E8
:10002000000000000000000000000000C301000804
:100030007D0A000800000000C7010008C90100088F
:10004000CB010008CB010008CB010008CB01000860
:10005000CB010008CB010008CB010008CB01000850
:10006000CB010008CB010008CB010008CB01000840
:10007000CB010008CB010008CB010008CB01000830
:10008000CB010008CB010008CB010008CB01000820
:10009000CB010008CB010008CB010008CB01000810
:1000A000CB010008CB010008CB010008CB01000800
:1000B000CB010008CB010008CB010008CB010008F0
:1000C000CB010008CB010008CB010008CB010008E0
:1000D000CB01000829160008CB010008CB0100085D
:1000E000CB010008CB010008CB010008CB010008C0
:1000F000CB010008CB010008CB010008CB010008B0
:10010000CB010008CB010008CB010008CB0100089F
:10011000CB010008CB010008CB010008CB0100088F
:10012000CB010008CB010008CB010008CB0100087F
:10013000CB010008CB010008CB010008CB0100086F
:10014000CB010008CB010008CB01000835100008E6
:10015000CB010008CB010008CB010008CB0100084F
:10016000CB010008CB010008CB010008CB0100083F
:10017000CB010008CB010008CB010008CB0100082F
:10018000CB010008CB010008DFF810D000F034FAF2
:10019000004800475D7D0008AFF3008080DC01204F
:1001A00030BF72B6704762B6704780F308887047F8
:1001B0000648804706480047FEE7FEE7FEE7FEE701
:1001C000FEE7FEE7FEE7FEE7FEE7FEE7C1150008F3
:1001D0008901000800F0004230F000400AD0C10D53
:1001E00001F56071C0F3160042EA0151C2084007F0
:1001F0001143704700200146704730B50B46014659
:1002000000202022012409E021FA02F59D4205D3B5
:1002100003FA02F5491B04FA02F52844151EA2F15F
:100220000102F1DC30BD2DE9F05F05460020924669
:100230009B4688460646814640241BE028464146A8
:100240004746224600F0F9F953465A46C01A9141F2
:1002500010D311461846224600F0E0F92D1A67EB3C
:1002600001084F4622460120002100F0D7F917EB84
:1002700000094E41201EA4F10104DFDC484631464E
:100280002A464346BDE8F09F2DE9FE4F804681EAAD
:100290000300C00F0C46009021F0004123F0004500
:1002A000B8EB0200A94105D24046214690461C46C3
:1002B0000B46024623F00040104347D0270DC7F3FA
:1002C0000A00C3F30A510290401A019040286BDAE9
:1002D000C3F3130040F4801B0098924620B1002322
:1002E000D2EB030A63EB0B0B01985946C0F14002B5
:1002F000504600F093F906460D4650465946019A7D
:1003000000F0ABF910EB08006141002487EA1152BC
:1003100084EAE7731A4340D0009A62B3019A012A33
:100320004FEA075215DC001B61EB02014FF000425F
:1003300002EA0752CDE90042001C41F58011324625
:100340002B4600F0ABF903B0BDE8F08F40462146E4
:10035000F9E7001B61EB0201001C41F58013001856
:100360005B412018A2F5001747EB030140EAD57066
:10037000B6196D4111E06D084FEA360645EAC075C1
:100380004FEA0752001B61EB0201001C41F580118E
:1003900049084FEA30000019514132462B4603B05C
:1003A000BDE8F04F00F06BB9009801224000002337
:1003B000D0EB020263EBE073009821464FEAE07451
:1003C000B8EB000061EB0401E9E783F000435BE771
:1003D00081F0004158E72DE9FE4F81EA030404F063
:1003E000004421F0004100944FF0000B23F0004343
:1003F00050EA01045ED052EA03045BD0C3F30A540E
:10040000C1F30A552C44A4F2F3340194A0FB025426
:10041000C1F3130141F48011C3F3130343F48013B8
:1004200001FB024400FB034E840A970A44EA81540C
:1004300047EA8357A4FB076802958D0A05FB0785E9
:100440004FEA932C04FB0C542705029D4FEA0658F3
:1004500047EA1637B5EB08056EEB070C870E920ED0
:1004600047EA811742EA8312A7FB0201B6EB0B01B0
:1004700064EB00042B0D43EA0C335E1844EB1C5074
:10048000DA465146E7FB0201C5F313044FEA0B338A
:1004900043EA14534FEA0432019C43EA0603A4F1F1
:1004A0000C040294009CCDE900B400F0F7F803B00E
:1004B000BDE8F08F00200146F9E72DE9F04D81EA13
:1004C000030404F0004B21F0004514464FF0000AED
:1004D00023F0004150EA050220D054EA01021DD069
:1004E000C5F30A570246C5F31303C1F31300C1F362
:1004F0000A5640F4801543F48013A7EB0608101B3E
:10050000D64608F2FD3873EB050002D308F1010866
:1005100001E092185B41B8F1000F03DA00200146B8
:10052000BDE8F08D00204FF48011064684460EE0B1
:10053000171B73EB050705D3121B63EB050306437B
:100540004CEA010C49084FEA300092185B4150EA2E
:100550000107EDD152EA030012D082EA040083EAD7
:100560000501084305D0101BAB4106D20122002330
:1005700006E000224FF0004302E06FF0010253104A
:100580001AEB06004CEB085110EB0A0041EB0B0193
:10059000BDE8F04D00F073B8C1F30A52C1F3130186
:1005A00040F2FF3341F480119A4202DA0020014602
:1005B000704740F233439A42A2F2334202DC524285
:1005C00000F03BB800F02AB830B5041E71F1000409
:1005D00004DB4FF00044404264EB0101141E73F150
:1005E000000405DB1C464FF00043524263EB04035A
:1005F000994208BF904230BD064C074D06E0E068C6
:1006000040F0010394E8070098471034AC42F6D359
:10061000FFF7BEFD80320308A0320308202A04DB66
:10062000203A00FA02F1002070479140C2F1200305
:1006300020FA03F3194390407047202A04DB203A44
:1006400021FA02F00021704721FA02F3D040C2F1F2
:1006500020029140084319467047202A06DBCB1739
:10066000203A41FA02F043EAE07306E041FA02F36D
:10067000D040C2F12002914008431946704710B59E
:10068000141E73F1000408DA401C41F100019218B5
:100690005B411A4301D120F0010010BD2DE9F04D5E
:1006A00092469B4611B1B1FA81F202E0B0FA80F2B3
:1006B00020329046FFF7B2FF04460F4640EA0A0098
:1006C00041EA0B0153465A46084313D0114653EAF8
:1006D000010019D0C8F140025046FFF7AEFF0546B1
:1006E0000E46504659464246FFF798FF084305D04C
:1006F000012004E020463946BDE8F08D0020054386
:1007000046EAE0762C4337430A986305E40AA0EBF7
:1007100008000022FD0A44EA47540A3002D50020AE
:100720000146E9E7010510196941DDE908450019AD
:100730006941BDE8F04DA2E77047000038B562B6E8
:100740004FF00061084600F02FFC4FF4407000F0BD
:1007500021FCA82006F09EF8322006F0B9F800F03F
:1007600071FA00F077FB4FF4FA7006F0B1F86420EC
:1007700006F0AEF817A005F0A7F90024642006F0F3
:10078000A7F81AA005F0A0F9002007F0D7FB1CA0DD
:1007900005F09AF906F002FC0446642006F098F889
:1007A0001CA005F091F92148214B224A012100901B
:1007B000214801F023FD21A005F086F925A005F0D0
:1007C00083F907F0B5FD28A005F07EF9642006F056
:1007D0007FF838BDB5F7CAD4B4AEBFDAB3F5CABC3A
:1007E000BBAFCDEAB3C92E2E2E0D0A006D795F6D19
:1007F000656D5F696E69742E2E2E0D0A0000000073
:10080000657866756E735F696E69742E2E2E0D0A9B
:1008100000000000BFAACABCB3F5CABCBBAF5553A9
:1008200042C9E8B1B82E2E2E0D0A00006400002047
:10083000440000201001002094010020555342C9BB
:10084000E8B1B8B3F5CABCBBAFCDEAB3C92E2E2E02
:100850000D0A000055534152544449535F496E6993
:10086000742E2E2E0D0A000071756575655F726518
:100870007365742E2E2E0D0A000000001CB505A114
:1008800003C9CDE9000101220821684600F09CFD62
:100890001CBD0000EEF004BFFFFCFFFF00BE71B600
:1008A00000F08CFB70B50546A5F19000092836D202
:1008B000DFE800F0050D151D353535252D00012229
:1008C0001DA12048006806F0EBFB044627E001224A
:1008D0001DA11C48006806F0E3FB04461FE001224E
:1008E0001CA11848006806F0DBFB044617E0012253
:1008F0001BA11448006806F0D3FB04460FE0012258
:100900001AA11048006806F0CBFB044607E001225C
:100910001AA10C48006806F0C3FB044600BF00BFE4
:1009200044B90848006806F07BFB0A2005F0D0FFB8
:10093000012070BD0020FCE7323A696D6167652EC9
:1009400069647800C8000020323A666F6E742E62C7
:10095000696E0000323A696D6167652E62696E00EA
:10096000323A666F6E742E6964780000323A7363AF
:100970007265656E2E62696E00000000323A73790E
:100980007374656D2E62696E0000000070B500F032
:1009900067FC0024002564E04FF4FA71334807F047
:1009A00053FC0446002C50DD3048407805284CD1DB
:1009B0002E4948882E4A108000203EE00A1D02EB96
:1009C000001212882B4B03EB00131A800A1D02EB56
:1009D0000012D2F80320274B03EB0013C3F80320C7
:1009E0000A1D02EB0012B2F80720224B03EB0013A2
:1009F000A3F807200A1D02EB0012B2F809201D4BD4
:100A000003EB0013A3F809200A1D02EB0012D27AAF
:100A1000184B03EB0013DA720A1D02EB0012127B73
:100A2000144B03EB00131A730A1D02EB0012527BE6
:100A3000104B03EB00135A73401C0D4A128890426E
:100A4000BCDB01200C4A10700CE02846691C8DB2FA
:100A500041F28831884201DB002070BD012005F0A1
:100A600037FF99E700BF00BFF7E700001E2D002009
:100A700060000020DC2500205E00002070470000A0
:100A800008B504A00068009001221146684600F0F5
:100A90009BFC08BDF100000030B10749096841F432
:100AA0008061054A116005E00349096821F480610D
:100AB000014A116070470000003C024070B50446D6
:100AC0000A460026092502B909E0012A01D11602C9
:100AD00005E0022A01D1160201E04FF4407600F051
:100AE0009FF80546092D28D11548006820F440706C
:100AF00013490860084600683043086008460068EB
:100B000020F0F80008600846006844F0020108433D
:100B10000B4908600846006840F48030086000F027
:100B20007FF805460648006820F002000449086086
:100B30000846006820F0F8000860284670BD0000F4
:100B4000103C024009201349096801F48031B1F5D5
:100B5000803F01D101201CE00E49096801F010011D
:100B600009B1062015E00B49096801F4807109B14B
:100B700002200EE00749096801F0E00109B10720F1
:100B800007E00449096801F0020109B1082000E00A
:100B9000092070470C3C02400348006840F00040C8
:100BA0000149086070470000103C024030B5024621
:100BB0000C46092500F034F80546092D19D10E48D8
:100BC000006820F440700C4908600846006840F452
:100BD000007008600846006840F00100086014607A
:100BE00000F01EF805460448006820F001000249A4
:100BF0000860284630BD0000103C024005480068EF
:100C000000F0004028B1044802490C39086003484C
:100C100008607047103C024023016745AB89EFCD67
:100C200008B509200090FFF78DFF009002E0FFF764
:100C300089FF00909DF800000128F8D09DF8000081
:100C400008BD00001CB50121084600F021FA012072
:100C50008DF8040000208DF8060003208DF80500B3
:100C600002208DF80700102000906946034800F02C
:100C700007F81021014800F06EF81CBD000002408A
:100C8000F0B50A4600210023002400BF3DE0012505
:100C900005FA01F3156805EA03049C4234D105689E
:100CA0004F000326BE40B543056015794E00B540A0
:100CB0000668354305601579012D02D01579022D9E
:100CC00016D185684F000326BE40B543856055792F
:100CD0004E00B540866835438560456801268E40E4
:100CE000B5434560456896798E40B6B23543456058
:100CF000C5684F000326BE40B543C560D5794E0098
:100D0000B540C6683543C560491C1029BFD3F0BD46
:100D1000F0B5002300244D07ED0E02FA05F3CE10C6
:100D200000F1200555F826504E07F70E0F26BE405D
:100D3000B543CF1000F1200646F82750CE1000F141
:100D4000200555F8265045EA0304CE1000F1200591
:100D500045F82640F0BD41837047014648698068E8
:100D600080B2704708B50146D1F8CC000068009009
:100D70000098C0F3414008BD024602F29B30405C3F
:100D80007047024602F5547050F82100704770B564
:100D900004460E4600250021C4F8101300BF0BE0E6
:100DA000002104F5457040F825103C3040F825102E
:100DB0003C304155681CC5B20F2DF1DB0821A4F869
:100DC000B2133146204603F0B5F9204602F0BCFDCF
:100DD000204602F083FC0121204603F013FA20464E
:100DE00002F00FFD204602F008FE002070BD014613
:100DF000D1F81003704710B50446204603F079F986
:100E0000002010BD70B504460D46002104F29B3051
:100E10004155113000EB451041612946204603F051
:100E200017F870BD10B504462146094800F099FD39
:100E300000BF8021064800F0C9FC0028F9D000BF9F
:100E40004021034800F0C2FC0028F9D010BD00008A
:100E50000010014000B587B00121084600F018F9E4
:100E60000121102000F044F9254800F037FC07224A
:100E700009212448FFF74CFF07220A212148FFF7E8
:100E800047FF4FF4C060049002208DF814008DF8E5
:100E9000150000208DF8160001208DF8170004A918
:100EA0001848FFF7EDFE4FF4E13000900020ADF858
:100EB0000400ADF80600ADF80800ADF80C000C20F9
:100EC000ADF80A0069460E4800F0DCFC01210C4830
:100ED00000F0F8FB012240F22551094800F0ADFC7A
:100EE00025208DF8180000208DF8190001208DF8BC
:100EF0001A008DF81B0006A800F010F807B000BD1E
:100F0000001001400000024000BE71B600F056F82B
:100F100000BE71B600F052F87047000070B50021B5
:100F200000230F22C4781CB3174C246804F4E06437
:100F3000C4F5E064C4F30721C1F10404E3B20A413B
:100F400044789C40E1B28478144021430C07210E80
:100F50000E4C05786155047804F01F050124AC405F
:100F600005786D11AD0005F1E025C5F8004109E0F7
:100F7000047804F01F050124AC40054D0678761175
:100F800045F8264070BD00000CED00E000E400E0F4
:100F900080E100E002490143024A1160704700000D
:100FA0000000FA050CED00E0024A0A400243024B41
:100FB0001A60704780FFFF1F08ED00E0BFF34F8FFE
:100FC0000648006800F4E06005490843001D034935
:100FD0000860BFF34F8F00BFFEE700000CED00E09C
:100FE0000000FA0510B50A4B1B7898420ED1094B48
:100FF0001B78994203D10123074C237006E0074B6D
:101000001B78994202D10223034C237010BD0000CB
:10101000BA000020BC0000205D000020BD000020C0
:10102000034908800988042900D000BF70470000E8
:10103000B600002010B5024801F0B4FF10BD00005A
:10104000940100202DE9F04704468A466578A67889
:10105000E7792079E17840EA0128A079617940EACE
:101060000129B12D10D1012E03D14046FFF7D8FF41
:1010700009E0102F05D1627A49464046FFF7B2FFDA
:1010800000BF00BF00BF00E000BF00BFBDE8F087A9
:1010900029B1064A12680243044B1A6004E0034A6D
:1010A00012688243014B1A607047000030380240DA
:1010B00029B1064A12680243044B1A6004E0034A4D
:1010C00012688243014B1A607047000034380240B6
:1010D00029B1064A12680243044B1A6004E0034A2D
:1010E00012688243014B1A607047000020380240AA
:1010F00029B1064A12680243044B1A6004E0034A0D
:1011000012688243014B1A60704700004438024065
:1011100029B1064A12680243044B1A6004E0034AEC
:1011200012688243014B1A60704700002438024065
:10113000F0B5002100220024022500260223324FB0
:101140003F6807F00C0121B1042905D0082937D1E7
:1011500005E02E4F076036E02D4F076033E02A4F41
:101160003F1F3F68C7F38056274F3F1F3F6807F078
:101170003F036EB1264FB7FBF3F7DFF88CC0ACF13D
:10118000040CDCF800C0CCF3881C07FB0CF40CE06A
:101190001E4FB7FBF3F7DFF870C0ACF1040CDCF8BE
:1011A00000C0CCF3881C07FB0CF4174F3F1F3F68AF
:1011B000C7F301477F1C7D00B4FBF5F7076002E031
:1011C000124F076000BF00BF0F4F3F6807F0F001EC
:1011D0000909104F7A5C0768D74047600A4F3F689B
:1011E00007F4E051890A0B4F7A5C4768D740876063
:1011F000054F3F6807F46041490B064F7A5C47682A
:10120000D740C760F0BD0000083802400024F40059
:1012100000127A00DC00002070B505460DB90120EF
:1012200070BD002409E0052005F052FB601D84B26A
:1012300040F6B830844200DD03E008480078A52875
:10124000F1D100BF05480078A52803D140F6B83099
:10125000844201DB0020E3E70120E1E7B800002041
:1012600010B5EE20FFF7DEFDF320FFF7DBFDFF20DA
:10127000FFF7D8FDFC20FFF7D5FDFF20FFF7D2FDDB
:10128000FF20FFF7CFFD10BD01461C48814201D26F
:10129000002070471A48814201D20820F9E7194816
:1012A000814201D21020F4E71748814201D2182070
:1012B000EFE71648814201D22020EAE71448814234
:1012C00001D22820E5E71348814201D23020E0E72F
:1012D0001148814201D23820DBE71048814201D217
:1012E0004020D6E70E48814201D24820D1E70D4880
:1012F000814201D25020CCE75820CAE700400008C4
:101300000080000800C0000800000108000002087A
:1013100000000408000006080000080800000A0891
:1013200000000C0800000E08014608687047000025
:101330002DE9F04704460E4617464FF009080025F0
:10134000A946B4F1006F02D304F0030008B1BDE870
:10135000F087FFF753FC0020FFF79EFB254604EBC8
:1013600087091848854215D211E02846FFF7DCFFAF
:10137000401C58B12846FFF787FF82460221FFF73D
:101380009DFB8046B8F1090F01D002E02D1D4D45AF
:10139000EBD300BFB8F1090F0CD108E0204631684B
:1013A000FFF704FC092800D003E0241D361D4C453E
:1013B000F4D300BF0120FFF76FFBFFF7EDFB00BF89
:1013C000C5E700000000FF1F70B505460E46144635
:1013D0000020054908703146284600F007F82046ED
:1013E000FFF71AFF70BD0000B800002070B5054679
:1013F0000E46002404E0285DFFF714FD601C84B253
:10140000B442F8DB70BD70B505460E461446EE20BA
:10141000FFF708FDB120FFF705FD1020FFF702FDE3
:10142000280AFFF7FFFCE8B2FFF7FCFC300AFFF7E1
:10143000F9FCF0B2FFF7F6FC200EFFF7F3FCC4F363
:101440000740FFF7EFFCC4F30720FFF7EBFCE0B227
:10145000FFF7E8FCFF20FFF7E5FCFC20FFF7E2FCCC
:10146000FF20FFF7DFFCFF20FFF7DCFC70BD10B5AD
:101470000446EE20FFF7D6FCB120FFF7D3FC002096
:10148000FFF7D0FC200AFFF7CDFCE0B2FFF7CAFC63
:10149000FF20FFF7C7FCFC20FFF7C4FCFF20FFF78D
:1014A000C1FCFF20FFF7BEFC10BD00000CB5002002
:1014B000019000903448006840F480303249086060
:1014C00000BF3148006800F4003000900198401CD3
:1014D0000190009818B90198B0F5A04FF1D12A48B1
:1014E000006800F4003010B10120009001E00020FD
:1014F00000900098012846D123484030006840F011
:1015000080502149403108602048006840F4404044
:101510001E4908601C48083000681B4908310860F3
:101520000846006840F4004008600846006840F43F
:10153000A05008601648091F0860081F006840F0A6
:101540008070091F086000BF0F48006800F000703D
:101550000028F9D040F205700E4908600A480830AA
:10156000006820F003000849083108600846006858
:1015700040F00200086000BF03480830006800F037
:101580000C000828F8D10CBD003802400070004063
:1015900008544007003C0240042808D14FF0E021E5
:1015A000096941F004014FF0E022116107E04FF0BA
:1015B000E021096921F004014FF0E0221161704738
:1015C00010B51548006840F47000134908601348CE
:1015D000006840F001001149086000200F490831FF
:1015E00008600E4800680E4908400C4908600D4824
:1015F000091D0860081F006820F48020091F08608A
:10160000002006490C310860FFF750FF4FF00060E2
:1016100001498039086010BD88ED00E000380240C3
:10162000FFFFF6FE1030002410B50121184800F02D
:10163000CDF818B10121164800F02CF80821144803
:1016400000F0C4F818B10821114800F023F8022175
:101650000F4800F0BBF818B102210D4800F01AF84D
:1016600040F225510A4800F0BEF880B1084800F069
:1016700073F9C4B2204606F043FE2021044800F06E
:1016800009F840F22551024800F00DF800BF10BDE6
:101690000010014001F40072B2F5007F00D100BFDC
:1016A000CA430280704710B50022002340F66A1436
:1016B000A14200D100BF0A1201249440A3B2DC432E
:1016C000048010BD21B1828942F40052828104E07D
:1016D00082894DF6FF731A408281704710B5044627
:1016E0003248844208D101211020FFF711FD00216A
:1016F0001020FFF70DFD57E02D48844209D101214C
:101700004804FFF7E5FC00214FF40030FFF7E0FC50
:101710004AE02848844209D101218804FFF7D8FC17
:1017200000214FF48020FFF7D3FC3DE022488442A3
:1017300009D10121C804FFF7CBFC00214FF40020A0
:10174000FFF7C6FC30E01D48844209D1012108059D
:10175000FFF7BEFC00214FF48010FFF7B9FC23E037
:101760001748844208D101212020FFF7D1FC002135
:101770002020FFF7CDFC17E01248844209D1012157
:101780008807FFF7A5FC00214FF08040FFF7A0FC81
:101790000AE00D48844207D101214005FFF798FC7B
:1017A00000216005FFF794FC10BD0000001001400F
:1017B0000044004000480040004C00400050004001
:1017C0000014014000780040007C004002460020E8
:1017D000B1F5007F00D100BF13880B400BB1012091
:1017E00000E00020704770B5024600240023002569
:1017F000002040F66A16B14200D100BFC1F3421585
:1018000001F01F03012606FA03F3012D02D1968988
:10181000334006E0022D02D1168A334001E0968A59
:1018200033400C12012606FA04F41688344013B132
:101830000CB1012000E0002070BDF0B5034600248B
:1018400000260025002040F66A17B94200D100BFEB
:101850001846C1F3421401F01F06012707FA06F5E6
:10186000012C01D10C3004E0022C01D1103000E039
:1018700014301AB107682F43076002E00768AF43CE
:101880000760F0BD2DE9FF4705460E460024A1463E
:1018900000BFA046B08900B100BF2C8A24F4405498
:1018A000F08804432C82AC8941F20C608443B088F8
:1018B00031890843718908430443AC81AC8A24F41C
:1018C0004074B0890443AC826846FFF731FC20487D
:1018D000854202D01F48854202D1DDF80C9001E01C
:1018E000DDF80890A88900F4004040B109EBC90078
:1018F00000EB091031684900B0FBF1F707E009EB94
:10190000C90000EB091031688900B0FBF1F76420D1
:10191000B7FBF0F004012009642101FB1078A889CD
:1019200000F4004040B1322000EBC800B0FBF1F001
:1019300000F00700044308E0322000EB08106421A7
:10194000B0FBF1F000F00F0004432C81BDE8FF87ED
:10195000001001400014014001468888C0F30800CF
:101960007047C1F308028280704770B505460E4685
:10197000284600F0BEF904464FF6FF70844205D0B9
:1019800046F4004105F28C5020F81410E0B270BD0E
:101990002DE9F04105460E4617461C46012105F586
:1019A0006B7000EB4410817005F56B7000EB441018
:1019B000C66005F56B7000EB4410076105F56B70B0
:1019C00000EB4410007E30B9002105F56B7000EB90
:1019D0004410017205E0022105F56B7000EB441024
:1019E000017221462846FFF70DFA0020BDE8F0817C
:1019F0002DE9F04105460E4617461C46002105F527
:101A00006B7000EB4410817005F56B7000EB4410B7
:101A1000C66005F56B7000EB4410076105F56B704F
:101A200000EB4410407E28B905F56B7000EB4410C4
:101A3000017205E0022105F56B7000EB44100172A4
:101A400021462846FFF7DEF90020BDE8F0812DE9A8
:101A5000F04105460C4616461F460221217501211C
:101A600061750021E1822683618306F08000802871
:101A700005D105F56B7000EB4710017605E00021FC
:101A800005F56B7000EB4710417600231A4621469E
:101A9000284600F02BF8BDE8F08101460122C1F88C
:101AA0001023002070472DE9F04105460E461746E9
:101AB0001C46012105F56B7000EB4410817002217A
:101AC00005F56B7000EB4410017205F56B7000EBCF
:101AD0004410C66005F56B7000EB441007612146A9
:101AE0002846FFF78FF90020BDE8F0812DE9F0418D
:101AF00080460C4615461E460127E078012802D094
:101B0000022820D108E032462946204601F0D9FCBF
:101B10000220E070012717E0207F0D2805D1012069
:101B2000E0700021217700270CE0207F0B2803D1F3
:101B30000120E070022705E0207F0C2802D101205F
:101B4000E070032700E000BF00BF3846BDE8F08129
:101B50002DE9F04105460F4616461C46002105F5C5
:101B60006B7000EB4410817005F56B7000EB441056
:101B7000C76005F56B7000EB441006612EB90121BA
:101B800005F56B7000EB4410417605F56B7000EBCA
:101B90004410407E30B9002105F56B7000EB441015
:101BA000017205E0022105F56B7000EB4410017233
:101BB00021462846FFF726F90020BDE8F08170B5E0
:101BC00005460E461446002105F56B7000EB4410E7
:101BD0008170032105F56B7000EB4410017205F56F
:101BE0006B7000EB4410C660082105F56B7000EBCC
:101BF0004410016121462846FFF704F9C0B270BDC8
:101C00000246022106E0002302F28C5020F8113037
:101C1000481CC1B20829F6DB0020704770B50546A4
:101C20000C46002020706070A0700120E07001213F
:101C300021774021A171002084F82000012121207A
:101C400001552179284600F023F86179284600F0F3
:101C50001FF8002070BD01460022C1F810230020AB
:101C6000704770B504460D46052D01D0042D06D1F0
:101C7000D4F88010486C80470A20207007E0062DB9
:101C800005D10A202070D4F880100868804770BD04
:101C90000246082909DA02F28C5030F81100C0F32C
:101CA0000E0302F28C5020F81130002070472DE90D
:101CB000F04780460C4616461D46DDE9089746F07B
:101CC0008001217506216175E58205F47F40B0F53C
:101CD000407F03D140F20941218301E000212183AB
:101CE00067833B464A4621464046FFF7FFFEBDE874
:101CF000F0870246002100BF0AE002F28C5030F863
:101D0000110000F4004008B908467047481CC1B2F1
:101D10000829F2DB4FF6FF70F7E710B502460B8893
:101D2000147823440B801378981810BD2DE9FC41DA
:101D300004460D461646002704F588704FF40073DC
:101D400000222946CDE900062046FFF7B0FFB0F19A
:101D5000000814D106E004F58870C05D0949C85533
:101D6000781C87B2B742F6DB04F5887305F15002A0
:101D700005F13E0105F13400009601F0B5F9404649
:101D8000BDE8FC81400F00202DE9FC4104460D46D2
:101D9000164604F588704FF4807300222946CDE979
:101DA00000062046FFF783FF071E06D1324604F5E2
:101DB000887105F1220001F025FA3846BDE8FC8162
:101DC0002DE9FC470446884615461E460A9F04F541
:101DD000887045F4407300224146CDE90007204653
:101DE000FFF765FFB0F1000905D13A46314604F529
:101DF000887001F056FA4846BDE8FC872DE9F041AD
:101E000006460C464FF0000800250021A174207FF3
:101E10000C2876D2DFE800F0FD060F3D466576918E
:101E20009AC0D7ED627904F114013046FFF7C7FE7E
:101E300002212177EEE061793046FEF79DFF0546ED
:101E4000012D1FD1207D00F08007608B58B141F239
:101E5000883072490880802F02D1032121770CE05D
:101E60000521217709E032206C490880802F02D1BA
:101E70000921217701E0072121773046FEF76DFF28
:101E8000208205E0032D03D10B2121770521A174C8
:101E9000C0E02379A2893046A168FFF704FE04213F
:101EA0002177B7E021793046FEF766FF0546012D20
:101EB00001D109212177042D02D1607820700FE033
:101EC000032D02D10B2121770AE03046FEF745FFB2
:101ED000218A401A51490988884201D90B2121776A
:101EE00098E00121627906F56B7000EB42104176B3
:101EF0006379A2893046A168FFF72AFE062121777F
:101F000088E086E061793046FEF736FF0546012D10
:101F100002D1072121770FE0042D04D160782070D1
:101F20000C21217708E0022D02D10521217703E061
:101F3000032D01D10B2121776CE02379002211467A
:101F40003046FFF7B0FD0821217763E02179304664
:101F5000FEF712FF0546012D04D1607820700D2197
:101F6000217718E0032D02D10B21217713E03046B1
:101F7000FEF7F3FE218A401A28490988884202D9CF
:101F80000B21217707E0042D05D160782070042112
:101F9000A1744FF003083DE0617906F56B7000EB2A
:101FA0004110407E80F00101627906F56B7000EB14
:101FB000421041766379002211463046FFF7C8FD92
:101FC0000A21217726E061793046FEF7D5FE0546E5
:101FD000012D04D1607820700D21217708E0022DB9
:101FE00002D10921217703E0032D01D10B212177B3
:101FF00010E0A07B401CC1B2A173022902DC0121C8
:10200000217705E00821A174607820704FF0020864
:1020100000E000BF00BF4046BDE8F0811C0000208A
:1020200070B592B005460C460126A0780A287AD2EF
:10203000DFE800F00528375D667A97B4D1DB082227
:1020400021462846FFF7A0FED8B994F82910A171BF
:102050002846FEF7D0FE0120A070A0790021CDE92E
:102060000010617900231A46284600F069FFA07924
:102070000021CDE90010217900231A46284600F0FE
:102080005FFFB5E0122221462846FFF77DFE38B9F2
:10209000D4F88000C16904F1220088470220A070B2
:1020A000A6E001222146284601F0E5F9F0B9022018
:1020B00001F008FB0120A41CA077D4F87E10086A68
:1020C000804703202070002000900190A27FA1781B
:1020D0000346284600F034FF002000900190A27FC4
:1020E000A41E61790346284600F02AFF80E00922F9
:1020F00021462846FFF71AFE08B90420A07077E0B1
:10210000E28E21462846FFF711FE58B9D4F8800028
:1021100004F1500204F13E01436A04F1340098478F
:102120000520A07064E062E094F8300088B1FF20E0
:10213000009094F8302002AB21462846FFF740FE7D
:1021400070B9D4F88000816A02A888470620A07080
:1021500006E0D4F88000816A27A088470620A07096
:1021600046E094F8310088B1FF20009094F83120C7
:1021700002AB21462846FFF723FE70B9D4F8800051
:10218000C16A02A888470720A07006E0D4F8800042
:10219000C16A19A088470720A07029E094F832008E
:1021A00088B1FF20009094F8322002AB21462846E7
:1021B000FFF706FE70B9D4F88000016B02A88847CB
:1021C0000820A07006E0D4F88000016B0AA08847C0
:1021D0000820A0700CE094F839202146284601F030
:1021E0005DF908B90920A07002E0002600E000BFF8
:1021F00000BF304612B070BD4E2F41002DE9F041B6
:1022000006460F4614461D46DDF81880304601F09C
:102210002FFA002001F018FA21463046FFF7FEFCA5
:10222000E567C4F8808039463046FEF7B0FDD4F843
:10223000801008688047304601F008FABDE8F08158
:1022400070B505460C4621212175FF2161750021DD
:10225000E1822183618300231A4621462846FFF745
:1022600045FC70BD2DE9F04105460E461446012798
:1022700014B1012C12D108E010480378C27831461D
:102280002846FFF7E4FB074609E00C4843788278CC
:1022900031462846FFF7DBFB074600E000BF00BFE2
:1022A00007480068401C0649086008460068042882
:1022B00000D904273846BDE8F081000080110020D5
:1022C0002400002010B5024600200023014C23709A
:1022D00010BD0000701100202DE9F04105460F46A9
:1022E000002601242846FEF782FD20B31548017818
:1022F0002846FEF746FD06460D2E01D002241CE0BE
:10230000114800681149884216D10F4840681049A9
:102310004968884211D10C48007B08B900240CE0C0
:102320000948007B012801D1012406E00648007B12
:10233000022802D1022400E002240648C473204689
:10234000BDE8F081801100206011002055534253F8
:102350004011002070110020012812D10D49097888
:10236000491C0C4A1170114609780A2905DA062120
:10237000094A11700121D1700AE00A21064A117040
:1023800006E0022803D10A21034A117000E000BFD1
:1023900070470000400000207011002070B5054615
:1023A0000C46A1212175FE2161750021E182218366
:1023B000012161830123034A21462846FFF796FB4A
:1023C00070BD0000881100202DE9F04781460F46BE
:1023D0003E46012403254FF000084846FEF707FD5E
:1023E000002878D05E4800780B2875D2DFE800F02E
:1023F000060D1E5566798A999E44B000484600F045
:102400005FFA012056490870A5E039464846FFF7B3
:1024100017FF044614B9022051490870032C04D157
:1024200002204F4948700920087094E03946484618
:10243000FFF7B4FF0446BCB94A48007A494981F81D
:102440004800084690F8480000280ADD4648007811
:1024500038B9012044490870D6F88010086C8047CC
:1024600079E003203E490870032C04D103203C4945
:102470004870092008706EE073790022394648469A
:10248000FFF7E5FA04463CB90020364981F84800D8
:1024900033484078324908705DE0484600F086FCD9
:1024A00005463DB904202E49087000202F490870C8
:1024B000002402E02846FFF74FFF4CE0484600F0BA
:1024C00097FB05464DB9052025490870002027498E
:1024D0000870002404E03FE03CE02846FFF73CFFA2
:1024E00039E0484600F09CFA05463DB908201C49F1
:1024F000087000201D490870002402E02846FFF7FC
:102500002BFF28E0484600F0E1FB05462DB91448B2
:10251000407813490870002402E02846FFF71CFFAA
:1025200019E03946484600F023F814E0D6F8801048
:10253000C86B804700F0FF08B8F1000F03D10820F6
:102540000749087003E0B8F1010F00D1062402E04A
:10255000042400E000BF00BF2046BDE8F087000073
:102560007011002080110020540000204000002045
:102570002DE9F0478046894600244046FEF737FCA7
:1025800000287DD0C548007909287AD2DFE800F01C
:1025900079051251A3FDFCFBFA00C14843781F22C4
:1025A000C0494046FFF724FA0120BC494871022087
:1025B000087170E1BA4841784046FEF7DDFB0446F9
:1025C000012C26D10020B84908600220B349487187
:1025D000B448007B00F08007B2488068A8B1B148D9
:1025E0008068B2490860AD488068B1490860084613
:1025F0000068B0490860802F03D10320A749087103
:1026000016E00420A549087112E00520A3490871CD
:102610000EE0022C04D1A1484079A049087107E0DE
:10262000042C05D10120A449087008209B49087199
:1026300031E19B4801784046FEF79EFB0446012CA1
:1026400003D09648407903283AD000209649086084
:1026500003209249487192488088944909688842C9
:1026600019D28F4803788288914801684046FFF765
:102670008FF98B4880888D490968081A8B4901E0D9
:102680000AE107E1086086488088894909680844AA
:10269000874908601EE08548006818B905207F4911
:1026A000087117E07E4803788048008882B280482D
:1026B00001684046FFF76CF900207C49086009E09A
:1026C000042C07D100207C49087007207349087149
:1026D00005204871DFE0724841784046FEF74CFB28
:1026E0000446012C3BD100206F49086004206B494F
:1026F00048716B48C0886D49096888421AD2684899
:102700004378C2886A4801684046FFF771F9684813
:102710000068684908606248C088654909680844DB
:10272000634908605E48C08860490968081A5F49C3
:10273000086042E05D48006818B9052057490871F3
:102740003BE0574843785948008882B258480168AE
:102750004046FFF74DF90020544908602DE0022C57
:1027600021D15348006853490968884212D04C4827
:102770004378C288C088DFF838C1DCF800C0ACEB11
:10278000000103E074E059E037E017E04046FFF74E
:102790002FF912E042484378C28845480168404614
:1027A000FFF726F909E0042C07D1012042490870FF
:1027B00008203A490871052048716CE00520374926
:1027C00048713E4888603F2088810D2604E0002043
:1027D0003A498855701EC6B2002EF8D100203749FC
:1027E00008702F4803782D483F2281684046FFF744
:1027F000CFF80620294908714DE029480178404664
:10280000FEF7BAFA0446012C0FD1002026490860D1
:10281000052022494871084680780870494640469C
:10282000FFF75AFD1D49C87307E0042C05D10020AD
:10283000214908700720194908712CE000224946F7
:102840004046FFF70FFD054665B91B480078022892
:1028500003D108201149087109E0104840790F4957
:10286000087104E0042D02D102200C49C87312E063
:10287000012249464046FFF7F5FC054625B90748C1
:1028800040790649087104E0042D02D10220034971
:10289000C87300E000BF00BFBDE8F08770110020E2
:1028A000801100204011002024000020280000207A
:1028B0002C00002030000020340000206011002097
:1028C00010B504462046FEF792FA48B10748084979
:1028D0000860084848600020487301200649C87015
:1028E0000020064908600649087010BD5553424350
:1028F00040110020504030207011002024000020A2
:102900004000002070B504460D461048407860B184
:102910000E484178204601F03EF90C4841782046A7
:10292000FFF7B6F90020094948700848007860B1FF
:1029300006480178204601F02EF904480178204627
:10294000FFF7A6F900200149087070BD8011002032
:102950007CB506460D462C4694F84300082856D10F
:1029600094F84500502852D194F8520000F08000AD
:1029700038B194F852002949C870B4F854008880DE
:1029800006E094F8520025498870B4F85400C880D5
:1029900094F85A0000F0800038B194F85A001F49AA
:1029A000C870B4F85C00888006E094F85A001B49AF
:1029B0008870B4F85C00C880184881783046FEF70B
:1029C000D4FF164948700846C1783046FEF7CDFF5F
:1029D000124908700846C0880221CDE90010212064
:1029E000035D94F820200D484178304600F02EFB1E
:1029F0000A4880880221CDE900102120035D94F867
:102A0000202006480178304600F020FB03E0D4F88F
:102A10008010086C804700207CBD000080110020E1
:102A200070B5054603262846FEF7E1F9002855D083
:102A30002B48C078012802D002284DD127E03F2042
:102A400028498860802008730A2088732648244912
:102A5000886005208870102405E0002121480F308F
:102A60000155601EC4B2002CF7D11A201D49C8734D
:102A70003F211C484174C174012019490871072085
:102A800008700320C8730220C870032625E014488C
:102A9000C07B80B91448807800F0800018B1012014
:102AA0001249087302E000201049087301200C4904
:102AB000C87000260FE00A48C07B012803D10849EE
:102AC000C870012607E00648C07B022803D1012018
:102AD0000349C870022600E000BF00BF304670BD49
:102AE0007011002040110020DC110020CC110020CA
:102AF000FFB581B007460E461D46032039490870D0
:102B00003846FEF774F9002867D03748C0780128A6
:102B100002D002285FD139E03448856080203349F3
:102B200008730A20887330488660102405E000216D
:102B30002E480F300155601EC4B2002CF7D128205A
:102B40002A49C8739DF80F10284841749DF80E104B
:102B500081749DF80D10C1749DF80C100175C5F3BA
:102B60004F2000909DF80110204881759DF80010BD
:102B7000C17501201C490871072008700320C87323
:102B80000220C87003201749087025E01648C07B52
:102B900050B93846FEF72BF930B101201249C87000
:102BA00000201049087015E00F48C07B012807D1AC
:102BB0003846FEF71CF918B101200B49C87009E02E
:102BC0000948C07B022805D101200749C8700220AE
:102BD0000449087000E000BF00BF0248007805B05B
:102BE000F0BD0000550000207011002040110020B1
:102BF00070B5054603262846FEF7F9F800285AD096
:102C00002E48C078012802D0022852D123E00820A3
:102C10002B498860802008730A2088732948274937
:102C2000886004208870102405E0002124480F30BB
:102C30000155601EC4B2002CF7D125202049C8736D
:102C400001201E490871072008700320C873022064
:102C5000C87003262EE01948C07BC8B9194800780F
:102C60001949C870174840788870164880784870AD
:102C70001448C0780870134881791348417211488C
:102C8000C0791149087201200C49C87000260FE074
:102C90000A48C07B012803D10849C870012607E013
:102CA0000648C07B022803D101200449C8700226CF
:102CB00000E000BF00BF304670BD00007011002072
:102CC00040110020DC110020CC11002070B5054619
:102CD00003262846FEF78BF800285DD02F48C078E1
:102CE000012802D0022855D12BE03F202C498860D2
:102CF000802008730A2088732A482849886008467B
:102D00008078487006208870102405E0002124484F
:102D10000F300155601EC4B2002CF7D103202049AA
:102D2000C87300211E4801743F21C17401201B4952
:102D30000871072008700320C8730220C87003269A
:102D400029E01648C07BA0B9164801781648C17121
:102D500014484178144881711248817812484171B1
:102D60001048C0781049087101200C49C87000262D
:102D70000FE00A48C07B012803D10849C87001262A
:102D800007E00648C07B022803D101200349C87030
:102D9000022600E000BF00BF304670BD7011002069
:102DA00040110020DC110020CC11002070B5054638
:102DB00003262846FEF71BF8002846D02448C07892
:102DC000012802D002283ED124E000202149886059
:102DD00008730620887320481D4988603F20888139
:102DE00003208870102405E000211A480F30015597
:102DF000601EC4B2002CF7D100201649C873012010
:102E000013490871072008700320C8730220C87096
:102E1000032619E00E48C07B20B901200C49C87078
:102E200000260FE00A48C07B012803D10849C8707A
:102E3000012607E00648C07B022803D1012004498F
:102E4000C870022600E000BF00BF304670BD000021
:102E50007011002040110020601100202DE9FF4179
:102E600082B007460E461D464FF003083846FDF770
:102E7000BEFF00285BD03048C078012802D002286D
:102E800053D138E02D48856000202C4908730A2072
:102E9000887329488660102405E0002127480F30F8
:102EA0000155601EC4B2002CF7D12A202349C873F3
:102EB0009DF81310214841749DF8121081749DF8FB
:102EC0001110C1749DF810100175C5F34F200190C9
:102ED0009DF80510194881759DF80410C1750120F1
:102EE00015490871072008700320C8730220C870B4
:102EF0004FF003081AE01048C07B28B901200E49A2
:102F0000C8704FF000080FE00B48C07B012802D1C9
:102F10000949C87008E00848C07B022804D1012094
:102F20000549C8704FF0020800E000BF00BF4046EE
:102F300006B0BDE8F08100007011002040110020B3
:102F40002DE9F04704460D4617461E46DDE9089870
:102F500027B104F56B7000EB4510077004F56B703A
:102F600000EB4510C088404508D0B8F1000F05D0EF
:102F700004F56B7000EB4510A0F8068004F56B704B
:102F800000EB4510C078B04205D026B104F56B7057
:102F900000EB4510C6702946204600F03DFE00209B
:102FA000BDE8F08738B5054600240020009028468B
:102FB00001F05DF8002847D0284601F062F8009043
:102FC000009808B9002038BD0098C0F3C00018B1BF
:102FD000284602F011F804430098C0F3001018B11D
:102FE000284601F056FF04430098C0F3401018B182
:102FF000284601F090FD04430098C0F3806018B1AA
:10300000284601F0AFFE04430098C0F3406018B1B9
:10301000284601F058F904430098C0F3006018B145
:10302000284601F00FFE04430098C0F3407018B129
:10303000284601F00FF904430098C0F3405018B13E
:10304000284601F01DF904432046BCE72DE9F0476E
:1030500004460D4617461E46DDE9088904F28C50E9
:1030600010F8150000F07F0104F56B7000EB4510BF
:10307000417004F28C5010F81500C0F3C01104F533
:103080006B7000EB4510817004F56B7000EB451020
:10309000077004F56B7000EB451080F8058004F5AF
:1030A0006B7000EB4510A0F8069004F56B7000EB18
:1030B0004510C670002104F56B7000EB45100176D9
:1030C00004F56B7000EB451041762EB9012104F533
:1030D0006B7000EB451001712946204600F09CFD05
:1030E0000020BDE8F08700002DE9F04F85B00646CE
:1030F000894692461D462C460027B84600BF2878D0
:10310000307068787070A978E87801EB00207080E2
:103110002879307168797071A879B071E879F071A7
:10312000287A30720E98092864DD092000903079E1
:1031300002285ADCBB4653E069462046FEF7EDFD07
:103140000446607804284BD1A07847B207EBC7004B
:1031500000EB090BE078032842DA214602A800F0D0
:103160008DF84FF000089DF80C00022838DC32E0A2
:1031700069462046FEF7D1FD0446607805282AD12D
:103180000AEB071000EBC80001901C480078B84219
:1031900006D01A490F7002A9584600F06FF80CE0EB
:1031A0002179607901EB002015490988884200DA0D
:1031B00015E002A9584600F061F82146019800F098
:1031C0004DF82179607901EB00200D49088008F164
:1031D00001004FFA80F89DF80C004045C8DC00BFA4
:1031E0007088BDF800108842A6DC002004490880E1
:1031F0000249087005B0BDE8F08F000020000020F3
:103200001E00002010B50B7803704B7843708C784B
:10321000CB7804EB032343800B7903714B79437123
:103220008B798371CB79C371082A16DD0C7A4B7ABE
:1032300004EB032303818C7ACB7A04EB03234381D1
:103240000C7B4B7B04EB032383818B7B8373CB7BD6
:10325000C3730B7C03744B7C437410BD0A780270FB
:103260004A7842708A788270CA78C2700B794A793B
:1032700003EB022282808A79827170470A78027099
:103280004A7842708A788270CA78C2700A7902716C
:103290004A7942718A798271CA79C2710A7A027254
:1032A000704730B513464578032D14D10578AD1E0F
:1032B0009D4202DC0578AD1E00E01D46ACB2801CCC
:1032C000002204E0855C0D70491C951CAAB2A24244
:1032D000F8DB00250D7030BD3EB505460C460220DA
:1032E00002902846FDF783FD30B9207820B1207880
:1032F000022801D00220207020780B2875D2DFE848
:1033000000F006109CB44D687B87598C8D002846D0
:10331000FDF76DFD20B101202070642000F0D2F98E
:10332000A4E0D4F880108868804700212846FEF782
:103330001CFB607180212846FEF717FB2071284690
:10334000FDF759FD48BBD4F88010C868804728466F
:10335000FDF708FDC1B22120015504202070212273
:10336000105DD4F8802091698847A0790021CDE9CB
:1033700000102120035D94F8202021792846FFF7D2
:1033800065FEA0790021CDE900102120035D94F8AD
:10339000202061792846FFF759FE67E0214628463C
:1033A000FEF73EFE28B9D4F88010486B804708200D
:1033B00020705BE0D4F88010886B8047012807D12B
:1033C000E06F214602682846904708B90520207022
:1033D0004CE0E06F214682682846904702909DF8B5
:1033E000080018B90620207005E03EE09DF808109E
:1033F0002046FEF736FC39E0E06F2146C2682846D9
:10340000904702909DF808102046FEF72AFC2DE018
:1034100021462846FEF7F2FC28E027E02146284610
:10342000FEF7FCFBD4F8801048688047E06F04F199
:10343000200142682846904718E0D4F880100869B7
:10344000804721462846FEF7E9FBD4F880104868FB
:103450008047E06F04F120014268284690472846E3
:10346000FEF7CEFB0020207000E000BF00BF3EBD95
:1034700001460020704770B506460C4615460021EF
:10348000217505216175E582002121836183002377
:103490001A4621463046FEF729FB70BD70B5064638
:1034A0000C4615460021217509216175E582002130
:1034B0002183618300231A4621463046FEF716FB1E
:1034C00070BD10B5034618785870072018709960C1
:1034D0009A8101241C77002010BD00002DE9F041E5
:1034E00005460E46174601241148FDF780FCC0B181
:1034F00010480078012814D100BF7B0232462946CB
:103500000B48FFF7F5FA04460B490948FFF730F876
:103510000748FDF76CFC08B9012401E0032CECD04E
:1035200000E0012404B900242046BDE8F081000039
:10353000940100205C0000201001002010B502481A
:10354000FDF755FCC0B210BD940100202DE9F041FB
:1035500005460E46174601241148FDF748FCC0B148
:1035600010480078012814D100BF7B02324629465A
:103570000B48FFF773FC04460B490948FEF7F8FFB8
:103580000748FDF734FC08B9012401E0032CECD016
:1035900000E0012404B900242046BDE8F0810000C9
:1035A000940100205C0000201001002010B50346AB
:1035B00008464479082C00D000BF10BD0020014906
:1035C000087070475C000020704770477047704774
:1035D00010B1012800D000BF7047704710B502A09D
:1035E00002F072FA10BD0000C9E8B1B8C3B6BED986
:1035F000CDEAB3C9210D0A0D0A0000007047000092
:1036000010B500240B48007810B101280DD103E05B
:1036100001200849087009E001F024FD0446002457
:1036200014B100200349087000E000BF00BF20462D
:1036300010BD00005C000020704770477047704765
:1036400070477047012070477047704738B504468F
:1036500043208DF8000000208DF8010003208DF834
:10366000020001208DF803006846FDF757FC38BDC5
:103670001CB5044601210846FDF70AFD0121802002
:10368000FDF716FD4FF4C050009002208DF80400A5
:1036900000208DF8060003208DF8050000208DF82D
:1036A000070069460648FDF7EBFA0A220B21044899
:1036B000FDF72EFB0A220C210148FDF729FB1CBD5A
:1036C0000000024010B50446A0B203F001F910BD9D
:1036D00010B50446204603F017F910BD3EB5044668
:1036E00000250020029001900090207A01283DD111
:1036F000E068806B0190019820F480300190607A3E
:1037000028B1019820F4801000F5801001900198F4
:10371000E168886300200290E068C0680290029827
:1037200020F040000290029820F48000029002985D
:1037300020F400300290029820F4002002900298B9
:10374000E168C860204600F0C7F8E078012843D15E
:10375000009820F01E000A300090009820F0200011
:10376000203000900098E168886035E0E068C0682B
:103770000290029820F04000403002900298E168E8
:10378000C860204600F0A8F800200190019820F4BD
:10379000803000F580300190019820F4802000F501
:1037A00080200190019820F4002000F50020019075
:1037B000019820F4001000F500100190607A28B103
:1037C000019820F4801000F5801001900198E168C4
:1037D00088631420FFF776FFE07801280FD1E068B6
:1037E00080680090009820F01E000A300090009839
:1037F00020F02000203000900098E1688860284682
:103800003EBDFEB504460026002500200290019032
:1038100000902046FFF718FF0021D4F80C0101604A
:10382000207A012803D1204600F00DFC03E001219D
:10383000204600F008FC204600F05BFC6069006850
:103840000090009820F004000090009960690160E9
:10385000E07A01281DD18020E168486202986FF368
:103860000F0080300290029880B200F5C0000290F4
:103870000298E168886201986FF30F00E0300190D0
:10388000019880B200F5C00001900198E168C1F88C
:1038900000011021204600F021F9204600F0F8F840
:1038A00000250DE04FF0FF3104F1900050F82500A5
:1038B0008160002104F1900050F82500C1606D1C6A
:1038C0002078A842EED80121204600F04EF820468C
:1038D00000F0A4F83046FEBDF8B5044600260025E9
:1038E0000020009000BF0320FFF7F2FEE0680069AF
:1038F0000090681C05461349884201D90020F8BD94
:103900000098C00F0028EED00025009820F001009C
:10391000401C00900098E168086100BFE068006901
:103920000090681C05460749884200D904E00098C9
:1039300000F001000028F1D100BF0320FFF7C8FE0E
:103940003046DCE7400D030008B5014600200022A8
:103950000092009A22F00102521C0092CA689268FA
:10396000009B9A43CB689A6008BD38B505460C4663
:103970000020009021462846FFF767FE284600F009
:1039800088FB00900098C0F3003058B9012C09D191
:10399000009820F4805000F5805000900099D5F8F0
:1039A000CC0001600098C0F3003040B13CB90098F1
:1039B00020F4805000900099D5F8CC000160C82018
:1039C000FFF780FE38BD08B500210091491EC2688E
:1039D00051606FF08041C2685161009921F000414F
:1039E00001F100410091009921F4006101F50061AD
:1039F00000910099C268916108BD08B50146002098
:103A000000220092009A22F00102521C0092CA6821
:103A10009268009B1A43CB689A6008BD38B504468B
:103A2000002500200090E1688861401EE16848613F
:103A30002046FFF7C8FFE07820B9009820F010007A
:103A400010300090009820F0807000F1807000909D
:103A5000009820F0007000F100700090009820F0B5
:103A6000005000F100500090009820F0080008304D
:103A70000090009820F4001000F500100090E0681D
:103A80008069009988430843E1688861284638BD09
:103A9000F8B504460025002600200090009820F08C
:103AA0001000103000900098E168086100BFE068E5
:103AB00000690090701C06460749884200D904E05E
:103AC0000098C0F300100028F1D100BF0320FFF7D9
:103AD000FFFD2846F8BD0000400D0300F8B5044680
:103AE0000D460026002700200090009820F02000BE
:103AF00020300090009865F38A1000900098E168EB
:103B0000086100BFE06800690090781C074607491B
:103B1000884200D904E00098C0F340100028F1D199
:103B200000BF0320FFF7D4FD3046F8BD400D030071
:103B30000146C868406900F0010070471CB50246A4
:103B4000002000230093009B23F0004303F1004377
:103B500000930124009B64F3DC43009302F1900383
:103B600053F82130009C1C6102F1900353F821307E
:103B70001B680193019B23F0004303F10043019371
:103B8000019B23F08043019302F1900353F821300D
:103B9000019C1C601CBD10B586B0024600200023AD
:103BA0000393019302F1900353F821301B680093B3
:103BB000009B23F0004303F100430093009B23F09C
:103BC000804303F180430093009BC3F3814323B1FF
:103BD000009BC3F38143022B0BD1D368DB6A0393B1
:103BE000039BC3F307437BB9009B23F0004300937F
:103BF0000AE053691B690193019BC3F307431BB997
:103C0000009B23F00043009302F1900353F821300E
:103C1000009C1C6006B010BD3FB50246002000238A
:103C20000024029403940194441E009402F1900431
:103C300054F82140009DA56000240394D478012C01
:103C400004D1039C24F00404241D039402F56B7436
:103C500004EB4114647934B1012C6AD0022C03D0F6
:103C6000032C38D138E000BF039C24F00104641C0D
:103C70000394039C24F0080408340394039C24F068
:103C8000800480340394039C24F4806404F58064ED
:103C90000394039C24F010041034039402F56B7415
:103CA00004EB4114A47834B1039C24F4807404F52B
:103CB000807403940FE0039C24F040044034039488
:103CC00002F56B7404EB4114247924B1039C24F0B5
:103CD0002004203403944EE0039C24F00104641C6F
:103CE0000394039C24F0100410340394039C24F0E8
:103CF000080408340394039C24F080048034039463
:103D0000039C24F4806404F580640394039C24F4ED
:103D1000007404F50074039402F56B7404EB411411
:103D2000A4782CB1039C24F4807404F5807403946B
:103D300021E0039C24F00104641C0394039C24F4FC
:103D4000007404F500740394039C24F020042034D0
:103D5000039402F56B7404EB4114A47854B1039CF2
:103D600024F0800480340394039C24F4807404F5CC
:103D70008074039400BF00BF02F1900454F8214006
:103D8000039DE560012404FA01F35469A4691C430E
:103D90005569AC61029C24F0007404F10074029433
:103DA000D468A469029D2C43D568AC6100240194B9
:103DB00002F56B7404EB41142578019C65F39C5467
:103DC000019402F56B7404EB41146578019C65F372
:103DD000CE24019402F56B7404EB4114A578019C88
:103DE00065F3CF34019402F56B7404EB4114E4786D
:103DF000022C01D1012500E00025019C65F351440E
:103E0000019402F56B7404EB41146579019C65F330
:103E10009344019402F56B7404EB4114E588019C12
:103E200065F30A04019402F56B7404EB41146479A0
:103E3000032C05D1019C24F0005404F1005401949A
:103E400002F1900454F82140019D256004B030BD7A
:103E50002DE9F04388B004460D464FF00009C846EE
:103E60004FF48077002006900790009004F56B7067
:103E700000EB4510006910B304F56B7000EB4510C2
:103E8000016904F56B7000EB4510C0880144491EC0
:103E900004F56B7000EB4510C088B1FBF0F086B202
:103EA000BE420DDD3E4604F56B7000EB4510C18847
:103EB000714304F56B7000EB4510016100E00126D1
:103EC00004F56B7000EB4510807850B104F56B7011
:103ED00000EB4510C188714304F56B7000EB451091
:103EE000016104F56B7000EB45100169069861F300
:103EF00012000690069866F3DC40069004F56B709D
:103F000000EB4510017A069861F35E70069004F1AB
:103F1000900050F8250006990161E078012809D148
:103F200004F56B7000EB4510C16804F1900050F887
:103F30002500416104F1900050F8250000680790C9
:103F4000204600F08CF8079960F35D71079107989F
:103F500020F0004000F100400790079820F08040DA
:103F6000079004F1900050F8250007990160E0786F
:103F7000002864D104F56B7000EB451080780028B0
:103F80005DD104F56B7000EB45100069002856D038
:103F900004F56B7000EB4510407930B1012821D059
:103FA000022803D0032839D11BE000BFE068C06AB3
:103FB000039004F56B7000EB45100069C01CC0F362
:103FC0008F08039880B240450ADA009820F020005C
:103FD00020300090E068806900990843E1688861BA
:103FE0001DE000BF60690069019004F56B7000EB93
:103FF00045100069C01CC0F38F08019880B240458D
:104000000BDA009820F0806000F180600090E0689A
:10401000806900990843E168886100E000BF00BF43
:1040200004F56B7000EB4510008A83B204F56B70E9
:1040300000EB45102A46C168204600F0F3FF4846D1
:1040400008B0BDE8F08308B5426912680092009A92
:1040500061F301020092009B4269136008BD0146B2
:104060004869806800F0010080F00100704700B5E9
:1040700002461046FFF75CFD012800D100BD00207C
:10408000FCE701460020CA685069CA68926910407E
:10409000704708B50146D1F8CC0000680090009840
:1040A00020F004000090009820F00200009000989A
:1040B00020F008000090009820F020000090009868
:1040C00008BD0146486940697047F0B503460024C1
:1040D000D01CC71700EB9777BD10D3F8D06000BF96
:1040E00003E030680860641C091DAC42F9D308463F
:1040F000F0BD38B504462046FFF7CBFF009000988E
:1041000020F4807000F5807000900099D4F8CC0005
:1041100001600A20FFF7D6FA009820F48070009022
:104120000099D4F8CC0001601420FFF7CBFA0120ED
:1041300038BD000070B502460C4600230020002563
:10414000D5700125957040259580012C0CD14FF03C
:10415000A0430125D57208251570042555709D15BD
:10416000D580022515720AE04CB9254B0025D57281
:104170000C251570062555704FF4A065D580D360C9
:1041800003F500651561002110E003F5106505EBEE
:10419000411602F1180545F8216003F5306505EB7D
:1041A000411602F1540545F82160491C55788D42AD
:1041B000EBD803F5806555614035C2F8CC5000213D
:1041C00008E003F5A06505EB411602F1900545F8FE
:1041D0002160491C15788D42F3D8002108E003F5D1
:1041E000805505EB013602F1D00545F82160491CE8
:1041F00015788D42F3D803F56065C2F80C5170BD97
:1042000000000440F8B504460D460026E068C0688A
:104210000090009820F000500090009820F080401E
:104220000090012D06D1009820F0005000F10050C0
:10423000009006E02DB9009820F0804000F1804009
:1042400000900098E168C8603220FFF73BFA3046E2
:10425000F8BD000038B5044600200090074800680B
:10426000816820468847009820F0005000F10050F7
:1042700000900098E1684861012038BD18000020D6
:104280000CB50146D1F8900000680090009820F02D
:10429000004000F100400090009820F0804000F1C4
:1042A00080400090009AD1F89000026000200190B8
:1042B000019820F4001000F5001001900198CA68E0
:1042C000506101200CBD7CB505460024002628461F
:1042D000FFF7F7FE019000BF1BE0019880B20121BB
:1042E000A1400840A0B105F1900050F824000068FA
:1042F00000900098C0F3C03028B12146284600F055
:104300000DF8064304E02146284600F01CFA064357
:10431000641C2878A042E0D830467CBD70B586B0D9
:1043200005460C4605F1900050F82460B0680590F1
:10433000F0680490DDE904100840059005F1900054
:1043400050F8240000680390002004900598C0F302
:104350008000D0B100200190019820F00400001DE1
:1043600001900198B06005F1900050F82400C068F9
:104370000190019820F00200801C019005F190004E
:1043800050F824000199C16073E00598C0F3401013
:1043900048B100200190019820F0200020300190C9
:1043A0000198B06065E00598C0F3C00078B305F1EE
:1043B000900050F82400C0680190019820F002009D
:1043C000801C019005F1900050F824000199C16013
:1043D000052105F56370015500200190019820F03A
:1043E0001000103001900198B060002001900198F9
:1043F00020F00800083001900198B060059820F086
:1044000010000590E1B22846FFF7C5FB31E0FFE759
:104410000598C0F3802060B305F1900050F82400A7
:10442000C0680190019820F00200801C019005F105
:10443000900050F824000199C160E1B22846FFF7CE
:10444000AAFB00200190019820F01000103001908C
:104450000198B060082105F56370015500200190B6
:10446000019820F4806000F5806001900198B060B0
:1044700000BF0598C0F34020F8B105F1900050F856
:104480002400C0680190019820F00200801C019077
:1044900005F1900050F824000199C160E1B228466E
:1044A000FFF779FB00200190019820F4007000F5DF
:1044B000007001900198B06042E1059800F00100A1
:1044C000002871D0E878012812D105F1900050F849
:1044D00024000069029005F56B7000EB4410006940
:1044E0000299C1F31201411A05F5547040F82410E5
:1044F000012105F5637001550021783840F824103A
:1045000000200190019820F00100401C01900198CA
:10451000B0600398C0F3814020B10398C0F381409C
:1045200002282AD105F1900050F82400C0680190BB
:10453000019820F00200801C019005F1900050F8D5
:1045400024000199C160E1B22846FFF724FB002056
:104550000190019820F01000103001900198B06097
:1045600005F56B7000EB4410007E80F0010105F54D
:104570006B7000EB44100176E2E00398C0F38140D9
:10458000032899D1039820F0005000F100500390C7
:1045900005F1900050F8240003990160012105F213
:1045A0009B300155CCE0FFE70598C0F340000028A0
:1045B00051D005F1900050F82400C0680190019896
:1045C00020F00200019005F1900050F824000199BC
:1045D000C16005F56370005D012804D1012105F279
:1045E0009B3001552DE005F56370005D052804D171
:1045F000042105F29B30015523E005F56370005D51
:10460000062804D005F56370005D082808D1002154
:1046100005F5457040F8241003218730015510E05E
:104620000398C0F3814003280BD105F56B7000EBB4
:104630004410007E80F0010105F56B7000EB441022
:10464000017600200190019820F00200801C01906A
:104650000198B06074E00598C0F3C01040B305F154
:10466000900050F82400C0680190019820F00200EA
:10467000801C019005F1900050F824000199C16060
:1046800005F5457050F82410491C40F82410062107
:1046900078300155E1B22846FFF77DFA00200190FD
:1046A000019820F08000803001900198B06047E0D0
:1046B0000598C0F30010E8B30398C0F381400328C5
:1046C00015D105F1900050F82400C06801900198C0
:1046D00020F00200801C019005F1900050F82400A9
:1046E0000199C160E1B22846FFF755FA18E0039836
:1046F000C0F3814020B10398C0F3814002280FD15C
:10470000039820F0004000F100400390039820F04F
:104710008040039005F1900050F824000399016057
:10472000032105F56370015500200190019820F0E8
:10473000100000E004E0103001900198B06000BF6C
:10474000012006B070BD7FB505460C4605F190000E
:1047500050F82460B0680390F0680290DDE9021020
:104760000840039005F1900050F824000068019083
:104770000398C0F38000D0B100200090009820F092
:104780000400001D00900098B06005F1900050F802
:104790002400C0680090009820F00200801C009067
:1047A00005F1900050F824000099C160B0E1039831
:1047B000C0F3401048B100200090009820F0200085
:1047C000203000900098B060A2E10398C0F3402030
:1047D000F8B105F1900050F82400C06800900098EE
:1047E00020F00200801C009005F1900050F8240099
:1047F0000099C160E1B22846FFF7CDF90020009092
:10480000009820F4007000F5007000900098B060EF
:104810007EE1039800F0010038B3002105F54570F2
:1048200040F8241005F1900050F82400C068009072
:10483000009820F00200801C009005F1900050F8D4
:1048400024000099C160E1B22846FFF7A4F90020D6
:104850000090009820F00100401C00900098B0608B
:10486000012105F56370015552E10398C0F3C000C2
:1048700010B300200090009820F00800083000904D
:104880000098B06005F1900050F82400C0680090D6
:10489000009820F00200801C009005F1900050F874
:1048A00024000099C160E1B22846FFF774F90521A0
:1048B00005F5637001552BE10398C0F3001038B380
:1048C000002105F5457040F8241005F1900050F8DE
:1048D0002400C0680090009820F00200801C009026
:1048E00005F1900050F824000099C160E1B228461B
:1048F000FFF751F900200090009820F010001030D0
:1049000000900098B060032105F563700155FFE049
:104910000398C0F3C01040B305F1900050F8240094
:10492000C0680090009820F00200801C009005F103
:10493000900050F824000099C160E1B22846FFF7CA
:104940002AF905F5457050F82410491C40F8241048
:1049500006217830015500200090009820F080005A
:10496000803000900098B060D2E00398C0F38010CF
:1049700038B3002105F5457040F8241005F190008A
:1049800050F82400C0680090009820F00200801CBD
:10499000009005F1900050F824000099C160E1B248
:1049A0002846FFF7F8F800200090009820F040001B
:1049B000403000900098B060042105F56370015507
:1049C000A6E00398C0F3802060B305F1900050F892
:1049D0002400C0680090009820F00200801C009025
:1049E00005F1900050F824000099C160E1B228461A
:1049F000FFF7D1F800200090009820F01000103050
:104A000000900098B060082105F563700155002002
:104A10000090009820F4806000F58060009000987D
:104A2000B06075E00398C0F34000002870D005F135
:104A3000900050F82400C0680090009820F0020018
:104A4000009005F1900050F824000099C16005F530
:104A50006370005D012815D1012105F29B300155DD
:104A60000198C0F38140022848D105F56B7000EB36
:104A70004410407E80F0010105F56B7000EB44109E
:104A800041763BE005F56370005D032804D1022107
:104A900005F29B30015531E005F56370005D042897
:104AA0000FD105F56B7000EB44100079012803D19C
:104AB000E1B22846FFF742F8022105F29B3001558A
:104AC0001CE005F56370005D052804D1042105F2A2
:104AD0009B30015512E005F56370005D06280DD18D
:104AE00005F5457050F82400032807D1032105F28D
:104AF0009B3001550021873840F824100020009099
:104B0000009820F00200801C00900098B06000BF68
:104B1000012004B070BD7FB50446E068C06A009013
:104B20000198C0F3C30104F56B7000EB41100069FC
:104B3000C01CC0F38F0673E04FF6FF71009801EAC6
:104B400080050198C0F3C30104F56B7000EB4110C0
:104B50000069A84215D20198C0F3C30104F56B7037
:104B600000EB4110008A85B200200390039820F0EA
:104B7000200020300390E068806903998843E16851
:104B800088610198C0F3C30104F56B7000EB41101C
:104B90000069C01CC0F38F060198C0F3C302C0F3C4
:104BA000C30304F56B7000EB43102B46C16820462D
:104BB00000F038FA0198C0F3C30104F56B7000EB04
:104BC0004110C06841190198C0F3C30204F56B702D
:104BD00000EB4210C1600198C0F3C30104F56B7093
:104BE00000EB41100069411B0198C0F3C30204F5BA
:104BF0006B7000EB421001610198C0F3C30104F532
:104C00006B7000EB4110406941190198C0F3C30279
:104C100004F56B7000EB42104161E068C06A0090DF
:104C2000009880B2B0420ADD0198C0F3C30104F5D8
:104C30006B7000EB4110006900287FF47DAF01200C
:104C400004B070BDFEB5044600260025002000908B
:104C500002900190D4F8CC0000680290D4F8CC0007
:104C600000680190019820F004000190019820F064
:104C700002000190019820F008000190019820F0B6
:104C8000200001900298C0F3400058B1019820F034
:104C90000200801C01903248006841682046884725
:104CA00045F001050298C0F3C000002842D00198E9
:104CB00020F00800083001900298C0F3800000281E
:104CC00038D0274800684168204688470298C0F3DA
:104CD0004140022804D00298C0F34140012828D165
:104CE0006069006800900298C0F34140022811D129
:104CF00041F2707160694160009800F00300022881
:104D000018D0207A022803D102212046FFF79BF910
:104D100001260FE04BF6803160694160009800F099
:104D20000300012806D001212046FFF78CF9012657
:104D300000E001260298C0F3401030B1019820F045
:104D400020002030019045F0010516B12046FFF704
:104D5000D0F90199D4F8CC0001602846FEBD0000CE
:104D600018000020FEB504466069006900900198B3
:104D7000C0F3C30104F56B7000EB41100069C01C67
:104D8000C0F38F0674E04FF6FF71009801EA8005CA
:104D90000198C0F3C30104F56B7000EB411000698A
:104DA000A84216D20198C0F3C30104F56B7000EB62
:104DB0004110008A85B200200290029820F08060A5
:104DC00000F180600290E068806902998843E168A0
:104DD00088610198C0F3C30104F56B7000EB4110CA
:104DE0000069C01CC0F38F060198C0F3C302C0F372
:104DF000C30304F56B7000EB43102B46C1682046DB
:104E000000F010F90198C0F3C30104F56B7000EBDA
:104E10004110C06841190198C0F3C30204F56B70DA
:104E200000EB4210C1600198C0F3C30104F56B7040
:104E300000EB41100069411B0198C0F3C30204F567
:104E40006B7000EB421001610198C0F3C30104F5DF
:104E50006B7000EB4110406941190198C0F3C30227
:104E600004F56B7000EB42104161606900690090CD
:104E7000009880B2B0420ADD0198C0F3C30104F586
:104E80006B7000EB4110006900287FF47CAF0120BB
:104E9000FEBD30B585B00446002000900390039815
:104EA00020F0100010300390E06880690399884377
:104EB000E1688861E068006A0490049800F00F00DF
:104EC000009004F190009DF8001050F82100006857
:104ED00001900498C0F34340022806D0032878D0FC
:104EE000052877D0072873D175E00498C0F30A101D
:104EF000002869DD04F56B709DF8001000EB41108F
:104F0000C068002860D00498C0F30A1204F56B70E2
:104F10009DF8003000EB4310C1682046FFF7D5F83C
:104F2000049800F00F0104F56B7000EB4110C068AD
:104F30000499C1F30A110144049800F00F0204F52A
:104F40006B7000EB4210C160049800F00F0104F593
:104F50006B7000EB411040690499C1F30A110144E0
:104F6000049800F00F0204F56B7000EB42104161F1
:104F700004F56B709DF8001000EB4110456904F5D5
:104F800054709DF8001040F8215004F190009DF8F5
:104F9000001050F82100006902900298C0F3C94047
:104FA000002811DD019820F0004000F10040019040
:104FB000019820F08040019004F190009DF80020BD
:104FC000019950F82200016006E002E002E0FFE7EC
:104FD00000BF00BF00BF00BF00BF039820F010005B
:104FE00010300390E068806903990843E1688861A4
:104FF000012005B030BD000038B504460020009007
:1050000007480068016820468847009820F008009B
:10501000083000900098E1684861012038BD000028
:10502000180000202DE9F04104460026E078B0B9D0
:1050300000270020DD1C4FEAE57805EB98784FEA61
:10504000A80704F1D00555F822C000BF04E00D68A0
:10505000CCF80050401C091DB842F8D300BF3046C0
:10506000BDE8F0812DE9F0472DED028B84B00120E1
:105070006649087066A000F027FD4FF000084FF465
:10508000006003900024002765490122886865A11B
:1050900001F0D8FF8246002563480078FCF7E7F965
:1050A0002A466248017860480078FCF7ACF918E0BD
:1050B0004FF4FA715E4803F0C7F80746002F03DD8E
:1050C00039465B48FBF7BEFF5A48FBF790FE40B9F4
:1050D000012059490870404604B0BDEC028BBDE880
:1050E000F087564800780028E2D0012254A15848A1
:1050F000006801F0D5FF002866D156A000F0E4FC5E
:105100004E48007801285FD14AE04FF4006603ABB7
:1051100032465B494E48006802F082F859496018EF
:10512000BDF80C20564902F0D5FDBDF80C00044432
:105130006420604346490968C968B0FBF1F0C5B214
:10514000642095FBF0F100FB11594A46374801787D
:1051500035480078FCF757F900EE104AB8EE400ADF
:10516000DFED490A60EE200A3948006890ED030A35
:10517000B8EE400A80EE801A11EE109A4846FBF70E
:1051800029F841EC180B8DED008BA20A304800681D
:10519000C068810A3DA000F097FC142001F098FB44
:1051A000BDF80C00B0F5006FAFD02948006801F0E1
:1051B00037FF2A461D4801781B480078FCF723F981
:1051C0004FF4FA6001F084FB1C480078012810D1EC
:1051D0003A480078FCF74BF900F072F8012808D142
:1051E000FBF7AAFA4FF4FA7001F072FB0020FBF70C
:1051F000A3FA00BF0F48FBF7FAFD0028FAD1FCF72D
:1052000036F901200C49087000BF65E75A000020FC
:10521000BCECB2E2B5BD55C5CC2E2E2E0D0A000059
:10522000202F0020323A0000BA000020BB000020EE
:105230001E2D0020940100205B0000205D00002056
:10524000323A737972696E67652E62696E0000008A
:10525000C8000020BCECB2E2B5BD22737972696E61
:1052600067652E62696E22CEC4BCFEA3ACBFAACA1B
:10527000BCC9FDBCB64D43552E2E2E0D0A000000B4
:10528000DC150020000004080000C8424D4355C949
:10529000FDBCB6B9B2256C646B622CD2D1D6B4D049
:1052A000D025644B422CD2D1CDEAB3C925342E325D
:1052B0006625252E2E2E0D0A00000000B9000020C4
:1052C00070B501249020FBF7EDFA012813D12CA032
:1052D00000F0FAFB31A000F0F7FB00BF2CB19720E3
:1052E00000F0D2F8012800D00024282032490870AC
:1052F00032A000F0E9FB9720FBF7D4FA012813D184
:1053000035A000F0E1FB3BA000F0DEFB01245CB126
:10531000972000F0B9F8012806D00024282026495B
:1053200008703BA000F0D0FB9820FBF7BBFA0128E7
:1053300013D13EA000F0C8FB43A000F0C5FB012440
:105340002CB1982000F0A0F8012800D000243220D1
:105350001949087043A000F0B7FBFBF717FB08B929
:10536000002070BD002504E0284600F005FA681C06
:1053700085B2444800888542F6DB00BFF1E70000B3
:10538000BCECB2E2B5BD20CDBCC6ACCBF7D2FDCEF5
:10539000C4BCFE2E2E2E0D0A00000000BFAACABCFF
:1053A000C9FDBCB620CDBCC6ACCBF7D2FDCEC4BCCB
:1053B000FE2E2E2E0D0A000058000020CDBCC6ACDB
:1053C000CBF7D2FDCEC4BCFEC9FDBCB6CDEAB3C995
:1053D0002E2E2E0D0A000000BCECB2E2B5BD20CF8F
:1053E000B5CDB3C5E4D6C3CEC4BCFE2E2E2E0D0A59
:1053F00000000000BFAACABCC9FDBCB620CFB5CD15
:10540000B3C5E4D6C3CEC4BCFE2E2E2E0D0A0000BA
:10541000CDBCC6ACCBF7D2FDCEC4BCFE20C9FDBC12
:10542000B6CDEAB3C92E2E2E0D0A0000BCECB2E2B6
:10543000B5BD20CFB5CDB3D7CAD4B4CEC4BCFE2E33
:105440002E2E0D0A00000000BFAACABCC9FDBCB6C2
:1054500020CFB5CDB3D7CAD4B4CEC4BCFE2E2E2E29
:105460000D0A0000CDBCC6ACCBF7D2FDCEC4BCFE4D
:1054700020CFB5CDB3D7CAD4B4CEC4BCFE2E2E2E09
:105480000D0A0000600000202DE9F04F2DED028B89
:1054900087B006468848067088490122886888A136
:1054A00001F0D0FD07462FB1002007B0BDEC028B04
:1054B000BDE8F08FA6F19000092836D2DFE800F0B1
:1054C000050D151D353535252D0001227DA180489E
:1054D000006801F0E5FD074627E001227DA17C4838
:1054E000006801F0DDFD07461FE001227CA178483D
:1054F000006801F0D5FD074617E001227BA1744842
:10550000006801F0CDFD07460FE001227AA1704846
:10551000006801F0C5FD074607E001227AA16C484A
:10552000006801F0BDFD074600BF00BF0A2001F082
:10553000CFF90024002F7CD1FBF7A0F9012800D07F
:105540000124069674B90122114606A8FBF73CFF18
:1055500040B95F48006801F063FD4FF47A7001F0D4
:10556000B7F9022400200590002559480068D0F8BA
:105570000C804FF400600390002C72D14FF00009B2
:1055800078E00020029003904FF4006BB9F1000F17
:1055900010D103AB5A4660494D48006801F040FE07
:1055A0008246BAF1000F04D0322001F091F90324B1
:1055B00064E001E0002003900398C0B28DF8080079
:1055C0000398000A8DF809000398B0F5006F08D21F
:1055D000039803E00021504A1154401CB0F5006FBD
:1055E000F8DB0022022102A8FBF7EEFE0122D10225
:1055F0004948FBF7E9FE012801D004243EE0039866
:1056000005446420684332490968C968B0FBF1F079
:10561000C0B2049000EE105AB8EE400ADFED3F0A27
:1056200060EE200A2A48006890ED030AB8EE400AAE
:1056300000E033E080EE801A11EE10AA5046FAF72F
:10564000C9FD41EC180B8DED008BAA0A20480068BB
:10565000C068810A32A000F037FAB9F1010F01D118
:105660000CE00DE0454504D34FF001094FF4006014
:10567000039000BF0398B0F5006F82D000BF00BF59
:1056800024B9FBF7FDF9012800D005241048006873
:1056900001F0C6FC0A2001F01BF900BF1CB92BA0C9
:1056A00000F012FA03E021462CA000F00DFA0CB92C
:1056B0000120FAE60020F8E659000020202F002003
:1056C000323A0000323A696D6167652E696478008C
:1056D000C8000020323A666F6E742E62696E000058
:1056E000323A696D6167652E62696E00323A666FA3
:1056F0006E742E6964780000323A73637265656E69
:105700002E62696E00000000323A73797374656D21
:105710002E62696E00000000DC1500200000C84207
:10572000CEC4BCFEB9B2256C646B622CD2D1D6B4A7
:10573000D0D025646B622CD2D1CDEAB3C92020250C
:10574000342E326625252E2E2E0D0A00C9FDBCB63C
:10575000B3C9B9A62E2E2E0D0A000000C9FDBCB695
:10576000CAA7B0DC2CCAA7B0DCB4FAC2EB25642E01
:105770002E2E0D0A000000002DE9F04F2DED028BBA
:105780008DB0044699490122886899A101F05AFC1C
:105790000C900C9828B100200DB0BDEC028BBDE838
:1057A000F08F224693A1964800F09EF90122944979
:1057B0009448006801F074FC0C900C9808B100202B
:1057C000EAE7214690A000F07FF9974800EB04102B
:1057D000407B0004944901EB0411097B00EB01209C
:1057E000914901EB0411C97A00EB010B8E4800EBE3
:1057F0000410D0F803000B900B98C0F30A00C0F51A
:105800000067ABEB0700C0F30A000A90214687A0AF
:1058100000F05AF9FBF732F8012809D079480068FE
:1058200001F0FEFB4FF47A7001F052F80020B3E76C
:1058300085A0006809902046E11704EB1161091268
:10584000A4EB0121C9B28DF82510E11704EB116119
:10585000090A8DF826100122032109A8FBF7B4FDDF
:1058600048B96848006801F0DBFB4FF47A7001F03A
:105870002FF8002090E7002008900025614800687C
:10588000C06806904FF400600590002004900590D9
:1058900000264FF4006005904FF000084FF000091B
:1058A00080E04FF400600390B8F1000F00D103973F
:1058B000B9F1000F0FD105AB64495248039A006853
:1058C00001F0AEFC8246BAF1000F06D0322000F0A3
:1058D000FFFF03266BE0002005900598C0B28DF80D
:1058E00010000598000A8DF811000598B0F5006FBA
:1058F00008D2059803E00021544A1154401CB0F529
:10590000006FF8DB0022022104A8FBF75DFD0122F5
:10591000D1024E48FBF758FD012801D0042646E08D
:10592000059805446420684336490968C968B0FB96
:10593000F1F0C0B2079000EE105AB8EE400ADFED69
:10594000440A60EE200A2F48006890ED030AB8EE82
:10595000400A80EE801A8DED021A0298FAF73AFC9E
:1059600041EC180B8DED008BAB0A26480068C0682F
:10597000820A214637A000F0A7F8B8F1000F04D141
:105980004FF4006005904FF00108B9F1010F00D10C
:105990000DE00698854204D34FF4006005904FF067
:1059A000010900BF0598B0F5006F3FF47AAF00BF62
:1059B00026B9FBF765F8012800D0052611480068D4
:1059C00001F02EFB0A2000F083FF26B921462EA00D
:1059D00000F07AF804E03246214631A000F074F875
:1059E0000EB90120D8E60020D6E60000202F0020C6
:1059F000323A0000323A25642E62696E00000000DF
:105A0000FC280020C8000020BCECCBF7B5BDCDBC05
:105A1000C6ACCEC4BCFE25642E62696E20CEC4BC6A
:105A2000FE2E2E2E0D0A0000DC250020BFAACABCC7
:105A3000C9FDBCB625642E62696E20CEC4BCFE2EA4
:105A40002E2E0D0A0000000096000000DC1500203C
:105A50000000C84225642E62696E20CEC4BCFEB927
:105A6000B2256C646B622CD2D1D6B4D0D025646BD5
:105A7000622CD2D1CDEAB3C9202025342E3266253E
:105A8000252E2E2E0D0A000025642E62696E20C977
:105A9000FDBCB6B3C9B9A62E2E2E0D0A000000001B
:105AA00025642E62696E20C9FDBCB6CAA7B0DC2C85
:105AB000CAA7B0DCB4FAC2EB25642E2E2E0D0A0064
:105AC00000BE71B6FBF77AFA0FB4054B10B503A907
:105AD000044A029800F0EEF810BC5DF814FB0000D8
